{
  "address": "0x7380da0624A8219F54407A45eC14d44d4dc8fDD4",
  "abi": [
    {
      "inputs": [
        {
          "internalType": "address",
          "name": "forwarder",
          "type": "address"
        },
        {
          "internalType": "address[]",
          "name": "_owners",
          "type": "address[]"
        },
        {
          "internalType": "uint256",
          "name": "_required",
          "type": "uint256"
        }
      ],
      "stateMutability": "nonpayable",
      "type": "constructor"
    },
    {
      "anonymous": false,
      "inputs": [
        {
          "indexed": true,
          "internalType": "address",
          "name": "owner",
          "type": "address"
        },
        {
          "indexed": true,
          "internalType": "address",
          "name": "spender",
          "type": "address"
        },
        {
          "indexed": false,
          "internalType": "uint256",
          "name": "value",
          "type": "uint256"
        }
      ],
      "name": "Approval",
      "type": "event"
    },
    {
      "anonymous": false,
      "inputs": [
        {
          "indexed": true,
          "internalType": "uint256",
          "name": "sellerID",
          "type": "uint256"
        },
        {
          "indexed": true,
          "internalType": "uint256",
          "name": "buyerID",
          "type": "uint256"
        },
        {
          "indexed": true,
          "internalType": "uint256",
          "name": "unitEnergyPriceUSD",
          "type": "uint256"
        },
        {
          "indexed": false,
          "internalType": "uint256",
          "name": "unitEnergyPriceMatic",
          "type": "uint256"
        },
        {
          "indexed": false,
          "internalType": "uint256",
          "name": "boughtEnergyToken",
          "type": "uint256"
        }
      ],
      "name": "EnergyBought",
      "type": "event"
    },
    {
      "anonymous": false,
      "inputs": [
        {
          "indexed": true,
          "internalType": "uint256",
          "name": "sellerID",
          "type": "uint256"
        },
        {
          "indexed": false,
          "internalType": "uint256",
          "name": "unitEnergyPriceUSD",
          "type": "uint256"
        },
        {
          "indexed": false,
          "internalType": "uint256",
          "name": "unitEnergyPriceMatic",
          "type": "uint256"
        },
        {
          "indexed": false,
          "internalType": "uint256",
          "name": "listedEnergyToken",
          "type": "uint256"
        }
      ],
      "name": "EnergyListed",
      "type": "event"
    },
    {
      "anonymous": false,
      "inputs": [
        {
          "indexed": true,
          "internalType": "address",
          "name": "from",
          "type": "address"
        },
        {
          "indexed": true,
          "internalType": "address",
          "name": "to",
          "type": "address"
        },
        {
          "indexed": false,
          "internalType": "uint256",
          "name": "value",
          "type": "uint256"
        }
      ],
      "name": "Transfer",
      "type": "event"
    },
    {
      "inputs": [
        {
          "internalType": "uint256",
          "name": "",
          "type": "uint256"
        }
      ],
      "name": "ApprovedProsumers",
      "outputs": [
        {
          "internalType": "uint256",
          "name": "_prosumerID",
          "type": "uint256"
        },
        {
          "internalType": "address",
          "name": "_address",
          "type": "address"
        },
        {
          "internalType": "uint256",
          "name": "_aadharId",
          "type": "uint256"
        },
        {
          "internalType": "bool",
          "name": "_approved",
          "type": "bool"
        },
        {
          "internalType": "bool",
          "name": "_suspended",
          "type": "bool"
        },
        {
          "internalType": "uint256",
          "name": "_energyUnitPriceUSD",
          "type": "uint256"
        },
        {
          "internalType": "uint256",
          "name": "_energyUnitPriceMatic",
          "type": "uint256"
        },
        {
          "internalType": "uint256",
          "name": "_stakedEnergyBalance",
          "type": "uint256"
        }
      ],
      "stateMutability": "view",
      "type": "function"
    },
    {
      "inputs": [
        {
          "internalType": "uint256",
          "name": "_unApprovedProsumerID",
          "type": "uint256"
        }
      ],
      "name": "DisApproveProsumer_OwnerSpecific",
      "outputs": [],
      "stateMutability": "nonpayable",
      "type": "function"
    },
    {
      "inputs": [
        {
          "internalType": "address",
          "name": "owner",
          "type": "address"
        },
        {
          "internalType": "address",
          "name": "spender",
          "type": "address"
        }
      ],
      "name": "allowance",
      "outputs": [
        {
          "internalType": "uint256",
          "name": "",
          "type": "uint256"
        }
      ],
      "stateMutability": "view",
      "type": "function"
    },
    {
      "inputs": [
        {
          "internalType": "address",
          "name": "",
          "type": "address"
        }
      ],
      "name": "approvalCount",
      "outputs": [
        {
          "internalType": "uint256",
          "name": "",
          "type": "uint256"
        }
      ],
      "stateMutability": "view",
      "type": "function"
    },
    {
      "inputs": [
        {
          "internalType": "address",
          "name": "spender",
          "type": "address"
        },
        {
          "internalType": "uint256",
          "name": "amount",
          "type": "uint256"
        }
      ],
      "name": "approve",
      "outputs": [
        {
          "internalType": "bool",
          "name": "",
          "type": "bool"
        }
      ],
      "stateMutability": "nonpayable",
      "type": "function"
    },
    {
      "inputs": [
        {
          "internalType": "uint256",
          "name": "_unApprovedProsumerID",
          "type": "uint256"
        }
      ],
      "name": "approveProsumer_OwnerSpecific",
      "outputs": [],
      "stateMutability": "nonpayable",
      "type": "function"
    },
    {
      "inputs": [
        {
          "internalType": "address",
          "name": "",
          "type": "address"
        },
        {
          "internalType": "address",
          "name": "",
          "type": "address"
        }
      ],
      "name": "approved",
      "outputs": [
        {
          "internalType": "bool",
          "name": "",
          "type": "bool"
        }
      ],
      "stateMutability": "view",
      "type": "function"
    },
    {
      "inputs": [
        {
          "internalType": "address",
          "name": "account",
          "type": "address"
        }
      ],
      "name": "balanceOf",
      "outputs": [
        {
          "internalType": "uint256",
          "name": "",
          "type": "uint256"
        }
      ],
      "stateMutability": "view",
      "type": "function"
    },
    {
      "inputs": [
        {
          "internalType": "uint256",
          "name": "energyBurned",
          "type": "uint256"
        }
      ],
      "name": "burnEnergy",
      "outputs": [],
      "stateMutability": "nonpayable",
      "type": "function"
    },
    {
      "inputs": [
        {
          "internalType": "uint256",
          "name": "producerID",
          "type": "uint256"
        },
        {
          "internalType": "uint256",
          "name": "energy_need",
          "type": "uint256"
        }
      ],
      "name": "buyEnergy",
      "outputs": [],
      "stateMutability": "payable",
      "type": "function"
    },
    {
      "inputs": [],
      "name": "complainCount",
      "outputs": [
        {
          "internalType": "uint256",
          "name": "",
          "type": "uint256"
        }
      ],
      "stateMutability": "view",
      "type": "function"
    },
    {
      "inputs": [
        {
          "internalType": "uint256",
          "name": "",
          "type": "uint256"
        }
      ],
      "name": "complains",
      "outputs": [
        {
          "internalType": "uint256",
          "name": "_complainID",
          "type": "uint256"
        },
        {
          "internalType": "uint256",
          "name": "_complainant",
          "type": "uint256"
        },
        {
          "internalType": "uint256",
          "name": "_accused",
          "type": "uint256"
        },
        {
          "internalType": "string",
          "name": "_complain",
          "type": "string"
        },
        {
          "internalType": "bool",
          "name": "_resolved",
          "type": "bool"
        }
      ],
      "stateMutability": "view",
      "type": "function"
    },
    {
      "inputs": [],
      "name": "decimals",
      "outputs": [
        {
          "internalType": "uint8",
          "name": "",
          "type": "uint8"
        }
      ],
      "stateMutability": "view",
      "type": "function"
    },
    {
      "inputs": [
        {
          "internalType": "address",
          "name": "spender",
          "type": "address"
        },
        {
          "internalType": "uint256",
          "name": "subtractedValue",
          "type": "uint256"
        }
      ],
      "name": "decreaseAllowance",
      "outputs": [
        {
          "internalType": "bool",
          "name": "",
          "type": "bool"
        }
      ],
      "stateMutability": "nonpayable",
      "type": "function"
    },
    {
      "inputs": [
        {
          "internalType": "address",
          "name": "",
          "type": "address"
        }
      ],
      "name": "disapprovalCount",
      "outputs": [
        {
          "internalType": "uint256",
          "name": "",
          "type": "uint256"
        }
      ],
      "stateMutability": "view",
      "type": "function"
    },
    {
      "inputs": [
        {
          "internalType": "address",
          "name": "",
          "type": "address"
        },
        {
          "internalType": "address",
          "name": "",
          "type": "address"
        }
      ],
      "name": "disapproved",
      "outputs": [
        {
          "internalType": "bool",
          "name": "",
          "type": "bool"
        }
      ],
      "stateMutability": "view",
      "type": "function"
    },
    {
      "inputs": [],
      "name": "getLatestPrice",
      "outputs": [
        {
          "internalType": "int256",
          "name": "",
          "type": "int256"
        }
      ],
      "stateMutability": "view",
      "type": "function"
    },
    {
      "inputs": [],
      "name": "getTrustedForwarder",
      "outputs": [
        {
          "internalType": "address",
          "name": "forwarder",
          "type": "address"
        }
      ],
      "stateMutability": "view",
      "type": "function"
    },
    {
      "inputs": [
        {
          "internalType": "address",
          "name": "spender",
          "type": "address"
        },
        {
          "internalType": "uint256",
          "name": "addedValue",
          "type": "uint256"
        }
      ],
      "name": "increaseAllowance",
      "outputs": [
        {
          "internalType": "bool",
          "name": "",
          "type": "bool"
        }
      ],
      "stateMutability": "nonpayable",
      "type": "function"
    },
    {
      "inputs": [
        {
          "internalType": "address",
          "name": "",
          "type": "address"
        }
      ],
      "name": "isOwner",
      "outputs": [
        {
          "internalType": "bool",
          "name": "",
          "type": "bool"
        }
      ],
      "stateMutability": "view",
      "type": "function"
    },
    {
      "inputs": [
        {
          "internalType": "address",
          "name": "",
          "type": "address"
        }
      ],
      "name": "isProsumer",
      "outputs": [
        {
          "internalType": "bool",
          "name": "",
          "type": "bool"
        }
      ],
      "stateMutability": "view",
      "type": "function"
    },
    {
      "inputs": [
        {
          "internalType": "address",
          "name": "forwarder",
          "type": "address"
        }
      ],
      "name": "isTrustedForwarder",
      "outputs": [
        {
          "internalType": "bool",
          "name": "",
          "type": "bool"
        }
      ],
      "stateMutability": "view",
      "type": "function"
    },
    {
      "inputs": [
        {
          "internalType": "uint256",
          "name": "unitEnergyPrice",
          "type": "uint256"
        },
        {
          "internalType": "uint256",
          "name": "excessEnergyToken",
          "type": "uint256"
        }
      ],
      "name": "listEnergy",
      "outputs": [
        {
          "internalType": "uint256",
          "name": "",
          "type": "uint256"
        }
      ],
      "stateMutability": "nonpayable",
      "type": "function"
    },
    {
      "inputs": [],
      "name": "maxComplains",
      "outputs": [
        {
          "internalType": "uint256",
          "name": "",
          "type": "uint256"
        }
      ],
      "stateMutability": "view",
      "type": "function"
    },
    {
      "inputs": [],
      "name": "mySetUnitPrice_Matic",
      "outputs": [
        {
          "internalType": "uint256",
          "name": "",
          "type": "uint256"
        }
      ],
      "stateMutability": "view",
      "type": "function"
    },
    {
      "inputs": [],
      "name": "mySetUnitPrice_USD",
      "outputs": [
        {
          "internalType": "uint256",
          "name": "",
          "type": "uint256"
        }
      ],
      "stateMutability": "view",
      "type": "function"
    },
    {
      "inputs": [],
      "name": "name",
      "outputs": [
        {
          "internalType": "string",
          "name": "",
          "type": "string"
        }
      ],
      "stateMutability": "view",
      "type": "function"
    },
    {
      "inputs": [
        {
          "internalType": "uint256",
          "name": "",
          "type": "uint256"
        }
      ],
      "name": "owners",
      "outputs": [
        {
          "internalType": "address",
          "name": "",
          "type": "address"
        }
      ],
      "stateMutability": "view",
      "type": "function"
    },
    {
      "inputs": [
        {
          "internalType": "uint256",
          "name": "energyProduced",
          "type": "uint256"
        }
      ],
      "name": "produceEnergy",
      "outputs": [],
      "stateMutability": "nonpayable",
      "type": "function"
    },
    {
      "inputs": [
        {
          "internalType": "uint256",
          "name": "",
          "type": "uint256"
        }
      ],
      "name": "prosumerAddress",
      "outputs": [
        {
          "internalType": "address",
          "name": "",
          "type": "address"
        }
      ],
      "stateMutability": "view",
      "type": "function"
    },
    {
      "inputs": [
        {
          "internalType": "address",
          "name": "",
          "type": "address"
        }
      ],
      "name": "prosumerID",
      "outputs": [
        {
          "internalType": "uint256",
          "name": "",
          "type": "uint256"
        }
      ],
      "stateMutability": "view",
      "type": "function"
    },
    {
      "inputs": [
        {
          "internalType": "uint256",
          "name": "_prosumerId",
          "type": "uint256"
        },
        {
          "internalType": "string",
          "name": "_complainBody",
          "type": "string"
        }
      ],
      "name": "raiseComplain",
      "outputs": [],
      "stateMutability": "nonpayable",
      "type": "function"
    },
    {
      "inputs": [],
      "name": "regFee",
      "outputs": [
        {
          "internalType": "uint256",
          "name": "",
          "type": "uint256"
        }
      ],
      "stateMutability": "view",
      "type": "function"
    },
    {
      "inputs": [
        {
          "internalType": "uint256",
          "name": "_aadharNo",
          "type": "uint256"
        }
      ],
      "name": "req_Registration",
      "outputs": [],
      "stateMutability": "payable",
      "type": "function"
    },
    {
      "inputs": [],
      "name": "required",
      "outputs": [
        {
          "internalType": "uint256",
          "name": "",
          "type": "uint256"
        }
      ],
      "stateMutability": "view",
      "type": "function"
    },
    {
      "inputs": [
        {
          "internalType": "uint256",
          "name": "_regFee",
          "type": "uint256"
        }
      ],
      "name": "setRegFee",
      "outputs": [],
      "stateMutability": "nonpayable",
      "type": "function"
    },
    {
      "inputs": [
        {
          "internalType": "address",
          "name": "_unapprovedProsumerAddress",
          "type": "address"
        }
      ],
      "name": "showApprovalStatus_OwnerSpecific",
      "outputs": [
        {
          "internalType": "string",
          "name": "",
          "type": "string"
        }
      ],
      "stateMutability": "view",
      "type": "function"
    },
    {
      "inputs": [],
      "name": "show_Approved_Prosumers",
      "outputs": [
        {
          "components": [
            {
              "internalType": "uint256",
              "name": "_prosumerID",
              "type": "uint256"
            },
            {
              "internalType": "address",
              "name": "_address",
              "type": "address"
            },
            {
              "internalType": "uint256",
              "name": "_aadharId",
              "type": "uint256"
            },
            {
              "internalType": "bool",
              "name": "_approved",
              "type": "bool"
            },
            {
              "internalType": "bool",
              "name": "_suspended",
              "type": "bool"
            },
            {
              "internalType": "uint256",
              "name": "_energyUnitPriceUSD",
              "type": "uint256"
            },
            {
              "internalType": "uint256",
              "name": "_energyUnitPriceMatic",
              "type": "uint256"
            },
            {
              "internalType": "uint256",
              "name": "_stakedEnergyBalance",
              "type": "uint256"
            }
          ],
          "internalType": "struct MultiSig.prosumer[]",
          "name": "",
          "type": "tuple[]"
        }
      ],
      "stateMutability": "view",
      "type": "function"
    },
    {
      "inputs": [],
      "name": "show_Unapproved_Prosumers",
      "outputs": [
        {
          "components": [
            {
              "internalType": "uint256",
              "name": "_prosumerID",
              "type": "uint256"
            },
            {
              "internalType": "address",
              "name": "_address",
              "type": "address"
            },
            {
              "internalType": "uint256",
              "name": "_aadharId",
              "type": "uint256"
            },
            {
              "internalType": "bool",
              "name": "_approved",
              "type": "bool"
            },
            {
              "internalType": "bool",
              "name": "_suspended",
              "type": "bool"
            },
            {
              "internalType": "uint256",
              "name": "_energyUnitPriceUSD",
              "type": "uint256"
            },
            {
              "internalType": "uint256",
              "name": "_energyUnitPriceMatic",
              "type": "uint256"
            },
            {
              "internalType": "uint256",
              "name": "_stakedEnergyBalance",
              "type": "uint256"
            }
          ],
          "internalType": "struct MultiSig.prosumer[]",
          "name": "",
          "type": "tuple[]"
        }
      ],
      "stateMutability": "view",
      "type": "function"
    },
    {
      "inputs": [
        {
          "internalType": "uint256",
          "name": "_prosumerId",
          "type": "uint256"
        },
        {
          "internalType": "uint256",
          "name": "_complainId",
          "type": "uint256"
        }
      ],
      "name": "suspendProsumer",
      "outputs": [],
      "stateMutability": "nonpayable",
      "type": "function"
    },
    {
      "inputs": [
        {
          "internalType": "address",
          "name": "",
          "type": "address"
        },
        {
          "internalType": "address",
          "name": "",
          "type": "address"
        }
      ],
      "name": "suspended",
      "outputs": [
        {
          "internalType": "bool",
          "name": "",
          "type": "bool"
        }
      ],
      "stateMutability": "view",
      "type": "function"
    },
    {
      "inputs": [
        {
          "internalType": "address",
          "name": "",
          "type": "address"
        }
      ],
      "name": "suspensionCount",
      "outputs": [
        {
          "internalType": "uint256",
          "name": "",
          "type": "uint256"
        }
      ],
      "stateMutability": "view",
      "type": "function"
    },
    {
      "inputs": [],
      "name": "symbol",
      "outputs": [
        {
          "internalType": "string",
          "name": "",
          "type": "string"
        }
      ],
      "stateMutability": "view",
      "type": "function"
    },
    {
      "inputs": [],
      "name": "totalSupply",
      "outputs": [
        {
          "internalType": "uint256",
          "name": "",
          "type": "uint256"
        }
      ],
      "stateMutability": "view",
      "type": "function"
    },
    {
      "inputs": [
        {
          "internalType": "address",
          "name": "to",
          "type": "address"
        },
        {
          "internalType": "uint256",
          "name": "amount",
          "type": "uint256"
        }
      ],
      "name": "transfer",
      "outputs": [
        {
          "internalType": "bool",
          "name": "",
          "type": "bool"
        }
      ],
      "stateMutability": "nonpayable",
      "type": "function"
    },
    {
      "inputs": [
        {
          "internalType": "address",
          "name": "from",
          "type": "address"
        },
        {
          "internalType": "address",
          "name": "to",
          "type": "address"
        },
        {
          "internalType": "uint256",
          "name": "amount",
          "type": "uint256"
        }
      ],
      "name": "transferFrom",
      "outputs": [
        {
          "internalType": "bool",
          "name": "",
          "type": "bool"
        }
      ],
      "stateMutability": "nonpayable",
      "type": "function"
    },
    {
      "inputs": [
        {
          "internalType": "address",
          "name": "newOwner",
          "type": "address"
        }
      ],
      "name": "transferOwnership",
      "outputs": [],
      "stateMutability": "nonpayable",
      "type": "function"
    },
    {
      "inputs": [
        {
          "internalType": "uint256",
          "name": "",
          "type": "uint256"
        }
      ],
      "name": "unApprovedProsumers",
      "outputs": [
        {
          "internalType": "uint256",
          "name": "_prosumerID",
          "type": "uint256"
        },
        {
          "internalType": "address",
          "name": "_address",
          "type": "address"
        },
        {
          "internalType": "uint256",
          "name": "_aadharId",
          "type": "uint256"
        },
        {
          "internalType": "bool",
          "name": "_approved",
          "type": "bool"
        },
        {
          "internalType": "bool",
          "name": "_suspended",
          "type": "bool"
        },
        {
          "internalType": "uint256",
          "name": "_energyUnitPriceUSD",
          "type": "uint256"
        },
        {
          "internalType": "uint256",
          "name": "_energyUnitPriceMatic",
          "type": "uint256"
        },
        {
          "internalType": "uint256",
          "name": "_stakedEnergyBalance",
          "type": "uint256"
        }
      ],
      "stateMutability": "view",
      "type": "function"
    },
    {
      "inputs": [
        {
          "internalType": "uint256",
          "name": "_prosumerId",
          "type": "uint256"
        },
        {
          "internalType": "uint256",
          "name": "_complainId",
          "type": "uint256"
        }
      ],
      "name": "unSuspendProsumer",
      "outputs": [],
      "stateMutability": "nonpayable",
      "type": "function"
    },
    {
      "inputs": [
        {
          "internalType": "address",
          "name": "",
          "type": "address"
        },
        {
          "internalType": "address",
          "name": "",
          "type": "address"
        }
      ],
      "name": "unSuspended",
      "outputs": [
        {
          "internalType": "bool",
          "name": "",
          "type": "bool"
        }
      ],
      "stateMutability": "view",
      "type": "function"
    },
    {
      "inputs": [
        {
          "internalType": "address",
          "name": "",
          "type": "address"
        }
      ],
      "name": "unSuspensionCount",
      "outputs": [
        {
          "internalType": "uint256",
          "name": "",
          "type": "uint256"
        }
      ],
      "stateMutability": "view",
      "type": "function"
    },
    {
      "inputs": [],
      "name": "versionRecipient",
      "outputs": [
        {
          "internalType": "string",
          "name": "",
          "type": "string"
        }
      ],
      "stateMutability": "view",
      "type": "function"
    },
    {
      "inputs": [],
      "name": "viewEnergyBalance",
      "outputs": [
        {
          "internalType": "uint256",
          "name": "",
          "type": "uint256"
        }
      ],
      "stateMutability": "view",
      "type": "function"
    },
    {
      "inputs": [],
      "name": "viewEscrowBalance",
      "outputs": [
        {
          "internalType": "uint256",
          "name": "",
          "type": "uint256"
        },
        {
          "internalType": "uint256",
          "name": "",
          "type": "uint256"
        }
      ],
      "stateMutability": "view",
      "type": "function"
    },
    {
      "inputs": [],
      "name": "viewMaticBalance",
      "outputs": [
        {
          "internalType": "uint256",
          "name": "",
          "type": "uint256"
        }
      ],
      "stateMutability": "view",
      "type": "function"
    },
    {
      "inputs": [],
      "name": "withdrawFees",
      "outputs": [],
      "stateMutability": "nonpayable",
      "type": "function"
    }
  ],
  "transactionHash": "0x8b01750e13ed8ce25fea6decd15c7dc50496b09fe10e4f096669336231c70d6f",
  "args": [
    "0xB2b5841DBeF766d4b521221732F9B618fCf34A87",
    [
      "0x85b3dB26424a88e7C1319E40a6324d64Acf1fFA2",
      "0xaA644EfCDFC1Adaf3CAb69Ae683638f4705F4C81",
      "0xB6E7F3234C709B6C96a60D14A85d41FADDd22FDA"
    ],
    2
  ],
  "numDeployments": 4,
  "solcInputHash": "84ab0b400f4a294f3dff3aae51a23711",
  "bytecode": "0x600a60195560c060405260056080819052640332e302e360dc1b60a09081526200002d91601b919062000354565b503480156200003b57600080fd5b5060405162004e5938038062004e598339810160408190526200005e916200042d565b604080518082018252600b81526a22b732b93c902a37b5b2b760a91b6020808301918252835180850190945260048452631553925560e21b9084015281518693869386939092620000b29160039162000354565b508051620000c890600490602084019062000354565b5050600580546001600160a01b03191673d0d5e3db44de05e9f294bb0a3beeaf030de24ada179055506200011883600680546001600160a01b0319166001600160a01b0392909216919091179055565b6000825111620001615760405162461bcd60e51b815260206004820152600f60248201526e13dddb995c9cc814995c5d5a5c9959608a1b60448201526064015b60405180910390fd5b60008111801562000173575081518111155b620001cb5760405162461bcd60e51b815260206004820152602160248201527f496e76616c6964207265717569726564206e756d626572206f66206f776e65726044820152607360f81b606482015260840162000158565b60005b825181101562000332576000838281518110620001ef57620001ef6200051f565b6020026020010151905060006001600160a01b0316816001600160a01b031614156200024e5760405162461bcd60e51b815260206004820152600d60248201526c34b73b30b634b21037bbb732b960991b604482015260640162000158565b6001600160a01b0381166000908152600a602052604090205460ff1615620002b95760405162461bcd60e51b815260206004820152601360248201527f4f776e6572206973206e6f7420756e6971756500000000000000000000000000604482015260640162000158565b6001600160a01b03166000818152600a60205260408120805460ff191660019081179091556009805491820181559091527f6e1540171b6c0c960b71a7020d9f60077f6af931a8bbf590da0223dacf75c7af0180546001600160a01b031916909117905580620003298162000535565b915050620001ce565b506007555050601c80546001600160a01b03191630179055506200059c915050565b82805462000362906200055f565b90600052602060002090601f016020900481019282620003865760008555620003d1565b82601f10620003a157805160ff1916838001178555620003d1565b82800160010185558215620003d1579182015b82811115620003d1578251825591602001919060010190620003b4565b50620003df929150620003e3565b5090565b5b80821115620003df5760008155600101620003e4565b80516001600160a01b03811681146200041257600080fd5b919050565b634e487b7160e01b600052604160045260246000fd5b6000806000606084860312156200044357600080fd5b6200044e84620003fa565b602085810151919450906001600160401b03808211156200046e57600080fd5b818701915087601f8301126200048357600080fd5b81518181111562000498576200049862000417565b8060051b604051601f19603f83011681018181108582111715620004c057620004c062000417565b60405291825284820192508381018501918a831115620004df57600080fd5b938501935b828510156200050857620004f885620003fa565b84529385019392850192620004e4565b809750505050505050604084015190509250925092565b634e487b7160e01b600052603260045260246000fd5b60006000198214156200055857634e487b7160e01b600052601160045260246000fd5b5060010190565b600181811c908216806200057457607f821691505b602082108114156200059657634e487b7160e01b600052602260045260246000fd5b50919050565b6148ad80620005ac6000396000f3fe60806040526004361061036a5760003560e01c80637b78bc6b116101c6578063c7a7275e116100f7578063e706d56811610095578063f2fde38b1161006f578063f2fde38b14610ae8578063f4b1604514610b08578063f85bae7814610b43578063fdbd2e8b14610b7e57600080fd5b8063e706d56814610a93578063e7e4f9d914610aa8578063e814db5914610ac857600080fd5b8063cdb6d52d116100d1578063cdb6d52d14610a06578063ce1b815f14610a19578063dc8452cd14610a37578063dd62ed3e14610a4d57600080fd5b8063c7a7275e146109a6578063c8a9fb5e146109c6578063c8b6ba49146109e657600080fd5b806390f8ba3c116101645780639c01a6df1161013e5780639c01a6df146109335780639ff3411514610953578063a457c2d714610966578063a9059cbb1461098657600080fd5b806390f8ba3c146108c457806395d89b41146108f15780639a9ddd161461090657600080fd5b80638bda812f116101a05780638bda812f1461084f5780638e15f473146108635780638fac6371146108785780638fff20f3146108ae57600080fd5b80637b78bc6b146107ed5780637fb400f91461080d57806383ae03671461082d57600080fd5b8063476343ee116102a0578063572b6c051161023e57806366cc771f1161021857806366cc771f1461073957806370a082311461076657806373de8ce81461079c57806375ae81b3146107b257600080fd5b8063572b6c05146106ad5780635f81b606146106dc578063612536fc1461071757600080fd5b80634ea30b2f1161027a5780634ea30b2f146105ec5780634ec9dd8d1461061d5780634ef8ab771461063257806350a7ac251461069757600080fd5b8063476343ee146105a2578063486ff0cd146105b75780634ca46d19146105cc57600080fd5b806318160ddd1161030d578063313ce567116102e7578063313ce567146105025780633628c3331461051e578063395093511461056257806340cb33421461058257600080fd5b806318160ddd1461049d57806323b872dd146104b25780632f54bf6e146104d257600080fd5b8063095ea7b311610349578063095ea7b3146104095780630b6d83e2146104395780630e264f801461045b578063143859eb1461047057600080fd5b80621cfdce1461036f578063025e7c27146103af57806306fdde03146103e7575b600080fd5b34801561037b57600080fd5b5061039c61038a3660046143d8565b60136020526000908152604090205481565b6040519081526020015b60405180910390f35b3480156103bb57600080fd5b506103cf6103ca3660046143fa565b610bae565b6040516001600160a01b0390911681526020016103a6565b3480156103f357600080fd5b506103fc610bd8565b6040516103a69190614460565b34801561041557600080fd5b50610429610424366004614473565b610c6a565b60405190151581526020016103a6565b34801561044557600080fd5b506104596104543660046143fa565b610c8c565b005b34801561046757600080fd5b5061039c610d7b565b34801561047c57600080fd5b5061039c61048b3660046143d8565b60176020526000908152604090205481565b3480156104a957600080fd5b5060025461039c565b3480156104be57600080fd5b506104296104cd36600461449d565b610e0f565b3480156104de57600080fd5b506104296104ed3660046143d8565b600a6020526000908152604090205460ff1681565b34801561050e57600080fd5b50604051601281526020016103a6565b34801561052a57600080fd5b5061054d601c546001600160a01b03166000908152602081905260409020544791565b604080519283526020830191909152016103a6565b34801561056e57600080fd5b5061042961057d366004614473565b610e3d565b34801561058e57600080fd5b5061045961059d3660046144d9565b610e8f565b3480156105ae57600080fd5b506104596111ec565b3480156105c357600080fd5b506103fc611342565b3480156105d857600080fd5b506104596105e73660046143fa565b6113d0565b3480156105f857600080fd5b5061060c6106073660046143fa565b61182d565b6040516103a69594939291906144fb565b34801561062957600080fd5b5061039c6118fe565b34801561063e57600080fd5b5061065261064d3660046143fa565b611992565b604080519889526001600160a01b0390971660208901529587019490945291151560608601521515608085015260a084015260c083015260e0820152610100016103a6565b3480156106a357600080fd5b5061039c60195481565b3480156106b957600080fd5b506104296106c83660046143d8565b6006546001600160a01b0391821691161490565b3480156106e857600080fd5b506104296106f7366004614534565b600d60209081526000928352604080842090915290825290205460ff1681565b34801561072357600080fd5b5061072c6119f6565b6040516103a69190614567565b34801561074557600080fd5b5061039c6107543660046143d8565b60156020526000908152604090205481565b34801561077257600080fd5b5061039c6107813660046143d8565b6001600160a01b031660009081526020819052604090205490565b3480156107a857600080fd5b5061039c60185481565b3480156107be57600080fd5b506104296107cd366004614534565b600e60209081526000928352604080842090915290825290205460ff1681565b3480156107f957600080fd5b506103fc6108083660046143d8565b611ab6565b34801561081957600080fd5b506104596108283660046143fa565b611c4c565b34801561083957600080fd5b503360009081526020819052604090205461039c565b34801561085b57600080fd5b50333161039c565b34801561086f57600080fd5b5061039c611d38565b34801561088457600080fd5b506103cf6108933660046143fa565b6012602052600090815260409020546001600160a01b031681565b3480156108ba57600080fd5b5061039c60085481565b3480156108d057600080fd5b5061039c6108df3660046143d8565b60166020526000908152604090205481565b3480156108fd57600080fd5b506103fc611dcc565b34801561091257600080fd5b5061039c6109213660046143d8565b60146020526000908152604090205481565b34801561093f57600080fd5b5061065261094e3660046143fa565b611ddb565b6104596109613660046143fa565b611deb565b34801561097257600080fd5b50610429610981366004614473565b6121db565b34801561099257600080fd5b506104296109a1366004614473565b612292565b3480156109b257600080fd5b506104596109c13660046143fa565b6122aa565b3480156109d257600080fd5b5061039c6109e13660046144d9565b61289b565b3480156109f257600080fd5b50610459610a01366004614617565b612b75565b610459610a143660046144d9565b6130b6565b348015610a2557600080fd5b506006546001600160a01b03166103cf565b348015610a4357600080fd5b5061039c60075481565b348015610a5957600080fd5b5061039c610a68366004614534565b6001600160a01b03918216600090815260016020908152604080832093909416825291909152205490565b348015610a9f57600080fd5b5061072c6134ae565b348015610ab457600080fd5b50610459610ac33660046144d9565b6135c1565b348015610ad457600080fd5b50610459610ae33660046143fa565b613876565b348015610af457600080fd5b50610459610b033660046143d8565b6138dc565b348015610b1457600080fd5b50610429610b23366004614534565b600b60209081526000928352604080842090915290825290205460ff1681565b348015610b4f57600080fd5b50610429610b5e366004614534565b600c60209081526000928352604080842090915290825290205460ff1681565b348015610b8a57600080fd5b50610429610b993660046143d8565b60116020526000908152604090205460ff1681565b60098181548110610bbe57600080fd5b6000918252602090912001546001600160a01b0316905081565b606060038054610be7906146d2565b80601f0160208091040260200160405190810160405280929190818152602001828054610c13906146d2565b8015610c605780601f10610c3557610100808354040283529160200191610c60565b820191906000526020600020905b815481529060010190602001808311610c4357829003601f168201915b5050505050905090565b600080610c756139e1565b9050610c828185856139eb565b5060019392505050565b3360009081526011602052604090205460ff16610cdf5760405162461bcd60e51b815260206004820152600c60248201526b2737ba10283937b9bab6b2b960a11b60448201526064015b60405180910390fd5b33600090815260136020526040902054600f90610cfe90600190614723565b81548110610d0e57610d0e61473a565b906000526020600020906007020160030160019054906101000a900460ff1615610d6e5760405162461bcd60e51b8152602060048201526011602482015270165bdd48185c994814dd5cdc195b991959607a1b6044820152606401610cd6565b610d783382613b43565b50565b3360009081526011602052604081205460ff16610dc95760405162461bcd60e51b815260206004820152600c60248201526b2737ba10283937b9bab6b2b960a11b6044820152606401610cd6565b33600090815260136020526040902054600f90610de890600190614723565b81548110610df857610df861473a565b906000526020600020906007020160040154905090565b600080610e1a6139e1565b9050610e27858285613c02565b610e32858585613c8e565b506001949350505050565b600080610e486139e1565b9050610c82818585610e8085896001600160a01b03918216600090815260016020908152604080832093909416825291909152205490565b610e8a9190614750565b6139eb565b600a6000610e9b6139e1565b6001600160a01b0316815260208101919091526040016000205460ff16610ef05760405162461bcd60e51b81526020600482015260096024820152682737ba1027bbb732b960b91b6044820152606401610cd6565b6000828152601260209081526040808320546001600160a01b03168352601190915290205460ff16610f645760405162461bcd60e51b815260206004820152600e60248201527f4e6f7420612050726f73756d65720000000000000000000000000000000000006044820152606401610cd6565b6000828152601260209081526040808320546001600160a01b03168352600e909152812090610f916139e1565b6001600160a01b0316815260208101919091526040016000205460ff1615610ffb5760405162461bcd60e51b815260206004820152601360248201527f416c726561647920556e73757370656e646564000000000000000000000000006044820152606401610cd6565b6000828152601260209081526040808320546001600160a01b0316808452600e909252822090916001919061102e6139e1565b6001600160a01b03908116825260208083019390935260409182016000908120805460ff19169515159590951790945584168352600d9091528120906110726139e1565b6001600160a01b0316815260208101919091526040016000205460ff1615611102576001600160a01b0381166000908152600d60205260408120816110b56139e1565b6001600160a01b03908116825260208083019390935260409182016000908120805460ff19169515159590951790945584168352601690915281208054916110fc83614768565b91905055505b6001600160a01b0381166000908152601760205260408120805490826111278361477f565b9190505590506007548111156111e6576001600160a01b038216600090815260176020908152604080832083905560169091528120819055600f61116c600187614723565b8154811061117c5761117c61473a565b6000918252602090912060036007909202010180549115156101000261ff00199092169190911790556001601a6111b38286614723565b815481106111c3576111c361473a565b60009182526020909120600590910201600401805460ff19169115159190911790555b50505050565b600a60006111f86139e1565b6001600160a01b0316815260208101919091526040016000205460ff1661124d5760405162461bcd60e51b81526020600482015260096024820152682737ba1027bbb732b960b91b6044820152606401610cd6565b60095460009061125d90476147b0565b905060005b60095481101561133e576000600982815481106112815761128161473a565b60009182526020822001546040516001600160a01b039091169185919081818185875af1925050503d80600081146112d5576040519150601f19603f3d011682016040523d82523d6000602084013e6112da565b606091505b505090508061132b5760405162461bcd60e51b815260206004820152600b60248201527f43616c6c204661696c65640000000000000000000000000000000000000000006044820152606401610cd6565b50806113368161477f565b915050611262565b5050565b601b805461134f906146d2565b80601f016020809104026020016040519081016040528092919081815260200182805461137b906146d2565b80156113c85780601f1061139d576101008083540402835291602001916113c8565b820191906000526020600020905b8154815290600101906020018083116113ab57829003601f168201915b505050505081565b600a60006113dc6139e1565b6001600160a01b0316815260208101919091526040016000205460ff166114315760405162461bcd60e51b81526020600482015260096024820152682737ba1027bbb732b960b91b6044820152606401610cd6565b60105481106114825760405162461bcd60e51b815260206004820152601e60248201527f496e76616c696420556e617070726f7665642050726f73756d657220494400006044820152606401610cd6565b600c6000601083815481106114995761149961473a565b60009182526020808320600160079093020191909101546001600160a01b031683528201929092526040018120906114cf6139e1565b6001600160a01b0316815260208101919091526040016000205460ff161561155f5760405162461bcd60e51b815260206004820152602360248201527f50726f73756d657220416c726561647920646973617070726f7665642062792060448201527f796f7500000000000000000000000000000000000000000000000000000000006064820152608401610cd6565b6001600c6000601084815481106115785761157861473a565b60009182526020808320600160079093020191909101546001600160a01b031683528201929092526040018120906115ae6139e1565b6001600160a01b03166001600160a01b0316815260200190815260200160002060006101000a81548160ff021916908315150217905550600c6000601083815481106115fc576115fc61473a565b60009182526020808320600160079093020191909101546001600160a01b031683528201929092526040018120906116326139e1565b6001600160a01b0316815260208101919091526040016000205460ff1615611730576000600b60006010848154811061166d5761166d61473a565b60009182526020808320600160079093020191909101546001600160a01b031683528201929092526040018120906116a36139e1565b6001600160a01b03166001600160a01b0316815260200190815260200160002060006101000a81548160ff02191690831515021790555060146000601083815481106116f1576116f161473a565b60009182526020808320600160079093020191909101546001600160a01b03168352820192909252604001812080549161172a83614768565b91905055505b600060156000601084815481106117495761174961473a565b60009182526020808320600160079093020191909101546001600160a01b0316835282019290925260400181208054916117828361477f565b91905055905060075481111561133e5761179b82613e7b565b60156000601084815481106117b2576117b261473a565b60009182526020808320600160079093020191909101546001600160a01b031683528201929092526040018120819055601080546014929190859081106117fb576117fb61473a565b60009182526020808320600160079093020191909101546001600160a01b031683528201929092526040018120555050565b601a818154811061183d57600080fd5b9060005260206000209060050201600091509050806000015490806001015490806002015490806003018054611872906146d2565b80601f016020809104026020016040519081016040528092919081815260200182805461189e906146d2565b80156118eb5780601f106118c0576101008083540402835291602001916118eb565b820191906000526020600020905b8154815290600101906020018083116118ce57829003601f168201915b5050506004909301549192505060ff1685565b3360009081526011602052604081205460ff1661194c5760405162461bcd60e51b815260206004820152600c60248201526b2737ba10283937b9bab6b2b960a11b6044820152606401610cd6565b33600090815260136020526040902054600f9061196b90600190614723565b8154811061197b5761197b61473a565b906000526020600020906007020160050154905090565b600f81815481106119a257600080fd5b600091825260209091206007909102018054600182015460028301546003840154600485015460058601546006909601549496506001600160a01b0390931694919360ff8083169461010090930416929088565b6060600f805480602002602001604051908101604052809291908181526020016000905b82821015611aad57600084815260209081902060408051610100808201835260078702909301805482526001808201546001600160a01b031683870152600282015493830193909352600381015460ff8082161515606085015294900490931615156080820152600483015460a0820152600583015460c082015260069092015460e08301529083529092019101611a1a565b50505050905090565b6060600a6000611ac46139e1565b6001600160a01b0316815260208101919091526040016000205460ff16611b195760405162461bcd60e51b81526020600482015260096024820152682737ba1027bbb732b960b91b6044820152606401610cd6565b6001600160a01b0382166000908152600b6020526040812090611b3a6139e1565b6001600160a01b0316815260208101919091526040016000205460ff1615611b9557505060408051808201909152601181527f50726f73756d657220417070726f766564000000000000000000000000000000602082015290565b6001600160a01b0382166000908152600c6020526040812090611bb66139e1565b6001600160a01b0316815260208101919091526040016000205460ff1615611c1157505060408051808201909152601481527f50726f73756d657220446973617070726f766564000000000000000000000000602082015290565b5060408051808201909152601981527f50726f73756d6572204e6f74205665726966696564205965740000000000000060208201525b919050565b3360009081526011602052604090205460ff16611c9a5760405162461bcd60e51b815260206004820152600c60248201526b2737ba10283937b9bab6b2b960a11b6044820152606401610cd6565b33600090815260136020526040902054600f90611cb990600190614723565b81548110611cc957611cc961473a565b906000526020600020906007020160030160019054906101000a900460ff1615611d295760405162461bcd60e51b8152602060048201526011602482015270165bdd48185c994814dd5cdc195b991959607a1b6044820152606401610cd6565b610d7833826140a0565b905090565b600080600560009054906101000a90046001600160a01b03166001600160a01b031663feaf968c6040518163ffffffff1660e01b815260040160a06040518083038186803b158015611d8957600080fd5b505afa158015611d9d573d6000803e3d6000fd5b505050506040513d601f19601f82011682018060405250810190611dc191906147de565b509195945050505050565b606060048054610be7906146d2565b601081815481106119a257600080fd5b336000908152600a602052604090205460ff1615611e4b5760405162461bcd60e51b815260206004820152601060248201527f596f752061726520616e204f776e6572000000000000000000000000000000006044820152606401610cd6565b600854341015611ec35760405162461bcd60e51b815260206004820152602560248201527f526567697374726174696f6e204661696c65642c20496e73756666696369656e60448201527f74204665650000000000000000000000000000000000000000000000000000006064820152608401610cd6565b3360009081526011602052604090205460ff1615611f495760405162461bcd60e51b815260206004820152602960248201527f596f752061726520616c726561647920612050726f73756d657220696e20746860448201527f65204e6574776f726b00000000000000000000000000000000000000000000006064820152608401610cd6565b611f51614209565b15611fc45760405162461bcd60e51b815260206004820152602b60248201527f596f75206861766520616c72656164792072657175657374656420666f72205260448201527f6567697374726174696f6e0000000000000000000000000000000000000000006064820152608401610cd6565b8060005b8115611fed57611fd9600a836147b0565b915080611fe58161477f565b915050611fc8565b80600c1461203d5760405162461bcd60e51b815260206004820152601b60248201527f456e746572206120313220646967697420416164686172204e6f2e00000000006044820152606401610cd6565b505060408051610100808201835260008083523360208401908152938301948552606083018181526080840182815260a0850183815260c0860184815260e0870185815260108054600181018255965296517f1b6847dc741a1b0cd08d278845f9d819d87b734759afb55fe2de5cb82a9ae67260079096029586015596517f1b6847dc741a1b0cd08d278845f9d819d87b734759afb55fe2de5cb82a9ae673850180546001600160a01b0319166001600160a01b0390921691909117905596517f1b6847dc741a1b0cd08d278845f9d819d87b734759afb55fe2de5cb82a9ae67484015590517f1b6847dc741a1b0cd08d278845f9d819d87b734759afb55fe2de5cb82a9ae67583018054925161ffff1990931691151561ff001916919091179115159093021790915592517f1b6847dc741a1b0cd08d278845f9d819d87b734759afb55fe2de5cb82a9ae67684015590517f1b6847dc741a1b0cd08d278845f9d819d87b734759afb55fe2de5cb82a9ae677830155517f1b6847dc741a1b0cd08d278845f9d819d87b734759afb55fe2de5cb82a9ae67890910155565b6000806121e66139e1565b6001600160a01b03818116600090815260016020908152604080832093891683529290522054909150838110156122855760405162461bcd60e51b815260206004820152602560248201527f45524332303a2064656372656173656420616c6c6f77616e63652062656c6f7760448201527f207a65726f0000000000000000000000000000000000000000000000000000006064820152608401610cd6565b610e3282868684036139eb565b60008061229d6139e1565b9050610c82818585613c8e565b600a60006122b66139e1565b6001600160a01b0316815260208101919091526040016000205460ff1661230b5760405162461bcd60e51b81526020600482015260096024820152682737ba1027bbb732b960b91b6044820152606401610cd6565b601054811061235c5760405162461bcd60e51b815260206004820152601e60248201527f496e76616c696420556e617070726f7665642050726f73756d657220494400006044820152606401610cd6565b600b6000601083815481106123735761237361473a565b60009182526020808320600160079093020191909101546001600160a01b031683528201929092526040018120906123a96139e1565b6001600160a01b0316815260208101919091526040016000205460ff16156124135760405162461bcd60e51b815260206004820181905260248201527f50726f73756d657220416c726561647920617070726f76656420627920796f756044820152606401610cd6565b6001600b60006010848154811061242c5761242c61473a565b60009182526020808320600160079093020191909101546001600160a01b031683528201929092526040018120906124626139e1565b6001600160a01b03166001600160a01b0316815260200190815260200160002060006101000a81548160ff021916908315150217905550600c6000601083815481106124b0576124b061473a565b60009182526020808320600160079093020191909101546001600160a01b031683528201929092526040018120906124e66139e1565b6001600160a01b0316815260208101919091526040016000205460ff16156125e4576000600c6000601084815481106125215761252161473a565b60009182526020808320600160079093020191909101546001600160a01b031683528201929092526040018120906125576139e1565b6001600160a01b03166001600160a01b0316815260200190815260200160002060006101000a81548160ff02191690831515021790555060156000601083815481106125a5576125a561473a565b60009182526020808320600160079093020191909101546001600160a01b0316835282019290925260400181208054916125de83614768565b91905055505b600060146000601084815481106125fd576125fd61473a565b60009182526020808320600160079093020191909101546001600160a01b0316835282019290925260400181208054916126368361477f565b91905055905060075481111561133e5760016010838154811061265b5761265b61473a565b60009182526020909120600790910201600301805460ff1916911515919091179055600f5461268b906001614750565b6010838154811061269e5761269e61473a565b906000526020600020906007020160000181905550600160116000601085815481106126cc576126cc61473a565b60009182526020808320600792909202909101600101546001600160a01b031683528201929092526040019020805460ff191691151591909117905560108054600f9190849081106127205761272061473a565b600091825260208083208454600181810187559585529190932060079283029093018054919092029092019182558281015492820180546001600160a01b0319166001600160a01b03909416939093179092556002808301549082015560038083018054918301805460ff938416151560ff19821681178355925461010090819004909416151590930261ff001990921661ffff199093169290921717905560048083015490820155600580830154908201556006918201549101556127e582613e7b565b600f80546127f590600190614723565b815481106128055761280561473a565b600091825260208083206001600790930201820154600f8054855260129092526040842080546001600160a01b0319166001600160a01b039092169190911790558054926013929091906128599085614723565b815481106128695761286961473a565b60009182526020808320600160079093020191909101546001600160a01b031683528201929092526040019020555050565b3360009081526011602052604081205460ff166128e95760405162461bcd60e51b815260206004820152600c60248201526b2737ba10283937b9bab6b2b960a11b6044820152606401610cd6565b33600090815260136020526040902054600f9061290890600190614723565b815481106129185761291861473a565b906000526020600020906007020160030160019054906101000a900460ff16156129785760405162461bcd60e51b8152602060048201526011602482015270165bdd48185c994814dd5cdc195b991959607a1b6044820152606401610cd6565b33600090815260136020526040902054600f9061299790600190614723565b815481106129a7576129a761473a565b906000526020600020906007020160060154600014612a085760405162461bcd60e51b815260206004820152601e60248201527f596f75206861766520416c7265616479205374616b656420456e6572677900006044820152606401610cd6565b3360009081526013602052604090205483600f612a26600184614723565b81548110612a3657612a3661473a565b906000526020600020906007020160040181905550612a5484614270565b600f612a61600184614723565b81548110612a7157612a7161473a565b600091825260209091206005600790920201015582600f612a93600184614723565b81548110612aa357612aa361473a565b6000918252602090912060066007909202010155601c54612acd906001600160a01b031684612292565b50807f4007ce7dab5a51b53d861f6a858af463890cd224c3b719792961be0e13d482ac600f612afd600184614723565b81548110612b0d57612b0d61473a565b906000526020600020906007020160040154600f600185612b2e9190614723565b81548110612b3e57612b3e61473a565b6000918252602091829020600560079092020101546040805193845291830152810186905260600160405180910390a29392505050565b60116000612b816139e1565b6001600160a01b0316815260208101919091526040016000205460ff16612bea5760405162461bcd60e51b815260206004820152601260248201527f596f75206e6f7420612050726f73756d657200000000000000000000000000006044820152606401610cd6565b6000828152601260209081526040808320546001600160a01b03168352601190915290205460ff16612c5e5760405162461bcd60e51b815260206004820152601660248201527f41636375736564206e6f7420612050726f73756d6572000000000000000000006044820152606401610cd6565b6000828152601260209081526040808320546001600160a01b03168352600d909152812090612c8b6139e1565b6001600160a01b0316815260208101919091526040016000205460ff1615612cf55760405162461bcd60e51b815260206004820152601d60248201527f416363757365642050726f73756d65722069732053757370656e6465640000006044820152606401610cd6565b600d6000612d016139e1565b6001600160a01b0390811682526020808301939093526040918201600090812086825260128552838220549092168152925290205460ff1615612d7a5760405162461bcd60e51b8152602060048201526011602482015270165bdd48185c994814dd5cdc195b991959607a1b6044820152606401610cd6565b6000828152601260209081526040808320546001600160a01b03168352600c909152812090612da76139e1565b6001600160a01b0316815260208101919091526040016000205460ff1615612e115760405162461bcd60e51b815260206004820152601760248201527f50726f73756d657220697320446973617070726f7665640000000000000000006044820152606401610cd6565b600c6000612e1d6139e1565b6001600160a01b0390811682526020808301939093526040918201600090812086825260128552838220549092168152925290205460ff1615612ea25760405162461bcd60e51b815260206004820152601360248201527f596f752061726520446973617070726f766564000000000000000000000000006044820152606401610cd6565b60006040518060a00160405280601a805490506001612ec19190614750565b815260200160136000612ed26139e1565b6001600160a01b03166001600160a01b03168152602001908152602001600020548152602001848152602001838152602001600015158152509050601954601a80549050101561300757601a8054600181018255600091909152815160059091027f057c384a7d1c54f3a1b2e5e67b2617b8224fdfd1ea7234eea573a6ff665ff63e81019182556020808401517f057c384a7d1c54f3a1b2e5e67b2617b8224fdfd1ea7234eea573a6ff665ff63f83015560408401517f057c384a7d1c54f3a1b2e5e67b2617b8224fdfd1ea7234eea573a6ff665ff64083015560608401518051859493612fe6937f057c384a7d1c54f3a1b2e5e67b2617b8224fdfd1ea7234eea573a6ff665ff641909101920190614328565b50608091909101516004909101805460ff191691151591909117905561308f565b80601a60195460185461301a919061482e565b8154811061302a5761302a61473a565b90600052602060002090600502016000820151816000015560208201518160010155604082015181600201556060820151816003019080519060200190613072929190614328565b50608091909101516004909101805460ff19169115159190911790555b60195460185410156130b157601880549060006130ab8361477f565b91905055505b505050565b3360009081526011602052604090205460ff166131045760405162461bcd60e51b815260206004820152600c60248201526b2737ba10283937b9bab6b2b960a11b6044820152606401610cd6565b33600090815260136020526040902054600f9061312390600190614723565b815481106131335761313361473a565b906000526020600020906007020160030160019054906101000a900460ff16156131935760405162461bcd60e51b8152602060048201526011602482015270165bdd48185c994814dd5cdc195b991959607a1b6044820152606401610cd6565b600081600f6131a3600186614723565b815481106131b3576131b361473a565b9060005260206000209060070201600501546131cf9190614842565b9050803410156132215760405162461bcd60e51b815260206004820152601960248201527f4469646e27742073656e6420656e6f756768204d6174696321000000000000006044820152606401610cd6565b600f61322e600185614723565b8154811061323e5761323e61473a565b9060005260206000209060070201600601548211156132c55760405162461bcd60e51b815260206004820152603660248201527f53656c65637465642050726f647563657220646f206861766520656e6f75676860448201527f20456e6f75676820456e657267792042616c616e6365000000000000000000006064820152608401610cd6565b81600f6132d3600186614723565b815481106132e3576132e361473a565b9060005260206000209060070201600601546132ff9190614723565b600f61330c600186614723565b8154811061331c5761331c61473a565b6000918252602090912060066007909202010155601c54613347906001600160a01b03163384613c8e565b6000838152601260205260408082205490516001600160a01b039091169083908381818185875af1925050503d806000811461339f576040519150601f19603f3d011682016040523d82523d6000602084013e6133a4565b606091505b50509050806133f55760405162461bcd60e51b815260206004820152600b60248201527f63616c6c206661696c65640000000000000000000000000000000000000000006044820152606401610cd6565b600f613402600186614723565b815481106134125761341261473a565b60009182526020808320600460079093020191909101543383526013909152604090912054857fa46b53c1e4323dcbd0cc304fa8e1718a9e400f89e5ce26b321e4edb32bfdad0b600f613466600184614723565b815481106134765761347661473a565b906000526020600020906007020160050154876040516134a0929190918252602082015260400190565b60405180910390a450505050565b6060600a60006134bc6139e1565b6001600160a01b0316815260208101919091526040016000205460ff166135115760405162461bcd60e51b81526020600482015260096024820152682737ba1027bbb732b960b91b6044820152606401610cd6565b601080546040805160208084028201810190925282815292919060009084018215611aad57600084815260209081902060408051610100808201835260078702909301805482526001808201546001600160a01b031683870152600282015493830193909352600381015460ff8082161515606085015294900490931615156080820152600483015460a0820152600583015460c082015260069092015460e08301529083529092019101611a1a565b600a60006135cd6139e1565b6001600160a01b0316815260208101919091526040016000205460ff166136225760405162461bcd60e51b81526020600482015260096024820152682737ba1027bbb732b960b91b6044820152606401610cd6565b6000828152601260209081526040808320546001600160a01b031680845260119092529091205460ff166136985760405162461bcd60e51b815260206004820152600e60248201527f4e6f7420612050726f73756d65720000000000000000000000000000000000006044820152606401610cd6565b6001600160a01b0381166000908152600d60205260408120906136b96139e1565b6001600160a01b0316815260208101919091526040016000205460ff16156137235760405162461bcd60e51b815260206004820152601160248201527f416c72656164792053757370656e6465640000000000000000000000000000006044820152606401610cd6565b6001600160a01b0381166000908152600d602052604081206001916137466139e1565b6001600160a01b03908116825260208083019390935260409182016000908120805460ff19169515159590951790945584168352600e90915281209061378a6139e1565b6001600160a01b0316815260208101919091526040016000205460ff161561381a576001600160a01b0381166000908152600e60205260408120816137cd6139e1565b6001600160a01b03908116825260208083019390935260409182016000908120805460ff191695151595909517909455841683526017909152812080549161381483614768565b91905055505b6001600160a01b03811660009081526016602052604081208054908261383f8361477f565b9190505590506007548111156111e6576001600160a01b0382166000908152601660205260408120556001600f61116c8287614723565b600a60006138826139e1565b6001600160a01b0316815260208101919091526040016000205460ff166138d75760405162461bcd60e51b81526020600482015260096024820152682737ba1027bbb732b960b91b6044820152606401610cd6565b600855565b600a60006138e86139e1565b6001600160a01b0316815260208101919091526040016000205460ff1661393d5760405162461bcd60e51b81526020600482015260096024820152682737ba1027bbb732b960b91b6044820152606401610cd6565b60005b60095481101561133e576139526139e1565b6001600160a01b03166009828154811061396e5761396e61473a565b6000918252602090912001546001600160a01b031614156139cf57816009828154811061399d5761399d61473a565b9060005260206000200160006101000a8154816001600160a01b0302191690836001600160a01b031602179055505050565b806139d98161477f565b915050613940565b6000611d336142f4565b6001600160a01b038316613a665760405162461bcd60e51b8152602060048201526024808201527f45524332303a20617070726f76652066726f6d20746865207a65726f2061646460448201527f72657373000000000000000000000000000000000000000000000000000000006064820152608401610cd6565b6001600160a01b038216613ae25760405162461bcd60e51b815260206004820152602260248201527f45524332303a20617070726f766520746f20746865207a65726f20616464726560448201527f73730000000000000000000000000000000000000000000000000000000000006064820152608401610cd6565b6001600160a01b0383811660008181526001602090815260408083209487168084529482529182902085905590518481527f8c5be1e5ebec7d5bd14f71427d1e84f3dd0314c0f7b2291e5b200ac8c7c3b925910160405180910390a3505050565b6001600160a01b038216613b995760405162461bcd60e51b815260206004820152601f60248201527f45524332303a206d696e7420746f20746865207a65726f2061646472657373006044820152606401610cd6565b8060026000828254613bab9190614750565b90915550506001600160a01b038216600081815260208181526040808320805486019055518481527fddf252ad1be2c89b69c2b068fc378daa952ba7f163c4a11628f55a4df523b3ef910160405180910390a35050565b6001600160a01b0383811660009081526001602090815260408083209386168352929052205460001981146111e65781811015613c815760405162461bcd60e51b815260206004820152601d60248201527f45524332303a20696e73756666696369656e7420616c6c6f77616e63650000006044820152606401610cd6565b6111e684848484036139eb565b6001600160a01b038316613d0a5760405162461bcd60e51b815260206004820152602560248201527f45524332303a207472616e736665722066726f6d20746865207a65726f20616460448201527f64726573730000000000000000000000000000000000000000000000000000006064820152608401610cd6565b6001600160a01b038216613d865760405162461bcd60e51b815260206004820152602360248201527f45524332303a207472616e7366657220746f20746865207a65726f206164647260448201527f65737300000000000000000000000000000000000000000000000000000000006064820152608401610cd6565b6001600160a01b03831660009081526020819052604090205481811015613e155760405162461bcd60e51b815260206004820152602660248201527f45524332303a207472616e7366657220616d6f756e742065786365656473206260448201527f616c616e636500000000000000000000000000000000000000000000000000006064820152608401610cd6565b6001600160a01b03848116600081815260208181526040808320878703905593871680835291849020805487019055925185815290927fddf252ad1be2c89b69c2b068fc378daa952ba7f163c4a11628f55a4df523b3ef910160405180910390a36111e6565b600a6000613e876139e1565b6001600160a01b0316815260208101919091526040016000205460ff16613edc5760405162461bcd60e51b81526020600482015260096024820152682737ba1027bbb732b960b91b6044820152606401610cd6565b6010548110613f2d5760405162461bcd60e51b815260206004820181905260248201527f496e76616c696420756e617070726f76656450726f73756d657220496e6465786044820152606401610cd6565b805b601054613f3e90600190614723565b811015614039576010613f52826001614750565b81548110613f6257613f6261473a565b906000526020600020906007020160108281548110613f8357613f8361473a565b60009182526020909120825460079092020190815560018083015490820180546001600160a01b0319166001600160a01b039092169190911790556002808301549082015560038083018054918301805460ff938416151560ff19821681178355925461010090819004909416151590930261ff001990921661ffff19909316929092171790556004808301549082015560058083015490820155600691820154910155806140318161477f565b915050613f2f565b50601080548061404b5761404b614861565b6000828152602081206007600019909301928302018181556001810180546001600160a01b03191690556002810182905560038101805461ffff19169055600481018290556005810182905560060155905550565b6001600160a01b03821661411c5760405162461bcd60e51b815260206004820152602160248201527f45524332303a206275726e2066726f6d20746865207a65726f2061646472657360448201527f73000000000000000000000000000000000000000000000000000000000000006064820152608401610cd6565b6001600160a01b038216600090815260208190526040902054818110156141ab5760405162461bcd60e51b815260206004820152602260248201527f45524332303a206275726e20616d6f756e7420657863656564732062616c616e60448201527f63650000000000000000000000000000000000000000000000000000000000006064820152608401610cd6565b6001600160a01b0383166000818152602081815260408083208686039055600280548790039055518581529192917fddf252ad1be2c89b69c2b068fc378daa952ba7f163c4a11628f55a4df523b3ef910160405180910390a3505050565b6000805b601054811015614268576010818154811061422a5761422a61473a565b60009182526020909120600790910201600101546001600160a01b031633141561425657600191505090565b806142608161477f565b91505061420d565b506000905090565b3360009081526011602052604081205460ff166142be5760405162461bcd60e51b815260206004820152600c60248201526b2737ba10283937b9bab6b2b960a11b6044820152606401610cd6565b601d82905560006142cd611d38565b90506142d981846147b0565b6142e8906402540be400614842565b601e8190559392505050565b60006014361080159061431157506006546001600160a01b031633145b15614323575060131936013560601c90565b503390565b828054614334906146d2565b90600052602060002090601f016020900481019282614356576000855561439c565b82601f1061436f57805160ff191683800117855561439c565b8280016001018555821561439c579182015b8281111561439c578251825591602001919060010190614381565b506143a89291506143ac565b5090565b5b808211156143a857600081556001016143ad565b80356001600160a01b0381168114611c4757600080fd5b6000602082840312156143ea57600080fd5b6143f3826143c1565b9392505050565b60006020828403121561440c57600080fd5b5035919050565b6000815180845260005b818110156144395760208185018101518683018201520161441d565b8181111561444b576000602083870101525b50601f01601f19169290920160200192915050565b6020815260006143f36020830184614413565b6000806040838503121561448657600080fd5b61448f836143c1565b946020939093013593505050565b6000806000606084860312156144b257600080fd5b6144bb846143c1565b92506144c9602085016143c1565b9150604084013590509250925092565b600080604083850312156144ec57600080fd5b50508035926020909101359150565b85815284602082015283604082015260a06060820152600061452060a0830185614413565b905082151560808301529695505050505050565b6000806040838503121561454757600080fd5b614550836143c1565b915061455e602084016143c1565b90509250929050565b602080825282518282018190526000919060409081850190868401855b828110156145f457815180518552868101516001600160a01b031687860152858101518686015260608082015115159086015260808082015115159086015260a0808201519086015260c0808201519086015260e090810151908501526101009093019290850190600101614584565b5091979650505050505050565b634e487b7160e01b600052604160045260246000fd5b6000806040838503121561462a57600080fd5b82359150602083013567ffffffffffffffff8082111561464957600080fd5b818501915085601f83011261465d57600080fd5b81358181111561466f5761466f614601565b604051601f8201601f19908116603f0116810190838211818310171561469757614697614601565b816040528281528860208487010111156146b057600080fd5b8260208601602083013760006020848301015280955050505050509250929050565b600181811c908216806146e657607f821691505b6020821081141561470757634e487b7160e01b600052602260045260246000fd5b50919050565b634e487b7160e01b600052601160045260246000fd5b6000828210156147355761473561470d565b500390565b634e487b7160e01b600052603260045260246000fd5b600082198211156147635761476361470d565b500190565b6000816147775761477761470d565b506000190190565b60006000198214156147935761479361470d565b5060010190565b634e487b7160e01b600052601260045260246000fd5b6000826147bf576147bf61479a565b500490565b805169ffffffffffffffffffff81168114611c4757600080fd5b600080600080600060a086880312156147f657600080fd5b6147ff866147c4565b9450602086015193506040860151925060608601519150614822608087016147c4565b90509295509295909350565b60008261483d5761483d61479a565b500690565b600081600019048311821515161561485c5761485c61470d565b500290565b634e487b7160e01b600052603160045260246000fdfea2646970667358221220a0d5d6827fcfded120a9d712f8320418bcb27f21a2fe6a8605b4757319651d2564736f6c63430008080033",
  "devdoc": {
    "kind": "dev",
    "methods": {
      "allowance(address,address)": {
        "details": "See {IERC20-allowance}."
      },
      "approve(address,uint256)": {
        "details": "See {IERC20-approve}. NOTE: If `amount` is the maximum `uint256`, the allowance is not updated on `transferFrom`. This is semantically equivalent to an infinite approval. Requirements: - `spender` cannot be the zero address."
      },
      "balanceOf(address)": {
        "details": "See {IERC20-balanceOf}."
      },
      "decimals()": {
        "details": "Returns the number of decimals used to get its user representation. For example, if `decimals` equals `2`, a balance of `505` tokens should be displayed to a user as `5.05` (`505 / 10 ** 2`). Tokens usually opt for a value of 18, imitating the relationship between Ether and Wei. This is the value {ERC20} uses, unless this function is overridden; NOTE: This information is only used for _display_ purposes: it in no way affects any of the arithmetic of the contract, including {IERC20-balanceOf} and {IERC20-transfer}."
      },
      "decreaseAllowance(address,uint256)": {
        "details": "Atomically decreases the allowance granted to `spender` by the caller. This is an alternative to {approve} that can be used as a mitigation for problems described in {IERC20-approve}. Emits an {Approval} event indicating the updated allowance. Requirements: - `spender` cannot be the zero address. - `spender` must have allowance for the caller of at least `subtractedValue`."
      },
      "getTrustedForwarder()": {
        "returns": {
          "forwarder": "The address of the Forwarder contract that is being used."
        }
      },
      "increaseAllowance(address,uint256)": {
        "details": "Atomically increases the allowance granted to `spender` by the caller. This is an alternative to {approve} that can be used as a mitigation for problems described in {IERC20-approve}. Emits an {Approval} event indicating the updated allowance. Requirements: - `spender` cannot be the zero address."
      },
      "isTrustedForwarder(address)": {
        "params": {
          "forwarder": "The address of the Forwarder contract that is being used."
        },
        "returns": {
          "_0": "isTrustedForwarder `true` if the Forwarder is trusted to forward relayed transactions by this Recipient."
        }
      },
      "name()": {
        "details": "Returns the name of the token."
      },
      "symbol()": {
        "details": "Returns the symbol of the token, usually a shorter version of the name."
      },
      "totalSupply()": {
        "details": "See {IERC20-totalSupply}."
      },
      "transfer(address,uint256)": {
        "details": "See {IERC20-transfer}. Requirements: - `to` cannot be the zero address. - the caller must have a balance of at least `amount`."
      },
      "transferFrom(address,address,uint256)": {
        "details": "See {IERC20-transferFrom}. Emits an {Approval} event indicating the updated allowance. This is not required by the EIP. See the note at the beginning of {ERC20}. NOTE: Does not update the allowance if the current allowance is the maximum `uint256`. Requirements: - `from` and `to` cannot be the zero address. - `from` must have a balance of at least `amount`. - the caller must have allowance for ``from``'s tokens of at least `amount`."
      }
    },
    "version": 1
  },
  "userdoc": {
    "kind": "user",
    "methods": {
      "getLatestPrice()": {
        "notice": "Returns the latest price"
      },
      "getTrustedForwarder()": {
        "notice": ":warning: **Warning** :warning: The Forwarder can have a full control over your Recipient. Only trust verified Forwarder.Method is not a required method to allow Recipients to trust multiple Forwarders. Not recommended yet."
      },
      "isTrustedForwarder(address)": {
        "notice": ":warning: **Warning** :warning: The Forwarder can have a full control over your Recipient. Only trust verified Forwarder."
      }
    },
    "version": 1
  },
  "storageLayout": {
    "storage": [
      {
        "astId": 188,
        "contract": "contracts/EnergyTrade.sol:EnergyTrade",
        "label": "_balances",
        "offset": 0,
        "slot": "0",
        "type": "t_mapping(t_address,t_uint256)"
      },
      {
        "astId": 194,
        "contract": "contracts/EnergyTrade.sol:EnergyTrade",
        "label": "_allowances",
        "offset": 0,
        "slot": "1",
        "type": "t_mapping(t_address,t_mapping(t_address,t_uint256))"
      },
      {
        "astId": 196,
        "contract": "contracts/EnergyTrade.sol:EnergyTrade",
        "label": "_totalSupply",
        "offset": 0,
        "slot": "2",
        "type": "t_uint256"
      },
      {
        "astId": 198,
        "contract": "contracts/EnergyTrade.sol:EnergyTrade",
        "label": "_name",
        "offset": 0,
        "slot": "3",
        "type": "t_string_storage"
      },
      {
        "astId": 200,
        "contract": "contracts/EnergyTrade.sol:EnergyTrade",
        "label": "_symbol",
        "offset": 0,
        "slot": "4",
        "type": "t_string_storage"
      },
      {
        "astId": 2490,
        "contract": "contracts/EnergyTrade.sol:EnergyTrade",
        "label": "priceFeed",
        "offset": 0,
        "slot": "5",
        "type": "t_contract(AggregatorV3Interface)45"
      },
      {
        "astId": 53,
        "contract": "contracts/EnergyTrade.sol:EnergyTrade",
        "label": "_trustedForwarder",
        "offset": 0,
        "slot": "6",
        "type": "t_address"
      },
      {
        "astId": 1360,
        "contract": "contracts/EnergyTrade.sol:EnergyTrade",
        "label": "required",
        "offset": 0,
        "slot": "7",
        "type": "t_uint256"
      },
      {
        "astId": 1362,
        "contract": "contracts/EnergyTrade.sol:EnergyTrade",
        "label": "regFee",
        "offset": 0,
        "slot": "8",
        "type": "t_uint256"
      },
      {
        "astId": 1365,
        "contract": "contracts/EnergyTrade.sol:EnergyTrade",
        "label": "owners",
        "offset": 0,
        "slot": "9",
        "type": "t_array(t_address)dyn_storage"
      },
      {
        "astId": 1369,
        "contract": "contracts/EnergyTrade.sol:EnergyTrade",
        "label": "isOwner",
        "offset": 0,
        "slot": "10",
        "type": "t_mapping(t_address,t_bool)"
      },
      {
        "astId": 1375,
        "contract": "contracts/EnergyTrade.sol:EnergyTrade",
        "label": "approved",
        "offset": 0,
        "slot": "11",
        "type": "t_mapping(t_address,t_mapping(t_address,t_bool))"
      },
      {
        "astId": 1381,
        "contract": "contracts/EnergyTrade.sol:EnergyTrade",
        "label": "disapproved",
        "offset": 0,
        "slot": "12",
        "type": "t_mapping(t_address,t_mapping(t_address,t_bool))"
      },
      {
        "astId": 1387,
        "contract": "contracts/EnergyTrade.sol:EnergyTrade",
        "label": "suspended",
        "offset": 0,
        "slot": "13",
        "type": "t_mapping(t_address,t_mapping(t_address,t_bool))"
      },
      {
        "astId": 1393,
        "contract": "contracts/EnergyTrade.sol:EnergyTrade",
        "label": "unSuspended",
        "offset": 0,
        "slot": "14",
        "type": "t_mapping(t_address,t_mapping(t_address,t_bool))"
      },
      {
        "astId": 1414,
        "contract": "contracts/EnergyTrade.sol:EnergyTrade",
        "label": "ApprovedProsumers",
        "offset": 0,
        "slot": "15",
        "type": "t_array(t_struct(prosumer)1410_storage)dyn_storage"
      },
      {
        "astId": 1418,
        "contract": "contracts/EnergyTrade.sol:EnergyTrade",
        "label": "unApprovedProsumers",
        "offset": 0,
        "slot": "16",
        "type": "t_array(t_struct(prosumer)1410_storage)dyn_storage"
      },
      {
        "astId": 1422,
        "contract": "contracts/EnergyTrade.sol:EnergyTrade",
        "label": "isProsumer",
        "offset": 0,
        "slot": "17",
        "type": "t_mapping(t_address,t_bool)"
      },
      {
        "astId": 1426,
        "contract": "contracts/EnergyTrade.sol:EnergyTrade",
        "label": "prosumerAddress",
        "offset": 0,
        "slot": "18",
        "type": "t_mapping(t_uint256,t_address)"
      },
      {
        "astId": 1430,
        "contract": "contracts/EnergyTrade.sol:EnergyTrade",
        "label": "prosumerID",
        "offset": 0,
        "slot": "19",
        "type": "t_mapping(t_address,t_uint256)"
      },
      {
        "astId": 1434,
        "contract": "contracts/EnergyTrade.sol:EnergyTrade",
        "label": "approvalCount",
        "offset": 0,
        "slot": "20",
        "type": "t_mapping(t_address,t_uint256)"
      },
      {
        "astId": 1438,
        "contract": "contracts/EnergyTrade.sol:EnergyTrade",
        "label": "disapprovalCount",
        "offset": 0,
        "slot": "21",
        "type": "t_mapping(t_address,t_uint256)"
      },
      {
        "astId": 1442,
        "contract": "contracts/EnergyTrade.sol:EnergyTrade",
        "label": "suspensionCount",
        "offset": 0,
        "slot": "22",
        "type": "t_mapping(t_address,t_uint256)"
      },
      {
        "astId": 1446,
        "contract": "contracts/EnergyTrade.sol:EnergyTrade",
        "label": "unSuspensionCount",
        "offset": 0,
        "slot": "23",
        "type": "t_mapping(t_address,t_uint256)"
      },
      {
        "astId": 1459,
        "contract": "contracts/EnergyTrade.sol:EnergyTrade",
        "label": "complainCount",
        "offset": 0,
        "slot": "24",
        "type": "t_uint256"
      },
      {
        "astId": 1462,
        "contract": "contracts/EnergyTrade.sol:EnergyTrade",
        "label": "maxComplains",
        "offset": 0,
        "slot": "25",
        "type": "t_uint256"
      },
      {
        "astId": 1466,
        "contract": "contracts/EnergyTrade.sol:EnergyTrade",
        "label": "complains",
        "offset": 0,
        "slot": "26",
        "type": "t_array(t_struct(Complain)1457_storage)dyn_storage"
      },
      {
        "astId": 1556,
        "contract": "contracts/EnergyTrade.sol:EnergyTrade",
        "label": "versionRecipient",
        "offset": 0,
        "slot": "27",
        "type": "t_string_storage"
      },
      {
        "astId": 911,
        "contract": "contracts/EnergyTrade.sol:EnergyTrade",
        "label": "escrowAccount",
        "offset": 0,
        "slot": "28",
        "type": "t_address"
      },
      {
        "astId": 913,
        "contract": "contracts/EnergyTrade.sol:EnergyTrade",
        "label": "EnergyUnitPrice_usd",
        "offset": 0,
        "slot": "29",
        "type": "t_uint256"
      },
      {
        "astId": 915,
        "contract": "contracts/EnergyTrade.sol:EnergyTrade",
        "label": "EnergyUnitPrice_matic",
        "offset": 0,
        "slot": "30",
        "type": "t_uint256"
      }
    ],
    "types": {
      "t_address": {
        "encoding": "inplace",
        "label": "address",
        "numberOfBytes": "20"
      },
      "t_array(t_address)dyn_storage": {
        "base": "t_address",
        "encoding": "dynamic_array",
        "label": "address[]",
        "numberOfBytes": "32"
      },
      "t_array(t_struct(Complain)1457_storage)dyn_storage": {
        "base": "t_struct(Complain)1457_storage",
        "encoding": "dynamic_array",
        "label": "struct MultiSig.Complain[]",
        "numberOfBytes": "32"
      },
      "t_array(t_struct(prosumer)1410_storage)dyn_storage": {
        "base": "t_struct(prosumer)1410_storage",
        "encoding": "dynamic_array",
        "label": "struct MultiSig.prosumer[]",
        "numberOfBytes": "32"
      },
      "t_bool": {
        "encoding": "inplace",
        "label": "bool",
        "numberOfBytes": "1"
      },
      "t_contract(AggregatorV3Interface)45": {
        "encoding": "inplace",
        "label": "contract AggregatorV3Interface",
        "numberOfBytes": "20"
      },
      "t_mapping(t_address,t_bool)": {
        "encoding": "mapping",
        "key": "t_address",
        "label": "mapping(address => bool)",
        "numberOfBytes": "32",
        "value": "t_bool"
      },
      "t_mapping(t_address,t_mapping(t_address,t_bool))": {
        "encoding": "mapping",
        "key": "t_address",
        "label": "mapping(address => mapping(address => bool))",
        "numberOfBytes": "32",
        "value": "t_mapping(t_address,t_bool)"
      },
      "t_mapping(t_address,t_mapping(t_address,t_uint256))": {
        "encoding": "mapping",
        "key": "t_address",
        "label": "mapping(address => mapping(address => uint256))",
        "numberOfBytes": "32",
        "value": "t_mapping(t_address,t_uint256)"
      },
      "t_mapping(t_address,t_uint256)": {
        "encoding": "mapping",
        "key": "t_address",
        "label": "mapping(address => uint256)",
        "numberOfBytes": "32",
        "value": "t_uint256"
      },
      "t_mapping(t_uint256,t_address)": {
        "encoding": "mapping",
        "key": "t_uint256",
        "label": "mapping(uint256 => address)",
        "numberOfBytes": "32",
        "value": "t_address"
      },
      "t_string_storage": {
        "encoding": "bytes",
        "label": "string",
        "numberOfBytes": "32"
      },
      "t_struct(Complain)1457_storage": {
        "encoding": "inplace",
        "label": "struct MultiSig.Complain",
        "members": [
          {
            "astId": 1448,
            "contract": "contracts/EnergyTrade.sol:EnergyTrade",
            "label": "_complainID",
            "offset": 0,
            "slot": "0",
            "type": "t_uint256"
          },
          {
            "astId": 1450,
            "contract": "contracts/EnergyTrade.sol:EnergyTrade",
            "label": "_complainant",
            "offset": 0,
            "slot": "1",
            "type": "t_uint256"
          },
          {
            "astId": 1452,
            "contract": "contracts/EnergyTrade.sol:EnergyTrade",
            "label": "_accused",
            "offset": 0,
            "slot": "2",
            "type": "t_uint256"
          },
          {
            "astId": 1454,
            "contract": "contracts/EnergyTrade.sol:EnergyTrade",
            "label": "_complain",
            "offset": 0,
            "slot": "3",
            "type": "t_string_storage"
          },
          {
            "astId": 1456,
            "contract": "contracts/EnergyTrade.sol:EnergyTrade",
            "label": "_resolved",
            "offset": 0,
            "slot": "4",
            "type": "t_bool"
          }
        ],
        "numberOfBytes": "160"
      },
      "t_struct(prosumer)1410_storage": {
        "encoding": "inplace",
        "label": "struct MultiSig.prosumer",
        "members": [
          {
            "astId": 1395,
            "contract": "contracts/EnergyTrade.sol:EnergyTrade",
            "label": "_prosumerID",
            "offset": 0,
            "slot": "0",
            "type": "t_uint256"
          },
          {
            "astId": 1397,
            "contract": "contracts/EnergyTrade.sol:EnergyTrade",
            "label": "_address",
            "offset": 0,
            "slot": "1",
            "type": "t_address"
          },
          {
            "astId": 1399,
            "contract": "contracts/EnergyTrade.sol:EnergyTrade",
            "label": "_aadharId",
            "offset": 0,
            "slot": "2",
            "type": "t_uint256"
          },
          {
            "astId": 1401,
            "contract": "contracts/EnergyTrade.sol:EnergyTrade",
            "label": "_approved",
            "offset": 0,
            "slot": "3",
            "type": "t_bool"
          },
          {
            "astId": 1403,
            "contract": "contracts/EnergyTrade.sol:EnergyTrade",
            "label": "_suspended",
            "offset": 1,
            "slot": "3",
            "type": "t_bool"
          },
          {
            "astId": 1405,
            "contract": "contracts/EnergyTrade.sol:EnergyTrade",
            "label": "_energyUnitPriceUSD",
            "offset": 0,
            "slot": "4",
            "type": "t_uint256"
          },
          {
            "astId": 1407,
            "contract": "contracts/EnergyTrade.sol:EnergyTrade",
            "label": "_energyUnitPriceMatic",
            "offset": 0,
            "slot": "5",
            "type": "t_uint256"
          },
          {
            "astId": 1409,
            "contract": "contracts/EnergyTrade.sol:EnergyTrade",
            "label": "_stakedEnergyBalance",
            "offset": 0,
            "slot": "6",
            "type": "t_uint256"
          }
        ],
        "numberOfBytes": "224"
      },
      "t_uint256": {
        "encoding": "inplace",
        "label": "uint256",
        "numberOfBytes": "32"
      }
    }
  }
}