{
  "_format": "hh-sol-artifact-1",
  "contractName": "WhitelistPaymaster",
  "sourceName": "@opengsn/paymasters/contracts/WhitelistPaymaster.sol",
  "abi": [
    {
      "anonymous": false,
      "inputs": [
        {
          "indexed": true,
          "internalType": "address",
          "name": "previousOwner",
          "type": "address"
        },
        {
          "indexed": true,
          "internalType": "address",
          "name": "newOwner",
          "type": "address"
        }
      ],
      "name": "OwnershipTransferred",
      "type": "event"
    },
    {
      "inputs": [],
      "name": "CALLDATA_SIZE_LIMIT",
      "outputs": [
        {
          "internalType": "uint256",
          "name": "",
          "type": "uint256"
        }
      ],
      "stateMutability": "view",
      "type": "function"
    },
    {
      "inputs": [],
      "name": "FORWARDER_HUB_OVERHEAD",
      "outputs": [
        {
          "internalType": "uint256",
          "name": "",
          "type": "uint256"
        }
      ],
      "stateMutability": "view",
      "type": "function"
    },
    {
      "inputs": [],
      "name": "PAYMASTER_ACCEPTANCE_BUDGET",
      "outputs": [
        {
          "internalType": "uint256",
          "name": "",
          "type": "uint256"
        }
      ],
      "stateMutability": "view",
      "type": "function"
    },
    {
      "inputs": [],
      "name": "POST_RELAYED_CALL_GAS_LIMIT",
      "outputs": [
        {
          "internalType": "uint256",
          "name": "",
          "type": "uint256"
        }
      ],
      "stateMutability": "view",
      "type": "function"
    },
    {
      "inputs": [],
      "name": "PRE_RELAYED_CALL_GAS_LIMIT",
      "outputs": [
        {
          "internalType": "uint256",
          "name": "",
          "type": "uint256"
        }
      ],
      "stateMutability": "view",
      "type": "function"
    },
    {
      "inputs": [],
      "name": "getGasAndDataLimits",
      "outputs": [
        {
          "components": [
            {
              "internalType": "uint256",
              "name": "acceptanceBudget",
              "type": "uint256"
            },
            {
              "internalType": "uint256",
              "name": "preRelayedCallGasLimit",
              "type": "uint256"
            },
            {
              "internalType": "uint256",
              "name": "postRelayedCallGasLimit",
              "type": "uint256"
            },
            {
              "internalType": "uint256",
              "name": "calldataSizeLimit",
              "type": "uint256"
            }
          ],
          "internalType": "struct IPaymaster.GasAndDataLimits",
          "name": "limits",
          "type": "tuple"
        }
      ],
      "stateMutability": "view",
      "type": "function"
    },
    {
      "inputs": [],
      "name": "getRelayHub",
      "outputs": [
        {
          "internalType": "address",
          "name": "",
          "type": "address"
        }
      ],
      "stateMutability": "view",
      "type": "function"
    },
    {
      "inputs": [],
      "name": "getTrustedForwarder",
      "outputs": [
        {
          "internalType": "address",
          "name": "",
          "type": "address"
        }
      ],
      "stateMutability": "view",
      "type": "function"
    },
    {
      "inputs": [
        {
          "internalType": "address",
          "name": "",
          "type": "address"
        },
        {
          "internalType": "bytes4",
          "name": "",
          "type": "bytes4"
        }
      ],
      "name": "methodWhitelist",
      "outputs": [
        {
          "internalType": "bool",
          "name": "",
          "type": "bool"
        }
      ],
      "stateMutability": "view",
      "type": "function"
    },
    {
      "inputs": [],
      "name": "owner",
      "outputs": [
        {
          "internalType": "address",
          "name": "",
          "type": "address"
        }
      ],
      "stateMutability": "view",
      "type": "function"
    },
    {
      "inputs": [
        {
          "internalType": "bytes",
          "name": "context",
          "type": "bytes"
        },
        {
          "internalType": "bool",
          "name": "success",
          "type": "bool"
        },
        {
          "internalType": "uint256",
          "name": "gasUseWithoutPost",
          "type": "uint256"
        },
        {
          "components": [
            {
              "internalType": "uint256",
              "name": "maxFeePerGas",
              "type": "uint256"
            },
            {
              "internalType": "uint256",
              "name": "maxPriorityFeePerGas",
              "type": "uint256"
            },
            {
              "internalType": "uint256",
              "name": "transactionCalldataGasUsed",
              "type": "uint256"
            },
            {
              "internalType": "address",
              "name": "relayWorker",
              "type": "address"
            },
            {
              "internalType": "address",
              "name": "paymaster",
              "type": "address"
            },
            {
              "internalType": "address",
              "name": "forwarder",
              "type": "address"
            },
            {
              "internalType": "bytes",
              "name": "paymasterData",
              "type": "bytes"
            },
            {
              "internalType": "uint256",
              "name": "clientId",
              "type": "uint256"
            }
          ],
          "internalType": "struct GsnTypes.RelayData",
          "name": "relayData",
          "type": "tuple"
        }
      ],
      "name": "postRelayedCall",
      "outputs": [],
      "stateMutability": "nonpayable",
      "type": "function"
    },
    {
      "inputs": [
        {
          "components": [
            {
              "components": [
                {
                  "internalType": "address",
                  "name": "from",
                  "type": "address"
                },
                {
                  "internalType": "address",
                  "name": "to",
                  "type": "address"
                },
                {
                  "internalType": "uint256",
                  "name": "value",
                  "type": "uint256"
                },
                {
                  "internalType": "uint256",
                  "name": "gas",
                  "type": "uint256"
                },
                {
                  "internalType": "uint256",
                  "name": "nonce",
                  "type": "uint256"
                },
                {
                  "internalType": "bytes",
                  "name": "data",
                  "type": "bytes"
                },
                {
                  "internalType": "uint256",
                  "name": "validUntilTime",
                  "type": "uint256"
                }
              ],
              "internalType": "struct IForwarder.ForwardRequest",
              "name": "request",
              "type": "tuple"
            },
            {
              "components": [
                {
                  "internalType": "uint256",
                  "name": "maxFeePerGas",
                  "type": "uint256"
                },
                {
                  "internalType": "uint256",
                  "name": "maxPriorityFeePerGas",
                  "type": "uint256"
                },
                {
                  "internalType": "uint256",
                  "name": "transactionCalldataGasUsed",
                  "type": "uint256"
                },
                {
                  "internalType": "address",
                  "name": "relayWorker",
                  "type": "address"
                },
                {
                  "internalType": "address",
                  "name": "paymaster",
                  "type": "address"
                },
                {
                  "internalType": "address",
                  "name": "forwarder",
                  "type": "address"
                },
                {
                  "internalType": "bytes",
                  "name": "paymasterData",
                  "type": "bytes"
                },
                {
                  "internalType": "uint256",
                  "name": "clientId",
                  "type": "uint256"
                }
              ],
              "internalType": "struct GsnTypes.RelayData",
              "name": "relayData",
              "type": "tuple"
            }
          ],
          "internalType": "struct GsnTypes.RelayRequest",
          "name": "relayRequest",
          "type": "tuple"
        },
        {
          "internalType": "bytes",
          "name": "signature",
          "type": "bytes"
        },
        {
          "internalType": "bytes",
          "name": "approvalData",
          "type": "bytes"
        },
        {
          "internalType": "uint256",
          "name": "maxPossibleGas",
          "type": "uint256"
        }
      ],
      "name": "preRelayedCall",
      "outputs": [
        {
          "internalType": "bytes",
          "name": "",
          "type": "bytes"
        },
        {
          "internalType": "bool",
          "name": "",
          "type": "bool"
        }
      ],
      "stateMutability": "nonpayable",
      "type": "function"
    },
    {
      "inputs": [],
      "name": "renounceOwnership",
      "outputs": [],
      "stateMutability": "nonpayable",
      "type": "function"
    },
    {
      "inputs": [
        {
          "internalType": "address",
          "name": "",
          "type": "address"
        }
      ],
      "name": "senderWhitelist",
      "outputs": [
        {
          "internalType": "bool",
          "name": "",
          "type": "bool"
        }
      ],
      "stateMutability": "view",
      "type": "function"
    },
    {
      "inputs": [
        {
          "internalType": "bool",
          "name": "_useSenderWhitelist",
          "type": "bool"
        },
        {
          "internalType": "bool",
          "name": "_useTargetWhitelist",
          "type": "bool"
        },
        {
          "internalType": "bool",
          "name": "_useMethodWhitelist",
          "type": "bool"
        },
        {
          "internalType": "bool",
          "name": "_useRejectOnRecipientRevert",
          "type": "bool"
        }
      ],
      "name": "setConfiguration",
      "outputs": [],
      "stateMutability": "nonpayable",
      "type": "function"
    },
    {
      "inputs": [
        {
          "internalType": "contract IRelayHub",
          "name": "hub",
          "type": "address"
        }
      ],
      "name": "setRelayHub",
      "outputs": [],
      "stateMutability": "nonpayable",
      "type": "function"
    },
    {
      "inputs": [
        {
          "internalType": "address",
          "name": "forwarder",
          "type": "address"
        }
      ],
      "name": "setTrustedForwarder",
      "outputs": [],
      "stateMutability": "nonpayable",
      "type": "function"
    },
    {
      "inputs": [
        {
          "internalType": "bytes4",
          "name": "interfaceId",
          "type": "bytes4"
        }
      ],
      "name": "supportsInterface",
      "outputs": [
        {
          "internalType": "bool",
          "name": "",
          "type": "bool"
        }
      ],
      "stateMutability": "view",
      "type": "function"
    },
    {
      "inputs": [
        {
          "internalType": "address",
          "name": "",
          "type": "address"
        }
      ],
      "name": "targetWhitelist",
      "outputs": [
        {
          "internalType": "bool",
          "name": "",
          "type": "bool"
        }
      ],
      "stateMutability": "view",
      "type": "function"
    },
    {
      "inputs": [
        {
          "internalType": "address",
          "name": "newOwner",
          "type": "address"
        }
      ],
      "name": "transferOwnership",
      "outputs": [],
      "stateMutability": "nonpayable",
      "type": "function"
    },
    {
      "inputs": [],
      "name": "useMethodWhitelist",
      "outputs": [
        {
          "internalType": "bool",
          "name": "",
          "type": "bool"
        }
      ],
      "stateMutability": "view",
      "type": "function"
    },
    {
      "inputs": [],
      "name": "useRejectOnRecipientRevert",
      "outputs": [
        {
          "internalType": "bool",
          "name": "",
          "type": "bool"
        }
      ],
      "stateMutability": "view",
      "type": "function"
    },
    {
      "inputs": [],
      "name": "useSenderWhitelist",
      "outputs": [
        {
          "internalType": "bool",
          "name": "",
          "type": "bool"
        }
      ],
      "stateMutability": "view",
      "type": "function"
    },
    {
      "inputs": [],
      "name": "useTargetWhitelist",
      "outputs": [
        {
          "internalType": "bool",
          "name": "",
          "type": "bool"
        }
      ],
      "stateMutability": "view",
      "type": "function"
    },
    {
      "inputs": [],
      "name": "versionPaymaster",
      "outputs": [
        {
          "internalType": "string",
          "name": "",
          "type": "string"
        }
      ],
      "stateMutability": "view",
      "type": "function"
    },
    {
      "inputs": [
        {
          "internalType": "address",
          "name": "target",
          "type": "address"
        },
        {
          "internalType": "bytes4",
          "name": "method",
          "type": "bytes4"
        },
        {
          "internalType": "bool",
          "name": "isAllowed",
          "type": "bool"
        }
      ],
      "name": "whitelistMethod",
      "outputs": [],
      "stateMutability": "nonpayable",
      "type": "function"
    },
    {
      "inputs": [
        {
          "internalType": "address",
          "name": "sender",
          "type": "address"
        },
        {
          "internalType": "bool",
          "name": "isAllowed",
          "type": "bool"
        }
      ],
      "name": "whitelistSender",
      "outputs": [],
      "stateMutability": "nonpayable",
      "type": "function"
    },
    {
      "inputs": [
        {
          "internalType": "address",
          "name": "target",
          "type": "address"
        },
        {
          "internalType": "bool",
          "name": "isAllowed",
          "type": "bool"
        }
      ],
      "name": "whitelistTarget",
      "outputs": [],
      "stateMutability": "nonpayable",
      "type": "function"
    },
    {
      "inputs": [
        {
          "internalType": "uint256",
          "name": "amount",
          "type": "uint256"
        },
        {
          "internalType": "address payable",
          "name": "target",
          "type": "address"
        }
      ],
      "name": "withdrawRelayHubDepositTo",
      "outputs": [],
      "stateMutability": "nonpayable",
      "type": "function"
    },
    {
      "stateMutability": "payable",
      "type": "receive"
    }
  ],
  "bytecode": "0x608060405234801561001057600080fd5b5061001a3361001f565b61006f565b600080546001600160a01b038381166001600160a01b0319831681178455604051919092169283917f8be0079c531659141344cd1fd0a4f28419497f9722a3daafe3b4186f6b6457e09190a35050565b611ac98061007e6000396000f3fe6080604052600436106101c55760003560e01c80638222f07d116100f7578063bbdaa3c911610095578063df463a6611610064578063df463a661461064c578063e1838f8d14610661578063f2fde38b14610681578063f9c002f7146106a157600080fd5b8063bbdaa3c9146105d6578063ce1b815f146105ed578063da7422281461060b578063dd1bcaa11461062b57600080fd5b80638da5cb5b116100d15780638da5cb5b14610538578063921276ea14610556578063b039a88f14610578578063b90b41cf146105c057600080fd5b80638222f07d146104b8578063858437b0146104e857806386c0a9f81461051857600080fd5b80634f28bfb911610164578063715018a61161013e578063715018a61461043157806376fa01c3146104465780637bb05264146104665780637bdf2ec71461048657600080fd5b80634f28bfb9146103cb5780634f33b4dd146103ec5780635c5e3db11461040d57600080fd5b80630d4ca3a4116101a05780630d4ca3a41461032f57806312256054146103505780632d14c4b7146103705780633a0892e31461039057600080fd5b8062be5dd4146102a657806301ffc9a7146102dd5780630613fef81461030d57600080fd5b366102a1576001546001600160a01b03166102275760405162461bcd60e51b815260206004820152601960248201527f72656c6179206875622061646472657373206e6f74207365740000000000000060448201526064015b60405180910390fd5b6001546040517faa67c9190000000000000000000000000000000000000000000000000000000081523060048201526001600160a01b039091169063aa67c9199034906024016000604051808303818588803b15801561028657600080fd5b505af115801561029a573d6000803e3d6000fd5b5050505050005b600080fd5b3480156102b257600080fd5b506102c66102c1366004611607565b6106b8565b6040516102d4929190611708565b60405180910390f35b3480156102e957600080fd5b506102fd6102f8366004611749565b610706565b60405190151581526020016102d4565b34801561031957600080fd5b5061032d610328366004611787565b61078a565b005b34801561033b57600080fd5b506002546102fd90600160b01b900460ff1681565b34801561035c57600080fd5b5061032d61036b366004611787565b6107bd565b34801561037c57600080fd5b5061032d61038b3660046117c0565b6107f0565b34801561039c57600080fd5b506102fd6103ab3660046117e5565b600560209081526000928352604080842090915290825290205460ff1681565b3480156103d757600080fd5b506002546102fd90600160a81b900460ff1681565b3480156103f857600080fd5b506002546102fd90600160b81b900460ff1681565b34801561041957600080fd5b5061042361290481565b6040519081526020016102d4565b34801561043d57600080fd5b5061032d61087b565b34801561045257600080fd5b5061032d61046136600461181a565b61088f565b34801561047257600080fd5b5061032d6104813660046118aa565b61089e565b34801561049257600080fd5b506001546001600160a01b03165b6040516001600160a01b0390911681526020016102d4565b3480156104c457600080fd5b506102fd6104d33660046118aa565b60036020526000908152604090205460ff1681565b3480156104f457600080fd5b506102fd6105033660046118aa565b60046020526000908152604090205460ff1681565b34801561052457600080fd5b5061032d6105333660046118c7565b610954565b34801561054457600080fd5b506000546001600160a01b03166104a0565b34801561056257600080fd5b5061056b610a26565b6040516102d49190611923565b34801561058457600080fd5b5061058d610a46565b6040516102d491908151815260208083015190820152604080830151908201526060918201519181019190915260800190565b3480156105cc57600080fd5b5061042361c35081565b3480156105e257600080fd5b506104236201adb081565b3480156105f957600080fd5b506002546001600160a01b03166104a0565b34801561061757600080fd5b5061032d6106263660046118aa565b610aaf565b34801561063757600080fd5b506002546102fd90600160a01b900460ff1681565b34801561065857600080fd5b50610423610b65565b34801561066d57600080fd5b5061032d61067c366004611936565b610b77565b34801561068d57600080fd5b5061032d61069c3660046118aa565b610bc0565b3480156106ad57600080fd5b50610423620186a081565b606060006106c4610c50565b6106cd88610caa565b6106d688610d42565b6106df88610d9d565b6106e98585610e07565b6106f7888888888888610e59565b91509150965096945050505050565b60006001600160e01b031982167fe1ab2dea00000000000000000000000000000000000000000000000000000000148061076957506001600160e01b031982167f0e08307600000000000000000000000000000000000000000000000000000000145b8061078457506301ffc9a760e01b6001600160e01b03198316145b92915050565b61079261117f565b6001600160a01b03919091166000908152600360205260409020805460ff1916911515919091179055565b6107c561117f565b6001600160a01b03919091166000908152600460205260409020805460ff1916911515919091179055565b6107f861117f565b6001546040517ff3fef3a30000000000000000000000000000000000000000000000000000000081526001600160a01b038381166004830152602482018590529091169063f3fef3a390604401600060405180830381600087803b15801561085f57600080fd5b505af1158015610873573d6000803e3d6000fd5b505050505050565b61088361117f565b61088d60006111d9565b565b610897610c50565b5050505050565b6108a661117f565b6108d96001600160a01b0382167fe9fb30f700000000000000000000000000000000000000000000000000000000611236565b6109255760405162461bcd60e51b815260206004820152601f60248201527f746172676574206973206e6f7420612076616c6964204952656c617948756200604482015260640161021e565b6001805473ffffffffffffffffffffffffffffffffffffffff19166001600160a01b0392909216919091179055565b61095c61117f565b600280547fffffffffffffffffffff0000ffffffffffffffffffffffffffffffffffffffff16600160a01b951515959095027fffffffffffffffffffff00ffffffffffffffffffffffffffffffffffffffffff1694909417600160a81b93151593909302929092177fffffffffffffffff0000ffffffffffffffffffffffffffffffffffffffffffff16600160b01b911515919091027fffffffffffffffff00ffffffffffffffffffffffffffffffffffffffffffffff1617600160b81b91151591909102179055565b6060604051806060016040528060298152602001611a6b60299139905090565b610a716040518060800160405280600081526020016000815260200160008152602001600081525090565b604051806080016040528061c350620186a0610a8d919061197f565b8152602001620186a081526020016201adb08152602001612904815250905090565b610ab761117f565b610aea6001600160a01b0382167f25e23e6400000000000000000000000000000000000000000000000000000000611236565b610b365760405162461bcd60e51b815260206004820181905260248201527f746172676574206973206e6f7420612076616c69642049466f72776172646572604482015260640161021e565b6002805473ffffffffffffffffffffffffffffffffffffffff19166001600160a01b0392909216919091179055565b610b7461c350620186a061197f565b81565b610b7f61117f565b6001600160a01b0390921660009081526005602090815260408083206001600160e01b0319909416835292905220805491151560ff19909216919091179055565b610bc861117f565b6001600160a01b038116610c445760405162461bcd60e51b815260206004820152602660248201527f4f776e61626c653a206e6577206f776e657220697320746865207a65726f206160448201527f6464726573730000000000000000000000000000000000000000000000000000606482015260840161021e565b610c4d816111d9565b50565b6001546001600160a01b0316331461088d5760405162461bcd60e51b815260206004820152601e60248201527f63616e206f6e6c792062652063616c6c65642062792052656c61794875620000604482015260640161021e565b610cb760208201826119be565b610cc89060c081019060a0016118aa565b6001600160a01b0316610ce36002546001600160a01b031690565b6001600160a01b031614610d395760405162461bcd60e51b815260206004820152601860248201527f466f72776172646572206973206e6f7420747275737465640000000000000000604482015260640161021e565b610c4d81611259565b610d4c81806119de565b6040013515610c4d5760405162461bcd60e51b815260206004820152601c60248201527f76616c7565207472616e73666572206e6f7420737570706f7274656400000000604482015260640161021e565b610daa60208201826119be565b610db89060c08101906119f4565b159050610c4d5760405162461bcd60e51b815260206004820152601c60248201527f73686f756c642068617665206e6f207061796d61737465724461746100000000604482015260640161021e565b8015610e555760405162461bcd60e51b815260206004820152601b60248201527f73686f756c642068617665206e6f20617070726f76616c446174610000000000604482015260640161021e565b5050565b606060008315610eab5760405162461bcd60e51b815260206004820152601c60248201527f617070726f76616c446174613a20696e76616c6964206c656e67746800000000604482015260640161021e565b610eb860208901896119be565b610ec69060c08101906119f4565b159050610f155760405162461bcd60e51b815260206004820152601d60248201527f7061796d6173746572446174613a20696e76616c6964206c656e677468000000604482015260640161021e565b600254600160a01b900460ff1615610fae576000610f3389806119de565b610f419060208101906118aa565b6001600160a01b03811660009081526003602052604090205490915060ff16610fac5760405162461bcd60e51b815260206004820152601660248201527f73656e646572206e6f742077686974656c697374656400000000000000000000604482015260640161021e565b505b600254600160a81b900460ff161561104a576000610fcc89806119de565b610fdd9060408101906020016118aa565b6001600160a01b03811660009081526004602052604090205490915060ff166110485760405162461bcd60e51b815260206004820152601660248201527f746172676574206e6f742077686974656c697374656400000000000000000000604482015260640161021e565b505b600254600160b01b900460ff161561115557600061106889806119de565b6110799060408101906020016118aa565b905060006110d261108a8b806119de565b6110989060a08101906119f4565b8080601f01602080910402602001604051908101604052809392919081815260200183838082843760009201919091525061147092505050565b6001600160a01b03831660009081526005602090815260408083206001600160e01b03198516845290915290205490915060ff166111525760405162461bcd60e51b815260206004820152601660248201527f6d6574686f64206e6f742077686974656c697374656400000000000000000000604482015260640161021e565b50505b505060025460408051602081019091526000815297600160b81b90910460ff169650945050505050565b6000546001600160a01b0316331461088d5760405162461bcd60e51b815260206004820181905260248201527f4f776e61626c653a2063616c6c6572206973206e6f7420746865206f776e6572604482015260640161021e565b600080546001600160a01b0383811673ffffffffffffffffffffffffffffffffffffffff19831681178455604051919092169283917f8be0079c531659141344cd1fd0a4f28419497f9722a3daafe3b4186f6b6457e09190a35050565b60006112418361147d565b8015611252575061125283836114b0565b9392505050565b60008061126683806119de565b6112779060408101906020016118aa565b6001600160a01b03167f572b6c05000000000000000000000000000000000000000000000000000000006112ae60208601866119be565b6112bf9060c081019060a0016118aa565b6040516001600160a01b03909116602482015260440160408051601f198184030181529181526020820180517bffffffffffffffffffffffffffffffffffffffffffffffffffffffff166001600160e01b03199094169390931790925290516113289190611a3b565b600060405180830381855afa9150503d8060008114611363576040519150601f19603f3d011682016040523d82523d6000602084013e611368565b606091505b5091509150816113ba5760405162461bcd60e51b815260206004820152601c60248201527f697354727573746564466f727761726465723a20726576657274656400000000604482015260640161021e565b805160201461140b5760405162461bcd60e51b815260206004820181905260248201527f697354727573746564466f727761726465723a2062616420726573706f6e7365604482015260640161021e565b8080602001905181019061141f9190611a4d565b61146b5760405162461bcd60e51b815260206004820152601f60248201527f696e76616c696420666f7277617264657220666f7220726563697069656e7400604482015260640161021e565b505050565b600061078482600061154e565b6000611490826301ffc9a760e01b6114b0565b801561078457506114a9826001600160e01b03196114b0565b1592915050565b604080516001600160e01b03198316602480830191909152825180830390910181526044909101909152602080820180517bffffffffffffffffffffffffffffffffffffffffffffffffffffffff166301ffc9a760e01b178152825160009392849283928392918391908a617530fa92503d91506000519050828015611537575060208210155b80156115435750600081115b979650505050505050565b600061155b82600461197f565b835110156115ab5760405162461bcd60e51b815260206004820152601a60248201527f726561644279746573343a206461746120746f6f2073686f7274000000000000604482015260640161021e565b5001602001516001600160e01b03191690565b60008083601f8401126115d057600080fd5b50813567ffffffffffffffff8111156115e857600080fd5b60208301915083602082850101111561160057600080fd5b9250929050565b6000806000806000806080878903121561162057600080fd5b863567ffffffffffffffff8082111561163857600080fd5b908801906040828b03121561164c57600080fd5b9096506020880135908082111561166257600080fd5b61166e8a838b016115be565b9097509550604089013591508082111561168757600080fd5b5061169489828a016115be565b979a9699509497949695606090950135949350505050565b60005b838110156116c75781810151838201526020016116af565b838111156116d6576000848401525b50505050565b600081518084526116f48160208601602086016116ac565b601f01601f19169290920160200192915050565b60408152600061171b60408301856116dc565b905082151560208301529392505050565b80356001600160e01b03198116811461174457600080fd5b919050565b60006020828403121561175b57600080fd5b6112528261172c565b6001600160a01b0381168114610c4d57600080fd5b8015158114610c4d57600080fd5b6000806040838503121561179a57600080fd5b82356117a581611764565b915060208301356117b581611779565b809150509250929050565b600080604083850312156117d357600080fd5b8235915060208301356117b581611764565b600080604083850312156117f857600080fd5b823561180381611764565b91506118116020840161172c565b90509250929050565b60008060008060006080868803121561183257600080fd5b853567ffffffffffffffff8082111561184a57600080fd5b61185689838a016115be565b90975095506020880135915061186b82611779565b909350604087013592506060870135908082111561188857600080fd5b508601610100818903121561189c57600080fd5b809150509295509295909350565b6000602082840312156118bc57600080fd5b813561125281611764565b600080600080608085870312156118dd57600080fd5b84356118e881611779565b935060208501356118f881611779565b9250604085013561190881611779565b9150606085013561191881611779565b939692955090935050565b60208152600061125260208301846116dc565b60008060006060848603121561194b57600080fd5b833561195681611764565b92506119646020850161172c565b9150604084013561197481611779565b809150509250925092565b600082198211156119b9577f4e487b7100000000000000000000000000000000000000000000000000000000600052601160045260246000fd5b500190565b6000823560fe198336030181126119d457600080fd5b9190910192915050565b6000823560de198336030181126119d457600080fd5b6000808335601e19843603018112611a0b57600080fd5b83018035915067ffffffffffffffff821115611a2657600080fd5b60200191503681900382131561160057600080fd5b600082516119d48184602087016116ac565b600060208284031215611a5f57600080fd5b81516112528161177956fe332e302e302d626574612e332b6f70656e67736e2e77686974656c6973742e697061796d6173746572a26469706673582212201dab195db473b741f09e5703868d056c570a9b9b8cc01c7bb8f9a1139f8386cb64736f6c63430008080033",
  "linkReferences": {},
  "deployedLinkReferences": {}
}