{
  "_format": "hh-sol-artifact-1",
  "contractName": "MultiSig",
  "sourceName": "contracts/MultiSig.sol",
  "abi": [
    {
      "inputs": [
        {
          "internalType": "address",
          "name": "forwarder",
          "type": "address"
        },
        {
          "internalType": "address[]",
          "name": "_owners",
          "type": "address[]"
        },
        {
          "internalType": "uint256",
          "name": "_required",
          "type": "uint256"
        }
      ],
      "stateMutability": "nonpayable",
      "type": "constructor"
    },
    {
      "inputs": [
        {
          "internalType": "uint256",
          "name": "",
          "type": "uint256"
        }
      ],
      "name": "ApprovedProsumers",
      "outputs": [
        {
          "internalType": "uint256",
          "name": "_prosumerID",
          "type": "uint256"
        },
        {
          "internalType": "address",
          "name": "_address",
          "type": "address"
        },
        {
          "internalType": "uint256",
          "name": "_aadharId",
          "type": "uint256"
        },
        {
          "internalType": "bool",
          "name": "_approved",
          "type": "bool"
        },
        {
          "internalType": "bool",
          "name": "_suspended",
          "type": "bool"
        },
        {
          "internalType": "uint256",
          "name": "_energyUnitPriceUSD",
          "type": "uint256"
        },
        {
          "internalType": "uint256",
          "name": "_energyUnitPriceMatic",
          "type": "uint256"
        },
        {
          "internalType": "uint256",
          "name": "_stakedEnergyBalance",
          "type": "uint256"
        }
      ],
      "stateMutability": "view",
      "type": "function"
    },
    {
      "inputs": [
        {
          "internalType": "uint256",
          "name": "_unApprovedProsumerID",
          "type": "uint256"
        }
      ],
      "name": "DisApproveProsumer_OwnerSpecific",
      "outputs": [],
      "stateMutability": "nonpayable",
      "type": "function"
    },
    {
      "inputs": [
        {
          "internalType": "address",
          "name": "",
          "type": "address"
        }
      ],
      "name": "approvalCount",
      "outputs": [
        {
          "internalType": "uint256",
          "name": "",
          "type": "uint256"
        }
      ],
      "stateMutability": "view",
      "type": "function"
    },
    {
      "inputs": [
        {
          "internalType": "uint256",
          "name": "_unApprovedProsumerID",
          "type": "uint256"
        }
      ],
      "name": "approveProsumer_OwnerSpecific",
      "outputs": [],
      "stateMutability": "nonpayable",
      "type": "function"
    },
    {
      "inputs": [
        {
          "internalType": "address",
          "name": "",
          "type": "address"
        },
        {
          "internalType": "address",
          "name": "",
          "type": "address"
        }
      ],
      "name": "approved",
      "outputs": [
        {
          "internalType": "bool",
          "name": "",
          "type": "bool"
        }
      ],
      "stateMutability": "view",
      "type": "function"
    },
    {
      "inputs": [],
      "name": "complainCount",
      "outputs": [
        {
          "internalType": "uint256",
          "name": "",
          "type": "uint256"
        }
      ],
      "stateMutability": "view",
      "type": "function"
    },
    {
      "inputs": [
        {
          "internalType": "uint256",
          "name": "",
          "type": "uint256"
        }
      ],
      "name": "complains",
      "outputs": [
        {
          "internalType": "uint256",
          "name": "_complainID",
          "type": "uint256"
        },
        {
          "internalType": "uint256",
          "name": "_complainant",
          "type": "uint256"
        },
        {
          "internalType": "uint256",
          "name": "_accused",
          "type": "uint256"
        },
        {
          "internalType": "string",
          "name": "_complain",
          "type": "string"
        },
        {
          "internalType": "bool",
          "name": "_resolved",
          "type": "bool"
        }
      ],
      "stateMutability": "view",
      "type": "function"
    },
    {
      "inputs": [
        {
          "internalType": "address",
          "name": "",
          "type": "address"
        }
      ],
      "name": "disapprovalCount",
      "outputs": [
        {
          "internalType": "uint256",
          "name": "",
          "type": "uint256"
        }
      ],
      "stateMutability": "view",
      "type": "function"
    },
    {
      "inputs": [
        {
          "internalType": "address",
          "name": "",
          "type": "address"
        },
        {
          "internalType": "address",
          "name": "",
          "type": "address"
        }
      ],
      "name": "disapproved",
      "outputs": [
        {
          "internalType": "bool",
          "name": "",
          "type": "bool"
        }
      ],
      "stateMutability": "view",
      "type": "function"
    },
    {
      "inputs": [],
      "name": "getTrustedForwarder",
      "outputs": [
        {
          "internalType": "address",
          "name": "forwarder",
          "type": "address"
        }
      ],
      "stateMutability": "view",
      "type": "function"
    },
    {
      "inputs": [
        {
          "internalType": "address",
          "name": "",
          "type": "address"
        }
      ],
      "name": "isOwner",
      "outputs": [
        {
          "internalType": "bool",
          "name": "",
          "type": "bool"
        }
      ],
      "stateMutability": "view",
      "type": "function"
    },
    {
      "inputs": [
        {
          "internalType": "address",
          "name": "",
          "type": "address"
        }
      ],
      "name": "isProsumer",
      "outputs": [
        {
          "internalType": "bool",
          "name": "",
          "type": "bool"
        }
      ],
      "stateMutability": "view",
      "type": "function"
    },
    {
      "inputs": [
        {
          "internalType": "address",
          "name": "forwarder",
          "type": "address"
        }
      ],
      "name": "isTrustedForwarder",
      "outputs": [
        {
          "internalType": "bool",
          "name": "",
          "type": "bool"
        }
      ],
      "stateMutability": "view",
      "type": "function"
    },
    {
      "inputs": [],
      "name": "maxComplains",
      "outputs": [
        {
          "internalType": "uint256",
          "name": "",
          "type": "uint256"
        }
      ],
      "stateMutability": "view",
      "type": "function"
    },
    {
      "inputs": [
        {
          "internalType": "uint256",
          "name": "",
          "type": "uint256"
        }
      ],
      "name": "owners",
      "outputs": [
        {
          "internalType": "address",
          "name": "",
          "type": "address"
        }
      ],
      "stateMutability": "view",
      "type": "function"
    },
    {
      "inputs": [
        {
          "internalType": "uint256",
          "name": "",
          "type": "uint256"
        }
      ],
      "name": "prosumerAddress",
      "outputs": [
        {
          "internalType": "address",
          "name": "",
          "type": "address"
        }
      ],
      "stateMutability": "view",
      "type": "function"
    },
    {
      "inputs": [
        {
          "internalType": "address",
          "name": "",
          "type": "address"
        }
      ],
      "name": "prosumerID",
      "outputs": [
        {
          "internalType": "uint256",
          "name": "",
          "type": "uint256"
        }
      ],
      "stateMutability": "view",
      "type": "function"
    },
    {
      "inputs": [
        {
          "internalType": "uint256",
          "name": "_prosumerId",
          "type": "uint256"
        },
        {
          "internalType": "string",
          "name": "_complainBody",
          "type": "string"
        }
      ],
      "name": "raiseComplain",
      "outputs": [],
      "stateMutability": "nonpayable",
      "type": "function"
    },
    {
      "inputs": [],
      "name": "regFee",
      "outputs": [
        {
          "internalType": "uint256",
          "name": "",
          "type": "uint256"
        }
      ],
      "stateMutability": "view",
      "type": "function"
    },
    {
      "inputs": [
        {
          "internalType": "uint256",
          "name": "_aadharNo",
          "type": "uint256"
        }
      ],
      "name": "req_Registration",
      "outputs": [],
      "stateMutability": "payable",
      "type": "function"
    },
    {
      "inputs": [],
      "name": "required",
      "outputs": [
        {
          "internalType": "uint256",
          "name": "",
          "type": "uint256"
        }
      ],
      "stateMutability": "view",
      "type": "function"
    },
    {
      "inputs": [
        {
          "internalType": "uint256",
          "name": "_regFee",
          "type": "uint256"
        }
      ],
      "name": "setRegFee",
      "outputs": [],
      "stateMutability": "nonpayable",
      "type": "function"
    },
    {
      "inputs": [
        {
          "internalType": "address",
          "name": "_unapprovedProsumerAddress",
          "type": "address"
        }
      ],
      "name": "showApprovalStatus_OwnerSpecific",
      "outputs": [
        {
          "internalType": "string",
          "name": "",
          "type": "string"
        }
      ],
      "stateMutability": "view",
      "type": "function"
    },
    {
      "inputs": [],
      "name": "show_Approved_Prosumers",
      "outputs": [
        {
          "components": [
            {
              "internalType": "uint256",
              "name": "_prosumerID",
              "type": "uint256"
            },
            {
              "internalType": "address",
              "name": "_address",
              "type": "address"
            },
            {
              "internalType": "uint256",
              "name": "_aadharId",
              "type": "uint256"
            },
            {
              "internalType": "bool",
              "name": "_approved",
              "type": "bool"
            },
            {
              "internalType": "bool",
              "name": "_suspended",
              "type": "bool"
            },
            {
              "internalType": "uint256",
              "name": "_energyUnitPriceUSD",
              "type": "uint256"
            },
            {
              "internalType": "uint256",
              "name": "_energyUnitPriceMatic",
              "type": "uint256"
            },
            {
              "internalType": "uint256",
              "name": "_stakedEnergyBalance",
              "type": "uint256"
            }
          ],
          "internalType": "struct MultiSig.prosumer[]",
          "name": "",
          "type": "tuple[]"
        }
      ],
      "stateMutability": "view",
      "type": "function"
    },
    {
      "inputs": [],
      "name": "show_Unapproved_Prosumers",
      "outputs": [
        {
          "components": [
            {
              "internalType": "uint256",
              "name": "_prosumerID",
              "type": "uint256"
            },
            {
              "internalType": "address",
              "name": "_address",
              "type": "address"
            },
            {
              "internalType": "uint256",
              "name": "_aadharId",
              "type": "uint256"
            },
            {
              "internalType": "bool",
              "name": "_approved",
              "type": "bool"
            },
            {
              "internalType": "bool",
              "name": "_suspended",
              "type": "bool"
            },
            {
              "internalType": "uint256",
              "name": "_energyUnitPriceUSD",
              "type": "uint256"
            },
            {
              "internalType": "uint256",
              "name": "_energyUnitPriceMatic",
              "type": "uint256"
            },
            {
              "internalType": "uint256",
              "name": "_stakedEnergyBalance",
              "type": "uint256"
            }
          ],
          "internalType": "struct MultiSig.prosumer[]",
          "name": "",
          "type": "tuple[]"
        }
      ],
      "stateMutability": "view",
      "type": "function"
    },
    {
      "inputs": [
        {
          "internalType": "uint256",
          "name": "_prosumerId",
          "type": "uint256"
        },
        {
          "internalType": "uint256",
          "name": "_complainId",
          "type": "uint256"
        }
      ],
      "name": "suspendProsumer",
      "outputs": [],
      "stateMutability": "nonpayable",
      "type": "function"
    },
    {
      "inputs": [
        {
          "internalType": "address",
          "name": "",
          "type": "address"
        },
        {
          "internalType": "address",
          "name": "",
          "type": "address"
        }
      ],
      "name": "suspended",
      "outputs": [
        {
          "internalType": "bool",
          "name": "",
          "type": "bool"
        }
      ],
      "stateMutability": "view",
      "type": "function"
    },
    {
      "inputs": [
        {
          "internalType": "address",
          "name": "",
          "type": "address"
        }
      ],
      "name": "suspensionCount",
      "outputs": [
        {
          "internalType": "uint256",
          "name": "",
          "type": "uint256"
        }
      ],
      "stateMutability": "view",
      "type": "function"
    },
    {
      "inputs": [
        {
          "internalType": "address",
          "name": "newOwner",
          "type": "address"
        }
      ],
      "name": "transferOwnership",
      "outputs": [],
      "stateMutability": "nonpayable",
      "type": "function"
    },
    {
      "inputs": [
        {
          "internalType": "uint256",
          "name": "",
          "type": "uint256"
        }
      ],
      "name": "unApprovedProsumers",
      "outputs": [
        {
          "internalType": "uint256",
          "name": "_prosumerID",
          "type": "uint256"
        },
        {
          "internalType": "address",
          "name": "_address",
          "type": "address"
        },
        {
          "internalType": "uint256",
          "name": "_aadharId",
          "type": "uint256"
        },
        {
          "internalType": "bool",
          "name": "_approved",
          "type": "bool"
        },
        {
          "internalType": "bool",
          "name": "_suspended",
          "type": "bool"
        },
        {
          "internalType": "uint256",
          "name": "_energyUnitPriceUSD",
          "type": "uint256"
        },
        {
          "internalType": "uint256",
          "name": "_energyUnitPriceMatic",
          "type": "uint256"
        },
        {
          "internalType": "uint256",
          "name": "_stakedEnergyBalance",
          "type": "uint256"
        }
      ],
      "stateMutability": "view",
      "type": "function"
    },
    {
      "inputs": [
        {
          "internalType": "uint256",
          "name": "_prosumerId",
          "type": "uint256"
        },
        {
          "internalType": "uint256",
          "name": "_complainId",
          "type": "uint256"
        }
      ],
      "name": "unSuspendProsumer",
      "outputs": [],
      "stateMutability": "nonpayable",
      "type": "function"
    },
    {
      "inputs": [
        {
          "internalType": "address",
          "name": "",
          "type": "address"
        },
        {
          "internalType": "address",
          "name": "",
          "type": "address"
        }
      ],
      "name": "unSuspended",
      "outputs": [
        {
          "internalType": "bool",
          "name": "",
          "type": "bool"
        }
      ],
      "stateMutability": "view",
      "type": "function"
    },
    {
      "inputs": [
        {
          "internalType": "address",
          "name": "",
          "type": "address"
        }
      ],
      "name": "unSuspensionCount",
      "outputs": [
        {
          "internalType": "uint256",
          "name": "",
          "type": "uint256"
        }
      ],
      "stateMutability": "view",
      "type": "function"
    },
    {
      "inputs": [],
      "name": "versionRecipient",
      "outputs": [
        {
          "internalType": "string",
          "name": "",
          "type": "string"
        }
      ],
      "stateMutability": "view",
      "type": "function"
    },
    {
      "inputs": [],
      "name": "withdrawFees",
      "outputs": [],
      "stateMutability": "nonpayable",
      "type": "function"
    }
  ],
  "bytecode": "0x600a60135560c060405260056080819052640332e302e360dc1b60a09081526200002d9160159190620002a0565b503480156200003b57600080fd5b5060405162003677380380620036778339810160408190526200005e9162000379565b600080546001600160a01b0319166001600160a01b0385161790556000825111620000c25760405162461bcd60e51b815260206004820152600f60248201526e13dddb995c9cc814995c5d5a5c9959608a1b60448201526064015b60405180910390fd5b600081118015620000d4575081518111155b6200012c5760405162461bcd60e51b815260206004820152602160248201527f496e76616c6964207265717569726564206e756d626572206f66206f776e65726044820152607360f81b6064820152608401620000b9565b60005b8251811015620002935760008382815181106200015057620001506200046b565b6020026020010151905060006001600160a01b0316816001600160a01b03161415620001af5760405162461bcd60e51b815260206004820152600d60248201526c34b73b30b634b21037bbb732b960991b6044820152606401620000b9565b6001600160a01b03811660009081526004602052604090205460ff16156200021a5760405162461bcd60e51b815260206004820152601360248201527f4f776e6572206973206e6f7420756e69717565000000000000000000000000006044820152606401620000b9565b6001600160a01b03166000818152600460205260408120805460ff191660019081179091556003805491820181559091527fc2575a0e9e593c00f959f8c92f12db2869c3395a3b0502d05e2516446f71f85b0180546001600160a01b0319169091179055806200028a8162000481565b9150506200012f565b5060015550620004e89050565b828054620002ae90620004ab565b90600052602060002090601f016020900481019282620002d257600085556200031d565b82601f10620002ed57805160ff19168380011785556200031d565b828001600101855582156200031d579182015b828111156200031d57825182559160200191906001019062000300565b506200032b9291506200032f565b5090565b5b808211156200032b576000815560010162000330565b80516001600160a01b03811681146200035e57600080fd5b919050565b634e487b7160e01b600052604160045260246000fd5b6000806000606084860312156200038f57600080fd5b6200039a8462000346565b602085810151919450906001600160401b0380821115620003ba57600080fd5b818701915087601f830112620003cf57600080fd5b815181811115620003e457620003e462000363565b8060051b604051601f19603f830116810181811085821117156200040c576200040c62000363565b60405291825284820192508381018501918a8311156200042b57600080fd5b938501935b828510156200045457620004448562000346565b8452938501939285019262000430565b809750505050505050604084015190509250925092565b634e487b7160e01b600052603260045260246000fd5b6000600019821415620004a457634e487b7160e01b600052601160045260246000fd5b5060010190565b600181811c90821680620004c057607f821691505b60208210811415620004e257634e487b7160e01b600052602260045260246000fd5b50919050565b61317f80620004f86000396000f3fe6080604052600436106102335760003560e01c80637b78bc6b11610138578063ce1b815f116100b0578063e814db591161007f578063f4b1604511610064578063f4b160451461072e578063f85bae7814610769578063fdbd2e8b146107a457600080fd5b8063e814db59146106ee578063f2fde38b1461070e57600080fd5b8063ce1b815f14610685578063dc8452cd146106a3578063e706d568146106b9578063e7e4f9d9146106ce57600080fd5b80639a9ddd16116101075780639ff34115116100ec5780639ff3411514610632578063c7a7275e14610645578063c8b6ba491461066557600080fd5b80639a9ddd16146105e55780639c01a6df1461061257600080fd5b80637b78bc6b1461054c5780638fac63711461056c5780638fff20f3146105a257806390f8ba3c146105b857600080fd5b80634ea30b2f116101cb5780635f81b6061161019a57806366cc771f1161017f57806366cc771f146104ce57806373de8ce8146104fb57806375ae81b31461051157600080fd5b80635f81b60614610471578063612536fc146104ac57600080fd5b80634ea30b2f146103965780634ef8ab77146103c757806350a7ac251461042c578063572b6c051461044257600080fd5b806340cb33421161020757806340cb33421461031d578063476343ee1461033f578063486ff0cd146103545780634ca46d191461037657600080fd5b80621cfdce14610238578063025e7c2714610278578063143859eb146102b05780632f54bf6e146102dd575b600080fd5b34801561024457600080fd5b50610265610253366004612d99565b600d6020526000908152604090205481565b6040519081526020015b60405180910390f35b34801561028457600080fd5b50610298610293366004612dbb565b6107d4565b6040516001600160a01b03909116815260200161026f565b3480156102bc57600080fd5b506102656102cb366004612d99565b60116020526000908152604090205481565b3480156102e957600080fd5b5061030d6102f8366004612d99565b60046020526000908152604090205460ff1681565b604051901515815260200161026f565b34801561032957600080fd5b5061033d610338366004612dd4565b6107fe565b005b34801561034b57600080fd5b5061033d610b60565b34801561036057600080fd5b50610369610cb6565b60405161026f9190612e43565b34801561038257600080fd5b5061033d610391366004612dbb565b610d44565b3480156103a257600080fd5b506103b66103b1366004612dbb565b6111e7565b60405161026f959493929190612e56565b3480156103d357600080fd5b506103e76103e2366004612dbb565b6112b8565b604080519889526001600160a01b0390971660208901529587019490945291151560608601521515608085015260a084015260c083015260e08201526101000161026f565b34801561043857600080fd5b5061026560135481565b34801561044e57600080fd5b5061030d61045d366004612d99565b6000546001600160a01b0391821691161490565b34801561047d57600080fd5b5061030d61048c366004612e8f565b600760209081526000928352604080842090915290825290205460ff1681565b3480156104b857600080fd5b506104c161131c565b60405161026f9190612ec2565b3480156104da57600080fd5b506102656104e9366004612d99565b600f6020526000908152604090205481565b34801561050757600080fd5b5061026560125481565b34801561051d57600080fd5b5061030d61052c366004612e8f565b600860209081526000928352604080842090915290825290205460ff1681565b34801561055857600080fd5b50610369610567366004612d99565b6113dc565b34801561057857600080fd5b50610298610587366004612dbb565b600c602052600090815260409020546001600160a01b031681565b3480156105ae57600080fd5b5061026560025481565b3480156105c457600080fd5b506102656105d3366004612d99565b60106020526000908152604090205481565b3480156105f157600080fd5b50610265610600366004612d99565b600e6020526000908152604090205481565b34801561061e57600080fd5b506103e761062d366004612dbb565b611572565b61033d610640366004612dbb565b611582565b34801561065157600080fd5b5061033d610660366004612dbb565b611972565b34801561067157600080fd5b5061033d610680366004612f72565b611fa9565b34801561069157600080fd5b506000546001600160a01b0316610298565b3480156106af57600080fd5b5061026560015481565b3480156106c557600080fd5b506104c16124f6565b3480156106da57600080fd5b5061033d6106e9366004612dd4565b612609565b3480156106fa57600080fd5b5061033d610709366004612dbb565b6128be565b34801561071a57600080fd5b5061033d610729366004612d99565b612924565b34801561073a57600080fd5b5061030d610749366004612e8f565b600560209081526000928352604080842090915290825290205460ff1681565b34801561077557600080fd5b5061030d610784366004612e8f565b600660209081526000928352604080842090915290825290205460ff1681565b3480156107b057600080fd5b5061030d6107bf366004612d99565b600b6020526000908152604090205460ff1681565b600381815481106107e457600080fd5b6000918252602090912001546001600160a01b0316905081565b6004600061080a612a29565b6001600160a01b0316815260208101919091526040016000205460ff166108645760405162461bcd60e51b81526020600482015260096024820152682737ba1027bbb732b960b91b60448201526064015b60405180910390fd5b6000828152600c60209081526040808320546001600160a01b03168352600b90915290205460ff166108d85760405162461bcd60e51b815260206004820152600e60248201527f4e6f7420612050726f73756d6572000000000000000000000000000000000000604482015260640161085b565b6000828152600c60209081526040808320546001600160a01b031683526008909152812090610905612a29565b6001600160a01b0316815260208101919091526040016000205460ff161561096f5760405162461bcd60e51b815260206004820152601360248201527f416c726561647920556e73757370656e64656400000000000000000000000000604482015260640161085b565b6000828152600c60209081526040808320546001600160a01b0316808452600890925282209091600191906109a2612a29565b6001600160a01b03908116825260208083019390935260409182016000908120805460ff1916951515959095179094558416835260079091528120906109e6612a29565b6001600160a01b0316815260208101919091526040016000205460ff1615610a76576001600160a01b038116600090815260076020526040812081610a29612a29565b6001600160a01b03908116825260208083019390935260409182016000908120805460ff1916951515959095179094558416835260109091528120805491610a7083613043565b91905055505b6001600160a01b038116600090815260116020526040812080549082610a9b8361305a565b919050559050600154811115610b5a576001600160a01b0382166000908152601160209081526040808320839055601090915281208190556009610ae0600187613075565b81548110610af057610af061308c565b6000918252602090912060036007909202010180549115156101000261ff001990921691909117905560016014610b278286613075565b81548110610b3757610b3761308c565b60009182526020909120600590910201600401805460ff19169115159190911790555b50505050565b60046000610b6c612a29565b6001600160a01b0316815260208101919091526040016000205460ff16610bc15760405162461bcd60e51b81526020600482015260096024820152682737ba1027bbb732b960b91b604482015260640161085b565b600354600090610bd190476130b8565b905060005b600354811015610cb257600060038281548110610bf557610bf561308c565b60009182526020822001546040516001600160a01b039091169185919081818185875af1925050503d8060008114610c49576040519150601f19603f3d011682016040523d82523d6000602084013e610c4e565b606091505b5050905080610c9f5760405162461bcd60e51b815260206004820152600b60248201527f43616c6c204661696c6564000000000000000000000000000000000000000000604482015260640161085b565b5080610caa8161305a565b915050610bd6565b5050565b60158054610cc3906130cc565b80601f0160208091040260200160405190810160405280929190818152602001828054610cef906130cc565b8015610d3c5780601f10610d1157610100808354040283529160200191610d3c565b820191906000526020600020905b815481529060010190602001808311610d1f57829003601f168201915b505050505081565b60046000610d50612a29565b6001600160a01b0316815260208101919091526040016000205460ff16610da55760405162461bcd60e51b81526020600482015260096024820152682737ba1027bbb732b960b91b604482015260640161085b565b600a548110610df65760405162461bcd60e51b815260206004820152601e60248201527f496e76616c696420556e617070726f7665642050726f73756d65722049440000604482015260640161085b565b60066000600a8381548110610e0d57610e0d61308c565b60009182526020808320600160079093020191909101546001600160a01b03168352820192909252604001812090610e43612a29565b6001600160a01b0316815260208101919091526040016000205460ff1615610ed35760405162461bcd60e51b815260206004820152602360248201527f50726f73756d657220416c726561647920646973617070726f7665642062792060448201527f796f750000000000000000000000000000000000000000000000000000000000606482015260840161085b565b600160066000600a8481548110610eec57610eec61308c565b60009182526020808320600160079093020191909101546001600160a01b03168352820192909252604001812090610f22612a29565b6001600160a01b03166001600160a01b0316815260200190815260200160002060006101000a81548160ff02191690831515021790555060066000600a8381548110610f7057610f7061308c565b60009182526020808320600160079093020191909101546001600160a01b03168352820192909252604001812090610fa6612a29565b6001600160a01b0316815260208101919091526040016000205460ff16156110a457600060056000600a8481548110610fe157610fe161308c565b60009182526020808320600160079093020191909101546001600160a01b03168352820192909252604001812090611017612a29565b6001600160a01b03166001600160a01b0316815260200190815260200160002060006101000a81548160ff021916908315150217905550600e6000600a83815481106110655761106561308c565b60009182526020808320600160079093020191909101546001600160a01b03168352820192909252604001812080549161109e83613043565b91905055505b600f6000600a83815481106110bb576110bb61308c565b60009182526020808320600160079093020191909101546001600160a01b0316835282019290925260400181208054916110f48361305a565b91905055506000600f6000600a84815481106111125761111261308c565b6000918252602080832060016007909302018201546001600160a01b0316845283019390935260409091019020549054909150811115610cb25761115582612a5d565b600f6000600a848154811061116c5761116c61308c565b60009182526020808320600160079093020191909101546001600160a01b031683528201929092526040018120819055600a8054600e929190859081106111b5576111b561308c565b60009182526020808320600160079093020191909101546001600160a01b031683528201929092526040018120555050565b601481815481106111f757600080fd5b906000526020600020906005020160009150905080600001549080600101549080600201549080600301805461122c906130cc565b80601f0160208091040260200160405190810160405280929190818152602001828054611258906130cc565b80156112a55780601f1061127a576101008083540402835291602001916112a5565b820191906000526020600020905b81548152906001019060200180831161128857829003601f168201915b5050506004909301549192505060ff1685565b600981815481106112c857600080fd5b600091825260209091206007909102018054600182015460028301546003840154600485015460058601546006909601549496506001600160a01b0390931694919360ff8083169461010090930416929088565b60606009805480602002602001604051908101604052809291908181526020016000905b828210156113d357600084815260209081902060408051610100808201835260078702909301805482526001808201546001600160a01b031683870152600282015493830193909352600381015460ff8082161515606085015294900490931615156080820152600483015460a0820152600583015460c082015260069092015460e08301529083529092019101611340565b50505050905090565b6060600460006113ea612a29565b6001600160a01b0316815260208101919091526040016000205460ff1661143f5760405162461bcd60e51b81526020600482015260096024820152682737ba1027bbb732b960b91b604482015260640161085b565b6001600160a01b038216600090815260056020526040812090611460612a29565b6001600160a01b0316815260208101919091526040016000205460ff16156114bb57505060408051808201909152601181527f50726f73756d657220417070726f766564000000000000000000000000000000602082015290565b6001600160a01b0382166000908152600660205260408120906114dc612a29565b6001600160a01b0316815260208101919091526040016000205460ff161561153757505060408051808201909152601481527f50726f73756d657220446973617070726f766564000000000000000000000000602082015290565b5060408051808201909152601981527f50726f73756d6572204e6f74205665726966696564205965740000000000000060208201525b919050565b600a81815481106112c857600080fd5b3360009081526004602052604090205460ff16156115e25760405162461bcd60e51b815260206004820152601060248201527f596f752061726520616e204f776e657200000000000000000000000000000000604482015260640161085b565b60025434101561165a5760405162461bcd60e51b815260206004820152602560248201527f526567697374726174696f6e204661696c65642c20496e73756666696369656e60448201527f7420466565000000000000000000000000000000000000000000000000000000606482015260840161085b565b336000908152600b602052604090205460ff16156116e05760405162461bcd60e51b815260206004820152602960248201527f596f752061726520616c726561647920612050726f73756d657220696e20746860448201527f65204e6574776f726b0000000000000000000000000000000000000000000000606482015260840161085b565b6116e8612c82565b1561175b5760405162461bcd60e51b815260206004820152602b60248201527f596f75206861766520616c72656164792072657175657374656420666f72205260448201527f6567697374726174696f6e000000000000000000000000000000000000000000606482015260840161085b565b8060005b811561178457611770600a836130b8565b91508061177c8161305a565b91505061175f565b80600c146117d45760405162461bcd60e51b815260206004820152601b60248201527f456e746572206120313220646967697420416164686172204e6f2e0000000000604482015260640161085b565b505060408051610100808201835260008083523360208401908152938301948552606083018181526080840182815260a0850183815260c0860184815260e08701858152600a8054600181018255965296517fc65a7bb8d6351c1cf70c95a316cc6a92839c986682d98bc35f958f4883f9d2a860079096029586015596517fc65a7bb8d6351c1cf70c95a316cc6a92839c986682d98bc35f958f4883f9d2a9850180546001600160a01b0319166001600160a01b0390921691909117905596517fc65a7bb8d6351c1cf70c95a316cc6a92839c986682d98bc35f958f4883f9d2aa84015590517fc65a7bb8d6351c1cf70c95a316cc6a92839c986682d98bc35f958f4883f9d2ab83018054925161ffff1990931691151561ff001916919091179115159093021790915592517fc65a7bb8d6351c1cf70c95a316cc6a92839c986682d98bc35f958f4883f9d2ac84015590517fc65a7bb8d6351c1cf70c95a316cc6a92839c986682d98bc35f958f4883f9d2ad830155517fc65a7bb8d6351c1cf70c95a316cc6a92839c986682d98bc35f958f4883f9d2ae90910155565b6004600061197e612a29565b6001600160a01b0316815260208101919091526040016000205460ff166119d35760405162461bcd60e51b81526020600482015260096024820152682737ba1027bbb732b960b91b604482015260640161085b565b600a548110611a245760405162461bcd60e51b815260206004820152601e60248201527f496e76616c696420556e617070726f7665642050726f73756d65722049440000604482015260640161085b565b60056000600a8381548110611a3b57611a3b61308c565b60009182526020808320600160079093020191909101546001600160a01b03168352820192909252604001812090611a71612a29565b6001600160a01b0316815260208101919091526040016000205460ff1615611adb5760405162461bcd60e51b815260206004820181905260248201527f50726f73756d657220416c726561647920617070726f76656420627920796f75604482015260640161085b565b600160056000600a8481548110611af457611af461308c565b60009182526020808320600160079093020191909101546001600160a01b03168352820192909252604001812090611b2a612a29565b6001600160a01b03166001600160a01b0316815260200190815260200160002060006101000a81548160ff02191690831515021790555060066000600a8381548110611b7857611b7861308c565b60009182526020808320600160079093020191909101546001600160a01b03168352820192909252604001812090611bae612a29565b6001600160a01b0316815260208101919091526040016000205460ff1615611cac57600060066000600a8481548110611be957611be961308c565b60009182526020808320600160079093020191909101546001600160a01b03168352820192909252604001812090611c1f612a29565b6001600160a01b03166001600160a01b0316815260200190815260200160002060006101000a81548160ff021916908315150217905550600f6000600a8381548110611c6d57611c6d61308c565b60009182526020808320600160079093020191909101546001600160a01b031683528201929092526040018120805491611ca683613043565b91905055505b600e6000600a8381548110611cc357611cc361308c565b60009182526020808320600160079093020191909101546001600160a01b031683528201929092526040018120805491611cfc8361305a565b91905055506000600e6000600a8481548110611d1a57611d1a61308c565b6000918252602080832060016007909302018201546001600160a01b0316845283019390935260409091019020549054909150811115610cb2576001600a8381548110611d6957611d6961308c565b60009182526020909120600790910201600301805460ff1916911515919091179055600954611d99906001613107565b600a8381548110611dac57611dac61308c565b9060005260206000209060070201600001819055506001600b6000600a8581548110611dda57611dda61308c565b60009182526020808320600792909202909101600101546001600160a01b031683528201929092526040019020805460ff1916911515919091179055600a80546009919084908110611e2e57611e2e61308c565b600091825260208083208454600181810187559585529190932060079283029093018054919092029092019182558281015492820180546001600160a01b0319166001600160a01b03909416939093179092556002808301549082015560038083018054918301805460ff938416151560ff19821681178355925461010090819004909416151590930261ff001990921661ffff19909316929092171790556004808301549082015560058083015490820155600691820154910155611ef382612a5d565b60098054611f0390600190613075565b81548110611f1357611f1361308c565b600091825260208083206001600790930201820154600980548552600c9092526040842080546001600160a01b0319166001600160a01b03909216919091179055805492600d92909190611f679085613075565b81548110611f7757611f7761308c565b60009182526020808320600160079093020191909101546001600160a01b031683528201929092526040019020555050565b600b6000611fb5612a29565b6001600160a01b0316815260208101919091526040016000205460ff1661201e5760405162461bcd60e51b815260206004820152601260248201527f596f75206e6f7420612050726f73756d65720000000000000000000000000000604482015260640161085b565b6000828152600c60209081526040808320546001600160a01b03168352600b90915290205460ff166120925760405162461bcd60e51b815260206004820152601660248201527f41636375736564206e6f7420612050726f73756d657200000000000000000000604482015260640161085b565b6000828152600c60209081526040808320546001600160a01b0316835260079091528120906120bf612a29565b6001600160a01b0316815260208101919091526040016000205460ff16156121295760405162461bcd60e51b815260206004820152601d60248201527f416363757365642050726f73756d65722069732053757370656e646564000000604482015260640161085b565b60076000612135612a29565b6001600160a01b03908116825260208083019390935260409182016000908120868252600c8552838220549092168152925290205460ff16156121ba5760405162461bcd60e51b815260206004820152601160248201527f596f75206172652053757370656e646564000000000000000000000000000000604482015260640161085b565b6000828152600c60209081526040808320546001600160a01b0316835260069091528120906121e7612a29565b6001600160a01b0316815260208101919091526040016000205460ff16156122515760405162461bcd60e51b815260206004820152601760248201527f50726f73756d657220697320446973617070726f766564000000000000000000604482015260640161085b565b6006600061225d612a29565b6001600160a01b03908116825260208083019390935260409182016000908120868252600c8552838220549092168152925290205460ff16156122e25760405162461bcd60e51b815260206004820152601360248201527f596f752061726520446973617070726f76656400000000000000000000000000604482015260640161085b565b60006040518060a0016040528060148054905060016123019190613107565b8152602001600d6000612312612a29565b6001600160a01b03166001600160a01b0316815260200190815260200160002054815260200184815260200183815260200160001515815250905060135460148054905010156124475760148054600181018255600091909152815160059091027fce6d7b5282bd9a3661ae061feed1dbda4e52ab073b1f9285be6e155d9c38d4ec81019182556020808401517fce6d7b5282bd9a3661ae061feed1dbda4e52ab073b1f9285be6e155d9c38d4ed83015560408401517fce6d7b5282bd9a3661ae061feed1dbda4e52ab073b1f9285be6e155d9c38d4ee83015560608401518051859493612426937fce6d7b5282bd9a3661ae061feed1dbda4e52ab073b1f9285be6e155d9c38d4ef909101920190612ce9565b50608091909101516004909101805460ff19169115159190911790556124cf565b80601460135460125461245a919061311f565b8154811061246a5761246a61308c565b906000526020600020906005020160008201518160000155602082015181600101556040820151816002015560608201518160030190805190602001906124b2929190612ce9565b50608091909101516004909101805460ff19169115159190911790555b60135460125410156124f157601280549060006124eb8361305a565b91905055505b505050565b606060046000612504612a29565b6001600160a01b0316815260208101919091526040016000205460ff166125595760405162461bcd60e51b81526020600482015260096024820152682737ba1027bbb732b960b91b604482015260640161085b565b600a805460408051602080840282018101909252828152929190600090840182156113d357600084815260209081902060408051610100808201835260078702909301805482526001808201546001600160a01b031683870152600282015493830193909352600381015460ff8082161515606085015294900490931615156080820152600483015460a0820152600583015460c082015260069092015460e08301529083529092019101611340565b60046000612615612a29565b6001600160a01b0316815260208101919091526040016000205460ff1661266a5760405162461bcd60e51b81526020600482015260096024820152682737ba1027bbb732b960b91b604482015260640161085b565b6000828152600c60209081526040808320546001600160a01b0316808452600b9092529091205460ff166126e05760405162461bcd60e51b815260206004820152600e60248201527f4e6f7420612050726f73756d6572000000000000000000000000000000000000604482015260640161085b565b6001600160a01b038116600090815260076020526040812090612701612a29565b6001600160a01b0316815260208101919091526040016000205460ff161561276b5760405162461bcd60e51b815260206004820152601160248201527f416c72656164792053757370656e646564000000000000000000000000000000604482015260640161085b565b6001600160a01b038116600090815260076020526040812060019161278e612a29565b6001600160a01b03908116825260208083019390935260409182016000908120805460ff1916951515959095179094558416835260089091528120906127d2612a29565b6001600160a01b0316815260208101919091526040016000205460ff1615612862576001600160a01b038116600090815260086020526040812081612815612a29565b6001600160a01b03908116825260208083019390935260409182016000908120805460ff191695151595909517909455841683526011909152812080549161285c83613043565b91905055505b6001600160a01b0381166000908152601060205260408120805490826128878361305a565b919050559050600154811115610b5a576001600160a01b03821660009081526010602052604081205560016009610ae08287613075565b600460006128ca612a29565b6001600160a01b0316815260208101919091526040016000205460ff1661291f5760405162461bcd60e51b81526020600482015260096024820152682737ba1027bbb732b960b91b604482015260640161085b565b600255565b60046000612930612a29565b6001600160a01b0316815260208101919091526040016000205460ff166129855760405162461bcd60e51b81526020600482015260096024820152682737ba1027bbb732b960b91b604482015260640161085b565b60005b600354811015610cb25761299a612a29565b6001600160a01b0316600382815481106129b6576129b661308c565b6000918252602090912001546001600160a01b03161415612a175781600382815481106129e5576129e561308c565b9060005260206000200160006101000a8154816001600160a01b0302191690836001600160a01b031602179055505050565b80612a218161305a565b915050612988565b600060143610801590612a4657506000546001600160a01b031633145b15612a58575060131936013560601c90565b503390565b60046000612a69612a29565b6001600160a01b0316815260208101919091526040016000205460ff16612abe5760405162461bcd60e51b81526020600482015260096024820152682737ba1027bbb732b960b91b604482015260640161085b565b600a548110612b0f5760405162461bcd60e51b815260206004820181905260248201527f496e76616c696420756e617070726f76656450726f73756d657220496e646578604482015260640161085b565b805b600a54612b2090600190613075565b811015612c1b57600a612b34826001613107565b81548110612b4457612b4461308c565b9060005260206000209060070201600a8281548110612b6557612b6561308c565b60009182526020909120825460079092020190815560018083015490820180546001600160a01b0319166001600160a01b039092169190911790556002808301549082015560038083018054918301805460ff938416151560ff19821681178355925461010090819004909416151590930261ff001990921661ffff1990931692909217179055600480830154908201556005808301549082015560069182015491015580612c138161305a565b915050612b11565b50600a805480612c2d57612c2d613133565b6000828152602081206007600019909301928302018181556001810180546001600160a01b03191690556002810182905560038101805461ffff19169055600481018290556005810182905560060155905550565b6000805b600a54811015612ce157600a8181548110612ca357612ca361308c565b60009182526020909120600790910201600101546001600160a01b0316331415612ccf57600191505090565b80612cd98161305a565b915050612c86565b506000905090565b828054612cf5906130cc565b90600052602060002090601f016020900481019282612d175760008555612d5d565b82601f10612d3057805160ff1916838001178555612d5d565b82800160010185558215612d5d579182015b82811115612d5d578251825591602001919060010190612d42565b50612d69929150612d6d565b5090565b5b80821115612d695760008155600101612d6e565b80356001600160a01b038116811461156d57600080fd5b600060208284031215612dab57600080fd5b612db482612d82565b9392505050565b600060208284031215612dcd57600080fd5b5035919050565b60008060408385031215612de757600080fd5b50508035926020909101359150565b6000815180845260005b81811015612e1c57602081850181015186830182015201612e00565b81811115612e2e576000602083870101525b50601f01601f19169290920160200192915050565b602081526000612db46020830184612df6565b85815284602082015283604082015260a060608201526000612e7b60a0830185612df6565b905082151560808301529695505050505050565b60008060408385031215612ea257600080fd5b612eab83612d82565b9150612eb960208401612d82565b90509250929050565b602080825282518282018190526000919060409081850190868401855b82811015612f4f57815180518552868101516001600160a01b031687860152858101518686015260608082015115159086015260808082015115159086015260a0808201519086015260c0808201519086015260e090810151908501526101009093019290850190600101612edf565b5091979650505050505050565b634e487b7160e01b600052604160045260246000fd5b60008060408385031215612f8557600080fd5b82359150602083013567ffffffffffffffff80821115612fa457600080fd5b818501915085601f830112612fb857600080fd5b813581811115612fca57612fca612f5c565b604051601f8201601f19908116603f01168101908382118183101715612ff257612ff2612f5c565b8160405282815288602084870101111561300b57600080fd5b8260208601602083013760006020848301015280955050505050509250929050565b634e487b7160e01b600052601160045260246000fd5b6000816130525761305261302d565b506000190190565b600060001982141561306e5761306e61302d565b5060010190565b6000828210156130875761308761302d565b500390565b634e487b7160e01b600052603260045260246000fd5b634e487b7160e01b600052601260045260246000fd5b6000826130c7576130c76130a2565b500490565b600181811c908216806130e057607f821691505b6020821081141561310157634e487b7160e01b600052602260045260246000fd5b50919050565b6000821982111561311a5761311a61302d565b500190565b60008261312e5761312e6130a2565b500690565b634e487b7160e01b600052603160045260246000fdfea264697066735822122025684859d550423d3b6db35ea7b31295307e043594c923622fd7291a502054ac64736f6c63430008080033",
  "linkReferences": {},
  "deployedLinkReferences": {}
}