{"contracts/EnergyTrade.sol":{"EnergyTrade":{"abi":[{"inputs":[{"internalType":"address[]","name":"_owners","type":"address[]"},{"internalType":"uint256","name":"_required","type":"uint256"}],"stateMutability":"nonpayable","type":"constructor"},{"anonymous":false,"inputs":[{"indexed":true,"internalType":"address","name":"owner","type":"address"},{"indexed":true,"internalType":"address","name":"spender","type":"address"},{"indexed":false,"internalType":"uint256","name":"value","type":"uint256"}],"name":"Approval","type":"event"},{"anonymous":false,"inputs":[{"indexed":true,"internalType":"address","name":"from","type":"address"},{"indexed":true,"internalType":"address","name":"to","type":"address"},{"indexed":false,"internalType":"uint256","name":"value","type":"uint256"}],"name":"Transfer","type":"event"},{"inputs":[{"internalType":"uint256","name":"","type":"uint256"}],"name":"ApprovedProsumers","outputs":[{"internalType":"uint256","name":"_prosumerID","type":"uint256"},{"internalType":"address","name":"_address","type":"address"},{"internalType":"uint256","name":"_aadharId","type":"uint256"},{"internalType":"bool","name":"_approved","type":"bool"},{"internalType":"uint256","name":"_energyUnitPriceUSD","type":"uint256"},{"internalType":"uint256","name":"_energyUnitPriceMatic","type":"uint256"},{"internalType":"uint256","name":"_stakedEnergyBalance","type":"uint256"}],"stateMutability":"view","type":"function"},{"inputs":[{"internalType":"uint256","name":"_unApprovedProsumerID","type":"uint256"}],"name":"DisApproveProsumer_OwnerSpecific","outputs":[],"stateMutability":"nonpayable","type":"function"},{"inputs":[{"internalType":"uint256","name":"","type":"uint256"}],"name":"Transaction","outputs":[{"internalType":"address","name":"_producer","type":"address"},{"internalType":"address","name":"_consumer","type":"address"},{"internalType":"uint256","name":"_producerID","type":"uint256"},{"internalType":"uint256","name":"_consumerID","type":"uint256"},{"internalType":"uint256","name":"_consumerEnergyNeed","type":"uint256"},{"internalType":"uint256","name":"_producerUnitPriceUSD","type":"uint256"},{"internalType":"uint256","name":"_producerUnitPriceMATIC","type":"uint256"},{"internalType":"uint256","name":"_producerPaybleAmount","type":"uint256"}],"stateMutability":"view","type":"function"},{"inputs":[{"internalType":"uint256","name":"unitEnergyPrice","type":"uint256"},{"internalType":"uint256","name":"excessEnergyToken","type":"uint256"}],"name":"advert","outputs":[{"internalType":"uint256","name":"","type":"uint256"}],"stateMutability":"nonpayable","type":"function"},{"inputs":[{"internalType":"address","name":"owner","type":"address"},{"internalType":"address","name":"spender","type":"address"}],"name":"allowance","outputs":[{"internalType":"uint256","name":"","type":"uint256"}],"stateMutability":"view","type":"function"},{"inputs":[{"internalType":"address","name":"spender","type":"address"},{"internalType":"uint256","name":"amount","type":"uint256"}],"name":"approve","outputs":[{"internalType":"bool","name":"","type":"bool"}],"stateMutability":"nonpayable","type":"function"},{"inputs":[{"internalType":"uint256","name":"_unApprovedProsumerID","type":"uint256"}],"name":"approveProsumer_OwnerSpecific","outputs":[],"stateMutability":"nonpayable","type":"function"},{"inputs":[{"internalType":"address","name":"","type":"address"},{"internalType":"address","name":"","type":"address"}],"name":"approved","outputs":[{"internalType":"bool","name":"","type":"bool"}],"stateMutability":"view","type":"function"},{"inputs":[{"internalType":"address","name":"account","type":"address"}],"name":"balanceOf","outputs":[{"internalType":"uint256","name":"","type":"uint256"}],"stateMutability":"view","type":"function"},{"inputs":[{"internalType":"uint256","name":"producerID","type":"uint256"},{"internalType":"uint256","name":"energy_need","type":"uint256"}],"name":"bid","outputs":[],"stateMutability":"payable","type":"function"},{"inputs":[{"internalType":"address","name":"to","type":"address"},{"internalType":"uint256","name":"value","type":"uint256"}],"name":"burn","outputs":[],"stateMutability":"nonpayable","type":"function"},{"inputs":[{"internalType":"uint256","name":"energyBurned","type":"uint256"}],"name":"burnEnergy","outputs":[],"stateMutability":"nonpayable","type":"function"},{"inputs":[],"name":"decimals","outputs":[{"internalType":"uint8","name":"","type":"uint8"}],"stateMutability":"view","type":"function"},{"inputs":[{"internalType":"address","name":"spender","type":"address"},{"internalType":"uint256","name":"subtractedValue","type":"uint256"}],"name":"decreaseAllowance","outputs":[{"internalType":"bool","name":"","type":"bool"}],"stateMutability":"nonpayable","type":"function"},{"inputs":[{"internalType":"address","name":"","type":"address"},{"internalType":"address","name":"","type":"address"}],"name":"disapproved","outputs":[{"internalType":"bool","name":"","type":"bool"}],"stateMutability":"view","type":"function"},{"inputs":[],"name":"getAllPendingTxn","outputs":[{"components":[{"internalType":"address","name":"_producer","type":"address"},{"internalType":"address","name":"_consumer","type":"address"},{"internalType":"uint256","name":"_producerID","type":"uint256"},{"internalType":"uint256","name":"_consumerID","type":"uint256"},{"internalType":"uint256","name":"_consumerEnergyNeed","type":"uint256"},{"internalType":"uint256","name":"_producerUnitPriceUSD","type":"uint256"},{"internalType":"uint256","name":"_producerUnitPriceMATIC","type":"uint256"},{"internalType":"uint256","name":"_producerPaybleAmount","type":"uint256"}],"internalType":"struct EnergyTrade.Txn[]","name":"","type":"tuple[]"}],"stateMutability":"view","type":"function"},{"inputs":[],"name":"getLatestPrice","outputs":[{"internalType":"int256","name":"","type":"int256"}],"stateMutability":"view","type":"function"},{"inputs":[{"internalType":"address","name":"spender","type":"address"},{"internalType":"uint256","name":"addedValue","type":"uint256"}],"name":"increaseAllowance","outputs":[{"internalType":"bool","name":"","type":"bool"}],"stateMutability":"nonpayable","type":"function"},{"inputs":[{"internalType":"address","name":"","type":"address"}],"name":"isOwner","outputs":[{"internalType":"bool","name":"","type":"bool"}],"stateMutability":"view","type":"function"},{"inputs":[{"internalType":"address","name":"","type":"address"}],"name":"isProsumer","outputs":[{"internalType":"bool","name":"","type":"bool"}],"stateMutability":"view","type":"function"},{"inputs":[{"internalType":"address","name":"to","type":"address"},{"internalType":"uint256","name":"value","type":"uint256"}],"name":"mint","outputs":[],"stateMutability":"nonpayable","type":"function"},{"inputs":[],"name":"mySetUnitPrice_Matic","outputs":[{"internalType":"uint256","name":"","type":"uint256"}],"stateMutability":"view","type":"function"},{"inputs":[],"name":"mySetUnitPrice_USD","outputs":[{"internalType":"uint256","name":"","type":"uint256"}],"stateMutability":"view","type":"function"},{"inputs":[],"name":"name","outputs":[{"internalType":"string","name":"","type":"string"}],"stateMutability":"view","type":"function"},{"inputs":[{"internalType":"uint256","name":"","type":"uint256"}],"name":"owners","outputs":[{"internalType":"address","name":"","type":"address"}],"stateMutability":"view","type":"function"},{"inputs":[],"name":"processTrade","outputs":[],"stateMutability":"nonpayable","type":"function"},{"inputs":[{"internalType":"uint256","name":"energyProduced","type":"uint256"}],"name":"produceEnergy","outputs":[],"stateMutability":"nonpayable","type":"function"},{"inputs":[{"internalType":"uint256","name":"","type":"uint256"}],"name":"prosumerAddress","outputs":[{"internalType":"address","name":"","type":"address"}],"stateMutability":"view","type":"function"},{"inputs":[{"internalType":"address","name":"","type":"address"}],"name":"prosumerID","outputs":[{"internalType":"uint256","name":"","type":"uint256"}],"stateMutability":"view","type":"function"},{"inputs":[],"name":"regFee","outputs":[{"internalType":"uint256","name":"","type":"uint256"}],"stateMutability":"view","type":"function"},{"inputs":[],"name":"removeProsumer","outputs":[],"stateMutability":"nonpayable","type":"function"},{"inputs":[{"internalType":"uint256","name":"_aadharNo","type":"uint256"}],"name":"req_Registration","outputs":[],"stateMutability":"payable","type":"function"},{"inputs":[],"name":"required","outputs":[{"internalType":"uint256","name":"","type":"uint256"}],"stateMutability":"view","type":"function"},{"inputs":[{"internalType":"uint256","name":"_regFee","type":"uint256"}],"name":"setRegFee","outputs":[],"stateMutability":"nonpayable","type":"function"},{"inputs":[],"name":"showApprovalList_OwnerSpecific","outputs":[{"components":[{"internalType":"uint256","name":"_prosumerID","type":"uint256"},{"internalType":"address","name":"_address","type":"address"},{"internalType":"uint256","name":"_aadharId","type":"uint256"},{"internalType":"bool","name":"_approved","type":"bool"},{"internalType":"uint256","name":"_energyUnitPriceUSD","type":"uint256"},{"internalType":"uint256","name":"_energyUnitPriceMatic","type":"uint256"},{"internalType":"uint256","name":"_stakedEnergyBalance","type":"uint256"}],"internalType":"struct EnergyTrade.prosumer[]","name":"","type":"tuple[]"}],"stateMutability":"view","type":"function"},{"inputs":[{"internalType":"address","name":"_unapprovedProsumerAddress","type":"address"}],"name":"showApprovalStatus_OwnerSpecific","outputs":[{"internalType":"string","name":"","type":"string"}],"stateMutability":"view","type":"function"},{"inputs":[],"name":"showUnapprovalList_OwnerSpecific","outputs":[{"components":[{"internalType":"uint256","name":"_prosumerID","type":"uint256"},{"internalType":"address","name":"_address","type":"address"},{"internalType":"uint256","name":"_aadharId","type":"uint256"},{"internalType":"bool","name":"_approved","type":"bool"},{"internalType":"uint256","name":"_energyUnitPriceUSD","type":"uint256"},{"internalType":"uint256","name":"_energyUnitPriceMatic","type":"uint256"},{"internalType":"uint256","name":"_stakedEnergyBalance","type":"uint256"}],"internalType":"struct EnergyTrade.prosumer[]","name":"","type":"tuple[]"}],"stateMutability":"view","type":"function"},{"inputs":[],"name":"show_Approved_Prosumers","outputs":[{"components":[{"internalType":"uint256","name":"_prosumerID","type":"uint256"},{"internalType":"address","name":"_address","type":"address"},{"internalType":"uint256","name":"_aadharId","type":"uint256"},{"internalType":"bool","name":"_approved","type":"bool"},{"internalType":"uint256","name":"_energyUnitPriceUSD","type":"uint256"},{"internalType":"uint256","name":"_energyUnitPriceMatic","type":"uint256"},{"internalType":"uint256","name":"_stakedEnergyBalance","type":"uint256"}],"internalType":"struct EnergyTrade.prosumer[]","name":"","type":"tuple[]"}],"stateMutability":"view","type":"function"},{"inputs":[],"name":"show_Unapproved_Prosumers","outputs":[{"components":[{"internalType":"uint256","name":"_prosumerID","type":"uint256"},{"internalType":"address","name":"_address","type":"address"},{"internalType":"uint256","name":"_aadharId","type":"uint256"},{"internalType":"bool","name":"_approved","type":"bool"},{"internalType":"uint256","name":"_energyUnitPriceUSD","type":"uint256"},{"internalType":"uint256","name":"_energyUnitPriceMatic","type":"uint256"},{"internalType":"uint256","name":"_stakedEnergyBalance","type":"uint256"}],"internalType":"struct EnergyTrade.prosumer[]","name":"","type":"tuple[]"}],"stateMutability":"view","type":"function"},{"inputs":[],"name":"symbol","outputs":[{"internalType":"string","name":"","type":"string"}],"stateMutability":"view","type":"function"},{"inputs":[],"name":"totalSupply","outputs":[{"internalType":"uint256","name":"","type":"uint256"}],"stateMutability":"view","type":"function"},{"inputs":[{"internalType":"address","name":"to","type":"address"},{"internalType":"uint256","name":"amount","type":"uint256"}],"name":"transfer","outputs":[{"internalType":"bool","name":"","type":"bool"}],"stateMutability":"nonpayable","type":"function"},{"inputs":[{"internalType":"address","name":"from","type":"address"},{"internalType":"address","name":"to","type":"address"},{"internalType":"uint256","name":"amount","type":"uint256"}],"name":"transferFrom","outputs":[{"internalType":"bool","name":"","type":"bool"}],"stateMutability":"nonpayable","type":"function"},{"inputs":[{"internalType":"address","name":"newOwner","type":"address"}],"name":"transferOwnership","outputs":[],"stateMutability":"nonpayable","type":"function"},{"inputs":[{"internalType":"uint256","name":"","type":"uint256"}],"name":"unApprovedProsumers","outputs":[{"internalType":"uint256","name":"_prosumerID","type":"uint256"},{"internalType":"address","name":"_address","type":"address"},{"internalType":"uint256","name":"_aadharId","type":"uint256"},{"internalType":"bool","name":"_approved","type":"bool"},{"internalType":"uint256","name":"_energyUnitPriceUSD","type":"uint256"},{"internalType":"uint256","name":"_energyUnitPriceMatic","type":"uint256"},{"internalType":"uint256","name":"_stakedEnergyBalance","type":"uint256"}],"stateMutability":"view","type":"function"},{"inputs":[],"name":"viewEnergyBalance","outputs":[{"internalType":"uint256","name":"","type":"uint256"}],"stateMutability":"view","type":"function"},{"inputs":[],"name":"viewEscrowBalance","outputs":[{"internalType":"uint256","name":"","type":"uint256"},{"internalType":"uint256","name":"","type":"uint256"}],"stateMutability":"view","type":"function"},{"inputs":[],"name":"viewMaticBalance","outputs":[{"internalType":"uint256","name":"","type":"uint256"}],"stateMutability":"view","type":"function"},{"inputs":[],"name":"withdrawFees","outputs":[],"stateMutability":"nonpayable","type":"function"}],"devdoc":{"kind":"dev","methods":{"allowance(address,address)":{"details":"See {IERC20-allowance}."},"approve(address,uint256)":{"details":"See {IERC20-approve}. NOTE: If `amount` is the maximum `uint256`, the allowance is not updated on `transferFrom`. This is semantically equivalent to an infinite approval. Requirements: - `spender` cannot be the zero address."},"balanceOf(address)":{"details":"See {IERC20-balanceOf}."},"decimals()":{"details":"Returns the number of decimals used to get its user representation. For example, if `decimals` equals `2`, a balance of `505` tokens should be displayed to a user as `5.05` (`505 / 10 ** 2`). Tokens usually opt for a value of 18, imitating the relationship between Ether and Wei. This is the value {ERC20} uses, unless this function is overridden; NOTE: This information is only used for _display_ purposes: it in no way affects any of the arithmetic of the contract, including {IERC20-balanceOf} and {IERC20-transfer}."},"decreaseAllowance(address,uint256)":{"details":"Atomically decreases the allowance granted to `spender` by the caller. This is an alternative to {approve} that can be used as a mitigation for problems described in {IERC20-approve}. Emits an {Approval} event indicating the updated allowance. Requirements: - `spender` cannot be the zero address. - `spender` must have allowance for the caller of at least `subtractedValue`."},"increaseAllowance(address,uint256)":{"details":"Atomically increases the allowance granted to `spender` by the caller. This is an alternative to {approve} that can be used as a mitigation for problems described in {IERC20-approve}. Emits an {Approval} event indicating the updated allowance. Requirements: - `spender` cannot be the zero address."},"name()":{"details":"Returns the name of the token."},"symbol()":{"details":"Returns the symbol of the token, usually a shorter version of the name."},"totalSupply()":{"details":"See {IERC20-totalSupply}."},"transfer(address,uint256)":{"details":"See {IERC20-transfer}. Requirements: - `to` cannot be the zero address. - the caller must have a balance of at least `amount`."},"transferFrom(address,address,uint256)":{"details":"See {IERC20-transferFrom}. Emits an {Approval} event indicating the updated allowance. This is not required by the EIP. See the note at the beginning of {ERC20}. NOTE: Does not update the allowance if the current allowance is the maximum `uint256`. Requirements: - `from` and `to` cannot be the zero address. - `from` must have a balance of at least `amount`. - the caller must have allowance for ``from``'s tokens of at least `amount`."}},"version":1},"evm":{"bytecode":{"linkReferences":{},"object":"60806040523480156200001157600080fd5b50604051620041dc380380620041dc8339810160408190526200003491620003d1565b604080518082018252600b81526a22b732b93c902a37b5b2b760a91b6020808301918252835180850190945260048452631553925560e21b9084015281519192916200008391600391620002f8565b50805162000099906004906020840190620002f8565b5050600580546001600160a01b03191673d0d5e3db44de05e9f294bb0a3beeaf030de24ada179055508151620001085760405162461bcd60e51b815260206004820152600f60248201526e13dddb995c9cc814995c5d5a5c9959608a1b60448201526064015b60405180910390fd5b6000811180156200011c5750815160085411155b620001745760405162461bcd60e51b815260206004820152602160248201527f496e76616c6964207265717569726564206e756d626572206f66206f776e65726044820152607360f81b6064820152608401620000ff565b60005b8251811015620002db576000838281518110620001985762000198620004ab565b6020026020010151905060006001600160a01b0316816001600160a01b03161415620001f75760405162461bcd60e51b815260206004820152600d60248201526c34b73b30b634b21037bbb732b960991b6044820152606401620000ff565b6001600160a01b03811660009081526007602052604090205460ff1615620002625760405162461bcd60e51b815260206004820152601360248201527f4f776e6572206973206e6f7420756e69717565000000000000000000000000006044820152606401620000ff565b6001600160a01b03166000818152600760205260408120805460ff191660019081179091556006805491820181559091527ff652222313e28459528d920b65115c16c04f3efc82aaedc97be59f3f377c0d3f0180546001600160a01b031916909117905580620002d281620004c1565b91505062000177565b5060085550600a80546001600160a01b0319163017905562000528565b8280546200030690620004eb565b90600052602060002090601f0160209004810192826200032a576000855562000375565b82601f106200034557805160ff191683800117855562000375565b8280016001018555821562000375579182015b828111156200037557825182559160200191906001019062000358565b506200038392915062000387565b5090565b5b8082111562000383576000815560010162000388565b634e487b7160e01b600052604160045260246000fd5b80516001600160a01b0381168114620003cc57600080fd5b919050565b60008060408385031215620003e557600080fd5b82516001600160401b0380821115620003fd57600080fd5b818501915085601f8301126200041257600080fd5b81516020828211156200042957620004296200039e565b8160051b604051601f19603f830116810181811086821117156200045157620004516200039e565b6040529283528183019350848101820192898411156200047057600080fd5b948201945b8386101562000499576200048986620003b4565b8552948201949382019362000475565b97909101519698969750505050505050565b634e487b7160e01b600052603260045260246000fd5b6000600019821415620004e457634e487b7160e01b600052601160045260246000fd5b5060010190565b600181811c908216806200050057607f821691505b602082108114156200052257634e487b7160e01b600052602260045260246000fd5b50919050565b613ca480620005386000396000f3fe60806040526004361061031d5760003560e01c806383ae0367116101a5578063a457c2d7116100ec578063e514317611610095578063f2fde38b1161006f578063f2fde38b14610966578063f4b1604514610986578063f85bae78146109c1578063fdbd2e8b146109fc57600080fd5b8063e51431761461091c578063e706d56814610931578063e814db591461094657600080fd5b8063dc8452cd116100c6578063dc8452cd146108ab578063dd62ed3e146108c1578063e4f6ea881461090757600080fd5b8063a457c2d71461084b578063a9059cbb1461086b578063c7a7275e1461088b57600080fd5b80638fff20f31161014e5780639c01a6df116101285780639c01a6df146107f85780639dc29fac146108185780639ff341151461083857600080fd5b80638fff20f3146107ad57806395d89b41146107c357806396acb79a146107d857600080fd5b80638e2efc011161017f5780638e2efc01146107405780638ec90e5e146107625780638fac63711461077757600080fd5b806383ae0367146106f55780638bda812f146107175780638e15f4731461072b57600080fd5b80633950935111610269578063598647f81161021257806370a08231116101ec57806370a082311461067f5780637b78bc6b146106b55780637fb400f9146106d557600080fd5b8063598647f8146105f1578063612536fc14610604578063677f502e1461061957600080fd5b80634ca46d19116102435780634ca46d191461055f5780634ec9dd8d1461057f5780634ef8ab771461059457600080fd5b8063395093511461050a57806340c10f191461052a578063476343ee1461054a57600080fd5b80630e264f80116102cb5780632f54bf6e116102a55780632f54bf6e1461047a578063313ce567146104aa5780633628c333146104c657600080fd5b80630e264f801461043057806318160ddd1461044557806323b872dd1461045a57600080fd5b806306fdde03116102fc57806306fdde03146103bc578063095ea7b3146103de5780630b6d83e21461040e57600080fd5b80621cfdce14610322578063025e7c271461036257806306ed1f801461039a575b600080fd5b34801561032e57600080fd5b5061034f61033d366004613888565b600d6020526000908152604090205481565b6040519081526020015b60405180910390f35b34801561036e57600080fd5b5061038261037d3660046138aa565b610a2c565b6040516001600160a01b039091168152602001610359565b3480156103a657600080fd5b506103af610a56565b60405161035991906138c3565b3480156103c857600080fd5b506103d1610c63565b6040516103599190613950565b3480156103ea57600080fd5b506103fe6103f93660046139a5565b610cf5565b6040519015158152602001610359565b34801561041a57600080fd5b5061042e6104293660046138aa565b610d0d565b005b34801561043c57600080fd5b5061034f610d68565b34801561045157600080fd5b5060025461034f565b34801561046657600080fd5b506103fe6104753660046139cf565b610dfc565b34801561048657600080fd5b506103fe610495366004613888565b60076020526000908152604090205460ff1681565b3480156104b657600080fd5b5060405160128152602001610359565b3480156104d257600080fd5b506104f5600a546001600160a01b03166000908152602081905260409020544791565b60408051928352602083019190915201610359565b34801561051657600080fd5b506103fe6105253660046139a5565b610e20565b34801561053657600080fd5b5061042e6105453660046139a5565b610e5f565b34801561055657600080fd5b5061042e610e6d565b34801561056b57600080fd5b5061042e61057a3660046138aa565b610ff9565b34801561058b57600080fd5b5061034f611292565b3480156105a057600080fd5b506105b46105af3660046138aa565b611326565b604080519788526001600160a01b039096166020880152948601939093529015156060850152608084015260a083015260c082015260e001610359565b61042e6105ff366004613a0b565b611383565b34801561061057600080fd5b506103af6117b8565b34801561062557600080fd5b506106396106343660046138aa565b611865565b604080516001600160a01b03998a168152989097166020890152958701949094526060860192909252608085015260a084015260c083015260e082015261010001610359565b34801561068b57600080fd5b5061034f61069a366004613888565b6001600160a01b031660009081526020819052604090205490565b3480156106c157600080fd5b506103d16106d0366004613888565b6118c7565b3480156106e157600080fd5b5061042e6106f03660046138aa565b611a1a565b34801561070157600080fd5b503360009081526020819052604090205461034f565b34801561072357600080fd5b50333161034f565b34801561073757600080fd5b5061034f611a72565b34801561074c57600080fd5b50610755611b06565b6040516103599190613a2d565b34801561076e57600080fd5b5061042e611bb5565b34801561078357600080fd5b506103826107923660046138aa565b600c602052600090815260409020546001600160a01b031681565b3480156107b957600080fd5b5061034f60095481565b3480156107cf57600080fd5b506103d1611e07565b3480156107e457600080fd5b5061034f6107f3366004613a0b565b611e16565b34801561080457600080fd5b506105b46108133660046138aa565b611fc1565b34801561082457600080fd5b5061042e6108333660046139a5565b611fd1565b61042e6108463660046138aa565b611fdb565b34801561085757600080fd5b506103fe6108663660046139a5565b61234f565b34801561087757600080fd5b506103fe6108863660046139a5565b6123f9565b34801561089757600080fd5b5061042e6108a63660046138aa565b612407565b3480156108b757600080fd5b5061034f60085481565b3480156108cd57600080fd5b5061034f6108dc366004613ab9565b6001600160a01b03918216600090815260016020908152604080832093909416825291909152205490565b34801561091357600080fd5b506103af6128a0565b34801561092857600080fd5b5061042e612aa1565b34801561093d57600080fd5b506103af612b9a565b34801561095257600080fd5b5061042e6109613660046138aa565b612c85565b34801561097257600080fd5b5061042e610981366004613888565b612cd5565b34801561099257600080fd5b506103fe6109a1366004613ab9565b600f60209081526000928352604080842090915290825290205460ff1681565b3480156109cd57600080fd5b506103fe6109dc366004613ab9565b601060209081526000928352604080842090915290825290205460ff1681565b348015610a0857600080fd5b506103fe610a17366004613888565b600b6020526000908152604090205460ff1681565b60068181548110610a3c57600080fd5b6000918252602090912001546001600160a01b0316905081565b3360009081526007602052604090205460609060ff16610aa95760405162461bcd60e51b81526020600482015260096024820152682737ba1027bbb732b960b91b60448201526064015b60405180910390fd5b60115460009067ffffffffffffffff811115610ac757610ac7613aec565b604051908082528060200260200182016040528015610b4357816020015b610b306040518060e001604052806000815260200160006001600160a01b03168152602001600081526020016000151581526020016000815260200160008152602001600081525090565b815260200190600190039081610ae55790505b50905060005b601154811015610c5d57600f600060118381548110610b6a57610b6a613b02565b6000918252602080832060016007909302018201546001600160a01b031684528381019490945260409283018220338352909352205460ff1615151415610c4b5760118181548110610bbe57610bbe613b02565b60009182526020918290206040805160e08101825260079093029091018054835260018101546001600160a01b031693830193909352600283015490820152600382015460ff161515606082015260048201546080820152600582015460a082015260069091015460c08201528251839083908110610c3f57610c3f613b02565b60200260200101819052505b80610c5581613b2e565b915050610b49565b50905090565b606060038054610c7290613b49565b80601f0160208091040260200160405190810160405280929190818152602001828054610c9e90613b49565b8015610ceb5780601f10610cc057610100808354040283529160200191610ceb565b820191906000526020600020905b815481529060010190602001808311610cce57829003601f168201915b5050505050905090565b600033610d03818585612dbd565b5060019392505050565b336000908152600b602052604090205460ff16610d5b5760405162461bcd60e51b815260206004820152600c60248201526b2737ba10283937b9bab6b2b960a11b6044820152606401610aa0565b610d653382612f16565b50565b336000908152600b602052604081205460ff16610db65760405162461bcd60e51b815260206004820152600c60248201526b2737ba10283937b9bab6b2b960a11b6044820152606401610aa0565b336000908152600d6020526040902054600e90610dd590600190613b7e565b81548110610de557610de5613b02565b906000526020600020906007020160040154905090565b600033610e0a858285612fd5565b610e15858585613067565b506001949350505050565b3360008181526001602090815260408083206001600160a01b0387168452909152812054909190610d039082908690610e5a908790613b95565b612dbd565b610e698282612f16565b5050565b3360009081526007602052604090205460ff16610eb85760405162461bcd60e51b81526020600482015260096024820152682737ba1027bbb732b960b91b6044820152606401610aa0565b60125415610f085760405162461bcd60e51b815260206004820152601d60248201527f46697273742070726f6365737320616c6c205472616e73616374696f6e0000006044820152606401610aa0565b600654600090610f189047613bad565b905060005b600654811015610e6957600060068281548110610f3c57610f3c613b02565b60009182526020822001546040516001600160a01b039091169185919081818185875af1925050503d8060008114610f90576040519150601f19603f3d011682016040523d82523d6000602084013e610f95565b606091505b5050905080610fe65760405162461bcd60e51b815260206004820152600b60248201527f43616c6c204661696c65640000000000000000000000000000000000000000006044820152606401610aa0565b5080610ff181613b2e565b915050610f1d565b3360009081526007602052604090205460ff166110445760405162461bcd60e51b81526020600482015260096024820152682737ba1027bbb732b960b91b6044820152606401610aa0565b60115481106110955760405162461bcd60e51b815260206004820152601e60248201527f496e76616c696420556e617070726f7665642050726f73756d657220494400006044820152606401610aa0565b60106000601183815481106110ac576110ac613b02565b60009182526020808320600160079093020191909101546001600160a01b03168352828101939093526040918201812033825290925290205460ff161561115b5760405162461bcd60e51b815260206004820152602360248201527f50726f73756d657220416c726561647920646973617070726f7665642062792060448201527f796f7500000000000000000000000000000000000000000000000000000000006064820152608401610aa0565b6001601060006011848154811061117457611174613b02565b60009182526020808320600792909202909101600101546001600160a01b0316835282810193909352604091820181203382529092528120805460ff191692151592909217909155601180546010929190849081106111d5576111d5613b02565b60009182526020808320600160079093020191909101546001600160a01b03168352828101939093526040918201812033825290925290205460ff1615611277576000600f60006011848154811061122f5761122f613b02565b60009182526020808320600792909202909101600101546001600160a01b0316835282810193909352604091820181203382529092529020805460ff19169115159190911790555b60085461128382613254565b1115610d6557610d658161330f565b336000908152600b602052604081205460ff166112e05760405162461bcd60e51b815260206004820152600c60248201526b2737ba10283937b9bab6b2b960a11b6044820152606401610aa0565b336000908152600d6020526040902054600e906112ff90600190613b7e565b8154811061130f5761130f613b02565b906000526020600020906007020160050154905090565b600e818154811061133657600080fd5b600091825260209091206007909102018054600182015460028301546003840154600485015460058601546006909601549496506001600160a01b0390931694919360ff90911692919087565b336000908152600b602052604090205460ff166113d15760405162461bcd60e51b815260206004820152600c60248201526b2737ba10283937b9bab6b2b960a11b6044820152606401610aa0565b600081600e6113e1600186613b7e565b815481106113f1576113f1613b02565b90600052602060002090600702016005015461140d9190613bcf565b90508034101561145f5760405162461bcd60e51b815260206004820152601960248201527f4469646e27742073656e6420656e6f756768204d6174696321000000000000006044820152606401610aa0565b600e61146c600185613b7e565b8154811061147c5761147c613b02565b9060005260206000209060070201600601548211156115035760405162461bcd60e51b815260206004820152603660248201527f53656c65637465642050726f647563657220646f206861766520656e6f75676860448201527f20456e6f75676820456e657267792042616c616e6365000000000000000000006064820152608401610aa0565b60408051610100810182526000858152600c6020908152838220546001600160a01b03168352338184018190528385018890528252600d90529182205460608201526080810184905260a08101600e61155d600188613b7e565b8154811061156d5761156d613b02565b9060005260206000209060070201600401548152602001600e6001876115939190613b7e565b815481106115a3576115a3613b02565b6000918252602080832060079290920290910160050154835291820185905260128054600180820183559190925283517fbb8a6a4669ba250d26cd7a459eca9d215f8307e33aebe50379bc5a3617ec3444600890930292830180546001600160a01b03199081166001600160a01b0393841617909155938501517fbb8a6a4669ba250d26cd7a459eca9d215f8307e33aebe50379bc5a3617ec34458401805490951691161790925560408301517fbb8a6a4669ba250d26cd7a459eca9d215f8307e33aebe50379bc5a3617ec344682015560608301517fbb8a6a4669ba250d26cd7a459eca9d215f8307e33aebe50379bc5a3617ec344782015560808301517fbb8a6a4669ba250d26cd7a459eca9d215f8307e33aebe50379bc5a3617ec344882015560a08301517fbb8a6a4669ba250d26cd7a459eca9d215f8307e33aebe50379bc5a3617ec344982015560c08301517fbb8a6a4669ba250d26cd7a459eca9d215f8307e33aebe50379bc5a3617ec344a82015560e08301517fbb8a6a4669ba250d26cd7a459eca9d215f8307e33aebe50379bc5a3617ec344b909101559091508390600e906117549087613b7e565b8154811061176457611764613b02565b9060005260206000209060070201600601546117809190613b7e565b600e61178d600187613b7e565b8154811061179d5761179d613b02565b90600052602060002090600702016006018190555050505050565b6060600e805480602002602001604051908101604052809291908181526020016000905b8282101561185c5760008481526020908190206040805160e08101825260078602909201805483526001808201546001600160a01b031684860152600282015492840192909252600381015460ff161515606084015260048101546080840152600581015460a08401526006015460c083015290835290920191016117dc565b50505050905090565b6012818154811061187557600080fd5b6000918252602090912060089091020180546001820154600283015460038401546004850154600586015460068701546007909701546001600160a01b03968716985094909516959294919390929088565b3360009081526007602052604090205460609060ff166119155760405162461bcd60e51b81526020600482015260096024820152682737ba1027bbb732b960b91b6044820152606401610aa0565b6001600160a01b0382166000908152600f6020908152604080832033845290915290205460ff161561197a57505060408051808201909152601181527f50726f73756d657220417070726f766564000000000000000000000000000000602082015290565b6001600160a01b038216600090815260106020908152604080832033845290915290205460ff16156119df57505060408051808201909152601481527f50726f73756d657220446973617070726f766564000000000000000000000000602082015290565b5060408051808201909152601981527f50726f73756d6572204e6f74205665726966696564205965740000000000000060208201525b919050565b336000908152600b602052604090205460ff16611a685760405162461bcd60e51b815260206004820152600c60248201526b2737ba10283937b9bab6b2b960a11b6044820152606401610aa0565b610d6533826134f9565b600080600560009054906101000a90046001600160a01b03166001600160a01b031663feaf968c6040518163ffffffff1660e01b815260040160a06040518083038186803b158015611ac357600080fd5b505afa158015611ad7573d6000803e3d6000fd5b505050506040513d601f19601f82011682018060405250810190611afb9190613c08565b509195945050505050565b60606012805480602002602001604051908101604052809291908181526020016000905b8282101561185c57600084815260209081902060408051610100810182526008860290920180546001600160a01b039081168452600180830154909116848601526002820154928401929092526003810154606084015260048101546080840152600581015460a0840152600681015460c08401526007015460e08301529083529092019101611b2a565b3360009081526007602052604090205460ff16611c005760405162461bcd60e51b81526020600482015260096024820152682737ba1027bbb732b960b91b6044820152606401610aa0565b601254611c755760405162461bcd60e51b815260206004820152602160248201527f4e6f2070656e64696e67205472616e73616374696f6e20746f2065786563757460448201527f65000000000000000000000000000000000000000000000000000000000000006064820152608401610aa0565b60005b601254811015611df857600a5460128054611cf7926001600160a01b0316919084908110611ca857611ca8613b02565b906000526020600020906008020160010160009054906101000a90046001600160a01b031660128481548110611ce057611ce0613b02565b906000526020600020906008020160040154613067565b600060128281548110611d0c57611d0c613b02565b6000918252602090912060089091020154601280546001600160a01b039092169184908110611d3d57611d3d613b02565b90600052602060002090600802016007015460405160006040518083038185875af1925050503d8060008114611d8f576040519150601f19603f3d011682016040523d82523d6000602084013e611d94565b606091505b5050905080611de55760405162461bcd60e51b815260206004820152600b60248201527f43616c6c206661696c65640000000000000000000000000000000000000000006044820152606401610aa0565b5080611df081613b2e565b915050611c78565b50611e05601260006137fb565b565b606060048054610c7290613b49565b336000908152600b602052604081205460ff16611e645760405162461bcd60e51b815260206004820152600c60248201526b2737ba10283937b9bab6b2b960a11b6044820152606401610aa0565b336000908152600d6020526040902054600e90611e8390600190613b7e565b81548110611e9357611e93613b02565b906000526020600020906007020160060154600014611ef45760405162461bcd60e51b815260206004820152601e60248201527f596f75206861766520416c7265616479205374616b656420456e6572677900006044820152606401610aa0565b600a54611f0a906001600160a01b0316836123f9565b50336000908152600d602052604090205483600e611f29600184613b7e565b81548110611f3957611f39613b02565b906000526020600020906007020160040181905550611f578461365a565b600e611f64600184613b7e565b81548110611f7457611f74613b02565b600091825260209091206005600790920201015582600e611f96600184613b7e565b81548110611fa657611fa6613b02565b60009182526020909120600790910201600601559392505050565b6011818154811061133657600080fd5b610e6982826134f9565b6009543410156120535760405162461bcd60e51b815260206004820152602560248201527f526567697374726174696f6e204661696c65642c20496e73756666696369656e60448201527f74204665650000000000000000000000000000000000000000000000000000006064820152608401610aa0565b336000908152600b602052604090205460ff16156120d95760405162461bcd60e51b815260206004820152602960248201527f596f752061726520616c726561647920612050726f73756d657220696e20746860448201527f65204e6574776f726b00000000000000000000000000000000000000000000006064820152608401610aa0565b6120e16136de565b156121545760405162461bcd60e51b815260206004820152602b60248201527f596f75206861766520616c72656164792072657175657374656420666f72205260448201527f6567697374726174696f6e0000000000000000000000000000000000000000006064820152608401610aa0565b8060005b811561217d57612169600a83613bad565b91508061217581613b2e565b915050612158565b80600c146121cd5760405162461bcd60e51b815260206004820152601b60248201527f456e746572206120313220646967697420416164686172204e6f2e00000000006044820152606401610aa0565b50506040805160e08101825260008082523360208301908152928201938452606082018181526080830182815260a0840183815260c0850184815260118054600181018255955294517f31ecc21a745e3968a04e9570e4425bc18fa8019c68028196b546d1669c200c6860079095029485015594517f31ecc21a745e3968a04e9570e4425bc18fa8019c68028196b546d1669c200c69840180546001600160a01b0319166001600160a01b0390921691909117905594517f31ecc21a745e3968a04e9570e4425bc18fa8019c68028196b546d1669c200c6a830155517f31ecc21a745e3968a04e9570e4425bc18fa8019c68028196b546d1669c200c6b8201805460ff191691151591909117905592517f31ecc21a745e3968a04e9570e4425bc18fa8019c68028196b546d1669c200c6c84015590517f31ecc21a745e3968a04e9570e4425bc18fa8019c68028196b546d1669c200c6d830155517f31ecc21a745e3968a04e9570e4425bc18fa8019c68028196b546d1669c200c6e90910155565b3360008181526001602090815260408083206001600160a01b0387168452909152812054909190838110156123ec5760405162461bcd60e51b815260206004820152602560248201527f45524332303a2064656372656173656420616c6c6f77616e63652062656c6f7760448201527f207a65726f0000000000000000000000000000000000000000000000000000006064820152608401610aa0565b610e158286868403612dbd565b600033610d03818585613067565b3360009081526007602052604090205460ff166124525760405162461bcd60e51b81526020600482015260096024820152682737ba1027bbb732b960b91b6044820152606401610aa0565b60115481106124a35760405162461bcd60e51b815260206004820152601e60248201527f496e76616c696420556e617070726f7665642050726f73756d657220494400006044820152606401610aa0565b600f6000601183815481106124ba576124ba613b02565b60009182526020808320600160079093020191909101546001600160a01b03168352828101939093526040918201812033825290925290205460ff16156125435760405162461bcd60e51b815260206004820181905260248201527f50726f73756d657220416c726561647920617070726f76656420627920796f756044820152606401610aa0565b6001600f60006011848154811061255c5761255c613b02565b60009182526020808320600792909202909101600101546001600160a01b0316835282810193909352604091820181203382529092528120805460ff191692151592909217909155601180546010929190849081106125bd576125bd613b02565b60009182526020808320600160079093020191909101546001600160a01b03168352828101939093526040918201812033825290925290205460ff161561265f576000601060006011848154811061261757612617613b02565b60009182526020808320600792909202909101600101546001600160a01b0316835282810193909352604091820181203382529092529020805460ff19169115159190911790555b60085461266b82613745565b10610d655760016011828154811061268557612685613b02565b60009182526020909120600790910201600301805460ff1916911515919091179055600e546126b5906001613b95565b601182815481106126c8576126c8613b02565b9060005260206000209060070201600001819055506001600b6000601184815481106126f6576126f6613b02565b60009182526020808320600792909202909101600101546001600160a01b031683528201929092526040019020805460ff191691151591909117905560118054600e91908390811061274a5761274a613b02565b600091825260208083208454600181810187559585529190932060079283029093018054919092029092019182558281015492820180546001600160a01b0319166001600160a01b039094169390931790925560028083015490820155600380830154908201805460ff909216151560ff1990921691909117905560048083015490820155600580830154908201556006918201549101556127eb8161330f565b600e80546127fb90600190613b7e565b8154811061280b5761280b613b02565b600091825260208083206001600790930201820154600e80548552600c9092526040842080546001600160a01b0319166001600160a01b03909216919091179055805492600d9290919061285f9085613b7e565b8154811061286f5761286f613b02565b60009182526020808320600160079093020191909101546001600160a01b0316835282019290925260400190205550565b3360009081526007602052604090205460609060ff166128ee5760405162461bcd60e51b81526020600482015260096024820152682737ba1027bbb732b960b91b6044820152606401610aa0565b60115460009067ffffffffffffffff81111561290c5761290c613aec565b60405190808252806020026020018201604052801561298857816020015b6129756040518060e001604052806000815260200160006001600160a01b03168152602001600081526020016000151581526020016000815260200160008152602001600081525090565b81526020019060019003908161292a5790505b50905060005b601154811015610c5d57600f6000601183815481106129af576129af613b02565b60009182526020808320600160079093020191909101546001600160a01b03168352828101939093526040918201812033825290925290205460ff16612a8f5760118181548110612a0257612a02613b02565b60009182526020918290206040805160e08101825260079093029091018054835260018101546001600160a01b031693830193909352600283015490820152600382015460ff161515606082015260048201546080820152600582015460a082015260069091015460c08201528251839083908110612a8357612a83613b02565b60200260200101819052505b80612a9981613b2e565b91505061298e565b3360009081526007602052604090205460ff16612aec5760405162461bcd60e51b81526020600482015260096024820152682737ba1027bbb732b960b91b6044820152606401610aa0565b600e80546000908152600c6020526040902080546001600160a01b0319811690915581546001600160a01b03909116919080612b2a57612b2a613c58565b600082815260208082206007600019909401938402018281556001810180546001600160a01b03191690556002810183905560038101805460ff191690556004810183905560058101839055600601829055919092556001600160a01b03929092168152600d9091526040812055565b3360009081526007602052604090205460609060ff16612be85760405162461bcd60e51b81526020600482015260096024820152682737ba1027bbb732b960b91b6044820152606401610aa0565b60118054604080516020808402820181019092528281529291906000908401821561185c5760008481526020908190206040805160e08101825260078602909201805483526001808201546001600160a01b031684860152600282015492840192909252600381015460ff161515606084015260048101546080840152600581015460a08401526006015460c083015290835290920191016117dc565b3360009081526007602052604090205460ff16612cd05760405162461bcd60e51b81526020600482015260096024820152682737ba1027bbb732b960b91b6044820152606401610aa0565b600955565b3360009081526007602052604090205460ff16612d205760405162461bcd60e51b81526020600482015260096024820152682737ba1027bbb732b960b91b6044820152606401610aa0565b60005b600654811015610e6957336001600160a01b031660068281548110612d4a57612d4a613b02565b6000918252602090912001546001600160a01b03161415612dab578160068281548110612d7957612d79613b02565b9060005260206000200160006101000a8154816001600160a01b0302191690836001600160a01b031602179055505050565b80612db581613b2e565b915050612d23565b6001600160a01b038316612e385760405162461bcd60e51b8152602060048201526024808201527f45524332303a20617070726f76652066726f6d20746865207a65726f2061646460448201527f72657373000000000000000000000000000000000000000000000000000000006064820152608401610aa0565b6001600160a01b038216612eb45760405162461bcd60e51b815260206004820152602260248201527f45524332303a20617070726f766520746f20746865207a65726f20616464726560448201527f73730000000000000000000000000000000000000000000000000000000000006064820152608401610aa0565b6001600160a01b0383811660008181526001602090815260408083209487168084529482529182902085905590518481527f8c5be1e5ebec7d5bd14f71427d1e84f3dd0314c0f7b2291e5b200ac8c7c3b92591015b60405180910390a3505050565b6001600160a01b038216612f6c5760405162461bcd60e51b815260206004820152601f60248201527f45524332303a206d696e7420746f20746865207a65726f2061646472657373006044820152606401610aa0565b8060026000828254612f7e9190613b95565b90915550506001600160a01b038216600081815260208181526040808320805486019055518481527fddf252ad1be2c89b69c2b068fc378daa952ba7f163c4a11628f55a4df523b3ef910160405180910390a35050565b6001600160a01b03838116600090815260016020908152604080832093861683529290522054600019811461306157818110156130545760405162461bcd60e51b815260206004820152601d60248201527f45524332303a20696e73756666696369656e7420616c6c6f77616e63650000006044820152606401610aa0565b6130618484848403612dbd565b50505050565b6001600160a01b0383166130e35760405162461bcd60e51b815260206004820152602560248201527f45524332303a207472616e736665722066726f6d20746865207a65726f20616460448201527f64726573730000000000000000000000000000000000000000000000000000006064820152608401610aa0565b6001600160a01b03821661315f5760405162461bcd60e51b815260206004820152602360248201527f45524332303a207472616e7366657220746f20746865207a65726f206164647260448201527f65737300000000000000000000000000000000000000000000000000000000006064820152608401610aa0565b6001600160a01b038316600090815260208190526040902054818110156131ee5760405162461bcd60e51b815260206004820152602660248201527f45524332303a207472616e7366657220616d6f756e742065786365656473206260448201527f616c616e636500000000000000000000000000000000000000000000000000006064820152608401610aa0565b6001600160a01b03848116600081815260208181526040808320878703905593871680835291849020805487019055925185815290927fddf252ad1be2c89b69c2b068fc378daa952ba7f163c4a11628f55a4df523b3ef910160405180910390a3613061565b6000805b60065481101561330957601060006011858154811061327957613279613b02565b60009182526020808320600160079093020191909101546001600160a01b03168352820192909252604001812060068054919291849081106132bd576132bd613b02565b60009182526020808320909101546001600160a01b0316835282019290925260400190205460ff16156132f7576132f48183613b95565b91505b8061330181613b2e565b915050613258565b50919050565b3360009081526007602052604090205460ff1661335a5760405162461bcd60e51b81526020600482015260096024820152682737ba1027bbb732b960b91b6044820152606401610aa0565b60115481106133ab5760405162461bcd60e51b815260206004820181905260248201527f496e76616c696420756e617070726f76656450726f73756d657220496e6465786044820152606401610aa0565b805b6011546133bc90600190613b7e565b8110156134935760116133d0826001613b95565b815481106133e0576133e0613b02565b90600052602060002090600702016011828154811061340157613401613b02565b60009182526020909120825460079092020190815560018083015490820180546001600160a01b0319166001600160a01b0390921691909117905560028083015490820155600380830154908201805460ff909216151560ff1990921691909117905560048083015490820155600580830154908201556006918201549101558061348b81613b2e565b9150506133ad565b5060118054806134a5576134a5613c58565b6000828152602081206007600019909301928302018181556001810180546001600160a01b03191690556002810182905560038101805460ff19169055600481018290556005810182905560060155905550565b6001600160a01b0382166135755760405162461bcd60e51b815260206004820152602160248201527f45524332303a206275726e2066726f6d20746865207a65726f2061646472657360448201527f73000000000000000000000000000000000000000000000000000000000000006064820152608401610aa0565b6001600160a01b038216600090815260208190526040902054818110156136045760405162461bcd60e51b815260206004820152602260248201527f45524332303a206275726e20616d6f756e7420657863656564732062616c616e60448201527f63650000000000000000000000000000000000000000000000000000000000006064820152608401610aa0565b6001600160a01b0383166000818152602081815260408083208686039055600280548790039055518581529192917fddf252ad1be2c89b69c2b068fc378daa952ba7f163c4a11628f55a4df523b3ef9101612f09565b336000908152600b602052604081205460ff166136a85760405162461bcd60e51b815260206004820152600c60248201526b2737ba10283937b9bab6b2b960a11b6044820152606401610aa0565b601382905560006136b7611a72565b90506136c38184613bad565b6136d2906402540be400613bcf565b60148190559392505050565b6000805b60115481101561373d57601181815481106136ff576136ff613b02565b60009182526020909120600790910201600101546001600160a01b031633141561372b57600191505090565b8061373581613b2e565b9150506136e2565b506000905090565b6000805b60065481101561330957600f60006011858154811061376a5761376a613b02565b60009182526020808320600160079093020191909101546001600160a01b03168352820192909252604001812060068054919291849081106137ae576137ae613b02565b60009182526020808320909101546001600160a01b0316835282019290925260400190205460ff16156137e957816137e581613b2e565b9250505b806137f381613b2e565b915050613749565b5080546000825560080290600052602060002090810190610d6591905b8082111561386d5780546001600160a01b031990811682556001820180549091169055600060028201819055600382018190556004820181905560058201819055600682018190556007820155600801613818565b5090565b80356001600160a01b0381168114611a1557600080fd5b60006020828403121561389a57600080fd5b6138a382613871565b9392505050565b6000602082840312156138bc57600080fd5b5035919050565b602080825282518282018190526000919060409081850190868401855b8281101561394357815180518552868101516001600160a01b03168786015285810151868601526060808201511515908601526080808201519086015260a0808201519086015260c0908101519085015260e090930192908501906001016138e0565b5091979650505050505050565b600060208083528351808285015260005b8181101561397d57858101830151858201604001528201613961565b8181111561398f576000604083870101525b50601f01601f1916929092016040019392505050565b600080604083850312156139b857600080fd5b6139c183613871565b946020939093013593505050565b6000806000606084860312156139e457600080fd5b6139ed84613871565b92506139fb60208501613871565b9150604084013590509250925092565b60008060408385031215613a1e57600080fd5b50508035926020909101359150565b602080825282518282018190526000919060409081850190868401855b8281101561394357815180516001600160a01b0390811686528782015116878601528581015186860152606080820151908601526080808201519086015260a0808201519086015260c0808201519086015260e090810151908501526101009093019290850190600101613a4a565b60008060408385031215613acc57600080fd5b613ad583613871565b9150613ae360208401613871565b90509250929050565b634e487b7160e01b600052604160045260246000fd5b634e487b7160e01b600052603260045260246000fd5b634e487b7160e01b600052601160045260246000fd5b6000600019821415613b4257613b42613b18565b5060010190565b600181811c90821680613b5d57607f821691505b6020821081141561330957634e487b7160e01b600052602260045260246000fd5b600082821015613b9057613b90613b18565b500390565b60008219821115613ba857613ba8613b18565b500190565b600082613bca57634e487b7160e01b600052601260045260246000fd5b500490565b6000816000190483118215151615613be957613be9613b18565b500290565b805169ffffffffffffffffffff81168114611a1557600080fd5b600080600080600060a08688031215613c2057600080fd5b613c2986613bee565b9450602086015193506040860151925060608601519150613c4c60808701613bee565b90509295509295909350565b634e487b7160e01b600052603160045260246000fdfea264697066735822122003ce5bf74fa5dbd17db48d8c56451d42f34dea78601a0b106de627919aad88c864736f6c63430008080033","opcodes":"PUSH1 0x80 PUSH1 0x40 MSTORE CALLVALUE DUP1 ISZERO PUSH3 0x11 JUMPI PUSH1 0x0 DUP1 REVERT JUMPDEST POP PUSH1 0x40 MLOAD PUSH3 0x41DC CODESIZE SUB DUP1 PUSH3 0x41DC DUP4 CODECOPY DUP2 ADD PUSH1 0x40 DUP2 SWAP1 MSTORE PUSH3 0x34 SWAP2 PUSH3 0x3D1 JUMP JUMPDEST PUSH1 0x40 DUP1 MLOAD DUP1 DUP3 ADD DUP3 MSTORE PUSH1 0xB DUP2 MSTORE PUSH11 0x22B732B93C902A37B5B2B7 PUSH1 0xA9 SHL PUSH1 0x20 DUP1 DUP4 ADD SWAP2 DUP3 MSTORE DUP4 MLOAD DUP1 DUP6 ADD SWAP1 SWAP5 MSTORE PUSH1 0x4 DUP5 MSTORE PUSH4 0x15539255 PUSH1 0xE2 SHL SWAP1 DUP5 ADD MSTORE DUP2 MLOAD SWAP2 SWAP3 SWAP2 PUSH3 0x83 SWAP2 PUSH1 0x3 SWAP2 PUSH3 0x2F8 JUMP JUMPDEST POP DUP1 MLOAD PUSH3 0x99 SWAP1 PUSH1 0x4 SWAP1 PUSH1 0x20 DUP5 ADD SWAP1 PUSH3 0x2F8 JUMP JUMPDEST POP POP PUSH1 0x5 DUP1 SLOAD PUSH1 0x1 PUSH1 0x1 PUSH1 0xA0 SHL SUB NOT AND PUSH20 0xD0D5E3DB44DE05E9F294BB0A3BEEAF030DE24ADA OR SWAP1 SSTORE POP DUP2 MLOAD PUSH3 0x108 JUMPI PUSH1 0x40 MLOAD PUSH3 0x461BCD PUSH1 0xE5 SHL DUP2 MSTORE PUSH1 0x20 PUSH1 0x4 DUP3 ADD MSTORE PUSH1 0xF PUSH1 0x24 DUP3 ADD MSTORE PUSH15 0x13DDDB995C9CC814995C5D5A5C9959 PUSH1 0x8A SHL PUSH1 0x44 DUP3 ADD MSTORE PUSH1 0x64 ADD JUMPDEST PUSH1 0x40 MLOAD DUP1 SWAP2 SUB SWAP1 REVERT JUMPDEST PUSH1 0x0 DUP2 GT DUP1 ISZERO PUSH3 0x11C JUMPI POP DUP2 MLOAD PUSH1 0x8 SLOAD GT ISZERO JUMPDEST PUSH3 0x174 JUMPI PUSH1 0x40 MLOAD PUSH3 0x461BCD PUSH1 0xE5 SHL DUP2 MSTORE PUSH1 0x20 PUSH1 0x4 DUP3 ADD MSTORE PUSH1 0x21 PUSH1 0x24 DUP3 ADD MSTORE PUSH32 0x496E76616C6964207265717569726564206E756D626572206F66206F776E6572 PUSH1 0x44 DUP3 ADD MSTORE PUSH1 0x73 PUSH1 0xF8 SHL PUSH1 0x64 DUP3 ADD MSTORE PUSH1 0x84 ADD PUSH3 0xFF JUMP JUMPDEST PUSH1 0x0 JUMPDEST DUP3 MLOAD DUP2 LT ISZERO PUSH3 0x2DB JUMPI PUSH1 0x0 DUP4 DUP3 DUP2 MLOAD DUP2 LT PUSH3 0x198 JUMPI PUSH3 0x198 PUSH3 0x4AB JUMP JUMPDEST PUSH1 0x20 MUL PUSH1 0x20 ADD ADD MLOAD SWAP1 POP PUSH1 0x0 PUSH1 0x1 PUSH1 0x1 PUSH1 0xA0 SHL SUB AND DUP2 PUSH1 0x1 PUSH1 0x1 PUSH1 0xA0 SHL SUB AND EQ ISZERO PUSH3 0x1F7 JUMPI PUSH1 0x40 MLOAD PUSH3 0x461BCD PUSH1 0xE5 SHL DUP2 MSTORE PUSH1 0x20 PUSH1 0x4 DUP3 ADD MSTORE PUSH1 0xD PUSH1 0x24 DUP3 ADD MSTORE PUSH13 0x34B73B30B634B21037BBB732B9 PUSH1 0x99 SHL PUSH1 0x44 DUP3 ADD MSTORE PUSH1 0x64 ADD PUSH3 0xFF JUMP JUMPDEST PUSH1 0x1 PUSH1 0x1 PUSH1 0xA0 SHL SUB DUP2 AND PUSH1 0x0 SWAP1 DUP2 MSTORE PUSH1 0x7 PUSH1 0x20 MSTORE PUSH1 0x40 SWAP1 KECCAK256 SLOAD PUSH1 0xFF AND ISZERO PUSH3 0x262 JUMPI PUSH1 0x40 MLOAD PUSH3 0x461BCD PUSH1 0xE5 SHL DUP2 MSTORE PUSH1 0x20 PUSH1 0x4 DUP3 ADD MSTORE PUSH1 0x13 PUSH1 0x24 DUP3 ADD MSTORE PUSH32 0x4F776E6572206973206E6F7420756E6971756500000000000000000000000000 PUSH1 0x44 DUP3 ADD MSTORE PUSH1 0x64 ADD PUSH3 0xFF JUMP JUMPDEST PUSH1 0x1 PUSH1 0x1 PUSH1 0xA0 SHL SUB AND PUSH1 0x0 DUP2 DUP2 MSTORE PUSH1 0x7 PUSH1 0x20 MSTORE PUSH1 0x40 DUP2 KECCAK256 DUP1 SLOAD PUSH1 0xFF NOT AND PUSH1 0x1 SWAP1 DUP2 OR SWAP1 SWAP2 SSTORE PUSH1 0x6 DUP1 SLOAD SWAP2 DUP3 ADD DUP2 SSTORE SWAP1 SWAP2 MSTORE PUSH32 0xF652222313E28459528D920B65115C16C04F3EFC82AAEDC97BE59F3F377C0D3F ADD DUP1 SLOAD PUSH1 0x1 PUSH1 0x1 PUSH1 0xA0 SHL SUB NOT AND SWAP1 SWAP2 OR SWAP1 SSTORE DUP1 PUSH3 0x2D2 DUP2 PUSH3 0x4C1 JUMP JUMPDEST SWAP2 POP POP PUSH3 0x177 JUMP JUMPDEST POP PUSH1 0x8 SSTORE POP PUSH1 0xA DUP1 SLOAD PUSH1 0x1 PUSH1 0x1 PUSH1 0xA0 SHL SUB NOT AND ADDRESS OR SWAP1 SSTORE PUSH3 0x528 JUMP JUMPDEST DUP3 DUP1 SLOAD PUSH3 0x306 SWAP1 PUSH3 0x4EB JUMP JUMPDEST SWAP1 PUSH1 0x0 MSTORE PUSH1 0x20 PUSH1 0x0 KECCAK256 SWAP1 PUSH1 0x1F ADD PUSH1 0x20 SWAP1 DIV DUP2 ADD SWAP3 DUP3 PUSH3 0x32A JUMPI PUSH1 0x0 DUP6 SSTORE PUSH3 0x375 JUMP JUMPDEST DUP3 PUSH1 0x1F LT PUSH3 0x345 JUMPI DUP1 MLOAD PUSH1 0xFF NOT AND DUP4 DUP1 ADD OR DUP6 SSTORE PUSH3 0x375 JUMP JUMPDEST DUP3 DUP1 ADD PUSH1 0x1 ADD DUP6 SSTORE DUP3 ISZERO PUSH3 0x375 JUMPI SWAP2 DUP3 ADD JUMPDEST DUP3 DUP2 GT ISZERO PUSH3 0x375 JUMPI DUP3 MLOAD DUP3 SSTORE SWAP2 PUSH1 0x20 ADD SWAP2 SWAP1 PUSH1 0x1 ADD SWAP1 PUSH3 0x358 JUMP JUMPDEST POP PUSH3 0x383 SWAP3 SWAP2 POP PUSH3 0x387 JUMP JUMPDEST POP SWAP1 JUMP JUMPDEST JUMPDEST DUP1 DUP3 GT ISZERO PUSH3 0x383 JUMPI PUSH1 0x0 DUP2 SSTORE PUSH1 0x1 ADD PUSH3 0x388 JUMP JUMPDEST PUSH4 0x4E487B71 PUSH1 0xE0 SHL PUSH1 0x0 MSTORE PUSH1 0x41 PUSH1 0x4 MSTORE PUSH1 0x24 PUSH1 0x0 REVERT JUMPDEST DUP1 MLOAD PUSH1 0x1 PUSH1 0x1 PUSH1 0xA0 SHL SUB DUP2 AND DUP2 EQ PUSH3 0x3CC JUMPI PUSH1 0x0 DUP1 REVERT JUMPDEST SWAP2 SWAP1 POP JUMP JUMPDEST PUSH1 0x0 DUP1 PUSH1 0x40 DUP4 DUP6 SUB SLT ISZERO PUSH3 0x3E5 JUMPI PUSH1 0x0 DUP1 REVERT JUMPDEST DUP3 MLOAD PUSH1 0x1 PUSH1 0x1 PUSH1 0x40 SHL SUB DUP1 DUP3 GT ISZERO PUSH3 0x3FD JUMPI PUSH1 0x0 DUP1 REVERT JUMPDEST DUP2 DUP6 ADD SWAP2 POP DUP6 PUSH1 0x1F DUP4 ADD SLT PUSH3 0x412 JUMPI PUSH1 0x0 DUP1 REVERT JUMPDEST DUP2 MLOAD PUSH1 0x20 DUP3 DUP3 GT ISZERO PUSH3 0x429 JUMPI PUSH3 0x429 PUSH3 0x39E JUMP JUMPDEST DUP2 PUSH1 0x5 SHL PUSH1 0x40 MLOAD PUSH1 0x1F NOT PUSH1 0x3F DUP4 ADD AND DUP2 ADD DUP2 DUP2 LT DUP7 DUP3 GT OR ISZERO PUSH3 0x451 JUMPI PUSH3 0x451 PUSH3 0x39E JUMP JUMPDEST PUSH1 0x40 MSTORE SWAP3 DUP4 MSTORE DUP2 DUP4 ADD SWAP4 POP DUP5 DUP2 ADD DUP3 ADD SWAP3 DUP10 DUP5 GT ISZERO PUSH3 0x470 JUMPI PUSH1 0x0 DUP1 REVERT JUMPDEST SWAP5 DUP3 ADD SWAP5 JUMPDEST DUP4 DUP7 LT ISZERO PUSH3 0x499 JUMPI PUSH3 0x489 DUP7 PUSH3 0x3B4 JUMP JUMPDEST DUP6 MSTORE SWAP5 DUP3 ADD SWAP5 SWAP4 DUP3 ADD SWAP4 PUSH3 0x475 JUMP JUMPDEST SWAP8 SWAP1 SWAP2 ADD MLOAD SWAP7 SWAP9 SWAP7 SWAP8 POP POP POP POP POP POP POP JUMP JUMPDEST PUSH4 0x4E487B71 PUSH1 0xE0 SHL PUSH1 0x0 MSTORE PUSH1 0x32 PUSH1 0x4 MSTORE PUSH1 0x24 PUSH1 0x0 REVERT JUMPDEST PUSH1 0x0 PUSH1 0x0 NOT DUP3 EQ ISZERO PUSH3 0x4E4 JUMPI PUSH4 0x4E487B71 PUSH1 0xE0 SHL PUSH1 0x0 MSTORE PUSH1 0x11 PUSH1 0x4 MSTORE PUSH1 0x24 PUSH1 0x0 REVERT JUMPDEST POP PUSH1 0x1 ADD SWAP1 JUMP JUMPDEST PUSH1 0x1 DUP2 DUP2 SHR SWAP1 DUP3 AND DUP1 PUSH3 0x500 JUMPI PUSH1 0x7F DUP3 AND SWAP2 POP JUMPDEST PUSH1 0x20 DUP3 LT DUP2 EQ ISZERO PUSH3 0x522 JUMPI PUSH4 0x4E487B71 PUSH1 0xE0 SHL PUSH1 0x0 MSTORE PUSH1 0x22 PUSH1 0x4 MSTORE PUSH1 0x24 PUSH1 0x0 REVERT JUMPDEST POP SWAP2 SWAP1 POP JUMP JUMPDEST PUSH2 0x3CA4 DUP1 PUSH3 0x538 PUSH1 0x0 CODECOPY PUSH1 0x0 RETURN INVALID PUSH1 0x80 PUSH1 0x40 MSTORE PUSH1 0x4 CALLDATASIZE LT PUSH2 0x31D JUMPI PUSH1 0x0 CALLDATALOAD PUSH1 0xE0 SHR DUP1 PUSH4 0x83AE0367 GT PUSH2 0x1A5 JUMPI DUP1 PUSH4 0xA457C2D7 GT PUSH2 0xEC JUMPI DUP1 PUSH4 0xE5143176 GT PUSH2 0x95 JUMPI DUP1 PUSH4 0xF2FDE38B GT PUSH2 0x6F JUMPI DUP1 PUSH4 0xF2FDE38B EQ PUSH2 0x966 JUMPI DUP1 PUSH4 0xF4B16045 EQ PUSH2 0x986 JUMPI DUP1 PUSH4 0xF85BAE78 EQ PUSH2 0x9C1 JUMPI DUP1 PUSH4 0xFDBD2E8B EQ PUSH2 0x9FC JUMPI PUSH1 0x0 DUP1 REVERT JUMPDEST DUP1 PUSH4 0xE5143176 EQ PUSH2 0x91C JUMPI DUP1 PUSH4 0xE706D568 EQ PUSH2 0x931 JUMPI DUP1 PUSH4 0xE814DB59 EQ PUSH2 0x946 JUMPI PUSH1 0x0 DUP1 REVERT JUMPDEST DUP1 PUSH4 0xDC8452CD GT PUSH2 0xC6 JUMPI DUP1 PUSH4 0xDC8452CD EQ PUSH2 0x8AB JUMPI DUP1 PUSH4 0xDD62ED3E EQ PUSH2 0x8C1 JUMPI DUP1 PUSH4 0xE4F6EA88 EQ PUSH2 0x907 JUMPI PUSH1 0x0 DUP1 REVERT JUMPDEST DUP1 PUSH4 0xA457C2D7 EQ PUSH2 0x84B JUMPI DUP1 PUSH4 0xA9059CBB EQ PUSH2 0x86B JUMPI DUP1 PUSH4 0xC7A7275E EQ PUSH2 0x88B JUMPI PUSH1 0x0 DUP1 REVERT JUMPDEST DUP1 PUSH4 0x8FFF20F3 GT PUSH2 0x14E JUMPI DUP1 PUSH4 0x9C01A6DF GT PUSH2 0x128 JUMPI DUP1 PUSH4 0x9C01A6DF EQ PUSH2 0x7F8 JUMPI DUP1 PUSH4 0x9DC29FAC EQ PUSH2 0x818 JUMPI DUP1 PUSH4 0x9FF34115 EQ PUSH2 0x838 JUMPI PUSH1 0x0 DUP1 REVERT JUMPDEST DUP1 PUSH4 0x8FFF20F3 EQ PUSH2 0x7AD JUMPI DUP1 PUSH4 0x95D89B41 EQ PUSH2 0x7C3 JUMPI DUP1 PUSH4 0x96ACB79A EQ PUSH2 0x7D8 JUMPI PUSH1 0x0 DUP1 REVERT JUMPDEST DUP1 PUSH4 0x8E2EFC01 GT PUSH2 0x17F JUMPI DUP1 PUSH4 0x8E2EFC01 EQ PUSH2 0x740 JUMPI DUP1 PUSH4 0x8EC90E5E EQ PUSH2 0x762 JUMPI DUP1 PUSH4 0x8FAC6371 EQ PUSH2 0x777 JUMPI PUSH1 0x0 DUP1 REVERT JUMPDEST DUP1 PUSH4 0x83AE0367 EQ PUSH2 0x6F5 JUMPI DUP1 PUSH4 0x8BDA812F EQ PUSH2 0x717 JUMPI DUP1 PUSH4 0x8E15F473 EQ PUSH2 0x72B JUMPI PUSH1 0x0 DUP1 REVERT JUMPDEST DUP1 PUSH4 0x39509351 GT PUSH2 0x269 JUMPI DUP1 PUSH4 0x598647F8 GT PUSH2 0x212 JUMPI DUP1 PUSH4 0x70A08231 GT PUSH2 0x1EC JUMPI DUP1 PUSH4 0x70A08231 EQ PUSH2 0x67F JUMPI DUP1 PUSH4 0x7B78BC6B EQ PUSH2 0x6B5 JUMPI DUP1 PUSH4 0x7FB400F9 EQ PUSH2 0x6D5 JUMPI PUSH1 0x0 DUP1 REVERT JUMPDEST DUP1 PUSH4 0x598647F8 EQ PUSH2 0x5F1 JUMPI DUP1 PUSH4 0x612536FC EQ PUSH2 0x604 JUMPI DUP1 PUSH4 0x677F502E EQ PUSH2 0x619 JUMPI PUSH1 0x0 DUP1 REVERT JUMPDEST DUP1 PUSH4 0x4CA46D19 GT PUSH2 0x243 JUMPI DUP1 PUSH4 0x4CA46D19 EQ PUSH2 0x55F JUMPI DUP1 PUSH4 0x4EC9DD8D EQ PUSH2 0x57F JUMPI DUP1 PUSH4 0x4EF8AB77 EQ PUSH2 0x594 JUMPI PUSH1 0x0 DUP1 REVERT JUMPDEST DUP1 PUSH4 0x39509351 EQ PUSH2 0x50A JUMPI DUP1 PUSH4 0x40C10F19 EQ PUSH2 0x52A JUMPI DUP1 PUSH4 0x476343EE EQ PUSH2 0x54A JUMPI PUSH1 0x0 DUP1 REVERT JUMPDEST DUP1 PUSH4 0xE264F80 GT PUSH2 0x2CB JUMPI DUP1 PUSH4 0x2F54BF6E GT PUSH2 0x2A5 JUMPI DUP1 PUSH4 0x2F54BF6E EQ PUSH2 0x47A JUMPI DUP1 PUSH4 0x313CE567 EQ PUSH2 0x4AA JUMPI DUP1 PUSH4 0x3628C333 EQ PUSH2 0x4C6 JUMPI PUSH1 0x0 DUP1 REVERT JUMPDEST DUP1 PUSH4 0xE264F80 EQ PUSH2 0x430 JUMPI DUP1 PUSH4 0x18160DDD EQ PUSH2 0x445 JUMPI DUP1 PUSH4 0x23B872DD EQ PUSH2 0x45A JUMPI PUSH1 0x0 DUP1 REVERT JUMPDEST DUP1 PUSH4 0x6FDDE03 GT PUSH2 0x2FC JUMPI DUP1 PUSH4 0x6FDDE03 EQ PUSH2 0x3BC JUMPI DUP1 PUSH4 0x95EA7B3 EQ PUSH2 0x3DE JUMPI DUP1 PUSH4 0xB6D83E2 EQ PUSH2 0x40E JUMPI PUSH1 0x0 DUP1 REVERT JUMPDEST DUP1 PUSH3 0x1CFDCE EQ PUSH2 0x322 JUMPI DUP1 PUSH4 0x25E7C27 EQ PUSH2 0x362 JUMPI DUP1 PUSH4 0x6ED1F80 EQ PUSH2 0x39A JUMPI JUMPDEST PUSH1 0x0 DUP1 REVERT JUMPDEST CALLVALUE DUP1 ISZERO PUSH2 0x32E JUMPI PUSH1 0x0 DUP1 REVERT JUMPDEST POP PUSH2 0x34F PUSH2 0x33D CALLDATASIZE PUSH1 0x4 PUSH2 0x3888 JUMP JUMPDEST PUSH1 0xD PUSH1 0x20 MSTORE PUSH1 0x0 SWAP1 DUP2 MSTORE PUSH1 0x40 SWAP1 KECCAK256 SLOAD DUP2 JUMP JUMPDEST PUSH1 0x40 MLOAD SWAP1 DUP2 MSTORE PUSH1 0x20 ADD JUMPDEST PUSH1 0x40 MLOAD DUP1 SWAP2 SUB SWAP1 RETURN JUMPDEST CALLVALUE DUP1 ISZERO PUSH2 0x36E JUMPI PUSH1 0x0 DUP1 REVERT JUMPDEST POP PUSH2 0x382 PUSH2 0x37D CALLDATASIZE PUSH1 0x4 PUSH2 0x38AA JUMP JUMPDEST PUSH2 0xA2C JUMP JUMPDEST PUSH1 0x40 MLOAD PUSH1 0x1 PUSH1 0x1 PUSH1 0xA0 SHL SUB SWAP1 SWAP2 AND DUP2 MSTORE PUSH1 0x20 ADD PUSH2 0x359 JUMP JUMPDEST CALLVALUE DUP1 ISZERO PUSH2 0x3A6 JUMPI PUSH1 0x0 DUP1 REVERT JUMPDEST POP PUSH2 0x3AF PUSH2 0xA56 JUMP JUMPDEST PUSH1 0x40 MLOAD PUSH2 0x359 SWAP2 SWAP1 PUSH2 0x38C3 JUMP JUMPDEST CALLVALUE DUP1 ISZERO PUSH2 0x3C8 JUMPI PUSH1 0x0 DUP1 REVERT JUMPDEST POP PUSH2 0x3D1 PUSH2 0xC63 JUMP JUMPDEST PUSH1 0x40 MLOAD PUSH2 0x359 SWAP2 SWAP1 PUSH2 0x3950 JUMP JUMPDEST CALLVALUE DUP1 ISZERO PUSH2 0x3EA JUMPI PUSH1 0x0 DUP1 REVERT JUMPDEST POP PUSH2 0x3FE PUSH2 0x3F9 CALLDATASIZE PUSH1 0x4 PUSH2 0x39A5 JUMP JUMPDEST PUSH2 0xCF5 JUMP JUMPDEST PUSH1 0x40 MLOAD SWAP1 ISZERO ISZERO DUP2 MSTORE PUSH1 0x20 ADD PUSH2 0x359 JUMP JUMPDEST CALLVALUE DUP1 ISZERO PUSH2 0x41A JUMPI PUSH1 0x0 DUP1 REVERT JUMPDEST POP PUSH2 0x42E PUSH2 0x429 CALLDATASIZE PUSH1 0x4 PUSH2 0x38AA JUMP JUMPDEST PUSH2 0xD0D JUMP JUMPDEST STOP JUMPDEST CALLVALUE DUP1 ISZERO PUSH2 0x43C JUMPI PUSH1 0x0 DUP1 REVERT JUMPDEST POP PUSH2 0x34F PUSH2 0xD68 JUMP JUMPDEST CALLVALUE DUP1 ISZERO PUSH2 0x451 JUMPI PUSH1 0x0 DUP1 REVERT JUMPDEST POP PUSH1 0x2 SLOAD PUSH2 0x34F JUMP JUMPDEST CALLVALUE DUP1 ISZERO PUSH2 0x466 JUMPI PUSH1 0x0 DUP1 REVERT JUMPDEST POP PUSH2 0x3FE PUSH2 0x475 CALLDATASIZE PUSH1 0x4 PUSH2 0x39CF JUMP JUMPDEST PUSH2 0xDFC JUMP JUMPDEST CALLVALUE DUP1 ISZERO PUSH2 0x486 JUMPI PUSH1 0x0 DUP1 REVERT JUMPDEST POP PUSH2 0x3FE PUSH2 0x495 CALLDATASIZE PUSH1 0x4 PUSH2 0x3888 JUMP JUMPDEST PUSH1 0x7 PUSH1 0x20 MSTORE PUSH1 0x0 SWAP1 DUP2 MSTORE PUSH1 0x40 SWAP1 KECCAK256 SLOAD PUSH1 0xFF AND DUP2 JUMP JUMPDEST CALLVALUE DUP1 ISZERO PUSH2 0x4B6 JUMPI PUSH1 0x0 DUP1 REVERT JUMPDEST POP PUSH1 0x40 MLOAD PUSH1 0x12 DUP2 MSTORE PUSH1 0x20 ADD PUSH2 0x359 JUMP JUMPDEST CALLVALUE DUP1 ISZERO PUSH2 0x4D2 JUMPI PUSH1 0x0 DUP1 REVERT JUMPDEST POP PUSH2 0x4F5 PUSH1 0xA SLOAD PUSH1 0x1 PUSH1 0x1 PUSH1 0xA0 SHL SUB AND PUSH1 0x0 SWAP1 DUP2 MSTORE PUSH1 0x20 DUP2 SWAP1 MSTORE PUSH1 0x40 SWAP1 KECCAK256 SLOAD SELFBALANCE SWAP2 JUMP JUMPDEST PUSH1 0x40 DUP1 MLOAD SWAP3 DUP4 MSTORE PUSH1 0x20 DUP4 ADD SWAP2 SWAP1 SWAP2 MSTORE ADD PUSH2 0x359 JUMP JUMPDEST CALLVALUE DUP1 ISZERO PUSH2 0x516 JUMPI PUSH1 0x0 DUP1 REVERT JUMPDEST POP PUSH2 0x3FE PUSH2 0x525 CALLDATASIZE PUSH1 0x4 PUSH2 0x39A5 JUMP JUMPDEST PUSH2 0xE20 JUMP JUMPDEST CALLVALUE DUP1 ISZERO PUSH2 0x536 JUMPI PUSH1 0x0 DUP1 REVERT JUMPDEST POP PUSH2 0x42E PUSH2 0x545 CALLDATASIZE PUSH1 0x4 PUSH2 0x39A5 JUMP JUMPDEST PUSH2 0xE5F JUMP JUMPDEST CALLVALUE DUP1 ISZERO PUSH2 0x556 JUMPI PUSH1 0x0 DUP1 REVERT JUMPDEST POP PUSH2 0x42E PUSH2 0xE6D JUMP JUMPDEST CALLVALUE DUP1 ISZERO PUSH2 0x56B JUMPI PUSH1 0x0 DUP1 REVERT JUMPDEST POP PUSH2 0x42E PUSH2 0x57A CALLDATASIZE PUSH1 0x4 PUSH2 0x38AA JUMP JUMPDEST PUSH2 0xFF9 JUMP JUMPDEST CALLVALUE DUP1 ISZERO PUSH2 0x58B JUMPI PUSH1 0x0 DUP1 REVERT JUMPDEST POP PUSH2 0x34F PUSH2 0x1292 JUMP JUMPDEST CALLVALUE DUP1 ISZERO PUSH2 0x5A0 JUMPI PUSH1 0x0 DUP1 REVERT JUMPDEST POP PUSH2 0x5B4 PUSH2 0x5AF CALLDATASIZE PUSH1 0x4 PUSH2 0x38AA JUMP JUMPDEST PUSH2 0x1326 JUMP JUMPDEST PUSH1 0x40 DUP1 MLOAD SWAP8 DUP9 MSTORE PUSH1 0x1 PUSH1 0x1 PUSH1 0xA0 SHL SUB SWAP1 SWAP7 AND PUSH1 0x20 DUP9 ADD MSTORE SWAP5 DUP7 ADD SWAP4 SWAP1 SWAP4 MSTORE SWAP1 ISZERO ISZERO PUSH1 0x60 DUP6 ADD MSTORE PUSH1 0x80 DUP5 ADD MSTORE PUSH1 0xA0 DUP4 ADD MSTORE PUSH1 0xC0 DUP3 ADD MSTORE PUSH1 0xE0 ADD PUSH2 0x359 JUMP JUMPDEST PUSH2 0x42E PUSH2 0x5FF CALLDATASIZE PUSH1 0x4 PUSH2 0x3A0B JUMP JUMPDEST PUSH2 0x1383 JUMP JUMPDEST CALLVALUE DUP1 ISZERO PUSH2 0x610 JUMPI PUSH1 0x0 DUP1 REVERT JUMPDEST POP PUSH2 0x3AF PUSH2 0x17B8 JUMP JUMPDEST CALLVALUE DUP1 ISZERO PUSH2 0x625 JUMPI PUSH1 0x0 DUP1 REVERT JUMPDEST POP PUSH2 0x639 PUSH2 0x634 CALLDATASIZE PUSH1 0x4 PUSH2 0x38AA JUMP JUMPDEST PUSH2 0x1865 JUMP JUMPDEST PUSH1 0x40 DUP1 MLOAD PUSH1 0x1 PUSH1 0x1 PUSH1 0xA0 SHL SUB SWAP10 DUP11 AND DUP2 MSTORE SWAP9 SWAP1 SWAP8 AND PUSH1 0x20 DUP10 ADD MSTORE SWAP6 DUP8 ADD SWAP5 SWAP1 SWAP5 MSTORE PUSH1 0x60 DUP7 ADD SWAP3 SWAP1 SWAP3 MSTORE PUSH1 0x80 DUP6 ADD MSTORE PUSH1 0xA0 DUP5 ADD MSTORE PUSH1 0xC0 DUP4 ADD MSTORE PUSH1 0xE0 DUP3 ADD MSTORE PUSH2 0x100 ADD PUSH2 0x359 JUMP JUMPDEST CALLVALUE DUP1 ISZERO PUSH2 0x68B JUMPI PUSH1 0x0 DUP1 REVERT JUMPDEST POP PUSH2 0x34F PUSH2 0x69A CALLDATASIZE PUSH1 0x4 PUSH2 0x3888 JUMP JUMPDEST PUSH1 0x1 PUSH1 0x1 PUSH1 0xA0 SHL SUB AND PUSH1 0x0 SWAP1 DUP2 MSTORE PUSH1 0x20 DUP2 SWAP1 MSTORE PUSH1 0x40 SWAP1 KECCAK256 SLOAD SWAP1 JUMP JUMPDEST CALLVALUE DUP1 ISZERO PUSH2 0x6C1 JUMPI PUSH1 0x0 DUP1 REVERT JUMPDEST POP PUSH2 0x3D1 PUSH2 0x6D0 CALLDATASIZE PUSH1 0x4 PUSH2 0x3888 JUMP JUMPDEST PUSH2 0x18C7 JUMP JUMPDEST CALLVALUE DUP1 ISZERO PUSH2 0x6E1 JUMPI PUSH1 0x0 DUP1 REVERT JUMPDEST POP PUSH2 0x42E PUSH2 0x6F0 CALLDATASIZE PUSH1 0x4 PUSH2 0x38AA JUMP JUMPDEST PUSH2 0x1A1A JUMP JUMPDEST CALLVALUE DUP1 ISZERO PUSH2 0x701 JUMPI PUSH1 0x0 DUP1 REVERT JUMPDEST POP CALLER PUSH1 0x0 SWAP1 DUP2 MSTORE PUSH1 0x20 DUP2 SWAP1 MSTORE PUSH1 0x40 SWAP1 KECCAK256 SLOAD PUSH2 0x34F JUMP JUMPDEST CALLVALUE DUP1 ISZERO PUSH2 0x723 JUMPI PUSH1 0x0 DUP1 REVERT JUMPDEST POP CALLER BALANCE PUSH2 0x34F JUMP JUMPDEST CALLVALUE DUP1 ISZERO PUSH2 0x737 JUMPI PUSH1 0x0 DUP1 REVERT JUMPDEST POP PUSH2 0x34F PUSH2 0x1A72 JUMP JUMPDEST CALLVALUE DUP1 ISZERO PUSH2 0x74C JUMPI PUSH1 0x0 DUP1 REVERT JUMPDEST POP PUSH2 0x755 PUSH2 0x1B06 JUMP JUMPDEST PUSH1 0x40 MLOAD PUSH2 0x359 SWAP2 SWAP1 PUSH2 0x3A2D JUMP JUMPDEST CALLVALUE DUP1 ISZERO PUSH2 0x76E JUMPI PUSH1 0x0 DUP1 REVERT JUMPDEST POP PUSH2 0x42E PUSH2 0x1BB5 JUMP JUMPDEST CALLVALUE DUP1 ISZERO PUSH2 0x783 JUMPI PUSH1 0x0 DUP1 REVERT JUMPDEST POP PUSH2 0x382 PUSH2 0x792 CALLDATASIZE PUSH1 0x4 PUSH2 0x38AA JUMP JUMPDEST PUSH1 0xC PUSH1 0x20 MSTORE PUSH1 0x0 SWAP1 DUP2 MSTORE PUSH1 0x40 SWAP1 KECCAK256 SLOAD PUSH1 0x1 PUSH1 0x1 PUSH1 0xA0 SHL SUB AND DUP2 JUMP JUMPDEST CALLVALUE DUP1 ISZERO PUSH2 0x7B9 JUMPI PUSH1 0x0 DUP1 REVERT JUMPDEST POP PUSH2 0x34F PUSH1 0x9 SLOAD DUP2 JUMP JUMPDEST CALLVALUE DUP1 ISZERO PUSH2 0x7CF JUMPI PUSH1 0x0 DUP1 REVERT JUMPDEST POP PUSH2 0x3D1 PUSH2 0x1E07 JUMP JUMPDEST CALLVALUE DUP1 ISZERO PUSH2 0x7E4 JUMPI PUSH1 0x0 DUP1 REVERT JUMPDEST POP PUSH2 0x34F PUSH2 0x7F3 CALLDATASIZE PUSH1 0x4 PUSH2 0x3A0B JUMP JUMPDEST PUSH2 0x1E16 JUMP JUMPDEST CALLVALUE DUP1 ISZERO PUSH2 0x804 JUMPI PUSH1 0x0 DUP1 REVERT JUMPDEST POP PUSH2 0x5B4 PUSH2 0x813 CALLDATASIZE PUSH1 0x4 PUSH2 0x38AA JUMP JUMPDEST PUSH2 0x1FC1 JUMP JUMPDEST CALLVALUE DUP1 ISZERO PUSH2 0x824 JUMPI PUSH1 0x0 DUP1 REVERT JUMPDEST POP PUSH2 0x42E PUSH2 0x833 CALLDATASIZE PUSH1 0x4 PUSH2 0x39A5 JUMP JUMPDEST PUSH2 0x1FD1 JUMP JUMPDEST PUSH2 0x42E PUSH2 0x846 CALLDATASIZE PUSH1 0x4 PUSH2 0x38AA JUMP JUMPDEST PUSH2 0x1FDB JUMP JUMPDEST CALLVALUE DUP1 ISZERO PUSH2 0x857 JUMPI PUSH1 0x0 DUP1 REVERT JUMPDEST POP PUSH2 0x3FE PUSH2 0x866 CALLDATASIZE PUSH1 0x4 PUSH2 0x39A5 JUMP JUMPDEST PUSH2 0x234F JUMP JUMPDEST CALLVALUE DUP1 ISZERO PUSH2 0x877 JUMPI PUSH1 0x0 DUP1 REVERT JUMPDEST POP PUSH2 0x3FE PUSH2 0x886 CALLDATASIZE PUSH1 0x4 PUSH2 0x39A5 JUMP JUMPDEST PUSH2 0x23F9 JUMP JUMPDEST CALLVALUE DUP1 ISZERO PUSH2 0x897 JUMPI PUSH1 0x0 DUP1 REVERT JUMPDEST POP PUSH2 0x42E PUSH2 0x8A6 CALLDATASIZE PUSH1 0x4 PUSH2 0x38AA JUMP JUMPDEST PUSH2 0x2407 JUMP JUMPDEST CALLVALUE DUP1 ISZERO PUSH2 0x8B7 JUMPI PUSH1 0x0 DUP1 REVERT JUMPDEST POP PUSH2 0x34F PUSH1 0x8 SLOAD DUP2 JUMP JUMPDEST CALLVALUE DUP1 ISZERO PUSH2 0x8CD JUMPI PUSH1 0x0 DUP1 REVERT JUMPDEST POP PUSH2 0x34F PUSH2 0x8DC CALLDATASIZE PUSH1 0x4 PUSH2 0x3AB9 JUMP JUMPDEST PUSH1 0x1 PUSH1 0x1 PUSH1 0xA0 SHL SUB SWAP2 DUP3 AND PUSH1 0x0 SWAP1 DUP2 MSTORE PUSH1 0x1 PUSH1 0x20 SWAP1 DUP2 MSTORE PUSH1 0x40 DUP1 DUP4 KECCAK256 SWAP4 SWAP1 SWAP5 AND DUP3 MSTORE SWAP2 SWAP1 SWAP2 MSTORE KECCAK256 SLOAD SWAP1 JUMP JUMPDEST CALLVALUE DUP1 ISZERO PUSH2 0x913 JUMPI PUSH1 0x0 DUP1 REVERT JUMPDEST POP PUSH2 0x3AF PUSH2 0x28A0 JUMP JUMPDEST CALLVALUE DUP1 ISZERO PUSH2 0x928 JUMPI PUSH1 0x0 DUP1 REVERT JUMPDEST POP PUSH2 0x42E PUSH2 0x2AA1 JUMP JUMPDEST CALLVALUE DUP1 ISZERO PUSH2 0x93D JUMPI PUSH1 0x0 DUP1 REVERT JUMPDEST POP PUSH2 0x3AF PUSH2 0x2B9A JUMP JUMPDEST CALLVALUE DUP1 ISZERO PUSH2 0x952 JUMPI PUSH1 0x0 DUP1 REVERT JUMPDEST POP PUSH2 0x42E PUSH2 0x961 CALLDATASIZE PUSH1 0x4 PUSH2 0x38AA JUMP JUMPDEST PUSH2 0x2C85 JUMP JUMPDEST CALLVALUE DUP1 ISZERO PUSH2 0x972 JUMPI PUSH1 0x0 DUP1 REVERT JUMPDEST POP PUSH2 0x42E PUSH2 0x981 CALLDATASIZE PUSH1 0x4 PUSH2 0x3888 JUMP JUMPDEST PUSH2 0x2CD5 JUMP JUMPDEST CALLVALUE DUP1 ISZERO PUSH2 0x992 JUMPI PUSH1 0x0 DUP1 REVERT JUMPDEST POP PUSH2 0x3FE PUSH2 0x9A1 CALLDATASIZE PUSH1 0x4 PUSH2 0x3AB9 JUMP JUMPDEST PUSH1 0xF PUSH1 0x20 SWAP1 DUP2 MSTORE PUSH1 0x0 SWAP3 DUP4 MSTORE PUSH1 0x40 DUP1 DUP5 KECCAK256 SWAP1 SWAP2 MSTORE SWAP1 DUP3 MSTORE SWAP1 KECCAK256 SLOAD PUSH1 0xFF AND DUP2 JUMP JUMPDEST CALLVALUE DUP1 ISZERO PUSH2 0x9CD JUMPI PUSH1 0x0 DUP1 REVERT JUMPDEST POP PUSH2 0x3FE PUSH2 0x9DC CALLDATASIZE PUSH1 0x4 PUSH2 0x3AB9 JUMP JUMPDEST PUSH1 0x10 PUSH1 0x20 SWAP1 DUP2 MSTORE PUSH1 0x0 SWAP3 DUP4 MSTORE PUSH1 0x40 DUP1 DUP5 KECCAK256 SWAP1 SWAP2 MSTORE SWAP1 DUP3 MSTORE SWAP1 KECCAK256 SLOAD PUSH1 0xFF AND DUP2 JUMP JUMPDEST CALLVALUE DUP1 ISZERO PUSH2 0xA08 JUMPI PUSH1 0x0 DUP1 REVERT JUMPDEST POP PUSH2 0x3FE PUSH2 0xA17 CALLDATASIZE PUSH1 0x4 PUSH2 0x3888 JUMP JUMPDEST PUSH1 0xB PUSH1 0x20 MSTORE PUSH1 0x0 SWAP1 DUP2 MSTORE PUSH1 0x40 SWAP1 KECCAK256 SLOAD PUSH1 0xFF AND DUP2 JUMP JUMPDEST PUSH1 0x6 DUP2 DUP2 SLOAD DUP2 LT PUSH2 0xA3C JUMPI PUSH1 0x0 DUP1 REVERT JUMPDEST PUSH1 0x0 SWAP2 DUP3 MSTORE PUSH1 0x20 SWAP1 SWAP2 KECCAK256 ADD SLOAD PUSH1 0x1 PUSH1 0x1 PUSH1 0xA0 SHL SUB AND SWAP1 POP DUP2 JUMP JUMPDEST CALLER PUSH1 0x0 SWAP1 DUP2 MSTORE PUSH1 0x7 PUSH1 0x20 MSTORE PUSH1 0x40 SWAP1 KECCAK256 SLOAD PUSH1 0x60 SWAP1 PUSH1 0xFF AND PUSH2 0xAA9 JUMPI PUSH1 0x40 MLOAD PUSH3 0x461BCD PUSH1 0xE5 SHL DUP2 MSTORE PUSH1 0x20 PUSH1 0x4 DUP3 ADD MSTORE PUSH1 0x9 PUSH1 0x24 DUP3 ADD MSTORE PUSH9 0x2737BA1027BBB732B9 PUSH1 0xB9 SHL PUSH1 0x44 DUP3 ADD MSTORE PUSH1 0x64 ADD JUMPDEST PUSH1 0x40 MLOAD DUP1 SWAP2 SUB SWAP1 REVERT JUMPDEST PUSH1 0x11 SLOAD PUSH1 0x0 SWAP1 PUSH8 0xFFFFFFFFFFFFFFFF DUP2 GT ISZERO PUSH2 0xAC7 JUMPI PUSH2 0xAC7 PUSH2 0x3AEC JUMP JUMPDEST PUSH1 0x40 MLOAD SWAP1 DUP1 DUP3 MSTORE DUP1 PUSH1 0x20 MUL PUSH1 0x20 ADD DUP3 ADD PUSH1 0x40 MSTORE DUP1 ISZERO PUSH2 0xB43 JUMPI DUP2 PUSH1 0x20 ADD JUMPDEST PUSH2 0xB30 PUSH1 0x40 MLOAD DUP1 PUSH1 0xE0 ADD PUSH1 0x40 MSTORE DUP1 PUSH1 0x0 DUP2 MSTORE PUSH1 0x20 ADD PUSH1 0x0 PUSH1 0x1 PUSH1 0x1 PUSH1 0xA0 SHL SUB AND DUP2 MSTORE PUSH1 0x20 ADD PUSH1 0x0 DUP2 MSTORE PUSH1 0x20 ADD PUSH1 0x0 ISZERO ISZERO DUP2 MSTORE PUSH1 0x20 ADD PUSH1 0x0 DUP2 MSTORE PUSH1 0x20 ADD PUSH1 0x0 DUP2 MSTORE PUSH1 0x20 ADD PUSH1 0x0 DUP2 MSTORE POP SWAP1 JUMP JUMPDEST DUP2 MSTORE PUSH1 0x20 ADD SWAP1 PUSH1 0x1 SWAP1 SUB SWAP1 DUP2 PUSH2 0xAE5 JUMPI SWAP1 POP JUMPDEST POP SWAP1 POP PUSH1 0x0 JUMPDEST PUSH1 0x11 SLOAD DUP2 LT ISZERO PUSH2 0xC5D JUMPI PUSH1 0xF PUSH1 0x0 PUSH1 0x11 DUP4 DUP2 SLOAD DUP2 LT PUSH2 0xB6A JUMPI PUSH2 0xB6A PUSH2 0x3B02 JUMP JUMPDEST PUSH1 0x0 SWAP2 DUP3 MSTORE PUSH1 0x20 DUP1 DUP4 KECCAK256 PUSH1 0x1 PUSH1 0x7 SWAP1 SWAP4 MUL ADD DUP3 ADD SLOAD PUSH1 0x1 PUSH1 0x1 PUSH1 0xA0 SHL SUB AND DUP5 MSTORE DUP4 DUP2 ADD SWAP5 SWAP1 SWAP5 MSTORE PUSH1 0x40 SWAP3 DUP4 ADD DUP3 KECCAK256 CALLER DUP4 MSTORE SWAP1 SWAP4 MSTORE KECCAK256 SLOAD PUSH1 0xFF AND ISZERO ISZERO EQ ISZERO PUSH2 0xC4B JUMPI PUSH1 0x11 DUP2 DUP2 SLOAD DUP2 LT PUSH2 0xBBE JUMPI PUSH2 0xBBE PUSH2 0x3B02 JUMP JUMPDEST PUSH1 0x0 SWAP2 DUP3 MSTORE PUSH1 0x20 SWAP2 DUP3 SWAP1 KECCAK256 PUSH1 0x40 DUP1 MLOAD PUSH1 0xE0 DUP2 ADD DUP3 MSTORE PUSH1 0x7 SWAP1 SWAP4 MUL SWAP1 SWAP2 ADD DUP1 SLOAD DUP4 MSTORE PUSH1 0x1 DUP2 ADD SLOAD PUSH1 0x1 PUSH1 0x1 PUSH1 0xA0 SHL SUB AND SWAP4 DUP4 ADD SWAP4 SWAP1 SWAP4 MSTORE PUSH1 0x2 DUP4 ADD SLOAD SWAP1 DUP3 ADD MSTORE PUSH1 0x3 DUP3 ADD SLOAD PUSH1 0xFF AND ISZERO ISZERO PUSH1 0x60 DUP3 ADD MSTORE PUSH1 0x4 DUP3 ADD SLOAD PUSH1 0x80 DUP3 ADD MSTORE PUSH1 0x5 DUP3 ADD SLOAD PUSH1 0xA0 DUP3 ADD MSTORE PUSH1 0x6 SWAP1 SWAP2 ADD SLOAD PUSH1 0xC0 DUP3 ADD MSTORE DUP3 MLOAD DUP4 SWAP1 DUP4 SWAP1 DUP2 LT PUSH2 0xC3F JUMPI PUSH2 0xC3F PUSH2 0x3B02 JUMP JUMPDEST PUSH1 0x20 MUL PUSH1 0x20 ADD ADD DUP2 SWAP1 MSTORE POP JUMPDEST DUP1 PUSH2 0xC55 DUP2 PUSH2 0x3B2E JUMP JUMPDEST SWAP2 POP POP PUSH2 0xB49 JUMP JUMPDEST POP SWAP1 POP SWAP1 JUMP JUMPDEST PUSH1 0x60 PUSH1 0x3 DUP1 SLOAD PUSH2 0xC72 SWAP1 PUSH2 0x3B49 JUMP JUMPDEST DUP1 PUSH1 0x1F ADD PUSH1 0x20 DUP1 SWAP2 DIV MUL PUSH1 0x20 ADD PUSH1 0x40 MLOAD SWAP1 DUP2 ADD PUSH1 0x40 MSTORE DUP1 SWAP3 SWAP2 SWAP1 DUP2 DUP2 MSTORE PUSH1 0x20 ADD DUP3 DUP1 SLOAD PUSH2 0xC9E SWAP1 PUSH2 0x3B49 JUMP JUMPDEST DUP1 ISZERO PUSH2 0xCEB JUMPI DUP1 PUSH1 0x1F LT PUSH2 0xCC0 JUMPI PUSH2 0x100 DUP1 DUP4 SLOAD DIV MUL DUP4 MSTORE SWAP2 PUSH1 0x20 ADD SWAP2 PUSH2 0xCEB JUMP JUMPDEST DUP3 ADD SWAP2 SWAP1 PUSH1 0x0 MSTORE PUSH1 0x20 PUSH1 0x0 KECCAK256 SWAP1 JUMPDEST DUP2 SLOAD DUP2 MSTORE SWAP1 PUSH1 0x1 ADD SWAP1 PUSH1 0x20 ADD DUP1 DUP4 GT PUSH2 0xCCE JUMPI DUP3 SWAP1 SUB PUSH1 0x1F AND DUP3 ADD SWAP2 JUMPDEST POP POP POP POP POP SWAP1 POP SWAP1 JUMP JUMPDEST PUSH1 0x0 CALLER PUSH2 0xD03 DUP2 DUP6 DUP6 PUSH2 0x2DBD JUMP JUMPDEST POP PUSH1 0x1 SWAP4 SWAP3 POP POP POP JUMP JUMPDEST CALLER PUSH1 0x0 SWAP1 DUP2 MSTORE PUSH1 0xB PUSH1 0x20 MSTORE PUSH1 0x40 SWAP1 KECCAK256 SLOAD PUSH1 0xFF AND PUSH2 0xD5B JUMPI PUSH1 0x40 MLOAD PUSH3 0x461BCD PUSH1 0xE5 SHL DUP2 MSTORE PUSH1 0x20 PUSH1 0x4 DUP3 ADD MSTORE PUSH1 0xC PUSH1 0x24 DUP3 ADD MSTORE PUSH12 0x2737BA10283937B9BAB6B2B9 PUSH1 0xA1 SHL PUSH1 0x44 DUP3 ADD MSTORE PUSH1 0x64 ADD PUSH2 0xAA0 JUMP JUMPDEST PUSH2 0xD65 CALLER DUP3 PUSH2 0x2F16 JUMP JUMPDEST POP JUMP JUMPDEST CALLER PUSH1 0x0 SWAP1 DUP2 MSTORE PUSH1 0xB PUSH1 0x20 MSTORE PUSH1 0x40 DUP2 KECCAK256 SLOAD PUSH1 0xFF AND PUSH2 0xDB6 JUMPI PUSH1 0x40 MLOAD PUSH3 0x461BCD PUSH1 0xE5 SHL DUP2 MSTORE PUSH1 0x20 PUSH1 0x4 DUP3 ADD MSTORE PUSH1 0xC PUSH1 0x24 DUP3 ADD MSTORE PUSH12 0x2737BA10283937B9BAB6B2B9 PUSH1 0xA1 SHL PUSH1 0x44 DUP3 ADD MSTORE PUSH1 0x64 ADD PUSH2 0xAA0 JUMP JUMPDEST CALLER PUSH1 0x0 SWAP1 DUP2 MSTORE PUSH1 0xD PUSH1 0x20 MSTORE PUSH1 0x40 SWAP1 KECCAK256 SLOAD PUSH1 0xE SWAP1 PUSH2 0xDD5 SWAP1 PUSH1 0x1 SWAP1 PUSH2 0x3B7E JUMP JUMPDEST DUP2 SLOAD DUP2 LT PUSH2 0xDE5 JUMPI PUSH2 0xDE5 PUSH2 0x3B02 JUMP JUMPDEST SWAP1 PUSH1 0x0 MSTORE PUSH1 0x20 PUSH1 0x0 KECCAK256 SWAP1 PUSH1 0x7 MUL ADD PUSH1 0x4 ADD SLOAD SWAP1 POP SWAP1 JUMP JUMPDEST PUSH1 0x0 CALLER PUSH2 0xE0A DUP6 DUP3 DUP6 PUSH2 0x2FD5 JUMP JUMPDEST PUSH2 0xE15 DUP6 DUP6 DUP6 PUSH2 0x3067 JUMP JUMPDEST POP PUSH1 0x1 SWAP5 SWAP4 POP POP POP POP JUMP JUMPDEST CALLER PUSH1 0x0 DUP2 DUP2 MSTORE PUSH1 0x1 PUSH1 0x20 SWAP1 DUP2 MSTORE PUSH1 0x40 DUP1 DUP4 KECCAK256 PUSH1 0x1 PUSH1 0x1 PUSH1 0xA0 SHL SUB DUP8 AND DUP5 MSTORE SWAP1 SWAP2 MSTORE DUP2 KECCAK256 SLOAD SWAP1 SWAP2 SWAP1 PUSH2 0xD03 SWAP1 DUP3 SWAP1 DUP7 SWAP1 PUSH2 0xE5A SWAP1 DUP8 SWAP1 PUSH2 0x3B95 JUMP JUMPDEST PUSH2 0x2DBD JUMP JUMPDEST PUSH2 0xE69 DUP3 DUP3 PUSH2 0x2F16 JUMP JUMPDEST POP POP JUMP JUMPDEST CALLER PUSH1 0x0 SWAP1 DUP2 MSTORE PUSH1 0x7 PUSH1 0x20 MSTORE PUSH1 0x40 SWAP1 KECCAK256 SLOAD PUSH1 0xFF AND PUSH2 0xEB8 JUMPI PUSH1 0x40 MLOAD PUSH3 0x461BCD PUSH1 0xE5 SHL DUP2 MSTORE PUSH1 0x20 PUSH1 0x4 DUP3 ADD MSTORE PUSH1 0x9 PUSH1 0x24 DUP3 ADD MSTORE PUSH9 0x2737BA1027BBB732B9 PUSH1 0xB9 SHL PUSH1 0x44 DUP3 ADD MSTORE PUSH1 0x64 ADD PUSH2 0xAA0 JUMP JUMPDEST PUSH1 0x12 SLOAD ISZERO PUSH2 0xF08 JUMPI PUSH1 0x40 MLOAD PUSH3 0x461BCD PUSH1 0xE5 SHL DUP2 MSTORE PUSH1 0x20 PUSH1 0x4 DUP3 ADD MSTORE PUSH1 0x1D PUSH1 0x24 DUP3 ADD MSTORE PUSH32 0x46697273742070726F6365737320616C6C205472616E73616374696F6E000000 PUSH1 0x44 DUP3 ADD MSTORE PUSH1 0x64 ADD PUSH2 0xAA0 JUMP JUMPDEST PUSH1 0x6 SLOAD PUSH1 0x0 SWAP1 PUSH2 0xF18 SWAP1 SELFBALANCE PUSH2 0x3BAD JUMP JUMPDEST SWAP1 POP PUSH1 0x0 JUMPDEST PUSH1 0x6 SLOAD DUP2 LT ISZERO PUSH2 0xE69 JUMPI PUSH1 0x0 PUSH1 0x6 DUP3 DUP2 SLOAD DUP2 LT PUSH2 0xF3C JUMPI PUSH2 0xF3C PUSH2 0x3B02 JUMP JUMPDEST PUSH1 0x0 SWAP2 DUP3 MSTORE PUSH1 0x20 DUP3 KECCAK256 ADD SLOAD PUSH1 0x40 MLOAD PUSH1 0x1 PUSH1 0x1 PUSH1 0xA0 SHL SUB SWAP1 SWAP2 AND SWAP2 DUP6 SWAP2 SWAP1 DUP2 DUP2 DUP2 DUP6 DUP8 GAS CALL SWAP3 POP POP POP RETURNDATASIZE DUP1 PUSH1 0x0 DUP2 EQ PUSH2 0xF90 JUMPI PUSH1 0x40 MLOAD SWAP2 POP PUSH1 0x1F NOT PUSH1 0x3F RETURNDATASIZE ADD AND DUP3 ADD PUSH1 0x40 MSTORE RETURNDATASIZE DUP3 MSTORE RETURNDATASIZE PUSH1 0x0 PUSH1 0x20 DUP5 ADD RETURNDATACOPY PUSH2 0xF95 JUMP JUMPDEST PUSH1 0x60 SWAP2 POP JUMPDEST POP POP SWAP1 POP DUP1 PUSH2 0xFE6 JUMPI PUSH1 0x40 MLOAD PUSH3 0x461BCD PUSH1 0xE5 SHL DUP2 MSTORE PUSH1 0x20 PUSH1 0x4 DUP3 ADD MSTORE PUSH1 0xB PUSH1 0x24 DUP3 ADD MSTORE PUSH32 0x43616C6C204661696C6564000000000000000000000000000000000000000000 PUSH1 0x44 DUP3 ADD MSTORE PUSH1 0x64 ADD PUSH2 0xAA0 JUMP JUMPDEST POP DUP1 PUSH2 0xFF1 DUP2 PUSH2 0x3B2E JUMP JUMPDEST SWAP2 POP POP PUSH2 0xF1D JUMP JUMPDEST CALLER PUSH1 0x0 SWAP1 DUP2 MSTORE PUSH1 0x7 PUSH1 0x20 MSTORE PUSH1 0x40 SWAP1 KECCAK256 SLOAD PUSH1 0xFF AND PUSH2 0x1044 JUMPI PUSH1 0x40 MLOAD PUSH3 0x461BCD PUSH1 0xE5 SHL DUP2 MSTORE PUSH1 0x20 PUSH1 0x4 DUP3 ADD MSTORE PUSH1 0x9 PUSH1 0x24 DUP3 ADD MSTORE PUSH9 0x2737BA1027BBB732B9 PUSH1 0xB9 SHL PUSH1 0x44 DUP3 ADD MSTORE PUSH1 0x64 ADD PUSH2 0xAA0 JUMP JUMPDEST PUSH1 0x11 SLOAD DUP2 LT PUSH2 0x1095 JUMPI PUSH1 0x40 MLOAD PUSH3 0x461BCD PUSH1 0xE5 SHL DUP2 MSTORE PUSH1 0x20 PUSH1 0x4 DUP3 ADD MSTORE PUSH1 0x1E PUSH1 0x24 DUP3 ADD MSTORE PUSH32 0x496E76616C696420556E617070726F7665642050726F73756D65722049440000 PUSH1 0x44 DUP3 ADD MSTORE PUSH1 0x64 ADD PUSH2 0xAA0 JUMP JUMPDEST PUSH1 0x10 PUSH1 0x0 PUSH1 0x11 DUP4 DUP2 SLOAD DUP2 LT PUSH2 0x10AC JUMPI PUSH2 0x10AC PUSH2 0x3B02 JUMP JUMPDEST PUSH1 0x0 SWAP2 DUP3 MSTORE PUSH1 0x20 DUP1 DUP4 KECCAK256 PUSH1 0x1 PUSH1 0x7 SWAP1 SWAP4 MUL ADD SWAP2 SWAP1 SWAP2 ADD SLOAD PUSH1 0x1 PUSH1 0x1 PUSH1 0xA0 SHL SUB AND DUP4 MSTORE DUP3 DUP2 ADD SWAP4 SWAP1 SWAP4 MSTORE PUSH1 0x40 SWAP2 DUP3 ADD DUP2 KECCAK256 CALLER DUP3 MSTORE SWAP1 SWAP3 MSTORE SWAP1 KECCAK256 SLOAD PUSH1 0xFF AND ISZERO PUSH2 0x115B JUMPI PUSH1 0x40 MLOAD PUSH3 0x461BCD PUSH1 0xE5 SHL DUP2 MSTORE PUSH1 0x20 PUSH1 0x4 DUP3 ADD MSTORE PUSH1 0x23 PUSH1 0x24 DUP3 ADD MSTORE PUSH32 0x50726F73756D657220416C726561647920646973617070726F76656420627920 PUSH1 0x44 DUP3 ADD MSTORE PUSH32 0x796F750000000000000000000000000000000000000000000000000000000000 PUSH1 0x64 DUP3 ADD MSTORE PUSH1 0x84 ADD PUSH2 0xAA0 JUMP JUMPDEST PUSH1 0x1 PUSH1 0x10 PUSH1 0x0 PUSH1 0x11 DUP5 DUP2 SLOAD DUP2 LT PUSH2 0x1174 JUMPI PUSH2 0x1174 PUSH2 0x3B02 JUMP JUMPDEST PUSH1 0x0 SWAP2 DUP3 MSTORE PUSH1 0x20 DUP1 DUP4 KECCAK256 PUSH1 0x7 SWAP3 SWAP1 SWAP3 MUL SWAP1 SWAP2 ADD PUSH1 0x1 ADD SLOAD PUSH1 0x1 PUSH1 0x1 PUSH1 0xA0 SHL SUB AND DUP4 MSTORE DUP3 DUP2 ADD SWAP4 SWAP1 SWAP4 MSTORE PUSH1 0x40 SWAP2 DUP3 ADD DUP2 KECCAK256 CALLER DUP3 MSTORE SWAP1 SWAP3 MSTORE DUP2 KECCAK256 DUP1 SLOAD PUSH1 0xFF NOT AND SWAP3 ISZERO ISZERO SWAP3 SWAP1 SWAP3 OR SWAP1 SWAP2 SSTORE PUSH1 0x11 DUP1 SLOAD PUSH1 0x10 SWAP3 SWAP2 SWAP1 DUP5 SWAP1 DUP2 LT PUSH2 0x11D5 JUMPI PUSH2 0x11D5 PUSH2 0x3B02 JUMP JUMPDEST PUSH1 0x0 SWAP2 DUP3 MSTORE PUSH1 0x20 DUP1 DUP4 KECCAK256 PUSH1 0x1 PUSH1 0x7 SWAP1 SWAP4 MUL ADD SWAP2 SWAP1 SWAP2 ADD SLOAD PUSH1 0x1 PUSH1 0x1 PUSH1 0xA0 SHL SUB AND DUP4 MSTORE DUP3 DUP2 ADD SWAP4 SWAP1 SWAP4 MSTORE PUSH1 0x40 SWAP2 DUP3 ADD DUP2 KECCAK256 CALLER DUP3 MSTORE SWAP1 SWAP3 MSTORE SWAP1 KECCAK256 SLOAD PUSH1 0xFF AND ISZERO PUSH2 0x1277 JUMPI PUSH1 0x0 PUSH1 0xF PUSH1 0x0 PUSH1 0x11 DUP5 DUP2 SLOAD DUP2 LT PUSH2 0x122F JUMPI PUSH2 0x122F PUSH2 0x3B02 JUMP JUMPDEST PUSH1 0x0 SWAP2 DUP3 MSTORE PUSH1 0x20 DUP1 DUP4 KECCAK256 PUSH1 0x7 SWAP3 SWAP1 SWAP3 MUL SWAP1 SWAP2 ADD PUSH1 0x1 ADD SLOAD PUSH1 0x1 PUSH1 0x1 PUSH1 0xA0 SHL SUB AND DUP4 MSTORE DUP3 DUP2 ADD SWAP4 SWAP1 SWAP4 MSTORE PUSH1 0x40 SWAP2 DUP3 ADD DUP2 KECCAK256 CALLER DUP3 MSTORE SWAP1 SWAP3 MSTORE SWAP1 KECCAK256 DUP1 SLOAD PUSH1 0xFF NOT AND SWAP2 ISZERO ISZERO SWAP2 SWAP1 SWAP2 OR SWAP1 SSTORE JUMPDEST PUSH1 0x8 SLOAD PUSH2 0x1283 DUP3 PUSH2 0x3254 JUMP JUMPDEST GT ISZERO PUSH2 0xD65 JUMPI PUSH2 0xD65 DUP2 PUSH2 0x330F JUMP JUMPDEST CALLER PUSH1 0x0 SWAP1 DUP2 MSTORE PUSH1 0xB PUSH1 0x20 MSTORE PUSH1 0x40 DUP2 KECCAK256 SLOAD PUSH1 0xFF AND PUSH2 0x12E0 JUMPI PUSH1 0x40 MLOAD PUSH3 0x461BCD PUSH1 0xE5 SHL DUP2 MSTORE PUSH1 0x20 PUSH1 0x4 DUP3 ADD MSTORE PUSH1 0xC PUSH1 0x24 DUP3 ADD MSTORE PUSH12 0x2737BA10283937B9BAB6B2B9 PUSH1 0xA1 SHL PUSH1 0x44 DUP3 ADD MSTORE PUSH1 0x64 ADD PUSH2 0xAA0 JUMP JUMPDEST CALLER PUSH1 0x0 SWAP1 DUP2 MSTORE PUSH1 0xD PUSH1 0x20 MSTORE PUSH1 0x40 SWAP1 KECCAK256 SLOAD PUSH1 0xE SWAP1 PUSH2 0x12FF SWAP1 PUSH1 0x1 SWAP1 PUSH2 0x3B7E JUMP JUMPDEST DUP2 SLOAD DUP2 LT PUSH2 0x130F JUMPI PUSH2 0x130F PUSH2 0x3B02 JUMP JUMPDEST SWAP1 PUSH1 0x0 MSTORE PUSH1 0x20 PUSH1 0x0 KECCAK256 SWAP1 PUSH1 0x7 MUL ADD PUSH1 0x5 ADD SLOAD SWAP1 POP SWAP1 JUMP JUMPDEST PUSH1 0xE DUP2 DUP2 SLOAD DUP2 LT PUSH2 0x1336 JUMPI PUSH1 0x0 DUP1 REVERT JUMPDEST PUSH1 0x0 SWAP2 DUP3 MSTORE PUSH1 0x20 SWAP1 SWAP2 KECCAK256 PUSH1 0x7 SWAP1 SWAP2 MUL ADD DUP1 SLOAD PUSH1 0x1 DUP3 ADD SLOAD PUSH1 0x2 DUP4 ADD SLOAD PUSH1 0x3 DUP5 ADD SLOAD PUSH1 0x4 DUP6 ADD SLOAD PUSH1 0x5 DUP7 ADD SLOAD PUSH1 0x6 SWAP1 SWAP7 ADD SLOAD SWAP5 SWAP7 POP PUSH1 0x1 PUSH1 0x1 PUSH1 0xA0 SHL SUB SWAP1 SWAP4 AND SWAP5 SWAP2 SWAP4 PUSH1 0xFF SWAP1 SWAP2 AND SWAP3 SWAP2 SWAP1 DUP8 JUMP JUMPDEST CALLER PUSH1 0x0 SWAP1 DUP2 MSTORE PUSH1 0xB PUSH1 0x20 MSTORE PUSH1 0x40 SWAP1 KECCAK256 SLOAD PUSH1 0xFF AND PUSH2 0x13D1 JUMPI PUSH1 0x40 MLOAD PUSH3 0x461BCD PUSH1 0xE5 SHL DUP2 MSTORE PUSH1 0x20 PUSH1 0x4 DUP3 ADD MSTORE PUSH1 0xC PUSH1 0x24 DUP3 ADD MSTORE PUSH12 0x2737BA10283937B9BAB6B2B9 PUSH1 0xA1 SHL PUSH1 0x44 DUP3 ADD MSTORE PUSH1 0x64 ADD PUSH2 0xAA0 JUMP JUMPDEST PUSH1 0x0 DUP2 PUSH1 0xE PUSH2 0x13E1 PUSH1 0x1 DUP7 PUSH2 0x3B7E JUMP JUMPDEST DUP2 SLOAD DUP2 LT PUSH2 0x13F1 JUMPI PUSH2 0x13F1 PUSH2 0x3B02 JUMP JUMPDEST SWAP1 PUSH1 0x0 MSTORE PUSH1 0x20 PUSH1 0x0 KECCAK256 SWAP1 PUSH1 0x7 MUL ADD PUSH1 0x5 ADD SLOAD PUSH2 0x140D SWAP2 SWAP1 PUSH2 0x3BCF JUMP JUMPDEST SWAP1 POP DUP1 CALLVALUE LT ISZERO PUSH2 0x145F JUMPI PUSH1 0x40 MLOAD PUSH3 0x461BCD PUSH1 0xE5 SHL DUP2 MSTORE PUSH1 0x20 PUSH1 0x4 DUP3 ADD MSTORE PUSH1 0x19 PUSH1 0x24 DUP3 ADD MSTORE PUSH32 0x4469646E27742073656E6420656E6F756768204D617469632100000000000000 PUSH1 0x44 DUP3 ADD MSTORE PUSH1 0x64 ADD PUSH2 0xAA0 JUMP JUMPDEST PUSH1 0xE PUSH2 0x146C PUSH1 0x1 DUP6 PUSH2 0x3B7E JUMP JUMPDEST DUP2 SLOAD DUP2 LT PUSH2 0x147C JUMPI PUSH2 0x147C PUSH2 0x3B02 JUMP JUMPDEST SWAP1 PUSH1 0x0 MSTORE PUSH1 0x20 PUSH1 0x0 KECCAK256 SWAP1 PUSH1 0x7 MUL ADD PUSH1 0x6 ADD SLOAD DUP3 GT ISZERO PUSH2 0x1503 JUMPI PUSH1 0x40 MLOAD PUSH3 0x461BCD PUSH1 0xE5 SHL DUP2 MSTORE PUSH1 0x20 PUSH1 0x4 DUP3 ADD MSTORE PUSH1 0x36 PUSH1 0x24 DUP3 ADD MSTORE PUSH32 0x53656C65637465642050726F647563657220646F206861766520656E6F756768 PUSH1 0x44 DUP3 ADD MSTORE PUSH32 0x20456E6F75676820456E657267792042616C616E636500000000000000000000 PUSH1 0x64 DUP3 ADD MSTORE PUSH1 0x84 ADD PUSH2 0xAA0 JUMP JUMPDEST PUSH1 0x40 DUP1 MLOAD PUSH2 0x100 DUP2 ADD DUP3 MSTORE PUSH1 0x0 DUP6 DUP2 MSTORE PUSH1 0xC PUSH1 0x20 SWAP1 DUP2 MSTORE DUP4 DUP3 KECCAK256 SLOAD PUSH1 0x1 PUSH1 0x1 PUSH1 0xA0 SHL SUB AND DUP4 MSTORE CALLER DUP2 DUP5 ADD DUP2 SWAP1 MSTORE DUP4 DUP6 ADD DUP9 SWAP1 MSTORE DUP3 MSTORE PUSH1 0xD SWAP1 MSTORE SWAP2 DUP3 KECCAK256 SLOAD PUSH1 0x60 DUP3 ADD MSTORE PUSH1 0x80 DUP2 ADD DUP5 SWAP1 MSTORE PUSH1 0xA0 DUP2 ADD PUSH1 0xE PUSH2 0x155D PUSH1 0x1 DUP9 PUSH2 0x3B7E JUMP JUMPDEST DUP2 SLOAD DUP2 LT PUSH2 0x156D JUMPI PUSH2 0x156D PUSH2 0x3B02 JUMP JUMPDEST SWAP1 PUSH1 0x0 MSTORE PUSH1 0x20 PUSH1 0x0 KECCAK256 SWAP1 PUSH1 0x7 MUL ADD PUSH1 0x4 ADD SLOAD DUP2 MSTORE PUSH1 0x20 ADD PUSH1 0xE PUSH1 0x1 DUP8 PUSH2 0x1593 SWAP2 SWAP1 PUSH2 0x3B7E JUMP JUMPDEST DUP2 SLOAD DUP2 LT PUSH2 0x15A3 JUMPI PUSH2 0x15A3 PUSH2 0x3B02 JUMP JUMPDEST PUSH1 0x0 SWAP2 DUP3 MSTORE PUSH1 0x20 DUP1 DUP4 KECCAK256 PUSH1 0x7 SWAP3 SWAP1 SWAP3 MUL SWAP1 SWAP2 ADD PUSH1 0x5 ADD SLOAD DUP4 MSTORE SWAP2 DUP3 ADD DUP6 SWAP1 MSTORE PUSH1 0x12 DUP1 SLOAD PUSH1 0x1 DUP1 DUP3 ADD DUP4 SSTORE SWAP2 SWAP1 SWAP3 MSTORE DUP4 MLOAD PUSH32 0xBB8A6A4669BA250D26CD7A459ECA9D215F8307E33AEBE50379BC5A3617EC3444 PUSH1 0x8 SWAP1 SWAP4 MUL SWAP3 DUP4 ADD DUP1 SLOAD PUSH1 0x1 PUSH1 0x1 PUSH1 0xA0 SHL SUB NOT SWAP1 DUP2 AND PUSH1 0x1 PUSH1 0x1 PUSH1 0xA0 SHL SUB SWAP4 DUP5 AND OR SWAP1 SWAP2 SSTORE SWAP4 DUP6 ADD MLOAD PUSH32 0xBB8A6A4669BA250D26CD7A459ECA9D215F8307E33AEBE50379BC5A3617EC3445 DUP5 ADD DUP1 SLOAD SWAP1 SWAP6 AND SWAP2 AND OR SWAP1 SWAP3 SSTORE PUSH1 0x40 DUP4 ADD MLOAD PUSH32 0xBB8A6A4669BA250D26CD7A459ECA9D215F8307E33AEBE50379BC5A3617EC3446 DUP3 ADD SSTORE PUSH1 0x60 DUP4 ADD MLOAD PUSH32 0xBB8A6A4669BA250D26CD7A459ECA9D215F8307E33AEBE50379BC5A3617EC3447 DUP3 ADD SSTORE PUSH1 0x80 DUP4 ADD MLOAD PUSH32 0xBB8A6A4669BA250D26CD7A459ECA9D215F8307E33AEBE50379BC5A3617EC3448 DUP3 ADD SSTORE PUSH1 0xA0 DUP4 ADD MLOAD PUSH32 0xBB8A6A4669BA250D26CD7A459ECA9D215F8307E33AEBE50379BC5A3617EC3449 DUP3 ADD SSTORE PUSH1 0xC0 DUP4 ADD MLOAD PUSH32 0xBB8A6A4669BA250D26CD7A459ECA9D215F8307E33AEBE50379BC5A3617EC344A DUP3 ADD SSTORE PUSH1 0xE0 DUP4 ADD MLOAD PUSH32 0xBB8A6A4669BA250D26CD7A459ECA9D215F8307E33AEBE50379BC5A3617EC344B SWAP1 SWAP2 ADD SSTORE SWAP1 SWAP2 POP DUP4 SWAP1 PUSH1 0xE SWAP1 PUSH2 0x1754 SWAP1 DUP8 PUSH2 0x3B7E JUMP JUMPDEST DUP2 SLOAD DUP2 LT PUSH2 0x1764 JUMPI PUSH2 0x1764 PUSH2 0x3B02 JUMP JUMPDEST SWAP1 PUSH1 0x0 MSTORE PUSH1 0x20 PUSH1 0x0 KECCAK256 SWAP1 PUSH1 0x7 MUL ADD PUSH1 0x6 ADD SLOAD PUSH2 0x1780 SWAP2 SWAP1 PUSH2 0x3B7E JUMP JUMPDEST PUSH1 0xE PUSH2 0x178D PUSH1 0x1 DUP8 PUSH2 0x3B7E JUMP JUMPDEST DUP2 SLOAD DUP2 LT PUSH2 0x179D JUMPI PUSH2 0x179D PUSH2 0x3B02 JUMP JUMPDEST SWAP1 PUSH1 0x0 MSTORE PUSH1 0x20 PUSH1 0x0 KECCAK256 SWAP1 PUSH1 0x7 MUL ADD PUSH1 0x6 ADD DUP2 SWAP1 SSTORE POP POP POP POP POP JUMP JUMPDEST PUSH1 0x60 PUSH1 0xE DUP1 SLOAD DUP1 PUSH1 0x20 MUL PUSH1 0x20 ADD PUSH1 0x40 MLOAD SWAP1 DUP2 ADD PUSH1 0x40 MSTORE DUP1 SWAP3 SWAP2 SWAP1 DUP2 DUP2 MSTORE PUSH1 0x20 ADD PUSH1 0x0 SWAP1 JUMPDEST DUP3 DUP3 LT ISZERO PUSH2 0x185C JUMPI PUSH1 0x0 DUP5 DUP2 MSTORE PUSH1 0x20 SWAP1 DUP2 SWAP1 KECCAK256 PUSH1 0x40 DUP1 MLOAD PUSH1 0xE0 DUP2 ADD DUP3 MSTORE PUSH1 0x7 DUP7 MUL SWAP1 SWAP3 ADD DUP1 SLOAD DUP4 MSTORE PUSH1 0x1 DUP1 DUP3 ADD SLOAD PUSH1 0x1 PUSH1 0x1 PUSH1 0xA0 SHL SUB AND DUP5 DUP7 ADD MSTORE PUSH1 0x2 DUP3 ADD SLOAD SWAP3 DUP5 ADD SWAP3 SWAP1 SWAP3 MSTORE PUSH1 0x3 DUP2 ADD SLOAD PUSH1 0xFF AND ISZERO ISZERO PUSH1 0x60 DUP5 ADD MSTORE PUSH1 0x4 DUP2 ADD SLOAD PUSH1 0x80 DUP5 ADD MSTORE PUSH1 0x5 DUP2 ADD SLOAD PUSH1 0xA0 DUP5 ADD MSTORE PUSH1 0x6 ADD SLOAD PUSH1 0xC0 DUP4 ADD MSTORE SWAP1 DUP4 MSTORE SWAP1 SWAP3 ADD SWAP2 ADD PUSH2 0x17DC JUMP JUMPDEST POP POP POP POP SWAP1 POP SWAP1 JUMP JUMPDEST PUSH1 0x12 DUP2 DUP2 SLOAD DUP2 LT PUSH2 0x1875 JUMPI PUSH1 0x0 DUP1 REVERT JUMPDEST PUSH1 0x0 SWAP2 DUP3 MSTORE PUSH1 0x20 SWAP1 SWAP2 KECCAK256 PUSH1 0x8 SWAP1 SWAP2 MUL ADD DUP1 SLOAD PUSH1 0x1 DUP3 ADD SLOAD PUSH1 0x2 DUP4 ADD SLOAD PUSH1 0x3 DUP5 ADD SLOAD PUSH1 0x4 DUP6 ADD SLOAD PUSH1 0x5 DUP7 ADD SLOAD PUSH1 0x6 DUP8 ADD SLOAD PUSH1 0x7 SWAP1 SWAP8 ADD SLOAD PUSH1 0x1 PUSH1 0x1 PUSH1 0xA0 SHL SUB SWAP7 DUP8 AND SWAP9 POP SWAP5 SWAP1 SWAP6 AND SWAP6 SWAP3 SWAP5 SWAP2 SWAP4 SWAP1 SWAP3 SWAP1 DUP9 JUMP JUMPDEST CALLER PUSH1 0x0 SWAP1 DUP2 MSTORE PUSH1 0x7 PUSH1 0x20 MSTORE PUSH1 0x40 SWAP1 KECCAK256 SLOAD PUSH1 0x60 SWAP1 PUSH1 0xFF AND PUSH2 0x1915 JUMPI PUSH1 0x40 MLOAD PUSH3 0x461BCD PUSH1 0xE5 SHL DUP2 MSTORE PUSH1 0x20 PUSH1 0x4 DUP3 ADD MSTORE PUSH1 0x9 PUSH1 0x24 DUP3 ADD MSTORE PUSH9 0x2737BA1027BBB732B9 PUSH1 0xB9 SHL PUSH1 0x44 DUP3 ADD MSTORE PUSH1 0x64 ADD PUSH2 0xAA0 JUMP JUMPDEST PUSH1 0x1 PUSH1 0x1 PUSH1 0xA0 SHL SUB DUP3 AND PUSH1 0x0 SWAP1 DUP2 MSTORE PUSH1 0xF PUSH1 0x20 SWAP1 DUP2 MSTORE PUSH1 0x40 DUP1 DUP4 KECCAK256 CALLER DUP5 MSTORE SWAP1 SWAP2 MSTORE SWAP1 KECCAK256 SLOAD PUSH1 0xFF AND ISZERO PUSH2 0x197A JUMPI POP POP PUSH1 0x40 DUP1 MLOAD DUP1 DUP3 ADD SWAP1 SWAP2 MSTORE PUSH1 0x11 DUP2 MSTORE PUSH32 0x50726F73756D657220417070726F766564000000000000000000000000000000 PUSH1 0x20 DUP3 ADD MSTORE SWAP1 JUMP JUMPDEST PUSH1 0x1 PUSH1 0x1 PUSH1 0xA0 SHL SUB DUP3 AND PUSH1 0x0 SWAP1 DUP2 MSTORE PUSH1 0x10 PUSH1 0x20 SWAP1 DUP2 MSTORE PUSH1 0x40 DUP1 DUP4 KECCAK256 CALLER DUP5 MSTORE SWAP1 SWAP2 MSTORE SWAP1 KECCAK256 SLOAD PUSH1 0xFF AND ISZERO PUSH2 0x19DF JUMPI POP POP PUSH1 0x40 DUP1 MLOAD DUP1 DUP3 ADD SWAP1 SWAP2 MSTORE PUSH1 0x14 DUP2 MSTORE PUSH32 0x50726F73756D657220446973617070726F766564000000000000000000000000 PUSH1 0x20 DUP3 ADD MSTORE SWAP1 JUMP JUMPDEST POP PUSH1 0x40 DUP1 MLOAD DUP1 DUP3 ADD SWAP1 SWAP2 MSTORE PUSH1 0x19 DUP2 MSTORE PUSH32 0x50726F73756D6572204E6F742056657269666965642059657400000000000000 PUSH1 0x20 DUP3 ADD MSTORE JUMPDEST SWAP2 SWAP1 POP JUMP JUMPDEST CALLER PUSH1 0x0 SWAP1 DUP2 MSTORE PUSH1 0xB PUSH1 0x20 MSTORE PUSH1 0x40 SWAP1 KECCAK256 SLOAD PUSH1 0xFF AND PUSH2 0x1A68 JUMPI PUSH1 0x40 MLOAD PUSH3 0x461BCD PUSH1 0xE5 SHL DUP2 MSTORE PUSH1 0x20 PUSH1 0x4 DUP3 ADD MSTORE PUSH1 0xC PUSH1 0x24 DUP3 ADD MSTORE PUSH12 0x2737BA10283937B9BAB6B2B9 PUSH1 0xA1 SHL PUSH1 0x44 DUP3 ADD MSTORE PUSH1 0x64 ADD PUSH2 0xAA0 JUMP JUMPDEST PUSH2 0xD65 CALLER DUP3 PUSH2 0x34F9 JUMP JUMPDEST PUSH1 0x0 DUP1 PUSH1 0x5 PUSH1 0x0 SWAP1 SLOAD SWAP1 PUSH2 0x100 EXP SWAP1 DIV PUSH1 0x1 PUSH1 0x1 PUSH1 0xA0 SHL SUB AND PUSH1 0x1 PUSH1 0x1 PUSH1 0xA0 SHL SUB AND PUSH4 0xFEAF968C PUSH1 0x40 MLOAD DUP2 PUSH4 0xFFFFFFFF AND PUSH1 0xE0 SHL DUP2 MSTORE PUSH1 0x4 ADD PUSH1 0xA0 PUSH1 0x40 MLOAD DUP1 DUP4 SUB DUP2 DUP7 DUP1 EXTCODESIZE ISZERO DUP1 ISZERO PUSH2 0x1AC3 JUMPI PUSH1 0x0 DUP1 REVERT JUMPDEST POP GAS STATICCALL ISZERO DUP1 ISZERO PUSH2 0x1AD7 JUMPI RETURNDATASIZE PUSH1 0x0 DUP1 RETURNDATACOPY RETURNDATASIZE PUSH1 0x0 REVERT JUMPDEST POP POP POP POP PUSH1 0x40 MLOAD RETURNDATASIZE PUSH1 0x1F NOT PUSH1 0x1F DUP3 ADD AND DUP3 ADD DUP1 PUSH1 0x40 MSTORE POP DUP2 ADD SWAP1 PUSH2 0x1AFB SWAP2 SWAP1 PUSH2 0x3C08 JUMP JUMPDEST POP SWAP2 SWAP6 SWAP5 POP POP POP POP POP JUMP JUMPDEST PUSH1 0x60 PUSH1 0x12 DUP1 SLOAD DUP1 PUSH1 0x20 MUL PUSH1 0x20 ADD PUSH1 0x40 MLOAD SWAP1 DUP2 ADD PUSH1 0x40 MSTORE DUP1 SWAP3 SWAP2 SWAP1 DUP2 DUP2 MSTORE PUSH1 0x20 ADD PUSH1 0x0 SWAP1 JUMPDEST DUP3 DUP3 LT ISZERO PUSH2 0x185C JUMPI PUSH1 0x0 DUP5 DUP2 MSTORE PUSH1 0x20 SWAP1 DUP2 SWAP1 KECCAK256 PUSH1 0x40 DUP1 MLOAD PUSH2 0x100 DUP2 ADD DUP3 MSTORE PUSH1 0x8 DUP7 MUL SWAP1 SWAP3 ADD DUP1 SLOAD PUSH1 0x1 PUSH1 0x1 PUSH1 0xA0 SHL SUB SWAP1 DUP2 AND DUP5 MSTORE PUSH1 0x1 DUP1 DUP4 ADD SLOAD SWAP1 SWAP2 AND DUP5 DUP7 ADD MSTORE PUSH1 0x2 DUP3 ADD SLOAD SWAP3 DUP5 ADD SWAP3 SWAP1 SWAP3 MSTORE PUSH1 0x3 DUP2 ADD SLOAD PUSH1 0x60 DUP5 ADD MSTORE PUSH1 0x4 DUP2 ADD SLOAD PUSH1 0x80 DUP5 ADD MSTORE PUSH1 0x5 DUP2 ADD SLOAD PUSH1 0xA0 DUP5 ADD MSTORE PUSH1 0x6 DUP2 ADD SLOAD PUSH1 0xC0 DUP5 ADD MSTORE PUSH1 0x7 ADD SLOAD PUSH1 0xE0 DUP4 ADD MSTORE SWAP1 DUP4 MSTORE SWAP1 SWAP3 ADD SWAP2 ADD PUSH2 0x1B2A JUMP JUMPDEST CALLER PUSH1 0x0 SWAP1 DUP2 MSTORE PUSH1 0x7 PUSH1 0x20 MSTORE PUSH1 0x40 SWAP1 KECCAK256 SLOAD PUSH1 0xFF AND PUSH2 0x1C00 JUMPI PUSH1 0x40 MLOAD PUSH3 0x461BCD PUSH1 0xE5 SHL DUP2 MSTORE PUSH1 0x20 PUSH1 0x4 DUP3 ADD MSTORE PUSH1 0x9 PUSH1 0x24 DUP3 ADD MSTORE PUSH9 0x2737BA1027BBB732B9 PUSH1 0xB9 SHL PUSH1 0x44 DUP3 ADD MSTORE PUSH1 0x64 ADD PUSH2 0xAA0 JUMP JUMPDEST PUSH1 0x12 SLOAD PUSH2 0x1C75 JUMPI PUSH1 0x40 MLOAD PUSH3 0x461BCD PUSH1 0xE5 SHL DUP2 MSTORE PUSH1 0x20 PUSH1 0x4 DUP3 ADD MSTORE PUSH1 0x21 PUSH1 0x24 DUP3 ADD MSTORE PUSH32 0x4E6F2070656E64696E67205472616E73616374696F6E20746F20657865637574 PUSH1 0x44 DUP3 ADD MSTORE PUSH32 0x6500000000000000000000000000000000000000000000000000000000000000 PUSH1 0x64 DUP3 ADD MSTORE PUSH1 0x84 ADD PUSH2 0xAA0 JUMP JUMPDEST PUSH1 0x0 JUMPDEST PUSH1 0x12 SLOAD DUP2 LT ISZERO PUSH2 0x1DF8 JUMPI PUSH1 0xA SLOAD PUSH1 0x12 DUP1 SLOAD PUSH2 0x1CF7 SWAP3 PUSH1 0x1 PUSH1 0x1 PUSH1 0xA0 SHL SUB AND SWAP2 SWAP1 DUP5 SWAP1 DUP2 LT PUSH2 0x1CA8 JUMPI PUSH2 0x1CA8 PUSH2 0x3B02 JUMP JUMPDEST SWAP1 PUSH1 0x0 MSTORE PUSH1 0x20 PUSH1 0x0 KECCAK256 SWAP1 PUSH1 0x8 MUL ADD PUSH1 0x1 ADD PUSH1 0x0 SWAP1 SLOAD SWAP1 PUSH2 0x100 EXP SWAP1 DIV PUSH1 0x1 PUSH1 0x1 PUSH1 0xA0 SHL SUB AND PUSH1 0x12 DUP5 DUP2 SLOAD DUP2 LT PUSH2 0x1CE0 JUMPI PUSH2 0x1CE0 PUSH2 0x3B02 JUMP JUMPDEST SWAP1 PUSH1 0x0 MSTORE PUSH1 0x20 PUSH1 0x0 KECCAK256 SWAP1 PUSH1 0x8 MUL ADD PUSH1 0x4 ADD SLOAD PUSH2 0x3067 JUMP JUMPDEST PUSH1 0x0 PUSH1 0x12 DUP3 DUP2 SLOAD DUP2 LT PUSH2 0x1D0C JUMPI PUSH2 0x1D0C PUSH2 0x3B02 JUMP JUMPDEST PUSH1 0x0 SWAP2 DUP3 MSTORE PUSH1 0x20 SWAP1 SWAP2 KECCAK256 PUSH1 0x8 SWAP1 SWAP2 MUL ADD SLOAD PUSH1 0x12 DUP1 SLOAD PUSH1 0x1 PUSH1 0x1 PUSH1 0xA0 SHL SUB SWAP1 SWAP3 AND SWAP2 DUP5 SWAP1 DUP2 LT PUSH2 0x1D3D JUMPI PUSH2 0x1D3D PUSH2 0x3B02 JUMP JUMPDEST SWAP1 PUSH1 0x0 MSTORE PUSH1 0x20 PUSH1 0x0 KECCAK256 SWAP1 PUSH1 0x8 MUL ADD PUSH1 0x7 ADD SLOAD PUSH1 0x40 MLOAD PUSH1 0x0 PUSH1 0x40 MLOAD DUP1 DUP4 SUB DUP2 DUP6 DUP8 GAS CALL SWAP3 POP POP POP RETURNDATASIZE DUP1 PUSH1 0x0 DUP2 EQ PUSH2 0x1D8F JUMPI PUSH1 0x40 MLOAD SWAP2 POP PUSH1 0x1F NOT PUSH1 0x3F RETURNDATASIZE ADD AND DUP3 ADD PUSH1 0x40 MSTORE RETURNDATASIZE DUP3 MSTORE RETURNDATASIZE PUSH1 0x0 PUSH1 0x20 DUP5 ADD RETURNDATACOPY PUSH2 0x1D94 JUMP JUMPDEST PUSH1 0x60 SWAP2 POP JUMPDEST POP POP SWAP1 POP DUP1 PUSH2 0x1DE5 JUMPI PUSH1 0x40 MLOAD PUSH3 0x461BCD PUSH1 0xE5 SHL DUP2 MSTORE PUSH1 0x20 PUSH1 0x4 DUP3 ADD MSTORE PUSH1 0xB PUSH1 0x24 DUP3 ADD MSTORE PUSH32 0x43616C6C206661696C6564000000000000000000000000000000000000000000 PUSH1 0x44 DUP3 ADD MSTORE PUSH1 0x64 ADD PUSH2 0xAA0 JUMP JUMPDEST POP DUP1 PUSH2 0x1DF0 DUP2 PUSH2 0x3B2E JUMP JUMPDEST SWAP2 POP POP PUSH2 0x1C78 JUMP JUMPDEST POP PUSH2 0x1E05 PUSH1 0x12 PUSH1 0x0 PUSH2 0x37FB JUMP JUMPDEST JUMP JUMPDEST PUSH1 0x60 PUSH1 0x4 DUP1 SLOAD PUSH2 0xC72 SWAP1 PUSH2 0x3B49 JUMP JUMPDEST CALLER PUSH1 0x0 SWAP1 DUP2 MSTORE PUSH1 0xB PUSH1 0x20 MSTORE PUSH1 0x40 DUP2 KECCAK256 SLOAD PUSH1 0xFF AND PUSH2 0x1E64 JUMPI PUSH1 0x40 MLOAD PUSH3 0x461BCD PUSH1 0xE5 SHL DUP2 MSTORE PUSH1 0x20 PUSH1 0x4 DUP3 ADD MSTORE PUSH1 0xC PUSH1 0x24 DUP3 ADD MSTORE PUSH12 0x2737BA10283937B9BAB6B2B9 PUSH1 0xA1 SHL PUSH1 0x44 DUP3 ADD MSTORE PUSH1 0x64 ADD PUSH2 0xAA0 JUMP JUMPDEST CALLER PUSH1 0x0 SWAP1 DUP2 MSTORE PUSH1 0xD PUSH1 0x20 MSTORE PUSH1 0x40 SWAP1 KECCAK256 SLOAD PUSH1 0xE SWAP1 PUSH2 0x1E83 SWAP1 PUSH1 0x1 SWAP1 PUSH2 0x3B7E JUMP JUMPDEST DUP2 SLOAD DUP2 LT PUSH2 0x1E93 JUMPI PUSH2 0x1E93 PUSH2 0x3B02 JUMP JUMPDEST SWAP1 PUSH1 0x0 MSTORE PUSH1 0x20 PUSH1 0x0 KECCAK256 SWAP1 PUSH1 0x7 MUL ADD PUSH1 0x6 ADD SLOAD PUSH1 0x0 EQ PUSH2 0x1EF4 JUMPI PUSH1 0x40 MLOAD PUSH3 0x461BCD PUSH1 0xE5 SHL DUP2 MSTORE PUSH1 0x20 PUSH1 0x4 DUP3 ADD MSTORE PUSH1 0x1E PUSH1 0x24 DUP3 ADD MSTORE PUSH32 0x596F75206861766520416C7265616479205374616B656420456E657267790000 PUSH1 0x44 DUP3 ADD MSTORE PUSH1 0x64 ADD PUSH2 0xAA0 JUMP JUMPDEST PUSH1 0xA SLOAD PUSH2 0x1F0A SWAP1 PUSH1 0x1 PUSH1 0x1 PUSH1 0xA0 SHL SUB AND DUP4 PUSH2 0x23F9 JUMP JUMPDEST POP CALLER PUSH1 0x0 SWAP1 DUP2 MSTORE PUSH1 0xD PUSH1 0x20 MSTORE PUSH1 0x40 SWAP1 KECCAK256 SLOAD DUP4 PUSH1 0xE PUSH2 0x1F29 PUSH1 0x1 DUP5 PUSH2 0x3B7E JUMP JUMPDEST DUP2 SLOAD DUP2 LT PUSH2 0x1F39 JUMPI PUSH2 0x1F39 PUSH2 0x3B02 JUMP JUMPDEST SWAP1 PUSH1 0x0 MSTORE PUSH1 0x20 PUSH1 0x0 KECCAK256 SWAP1 PUSH1 0x7 MUL ADD PUSH1 0x4 ADD DUP2 SWAP1 SSTORE POP PUSH2 0x1F57 DUP5 PUSH2 0x365A JUMP JUMPDEST PUSH1 0xE PUSH2 0x1F64 PUSH1 0x1 DUP5 PUSH2 0x3B7E JUMP JUMPDEST DUP2 SLOAD DUP2 LT PUSH2 0x1F74 JUMPI PUSH2 0x1F74 PUSH2 0x3B02 JUMP JUMPDEST PUSH1 0x0 SWAP2 DUP3 MSTORE PUSH1 0x20 SWAP1 SWAP2 KECCAK256 PUSH1 0x5 PUSH1 0x7 SWAP1 SWAP3 MUL ADD ADD SSTORE DUP3 PUSH1 0xE PUSH2 0x1F96 PUSH1 0x1 DUP5 PUSH2 0x3B7E JUMP JUMPDEST DUP2 SLOAD DUP2 LT PUSH2 0x1FA6 JUMPI PUSH2 0x1FA6 PUSH2 0x3B02 JUMP JUMPDEST PUSH1 0x0 SWAP2 DUP3 MSTORE PUSH1 0x20 SWAP1 SWAP2 KECCAK256 PUSH1 0x7 SWAP1 SWAP2 MUL ADD PUSH1 0x6 ADD SSTORE SWAP4 SWAP3 POP POP POP JUMP JUMPDEST PUSH1 0x11 DUP2 DUP2 SLOAD DUP2 LT PUSH2 0x1336 JUMPI PUSH1 0x0 DUP1 REVERT JUMPDEST PUSH2 0xE69 DUP3 DUP3 PUSH2 0x34F9 JUMP JUMPDEST PUSH1 0x9 SLOAD CALLVALUE LT ISZERO PUSH2 0x2053 JUMPI PUSH1 0x40 MLOAD PUSH3 0x461BCD PUSH1 0xE5 SHL DUP2 MSTORE PUSH1 0x20 PUSH1 0x4 DUP3 ADD MSTORE PUSH1 0x25 PUSH1 0x24 DUP3 ADD MSTORE PUSH32 0x526567697374726174696F6E204661696C65642C20496E73756666696369656E PUSH1 0x44 DUP3 ADD MSTORE PUSH32 0x7420466565000000000000000000000000000000000000000000000000000000 PUSH1 0x64 DUP3 ADD MSTORE PUSH1 0x84 ADD PUSH2 0xAA0 JUMP JUMPDEST CALLER PUSH1 0x0 SWAP1 DUP2 MSTORE PUSH1 0xB PUSH1 0x20 MSTORE PUSH1 0x40 SWAP1 KECCAK256 SLOAD PUSH1 0xFF AND ISZERO PUSH2 0x20D9 JUMPI PUSH1 0x40 MLOAD PUSH3 0x461BCD PUSH1 0xE5 SHL DUP2 MSTORE PUSH1 0x20 PUSH1 0x4 DUP3 ADD MSTORE PUSH1 0x29 PUSH1 0x24 DUP3 ADD MSTORE PUSH32 0x596F752061726520616C726561647920612050726F73756D657220696E207468 PUSH1 0x44 DUP3 ADD MSTORE PUSH32 0x65204E6574776F726B0000000000000000000000000000000000000000000000 PUSH1 0x64 DUP3 ADD MSTORE PUSH1 0x84 ADD PUSH2 0xAA0 JUMP JUMPDEST PUSH2 0x20E1 PUSH2 0x36DE JUMP JUMPDEST ISZERO PUSH2 0x2154 JUMPI PUSH1 0x40 MLOAD PUSH3 0x461BCD PUSH1 0xE5 SHL DUP2 MSTORE PUSH1 0x20 PUSH1 0x4 DUP3 ADD MSTORE PUSH1 0x2B PUSH1 0x24 DUP3 ADD MSTORE PUSH32 0x596F75206861766520616C72656164792072657175657374656420666F722052 PUSH1 0x44 DUP3 ADD MSTORE PUSH32 0x6567697374726174696F6E000000000000000000000000000000000000000000 PUSH1 0x64 DUP3 ADD MSTORE PUSH1 0x84 ADD PUSH2 0xAA0 JUMP JUMPDEST DUP1 PUSH1 0x0 JUMPDEST DUP2 ISZERO PUSH2 0x217D JUMPI PUSH2 0x2169 PUSH1 0xA DUP4 PUSH2 0x3BAD JUMP JUMPDEST SWAP2 POP DUP1 PUSH2 0x2175 DUP2 PUSH2 0x3B2E JUMP JUMPDEST SWAP2 POP POP PUSH2 0x2158 JUMP JUMPDEST DUP1 PUSH1 0xC EQ PUSH2 0x21CD JUMPI PUSH1 0x40 MLOAD PUSH3 0x461BCD PUSH1 0xE5 SHL DUP2 MSTORE PUSH1 0x20 PUSH1 0x4 DUP3 ADD MSTORE PUSH1 0x1B PUSH1 0x24 DUP3 ADD MSTORE PUSH32 0x456E746572206120313220646967697420416164686172204E6F2E0000000000 PUSH1 0x44 DUP3 ADD MSTORE PUSH1 0x64 ADD PUSH2 0xAA0 JUMP JUMPDEST POP POP PUSH1 0x40 DUP1 MLOAD PUSH1 0xE0 DUP2 ADD DUP3 MSTORE PUSH1 0x0 DUP1 DUP3 MSTORE CALLER PUSH1 0x20 DUP4 ADD SWAP1 DUP2 MSTORE SWAP3 DUP3 ADD SWAP4 DUP5 MSTORE PUSH1 0x60 DUP3 ADD DUP2 DUP2 MSTORE PUSH1 0x80 DUP4 ADD DUP3 DUP2 MSTORE PUSH1 0xA0 DUP5 ADD DUP4 DUP2 MSTORE PUSH1 0xC0 DUP6 ADD DUP5 DUP2 MSTORE PUSH1 0x11 DUP1 SLOAD PUSH1 0x1 DUP2 ADD DUP3 SSTORE SWAP6 MSTORE SWAP5 MLOAD PUSH32 0x31ECC21A745E3968A04E9570E4425BC18FA8019C68028196B546D1669C200C68 PUSH1 0x7 SWAP1 SWAP6 MUL SWAP5 DUP6 ADD SSTORE SWAP5 MLOAD PUSH32 0x31ECC21A745E3968A04E9570E4425BC18FA8019C68028196B546D1669C200C69 DUP5 ADD DUP1 SLOAD PUSH1 0x1 PUSH1 0x1 PUSH1 0xA0 SHL SUB NOT AND PUSH1 0x1 PUSH1 0x1 PUSH1 0xA0 SHL SUB SWAP1 SWAP3 AND SWAP2 SWAP1 SWAP2 OR SWAP1 SSTORE SWAP5 MLOAD PUSH32 0x31ECC21A745E3968A04E9570E4425BC18FA8019C68028196B546D1669C200C6A DUP4 ADD SSTORE MLOAD PUSH32 0x31ECC21A745E3968A04E9570E4425BC18FA8019C68028196B546D1669C200C6B DUP3 ADD DUP1 SLOAD PUSH1 0xFF NOT AND SWAP2 ISZERO ISZERO SWAP2 SWAP1 SWAP2 OR SWAP1 SSTORE SWAP3 MLOAD PUSH32 0x31ECC21A745E3968A04E9570E4425BC18FA8019C68028196B546D1669C200C6C DUP5 ADD SSTORE SWAP1 MLOAD PUSH32 0x31ECC21A745E3968A04E9570E4425BC18FA8019C68028196B546D1669C200C6D DUP4 ADD SSTORE MLOAD PUSH32 0x31ECC21A745E3968A04E9570E4425BC18FA8019C68028196B546D1669C200C6E SWAP1 SWAP2 ADD SSTORE JUMP JUMPDEST CALLER PUSH1 0x0 DUP2 DUP2 MSTORE PUSH1 0x1 PUSH1 0x20 SWAP1 DUP2 MSTORE PUSH1 0x40 DUP1 DUP4 KECCAK256 PUSH1 0x1 PUSH1 0x1 PUSH1 0xA0 SHL SUB DUP8 AND DUP5 MSTORE SWAP1 SWAP2 MSTORE DUP2 KECCAK256 SLOAD SWAP1 SWAP2 SWAP1 DUP4 DUP2 LT ISZERO PUSH2 0x23EC JUMPI PUSH1 0x40 MLOAD PUSH3 0x461BCD PUSH1 0xE5 SHL DUP2 MSTORE PUSH1 0x20 PUSH1 0x4 DUP3 ADD MSTORE PUSH1 0x25 PUSH1 0x24 DUP3 ADD MSTORE PUSH32 0x45524332303A2064656372656173656420616C6C6F77616E63652062656C6F77 PUSH1 0x44 DUP3 ADD MSTORE PUSH32 0x207A65726F000000000000000000000000000000000000000000000000000000 PUSH1 0x64 DUP3 ADD MSTORE PUSH1 0x84 ADD PUSH2 0xAA0 JUMP JUMPDEST PUSH2 0xE15 DUP3 DUP7 DUP7 DUP5 SUB PUSH2 0x2DBD JUMP JUMPDEST PUSH1 0x0 CALLER PUSH2 0xD03 DUP2 DUP6 DUP6 PUSH2 0x3067 JUMP JUMPDEST CALLER PUSH1 0x0 SWAP1 DUP2 MSTORE PUSH1 0x7 PUSH1 0x20 MSTORE PUSH1 0x40 SWAP1 KECCAK256 SLOAD PUSH1 0xFF AND PUSH2 0x2452 JUMPI PUSH1 0x40 MLOAD PUSH3 0x461BCD PUSH1 0xE5 SHL DUP2 MSTORE PUSH1 0x20 PUSH1 0x4 DUP3 ADD MSTORE PUSH1 0x9 PUSH1 0x24 DUP3 ADD MSTORE PUSH9 0x2737BA1027BBB732B9 PUSH1 0xB9 SHL PUSH1 0x44 DUP3 ADD MSTORE PUSH1 0x64 ADD PUSH2 0xAA0 JUMP JUMPDEST PUSH1 0x11 SLOAD DUP2 LT PUSH2 0x24A3 JUMPI PUSH1 0x40 MLOAD PUSH3 0x461BCD PUSH1 0xE5 SHL DUP2 MSTORE PUSH1 0x20 PUSH1 0x4 DUP3 ADD MSTORE PUSH1 0x1E PUSH1 0x24 DUP3 ADD MSTORE PUSH32 0x496E76616C696420556E617070726F7665642050726F73756D65722049440000 PUSH1 0x44 DUP3 ADD MSTORE PUSH1 0x64 ADD PUSH2 0xAA0 JUMP JUMPDEST PUSH1 0xF PUSH1 0x0 PUSH1 0x11 DUP4 DUP2 SLOAD DUP2 LT PUSH2 0x24BA JUMPI PUSH2 0x24BA PUSH2 0x3B02 JUMP JUMPDEST PUSH1 0x0 SWAP2 DUP3 MSTORE PUSH1 0x20 DUP1 DUP4 KECCAK256 PUSH1 0x1 PUSH1 0x7 SWAP1 SWAP4 MUL ADD SWAP2 SWAP1 SWAP2 ADD SLOAD PUSH1 0x1 PUSH1 0x1 PUSH1 0xA0 SHL SUB AND DUP4 MSTORE DUP3 DUP2 ADD SWAP4 SWAP1 SWAP4 MSTORE PUSH1 0x40 SWAP2 DUP3 ADD DUP2 KECCAK256 CALLER DUP3 MSTORE SWAP1 SWAP3 MSTORE SWAP1 KECCAK256 SLOAD PUSH1 0xFF AND ISZERO PUSH2 0x2543 JUMPI PUSH1 0x40 MLOAD PUSH3 0x461BCD PUSH1 0xE5 SHL DUP2 MSTORE PUSH1 0x20 PUSH1 0x4 DUP3 ADD DUP2 SWAP1 MSTORE PUSH1 0x24 DUP3 ADD MSTORE PUSH32 0x50726F73756D657220416C726561647920617070726F76656420627920796F75 PUSH1 0x44 DUP3 ADD MSTORE PUSH1 0x64 ADD PUSH2 0xAA0 JUMP JUMPDEST PUSH1 0x1 PUSH1 0xF PUSH1 0x0 PUSH1 0x11 DUP5 DUP2 SLOAD DUP2 LT PUSH2 0x255C JUMPI PUSH2 0x255C PUSH2 0x3B02 JUMP JUMPDEST PUSH1 0x0 SWAP2 DUP3 MSTORE PUSH1 0x20 DUP1 DUP4 KECCAK256 PUSH1 0x7 SWAP3 SWAP1 SWAP3 MUL SWAP1 SWAP2 ADD PUSH1 0x1 ADD SLOAD PUSH1 0x1 PUSH1 0x1 PUSH1 0xA0 SHL SUB AND DUP4 MSTORE DUP3 DUP2 ADD SWAP4 SWAP1 SWAP4 MSTORE PUSH1 0x40 SWAP2 DUP3 ADD DUP2 KECCAK256 CALLER DUP3 MSTORE SWAP1 SWAP3 MSTORE DUP2 KECCAK256 DUP1 SLOAD PUSH1 0xFF NOT AND SWAP3 ISZERO ISZERO SWAP3 SWAP1 SWAP3 OR SWAP1 SWAP2 SSTORE PUSH1 0x11 DUP1 SLOAD PUSH1 0x10 SWAP3 SWAP2 SWAP1 DUP5 SWAP1 DUP2 LT PUSH2 0x25BD JUMPI PUSH2 0x25BD PUSH2 0x3B02 JUMP JUMPDEST PUSH1 0x0 SWAP2 DUP3 MSTORE PUSH1 0x20 DUP1 DUP4 KECCAK256 PUSH1 0x1 PUSH1 0x7 SWAP1 SWAP4 MUL ADD SWAP2 SWAP1 SWAP2 ADD SLOAD PUSH1 0x1 PUSH1 0x1 PUSH1 0xA0 SHL SUB AND DUP4 MSTORE DUP3 DUP2 ADD SWAP4 SWAP1 SWAP4 MSTORE PUSH1 0x40 SWAP2 DUP3 ADD DUP2 KECCAK256 CALLER DUP3 MSTORE SWAP1 SWAP3 MSTORE SWAP1 KECCAK256 SLOAD PUSH1 0xFF AND ISZERO PUSH2 0x265F JUMPI PUSH1 0x0 PUSH1 0x10 PUSH1 0x0 PUSH1 0x11 DUP5 DUP2 SLOAD DUP2 LT PUSH2 0x2617 JUMPI PUSH2 0x2617 PUSH2 0x3B02 JUMP JUMPDEST PUSH1 0x0 SWAP2 DUP3 MSTORE PUSH1 0x20 DUP1 DUP4 KECCAK256 PUSH1 0x7 SWAP3 SWAP1 SWAP3 MUL SWAP1 SWAP2 ADD PUSH1 0x1 ADD SLOAD PUSH1 0x1 PUSH1 0x1 PUSH1 0xA0 SHL SUB AND DUP4 MSTORE DUP3 DUP2 ADD SWAP4 SWAP1 SWAP4 MSTORE PUSH1 0x40 SWAP2 DUP3 ADD DUP2 KECCAK256 CALLER DUP3 MSTORE SWAP1 SWAP3 MSTORE SWAP1 KECCAK256 DUP1 SLOAD PUSH1 0xFF NOT AND SWAP2 ISZERO ISZERO SWAP2 SWAP1 SWAP2 OR SWAP1 SSTORE JUMPDEST PUSH1 0x8 SLOAD PUSH2 0x266B DUP3 PUSH2 0x3745 JUMP JUMPDEST LT PUSH2 0xD65 JUMPI PUSH1 0x1 PUSH1 0x11 DUP3 DUP2 SLOAD DUP2 LT PUSH2 0x2685 JUMPI PUSH2 0x2685 PUSH2 0x3B02 JUMP JUMPDEST PUSH1 0x0 SWAP2 DUP3 MSTORE PUSH1 0x20 SWAP1 SWAP2 KECCAK256 PUSH1 0x7 SWAP1 SWAP2 MUL ADD PUSH1 0x3 ADD DUP1 SLOAD PUSH1 0xFF NOT AND SWAP2 ISZERO ISZERO SWAP2 SWAP1 SWAP2 OR SWAP1 SSTORE PUSH1 0xE SLOAD PUSH2 0x26B5 SWAP1 PUSH1 0x1 PUSH2 0x3B95 JUMP JUMPDEST PUSH1 0x11 DUP3 DUP2 SLOAD DUP2 LT PUSH2 0x26C8 JUMPI PUSH2 0x26C8 PUSH2 0x3B02 JUMP JUMPDEST SWAP1 PUSH1 0x0 MSTORE PUSH1 0x20 PUSH1 0x0 KECCAK256 SWAP1 PUSH1 0x7 MUL ADD PUSH1 0x0 ADD DUP2 SWAP1 SSTORE POP PUSH1 0x1 PUSH1 0xB PUSH1 0x0 PUSH1 0x11 DUP5 DUP2 SLOAD DUP2 LT PUSH2 0x26F6 JUMPI PUSH2 0x26F6 PUSH2 0x3B02 JUMP JUMPDEST PUSH1 0x0 SWAP2 DUP3 MSTORE PUSH1 0x20 DUP1 DUP4 KECCAK256 PUSH1 0x7 SWAP3 SWAP1 SWAP3 MUL SWAP1 SWAP2 ADD PUSH1 0x1 ADD SLOAD PUSH1 0x1 PUSH1 0x1 PUSH1 0xA0 SHL SUB AND DUP4 MSTORE DUP3 ADD SWAP3 SWAP1 SWAP3 MSTORE PUSH1 0x40 ADD SWAP1 KECCAK256 DUP1 SLOAD PUSH1 0xFF NOT AND SWAP2 ISZERO ISZERO SWAP2 SWAP1 SWAP2 OR SWAP1 SSTORE PUSH1 0x11 DUP1 SLOAD PUSH1 0xE SWAP2 SWAP1 DUP4 SWAP1 DUP2 LT PUSH2 0x274A JUMPI PUSH2 0x274A PUSH2 0x3B02 JUMP JUMPDEST PUSH1 0x0 SWAP2 DUP3 MSTORE PUSH1 0x20 DUP1 DUP4 KECCAK256 DUP5 SLOAD PUSH1 0x1 DUP2 DUP2 ADD DUP8 SSTORE SWAP6 DUP6 MSTORE SWAP2 SWAP1 SWAP4 KECCAK256 PUSH1 0x7 SWAP3 DUP4 MUL SWAP1 SWAP4 ADD DUP1 SLOAD SWAP2 SWAP1 SWAP3 MUL SWAP1 SWAP3 ADD SWAP2 DUP3 SSTORE DUP3 DUP2 ADD SLOAD SWAP3 DUP3 ADD DUP1 SLOAD PUSH1 0x1 PUSH1 0x1 PUSH1 0xA0 SHL SUB NOT AND PUSH1 0x1 PUSH1 0x1 PUSH1 0xA0 SHL SUB SWAP1 SWAP5 AND SWAP4 SWAP1 SWAP4 OR SWAP1 SWAP3 SSTORE PUSH1 0x2 DUP1 DUP4 ADD SLOAD SWAP1 DUP3 ADD SSTORE PUSH1 0x3 DUP1 DUP4 ADD SLOAD SWAP1 DUP3 ADD DUP1 SLOAD PUSH1 0xFF SWAP1 SWAP3 AND ISZERO ISZERO PUSH1 0xFF NOT SWAP1 SWAP3 AND SWAP2 SWAP1 SWAP2 OR SWAP1 SSTORE PUSH1 0x4 DUP1 DUP4 ADD SLOAD SWAP1 DUP3 ADD SSTORE PUSH1 0x5 DUP1 DUP4 ADD SLOAD SWAP1 DUP3 ADD SSTORE PUSH1 0x6 SWAP2 DUP3 ADD SLOAD SWAP2 ADD SSTORE PUSH2 0x27EB DUP2 PUSH2 0x330F JUMP JUMPDEST PUSH1 0xE DUP1 SLOAD PUSH2 0x27FB SWAP1 PUSH1 0x1 SWAP1 PUSH2 0x3B7E JUMP JUMPDEST DUP2 SLOAD DUP2 LT PUSH2 0x280B JUMPI PUSH2 0x280B PUSH2 0x3B02 JUMP JUMPDEST PUSH1 0x0 SWAP2 DUP3 MSTORE PUSH1 0x20 DUP1 DUP4 KECCAK256 PUSH1 0x1 PUSH1 0x7 SWAP1 SWAP4 MUL ADD DUP3 ADD SLOAD PUSH1 0xE DUP1 SLOAD DUP6 MSTORE PUSH1 0xC SWAP1 SWAP3 MSTORE PUSH1 0x40 DUP5 KECCAK256 DUP1 SLOAD PUSH1 0x1 PUSH1 0x1 PUSH1 0xA0 SHL SUB NOT AND PUSH1 0x1 PUSH1 0x1 PUSH1 0xA0 SHL SUB SWAP1 SWAP3 AND SWAP2 SWAP1 SWAP2 OR SWAP1 SSTORE DUP1 SLOAD SWAP3 PUSH1 0xD SWAP3 SWAP1 SWAP2 SWAP1 PUSH2 0x285F SWAP1 DUP6 PUSH2 0x3B7E JUMP JUMPDEST DUP2 SLOAD DUP2 LT PUSH2 0x286F JUMPI PUSH2 0x286F PUSH2 0x3B02 JUMP JUMPDEST PUSH1 0x0 SWAP2 DUP3 MSTORE PUSH1 0x20 DUP1 DUP4 KECCAK256 PUSH1 0x1 PUSH1 0x7 SWAP1 SWAP4 MUL ADD SWAP2 SWAP1 SWAP2 ADD SLOAD PUSH1 0x1 PUSH1 0x1 PUSH1 0xA0 SHL SUB AND DUP4 MSTORE DUP3 ADD SWAP3 SWAP1 SWAP3 MSTORE PUSH1 0x40 ADD SWAP1 KECCAK256 SSTORE POP JUMP JUMPDEST CALLER PUSH1 0x0 SWAP1 DUP2 MSTORE PUSH1 0x7 PUSH1 0x20 MSTORE PUSH1 0x40 SWAP1 KECCAK256 SLOAD PUSH1 0x60 SWAP1 PUSH1 0xFF AND PUSH2 0x28EE JUMPI PUSH1 0x40 MLOAD PUSH3 0x461BCD PUSH1 0xE5 SHL DUP2 MSTORE PUSH1 0x20 PUSH1 0x4 DUP3 ADD MSTORE PUSH1 0x9 PUSH1 0x24 DUP3 ADD MSTORE PUSH9 0x2737BA1027BBB732B9 PUSH1 0xB9 SHL PUSH1 0x44 DUP3 ADD MSTORE PUSH1 0x64 ADD PUSH2 0xAA0 JUMP JUMPDEST PUSH1 0x11 SLOAD PUSH1 0x0 SWAP1 PUSH8 0xFFFFFFFFFFFFFFFF DUP2 GT ISZERO PUSH2 0x290C JUMPI PUSH2 0x290C PUSH2 0x3AEC JUMP JUMPDEST PUSH1 0x40 MLOAD SWAP1 DUP1 DUP3 MSTORE DUP1 PUSH1 0x20 MUL PUSH1 0x20 ADD DUP3 ADD PUSH1 0x40 MSTORE DUP1 ISZERO PUSH2 0x2988 JUMPI DUP2 PUSH1 0x20 ADD JUMPDEST PUSH2 0x2975 PUSH1 0x40 MLOAD DUP1 PUSH1 0xE0 ADD PUSH1 0x40 MSTORE DUP1 PUSH1 0x0 DUP2 MSTORE PUSH1 0x20 ADD PUSH1 0x0 PUSH1 0x1 PUSH1 0x1 PUSH1 0xA0 SHL SUB AND DUP2 MSTORE PUSH1 0x20 ADD PUSH1 0x0 DUP2 MSTORE PUSH1 0x20 ADD PUSH1 0x0 ISZERO ISZERO DUP2 MSTORE PUSH1 0x20 ADD PUSH1 0x0 DUP2 MSTORE PUSH1 0x20 ADD PUSH1 0x0 DUP2 MSTORE PUSH1 0x20 ADD PUSH1 0x0 DUP2 MSTORE POP SWAP1 JUMP JUMPDEST DUP2 MSTORE PUSH1 0x20 ADD SWAP1 PUSH1 0x1 SWAP1 SUB SWAP1 DUP2 PUSH2 0x292A JUMPI SWAP1 POP JUMPDEST POP SWAP1 POP PUSH1 0x0 JUMPDEST PUSH1 0x11 SLOAD DUP2 LT ISZERO PUSH2 0xC5D JUMPI PUSH1 0xF PUSH1 0x0 PUSH1 0x11 DUP4 DUP2 SLOAD DUP2 LT PUSH2 0x29AF JUMPI PUSH2 0x29AF PUSH2 0x3B02 JUMP JUMPDEST PUSH1 0x0 SWAP2 DUP3 MSTORE PUSH1 0x20 DUP1 DUP4 KECCAK256 PUSH1 0x1 PUSH1 0x7 SWAP1 SWAP4 MUL ADD SWAP2 SWAP1 SWAP2 ADD SLOAD PUSH1 0x1 PUSH1 0x1 PUSH1 0xA0 SHL SUB AND DUP4 MSTORE DUP3 DUP2 ADD SWAP4 SWAP1 SWAP4 MSTORE PUSH1 0x40 SWAP2 DUP3 ADD DUP2 KECCAK256 CALLER DUP3 MSTORE SWAP1 SWAP3 MSTORE SWAP1 KECCAK256 SLOAD PUSH1 0xFF AND PUSH2 0x2A8F JUMPI PUSH1 0x11 DUP2 DUP2 SLOAD DUP2 LT PUSH2 0x2A02 JUMPI PUSH2 0x2A02 PUSH2 0x3B02 JUMP JUMPDEST PUSH1 0x0 SWAP2 DUP3 MSTORE PUSH1 0x20 SWAP2 DUP3 SWAP1 KECCAK256 PUSH1 0x40 DUP1 MLOAD PUSH1 0xE0 DUP2 ADD DUP3 MSTORE PUSH1 0x7 SWAP1 SWAP4 MUL SWAP1 SWAP2 ADD DUP1 SLOAD DUP4 MSTORE PUSH1 0x1 DUP2 ADD SLOAD PUSH1 0x1 PUSH1 0x1 PUSH1 0xA0 SHL SUB AND SWAP4 DUP4 ADD SWAP4 SWAP1 SWAP4 MSTORE PUSH1 0x2 DUP4 ADD SLOAD SWAP1 DUP3 ADD MSTORE PUSH1 0x3 DUP3 ADD SLOAD PUSH1 0xFF AND ISZERO ISZERO PUSH1 0x60 DUP3 ADD MSTORE PUSH1 0x4 DUP3 ADD SLOAD PUSH1 0x80 DUP3 ADD MSTORE PUSH1 0x5 DUP3 ADD SLOAD PUSH1 0xA0 DUP3 ADD MSTORE PUSH1 0x6 SWAP1 SWAP2 ADD SLOAD PUSH1 0xC0 DUP3 ADD MSTORE DUP3 MLOAD DUP4 SWAP1 DUP4 SWAP1 DUP2 LT PUSH2 0x2A83 JUMPI PUSH2 0x2A83 PUSH2 0x3B02 JUMP JUMPDEST PUSH1 0x20 MUL PUSH1 0x20 ADD ADD DUP2 SWAP1 MSTORE POP JUMPDEST DUP1 PUSH2 0x2A99 DUP2 PUSH2 0x3B2E JUMP JUMPDEST SWAP2 POP POP PUSH2 0x298E JUMP JUMPDEST CALLER PUSH1 0x0 SWAP1 DUP2 MSTORE PUSH1 0x7 PUSH1 0x20 MSTORE PUSH1 0x40 SWAP1 KECCAK256 SLOAD PUSH1 0xFF AND PUSH2 0x2AEC JUMPI PUSH1 0x40 MLOAD PUSH3 0x461BCD PUSH1 0xE5 SHL DUP2 MSTORE PUSH1 0x20 PUSH1 0x4 DUP3 ADD MSTORE PUSH1 0x9 PUSH1 0x24 DUP3 ADD MSTORE PUSH9 0x2737BA1027BBB732B9 PUSH1 0xB9 SHL PUSH1 0x44 DUP3 ADD MSTORE PUSH1 0x64 ADD PUSH2 0xAA0 JUMP JUMPDEST PUSH1 0xE DUP1 SLOAD PUSH1 0x0 SWAP1 DUP2 MSTORE PUSH1 0xC PUSH1 0x20 MSTORE PUSH1 0x40 SWAP1 KECCAK256 DUP1 SLOAD PUSH1 0x1 PUSH1 0x1 PUSH1 0xA0 SHL SUB NOT DUP2 AND SWAP1 SWAP2 SSTORE DUP2 SLOAD PUSH1 0x1 PUSH1 0x1 PUSH1 0xA0 SHL SUB SWAP1 SWAP2 AND SWAP2 SWAP1 DUP1 PUSH2 0x2B2A JUMPI PUSH2 0x2B2A PUSH2 0x3C58 JUMP JUMPDEST PUSH1 0x0 DUP3 DUP2 MSTORE PUSH1 0x20 DUP1 DUP3 KECCAK256 PUSH1 0x7 PUSH1 0x0 NOT SWAP1 SWAP5 ADD SWAP4 DUP5 MUL ADD DUP3 DUP2 SSTORE PUSH1 0x1 DUP2 ADD DUP1 SLOAD PUSH1 0x1 PUSH1 0x1 PUSH1 0xA0 SHL SUB NOT AND SWAP1 SSTORE PUSH1 0x2 DUP2 ADD DUP4 SWAP1 SSTORE PUSH1 0x3 DUP2 ADD DUP1 SLOAD PUSH1 0xFF NOT AND SWAP1 SSTORE PUSH1 0x4 DUP2 ADD DUP4 SWAP1 SSTORE PUSH1 0x5 DUP2 ADD DUP4 SWAP1 SSTORE PUSH1 0x6 ADD DUP3 SWAP1 SSTORE SWAP2 SWAP1 SWAP3 SSTORE PUSH1 0x1 PUSH1 0x1 PUSH1 0xA0 SHL SUB SWAP3 SWAP1 SWAP3 AND DUP2 MSTORE PUSH1 0xD SWAP1 SWAP2 MSTORE PUSH1 0x40 DUP2 KECCAK256 SSTORE JUMP JUMPDEST CALLER PUSH1 0x0 SWAP1 DUP2 MSTORE PUSH1 0x7 PUSH1 0x20 MSTORE PUSH1 0x40 SWAP1 KECCAK256 SLOAD PUSH1 0x60 SWAP1 PUSH1 0xFF AND PUSH2 0x2BE8 JUMPI PUSH1 0x40 MLOAD PUSH3 0x461BCD PUSH1 0xE5 SHL DUP2 MSTORE PUSH1 0x20 PUSH1 0x4 DUP3 ADD MSTORE PUSH1 0x9 PUSH1 0x24 DUP3 ADD MSTORE PUSH9 0x2737BA1027BBB732B9 PUSH1 0xB9 SHL PUSH1 0x44 DUP3 ADD MSTORE PUSH1 0x64 ADD PUSH2 0xAA0 JUMP JUMPDEST PUSH1 0x11 DUP1 SLOAD PUSH1 0x40 DUP1 MLOAD PUSH1 0x20 DUP1 DUP5 MUL DUP3 ADD DUP2 ADD SWAP1 SWAP3 MSTORE DUP3 DUP2 MSTORE SWAP3 SWAP2 SWAP1 PUSH1 0x0 SWAP1 DUP5 ADD DUP3 ISZERO PUSH2 0x185C JUMPI PUSH1 0x0 DUP5 DUP2 MSTORE PUSH1 0x20 SWAP1 DUP2 SWAP1 KECCAK256 PUSH1 0x40 DUP1 MLOAD PUSH1 0xE0 DUP2 ADD DUP3 MSTORE PUSH1 0x7 DUP7 MUL SWAP1 SWAP3 ADD DUP1 SLOAD DUP4 MSTORE PUSH1 0x1 DUP1 DUP3 ADD SLOAD PUSH1 0x1 PUSH1 0x1 PUSH1 0xA0 SHL SUB AND DUP5 DUP7 ADD MSTORE PUSH1 0x2 DUP3 ADD SLOAD SWAP3 DUP5 ADD SWAP3 SWAP1 SWAP3 MSTORE PUSH1 0x3 DUP2 ADD SLOAD PUSH1 0xFF AND ISZERO ISZERO PUSH1 0x60 DUP5 ADD MSTORE PUSH1 0x4 DUP2 ADD SLOAD PUSH1 0x80 DUP5 ADD MSTORE PUSH1 0x5 DUP2 ADD SLOAD PUSH1 0xA0 DUP5 ADD MSTORE PUSH1 0x6 ADD SLOAD PUSH1 0xC0 DUP4 ADD MSTORE SWAP1 DUP4 MSTORE SWAP1 SWAP3 ADD SWAP2 ADD PUSH2 0x17DC JUMP JUMPDEST CALLER PUSH1 0x0 SWAP1 DUP2 MSTORE PUSH1 0x7 PUSH1 0x20 MSTORE PUSH1 0x40 SWAP1 KECCAK256 SLOAD PUSH1 0xFF AND PUSH2 0x2CD0 JUMPI PUSH1 0x40 MLOAD PUSH3 0x461BCD PUSH1 0xE5 SHL DUP2 MSTORE PUSH1 0x20 PUSH1 0x4 DUP3 ADD MSTORE PUSH1 0x9 PUSH1 0x24 DUP3 ADD MSTORE PUSH9 0x2737BA1027BBB732B9 PUSH1 0xB9 SHL PUSH1 0x44 DUP3 ADD MSTORE PUSH1 0x64 ADD PUSH2 0xAA0 JUMP JUMPDEST PUSH1 0x9 SSTORE JUMP JUMPDEST CALLER PUSH1 0x0 SWAP1 DUP2 MSTORE PUSH1 0x7 PUSH1 0x20 MSTORE PUSH1 0x40 SWAP1 KECCAK256 SLOAD PUSH1 0xFF AND PUSH2 0x2D20 JUMPI PUSH1 0x40 MLOAD PUSH3 0x461BCD PUSH1 0xE5 SHL DUP2 MSTORE PUSH1 0x20 PUSH1 0x4 DUP3 ADD MSTORE PUSH1 0x9 PUSH1 0x24 DUP3 ADD MSTORE PUSH9 0x2737BA1027BBB732B9 PUSH1 0xB9 SHL PUSH1 0x44 DUP3 ADD MSTORE PUSH1 0x64 ADD PUSH2 0xAA0 JUMP JUMPDEST PUSH1 0x0 JUMPDEST PUSH1 0x6 SLOAD DUP2 LT ISZERO PUSH2 0xE69 JUMPI CALLER PUSH1 0x1 PUSH1 0x1 PUSH1 0xA0 SHL SUB AND PUSH1 0x6 DUP3 DUP2 SLOAD DUP2 LT PUSH2 0x2D4A JUMPI PUSH2 0x2D4A PUSH2 0x3B02 JUMP JUMPDEST PUSH1 0x0 SWAP2 DUP3 MSTORE PUSH1 0x20 SWAP1 SWAP2 KECCAK256 ADD SLOAD PUSH1 0x1 PUSH1 0x1 PUSH1 0xA0 SHL SUB AND EQ ISZERO PUSH2 0x2DAB JUMPI DUP2 PUSH1 0x6 DUP3 DUP2 SLOAD DUP2 LT PUSH2 0x2D79 JUMPI PUSH2 0x2D79 PUSH2 0x3B02 JUMP JUMPDEST SWAP1 PUSH1 0x0 MSTORE PUSH1 0x20 PUSH1 0x0 KECCAK256 ADD PUSH1 0x0 PUSH2 0x100 EXP DUP2 SLOAD DUP2 PUSH1 0x1 PUSH1 0x1 PUSH1 0xA0 SHL SUB MUL NOT AND SWAP1 DUP4 PUSH1 0x1 PUSH1 0x1 PUSH1 0xA0 SHL SUB AND MUL OR SWAP1 SSTORE POP POP POP JUMP JUMPDEST DUP1 PUSH2 0x2DB5 DUP2 PUSH2 0x3B2E JUMP JUMPDEST SWAP2 POP POP PUSH2 0x2D23 JUMP JUMPDEST PUSH1 0x1 PUSH1 0x1 PUSH1 0xA0 SHL SUB DUP4 AND PUSH2 0x2E38 JUMPI PUSH1 0x40 MLOAD PUSH3 0x461BCD PUSH1 0xE5 SHL DUP2 MSTORE PUSH1 0x20 PUSH1 0x4 DUP3 ADD MSTORE PUSH1 0x24 DUP1 DUP3 ADD MSTORE PUSH32 0x45524332303A20617070726F76652066726F6D20746865207A65726F20616464 PUSH1 0x44 DUP3 ADD MSTORE PUSH32 0x7265737300000000000000000000000000000000000000000000000000000000 PUSH1 0x64 DUP3 ADD MSTORE PUSH1 0x84 ADD PUSH2 0xAA0 JUMP JUMPDEST PUSH1 0x1 PUSH1 0x1 PUSH1 0xA0 SHL SUB DUP3 AND PUSH2 0x2EB4 JUMPI PUSH1 0x40 MLOAD PUSH3 0x461BCD PUSH1 0xE5 SHL DUP2 MSTORE PUSH1 0x20 PUSH1 0x4 DUP3 ADD MSTORE PUSH1 0x22 PUSH1 0x24 DUP3 ADD MSTORE PUSH32 0x45524332303A20617070726F766520746F20746865207A65726F206164647265 PUSH1 0x44 DUP3 ADD MSTORE PUSH32 0x7373000000000000000000000000000000000000000000000000000000000000 PUSH1 0x64 DUP3 ADD MSTORE PUSH1 0x84 ADD PUSH2 0xAA0 JUMP JUMPDEST PUSH1 0x1 PUSH1 0x1 PUSH1 0xA0 SHL SUB DUP4 DUP2 AND PUSH1 0x0 DUP2 DUP2 MSTORE PUSH1 0x1 PUSH1 0x20 SWAP1 DUP2 MSTORE PUSH1 0x40 DUP1 DUP4 KECCAK256 SWAP5 DUP8 AND DUP1 DUP5 MSTORE SWAP5 DUP3 MSTORE SWAP2 DUP3 SWAP1 KECCAK256 DUP6 SWAP1 SSTORE SWAP1 MLOAD DUP5 DUP2 MSTORE PUSH32 0x8C5BE1E5EBEC7D5BD14F71427D1E84F3DD0314C0F7B2291E5B200AC8C7C3B925 SWAP2 ADD JUMPDEST PUSH1 0x40 MLOAD DUP1 SWAP2 SUB SWAP1 LOG3 POP POP POP JUMP JUMPDEST PUSH1 0x1 PUSH1 0x1 PUSH1 0xA0 SHL SUB DUP3 AND PUSH2 0x2F6C JUMPI PUSH1 0x40 MLOAD PUSH3 0x461BCD PUSH1 0xE5 SHL DUP2 MSTORE PUSH1 0x20 PUSH1 0x4 DUP3 ADD MSTORE PUSH1 0x1F PUSH1 0x24 DUP3 ADD MSTORE PUSH32 0x45524332303A206D696E7420746F20746865207A65726F206164647265737300 PUSH1 0x44 DUP3 ADD MSTORE PUSH1 0x64 ADD PUSH2 0xAA0 JUMP JUMPDEST DUP1 PUSH1 0x2 PUSH1 0x0 DUP3 DUP3 SLOAD PUSH2 0x2F7E SWAP2 SWAP1 PUSH2 0x3B95 JUMP JUMPDEST SWAP1 SWAP2 SSTORE POP POP PUSH1 0x1 PUSH1 0x1 PUSH1 0xA0 SHL SUB DUP3 AND PUSH1 0x0 DUP2 DUP2 MSTORE PUSH1 0x20 DUP2 DUP2 MSTORE PUSH1 0x40 DUP1 DUP4 KECCAK256 DUP1 SLOAD DUP7 ADD SWAP1 SSTORE MLOAD DUP5 DUP2 MSTORE PUSH32 0xDDF252AD1BE2C89B69C2B068FC378DAA952BA7F163C4A11628F55A4DF523B3EF SWAP2 ADD PUSH1 0x40 MLOAD DUP1 SWAP2 SUB SWAP1 LOG3 POP POP JUMP JUMPDEST PUSH1 0x1 PUSH1 0x1 PUSH1 0xA0 SHL SUB DUP4 DUP2 AND PUSH1 0x0 SWAP1 DUP2 MSTORE PUSH1 0x1 PUSH1 0x20 SWAP1 DUP2 MSTORE PUSH1 0x40 DUP1 DUP4 KECCAK256 SWAP4 DUP7 AND DUP4 MSTORE SWAP3 SWAP1 MSTORE KECCAK256 SLOAD PUSH1 0x0 NOT DUP2 EQ PUSH2 0x3061 JUMPI DUP2 DUP2 LT ISZERO PUSH2 0x3054 JUMPI PUSH1 0x40 MLOAD PUSH3 0x461BCD PUSH1 0xE5 SHL DUP2 MSTORE PUSH1 0x20 PUSH1 0x4 DUP3 ADD MSTORE PUSH1 0x1D PUSH1 0x24 DUP3 ADD MSTORE PUSH32 0x45524332303A20696E73756666696369656E7420616C6C6F77616E6365000000 PUSH1 0x44 DUP3 ADD MSTORE PUSH1 0x64 ADD PUSH2 0xAA0 JUMP JUMPDEST PUSH2 0x3061 DUP5 DUP5 DUP5 DUP5 SUB PUSH2 0x2DBD JUMP JUMPDEST POP POP POP POP JUMP JUMPDEST PUSH1 0x1 PUSH1 0x1 PUSH1 0xA0 SHL SUB DUP4 AND PUSH2 0x30E3 JUMPI PUSH1 0x40 MLOAD PUSH3 0x461BCD PUSH1 0xE5 SHL DUP2 MSTORE PUSH1 0x20 PUSH1 0x4 DUP3 ADD MSTORE PUSH1 0x25 PUSH1 0x24 DUP3 ADD MSTORE PUSH32 0x45524332303A207472616E736665722066726F6D20746865207A65726F206164 PUSH1 0x44 DUP3 ADD MSTORE PUSH32 0x6472657373000000000000000000000000000000000000000000000000000000 PUSH1 0x64 DUP3 ADD MSTORE PUSH1 0x84 ADD PUSH2 0xAA0 JUMP JUMPDEST PUSH1 0x1 PUSH1 0x1 PUSH1 0xA0 SHL SUB DUP3 AND PUSH2 0x315F JUMPI PUSH1 0x40 MLOAD PUSH3 0x461BCD PUSH1 0xE5 SHL DUP2 MSTORE PUSH1 0x20 PUSH1 0x4 DUP3 ADD MSTORE PUSH1 0x23 PUSH1 0x24 DUP3 ADD MSTORE PUSH32 0x45524332303A207472616E7366657220746F20746865207A65726F2061646472 PUSH1 0x44 DUP3 ADD MSTORE PUSH32 0x6573730000000000000000000000000000000000000000000000000000000000 PUSH1 0x64 DUP3 ADD MSTORE PUSH1 0x84 ADD PUSH2 0xAA0 JUMP JUMPDEST PUSH1 0x1 PUSH1 0x1 PUSH1 0xA0 SHL SUB DUP4 AND PUSH1 0x0 SWAP1 DUP2 MSTORE PUSH1 0x20 DUP2 SWAP1 MSTORE PUSH1 0x40 SWAP1 KECCAK256 SLOAD DUP2 DUP2 LT ISZERO PUSH2 0x31EE JUMPI PUSH1 0x40 MLOAD PUSH3 0x461BCD PUSH1 0xE5 SHL DUP2 MSTORE PUSH1 0x20 PUSH1 0x4 DUP3 ADD MSTORE PUSH1 0x26 PUSH1 0x24 DUP3 ADD MSTORE PUSH32 0x45524332303A207472616E7366657220616D6F756E7420657863656564732062 PUSH1 0x44 DUP3 ADD MSTORE PUSH32 0x616C616E63650000000000000000000000000000000000000000000000000000 PUSH1 0x64 DUP3 ADD MSTORE PUSH1 0x84 ADD PUSH2 0xAA0 JUMP JUMPDEST PUSH1 0x1 PUSH1 0x1 PUSH1 0xA0 SHL SUB DUP5 DUP2 AND PUSH1 0x0 DUP2 DUP2 MSTORE PUSH1 0x20 DUP2 DUP2 MSTORE PUSH1 0x40 DUP1 DUP4 KECCAK256 DUP8 DUP8 SUB SWAP1 SSTORE SWAP4 DUP8 AND DUP1 DUP4 MSTORE SWAP2 DUP5 SWAP1 KECCAK256 DUP1 SLOAD DUP8 ADD SWAP1 SSTORE SWAP3 MLOAD DUP6 DUP2 MSTORE SWAP1 SWAP3 PUSH32 0xDDF252AD1BE2C89B69C2B068FC378DAA952BA7F163C4A11628F55A4DF523B3EF SWAP2 ADD PUSH1 0x40 MLOAD DUP1 SWAP2 SUB SWAP1 LOG3 PUSH2 0x3061 JUMP JUMPDEST PUSH1 0x0 DUP1 JUMPDEST PUSH1 0x6 SLOAD DUP2 LT ISZERO PUSH2 0x3309 JUMPI PUSH1 0x10 PUSH1 0x0 PUSH1 0x11 DUP6 DUP2 SLOAD DUP2 LT PUSH2 0x3279 JUMPI PUSH2 0x3279 PUSH2 0x3B02 JUMP JUMPDEST PUSH1 0x0 SWAP2 DUP3 MSTORE PUSH1 0x20 DUP1 DUP4 KECCAK256 PUSH1 0x1 PUSH1 0x7 SWAP1 SWAP4 MUL ADD SWAP2 SWAP1 SWAP2 ADD SLOAD PUSH1 0x1 PUSH1 0x1 PUSH1 0xA0 SHL SUB AND DUP4 MSTORE DUP3 ADD SWAP3 SWAP1 SWAP3 MSTORE PUSH1 0x40 ADD DUP2 KECCAK256 PUSH1 0x6 DUP1 SLOAD SWAP2 SWAP3 SWAP2 DUP5 SWAP1 DUP2 LT PUSH2 0x32BD JUMPI PUSH2 0x32BD PUSH2 0x3B02 JUMP JUMPDEST PUSH1 0x0 SWAP2 DUP3 MSTORE PUSH1 0x20 DUP1 DUP4 KECCAK256 SWAP1 SWAP2 ADD SLOAD PUSH1 0x1 PUSH1 0x1 PUSH1 0xA0 SHL SUB AND DUP4 MSTORE DUP3 ADD SWAP3 SWAP1 SWAP3 MSTORE PUSH1 0x40 ADD SWAP1 KECCAK256 SLOAD PUSH1 0xFF AND ISZERO PUSH2 0x32F7 JUMPI PUSH2 0x32F4 DUP2 DUP4 PUSH2 0x3B95 JUMP JUMPDEST SWAP2 POP JUMPDEST DUP1 PUSH2 0x3301 DUP2 PUSH2 0x3B2E JUMP JUMPDEST SWAP2 POP POP PUSH2 0x3258 JUMP JUMPDEST POP SWAP2 SWAP1 POP JUMP JUMPDEST CALLER PUSH1 0x0 SWAP1 DUP2 MSTORE PUSH1 0x7 PUSH1 0x20 MSTORE PUSH1 0x40 SWAP1 KECCAK256 SLOAD PUSH1 0xFF AND PUSH2 0x335A JUMPI PUSH1 0x40 MLOAD PUSH3 0x461BCD PUSH1 0xE5 SHL DUP2 MSTORE PUSH1 0x20 PUSH1 0x4 DUP3 ADD MSTORE PUSH1 0x9 PUSH1 0x24 DUP3 ADD MSTORE PUSH9 0x2737BA1027BBB732B9 PUSH1 0xB9 SHL PUSH1 0x44 DUP3 ADD MSTORE PUSH1 0x64 ADD PUSH2 0xAA0 JUMP JUMPDEST PUSH1 0x11 SLOAD DUP2 LT PUSH2 0x33AB JUMPI PUSH1 0x40 MLOAD PUSH3 0x461BCD PUSH1 0xE5 SHL DUP2 MSTORE PUSH1 0x20 PUSH1 0x4 DUP3 ADD DUP2 SWAP1 MSTORE PUSH1 0x24 DUP3 ADD MSTORE PUSH32 0x496E76616C696420756E617070726F76656450726F73756D657220496E646578 PUSH1 0x44 DUP3 ADD MSTORE PUSH1 0x64 ADD PUSH2 0xAA0 JUMP JUMPDEST DUP1 JUMPDEST PUSH1 0x11 SLOAD PUSH2 0x33BC SWAP1 PUSH1 0x1 SWAP1 PUSH2 0x3B7E JUMP JUMPDEST DUP2 LT ISZERO PUSH2 0x3493 JUMPI PUSH1 0x11 PUSH2 0x33D0 DUP3 PUSH1 0x1 PUSH2 0x3B95 JUMP JUMPDEST DUP2 SLOAD DUP2 LT PUSH2 0x33E0 JUMPI PUSH2 0x33E0 PUSH2 0x3B02 JUMP JUMPDEST SWAP1 PUSH1 0x0 MSTORE PUSH1 0x20 PUSH1 0x0 KECCAK256 SWAP1 PUSH1 0x7 MUL ADD PUSH1 0x11 DUP3 DUP2 SLOAD DUP2 LT PUSH2 0x3401 JUMPI PUSH2 0x3401 PUSH2 0x3B02 JUMP JUMPDEST PUSH1 0x0 SWAP2 DUP3 MSTORE PUSH1 0x20 SWAP1 SWAP2 KECCAK256 DUP3 SLOAD PUSH1 0x7 SWAP1 SWAP3 MUL ADD SWAP1 DUP2 SSTORE PUSH1 0x1 DUP1 DUP4 ADD SLOAD SWAP1 DUP3 ADD DUP1 SLOAD PUSH1 0x1 PUSH1 0x1 PUSH1 0xA0 SHL SUB NOT AND PUSH1 0x1 PUSH1 0x1 PUSH1 0xA0 SHL SUB SWAP1 SWAP3 AND SWAP2 SWAP1 SWAP2 OR SWAP1 SSTORE PUSH1 0x2 DUP1 DUP4 ADD SLOAD SWAP1 DUP3 ADD SSTORE PUSH1 0x3 DUP1 DUP4 ADD SLOAD SWAP1 DUP3 ADD DUP1 SLOAD PUSH1 0xFF SWAP1 SWAP3 AND ISZERO ISZERO PUSH1 0xFF NOT SWAP1 SWAP3 AND SWAP2 SWAP1 SWAP2 OR SWAP1 SSTORE PUSH1 0x4 DUP1 DUP4 ADD SLOAD SWAP1 DUP3 ADD SSTORE PUSH1 0x5 DUP1 DUP4 ADD SLOAD SWAP1 DUP3 ADD SSTORE PUSH1 0x6 SWAP2 DUP3 ADD SLOAD SWAP2 ADD SSTORE DUP1 PUSH2 0x348B DUP2 PUSH2 0x3B2E JUMP JUMPDEST SWAP2 POP POP PUSH2 0x33AD JUMP JUMPDEST POP PUSH1 0x11 DUP1 SLOAD DUP1 PUSH2 0x34A5 JUMPI PUSH2 0x34A5 PUSH2 0x3C58 JUMP JUMPDEST PUSH1 0x0 DUP3 DUP2 MSTORE PUSH1 0x20 DUP2 KECCAK256 PUSH1 0x7 PUSH1 0x0 NOT SWAP1 SWAP4 ADD SWAP3 DUP4 MUL ADD DUP2 DUP2 SSTORE PUSH1 0x1 DUP2 ADD DUP1 SLOAD PUSH1 0x1 PUSH1 0x1 PUSH1 0xA0 SHL SUB NOT AND SWAP1 SSTORE PUSH1 0x2 DUP2 ADD DUP3 SWAP1 SSTORE PUSH1 0x3 DUP2 ADD DUP1 SLOAD PUSH1 0xFF NOT AND SWAP1 SSTORE PUSH1 0x4 DUP2 ADD DUP3 SWAP1 SSTORE PUSH1 0x5 DUP2 ADD DUP3 SWAP1 SSTORE PUSH1 0x6 ADD SSTORE SWAP1 SSTORE POP JUMP JUMPDEST PUSH1 0x1 PUSH1 0x1 PUSH1 0xA0 SHL SUB DUP3 AND PUSH2 0x3575 JUMPI PUSH1 0x40 MLOAD PUSH3 0x461BCD PUSH1 0xE5 SHL DUP2 MSTORE PUSH1 0x20 PUSH1 0x4 DUP3 ADD MSTORE PUSH1 0x21 PUSH1 0x24 DUP3 ADD MSTORE PUSH32 0x45524332303A206275726E2066726F6D20746865207A65726F20616464726573 PUSH1 0x44 DUP3 ADD MSTORE PUSH32 0x7300000000000000000000000000000000000000000000000000000000000000 PUSH1 0x64 DUP3 ADD MSTORE PUSH1 0x84 ADD PUSH2 0xAA0 JUMP JUMPDEST PUSH1 0x1 PUSH1 0x1 PUSH1 0xA0 SHL SUB DUP3 AND PUSH1 0x0 SWAP1 DUP2 MSTORE PUSH1 0x20 DUP2 SWAP1 MSTORE PUSH1 0x40 SWAP1 KECCAK256 SLOAD DUP2 DUP2 LT ISZERO PUSH2 0x3604 JUMPI PUSH1 0x40 MLOAD PUSH3 0x461BCD PUSH1 0xE5 SHL DUP2 MSTORE PUSH1 0x20 PUSH1 0x4 DUP3 ADD MSTORE PUSH1 0x22 PUSH1 0x24 DUP3 ADD MSTORE PUSH32 0x45524332303A206275726E20616D6F756E7420657863656564732062616C616E PUSH1 0x44 DUP3 ADD MSTORE PUSH32 0x6365000000000000000000000000000000000000000000000000000000000000 PUSH1 0x64 DUP3 ADD MSTORE PUSH1 0x84 ADD PUSH2 0xAA0 JUMP JUMPDEST PUSH1 0x1 PUSH1 0x1 PUSH1 0xA0 SHL SUB DUP4 AND PUSH1 0x0 DUP2 DUP2 MSTORE PUSH1 0x20 DUP2 DUP2 MSTORE PUSH1 0x40 DUP1 DUP4 KECCAK256 DUP7 DUP7 SUB SWAP1 SSTORE PUSH1 0x2 DUP1 SLOAD DUP8 SWAP1 SUB SWAP1 SSTORE MLOAD DUP6 DUP2 MSTORE SWAP2 SWAP3 SWAP2 PUSH32 0xDDF252AD1BE2C89B69C2B068FC378DAA952BA7F163C4A11628F55A4DF523B3EF SWAP2 ADD PUSH2 0x2F09 JUMP JUMPDEST CALLER PUSH1 0x0 SWAP1 DUP2 MSTORE PUSH1 0xB PUSH1 0x20 MSTORE PUSH1 0x40 DUP2 KECCAK256 SLOAD PUSH1 0xFF AND PUSH2 0x36A8 JUMPI PUSH1 0x40 MLOAD PUSH3 0x461BCD PUSH1 0xE5 SHL DUP2 MSTORE PUSH1 0x20 PUSH1 0x4 DUP3 ADD MSTORE PUSH1 0xC PUSH1 0x24 DUP3 ADD MSTORE PUSH12 0x2737BA10283937B9BAB6B2B9 PUSH1 0xA1 SHL PUSH1 0x44 DUP3 ADD MSTORE PUSH1 0x64 ADD PUSH2 0xAA0 JUMP JUMPDEST PUSH1 0x13 DUP3 SWAP1 SSTORE PUSH1 0x0 PUSH2 0x36B7 PUSH2 0x1A72 JUMP JUMPDEST SWAP1 POP PUSH2 0x36C3 DUP2 DUP5 PUSH2 0x3BAD JUMP JUMPDEST PUSH2 0x36D2 SWAP1 PUSH5 0x2540BE400 PUSH2 0x3BCF JUMP JUMPDEST PUSH1 0x14 DUP2 SWAP1 SSTORE SWAP4 SWAP3 POP POP POP JUMP JUMPDEST PUSH1 0x0 DUP1 JUMPDEST PUSH1 0x11 SLOAD DUP2 LT ISZERO PUSH2 0x373D JUMPI PUSH1 0x11 DUP2 DUP2 SLOAD DUP2 LT PUSH2 0x36FF JUMPI PUSH2 0x36FF PUSH2 0x3B02 JUMP JUMPDEST PUSH1 0x0 SWAP2 DUP3 MSTORE PUSH1 0x20 SWAP1 SWAP2 KECCAK256 PUSH1 0x7 SWAP1 SWAP2 MUL ADD PUSH1 0x1 ADD SLOAD PUSH1 0x1 PUSH1 0x1 PUSH1 0xA0 SHL SUB AND CALLER EQ ISZERO PUSH2 0x372B JUMPI PUSH1 0x1 SWAP2 POP POP SWAP1 JUMP JUMPDEST DUP1 PUSH2 0x3735 DUP2 PUSH2 0x3B2E JUMP JUMPDEST SWAP2 POP POP PUSH2 0x36E2 JUMP JUMPDEST POP PUSH1 0x0 SWAP1 POP SWAP1 JUMP JUMPDEST PUSH1 0x0 DUP1 JUMPDEST PUSH1 0x6 SLOAD DUP2 LT ISZERO PUSH2 0x3309 JUMPI PUSH1 0xF PUSH1 0x0 PUSH1 0x11 DUP6 DUP2 SLOAD DUP2 LT PUSH2 0x376A JUMPI PUSH2 0x376A PUSH2 0x3B02 JUMP JUMPDEST PUSH1 0x0 SWAP2 DUP3 MSTORE PUSH1 0x20 DUP1 DUP4 KECCAK256 PUSH1 0x1 PUSH1 0x7 SWAP1 SWAP4 MUL ADD SWAP2 SWAP1 SWAP2 ADD SLOAD PUSH1 0x1 PUSH1 0x1 PUSH1 0xA0 SHL SUB AND DUP4 MSTORE DUP3 ADD SWAP3 SWAP1 SWAP3 MSTORE PUSH1 0x40 ADD DUP2 KECCAK256 PUSH1 0x6 DUP1 SLOAD SWAP2 SWAP3 SWAP2 DUP5 SWAP1 DUP2 LT PUSH2 0x37AE JUMPI PUSH2 0x37AE PUSH2 0x3B02 JUMP JUMPDEST PUSH1 0x0 SWAP2 DUP3 MSTORE PUSH1 0x20 DUP1 DUP4 KECCAK256 SWAP1 SWAP2 ADD SLOAD PUSH1 0x1 PUSH1 0x1 PUSH1 0xA0 SHL SUB AND DUP4 MSTORE DUP3 ADD SWAP3 SWAP1 SWAP3 MSTORE PUSH1 0x40 ADD SWAP1 KECCAK256 SLOAD PUSH1 0xFF AND ISZERO PUSH2 0x37E9 JUMPI DUP2 PUSH2 0x37E5 DUP2 PUSH2 0x3B2E JUMP JUMPDEST SWAP3 POP POP JUMPDEST DUP1 PUSH2 0x37F3 DUP2 PUSH2 0x3B2E JUMP JUMPDEST SWAP2 POP POP PUSH2 0x3749 JUMP JUMPDEST POP DUP1 SLOAD PUSH1 0x0 DUP3 SSTORE PUSH1 0x8 MUL SWAP1 PUSH1 0x0 MSTORE PUSH1 0x20 PUSH1 0x0 KECCAK256 SWAP1 DUP2 ADD SWAP1 PUSH2 0xD65 SWAP2 SWAP1 JUMPDEST DUP1 DUP3 GT ISZERO PUSH2 0x386D JUMPI DUP1 SLOAD PUSH1 0x1 PUSH1 0x1 PUSH1 0xA0 SHL SUB NOT SWAP1 DUP2 AND DUP3 SSTORE PUSH1 0x1 DUP3 ADD DUP1 SLOAD SWAP1 SWAP2 AND SWAP1 SSTORE PUSH1 0x0 PUSH1 0x2 DUP3 ADD DUP2 SWAP1 SSTORE PUSH1 0x3 DUP3 ADD DUP2 SWAP1 SSTORE PUSH1 0x4 DUP3 ADD DUP2 SWAP1 SSTORE PUSH1 0x5 DUP3 ADD DUP2 SWAP1 SSTORE PUSH1 0x6 DUP3 ADD DUP2 SWAP1 SSTORE PUSH1 0x7 DUP3 ADD SSTORE PUSH1 0x8 ADD PUSH2 0x3818 JUMP JUMPDEST POP SWAP1 JUMP JUMPDEST DUP1 CALLDATALOAD PUSH1 0x1 PUSH1 0x1 PUSH1 0xA0 SHL SUB DUP2 AND DUP2 EQ PUSH2 0x1A15 JUMPI PUSH1 0x0 DUP1 REVERT JUMPDEST PUSH1 0x0 PUSH1 0x20 DUP3 DUP5 SUB SLT ISZERO PUSH2 0x389A JUMPI PUSH1 0x0 DUP1 REVERT JUMPDEST PUSH2 0x38A3 DUP3 PUSH2 0x3871 JUMP JUMPDEST SWAP4 SWAP3 POP POP POP JUMP JUMPDEST PUSH1 0x0 PUSH1 0x20 DUP3 DUP5 SUB SLT ISZERO PUSH2 0x38BC JUMPI PUSH1 0x0 DUP1 REVERT JUMPDEST POP CALLDATALOAD SWAP2 SWAP1 POP JUMP JUMPDEST PUSH1 0x20 DUP1 DUP3 MSTORE DUP3 MLOAD DUP3 DUP3 ADD DUP2 SWAP1 MSTORE PUSH1 0x0 SWAP2 SWAP1 PUSH1 0x40 SWAP1 DUP2 DUP6 ADD SWAP1 DUP7 DUP5 ADD DUP6 JUMPDEST DUP3 DUP2 LT ISZERO PUSH2 0x3943 JUMPI DUP2 MLOAD DUP1 MLOAD DUP6 MSTORE DUP7 DUP2 ADD MLOAD PUSH1 0x1 PUSH1 0x1 PUSH1 0xA0 SHL SUB AND DUP8 DUP7 ADD MSTORE DUP6 DUP2 ADD MLOAD DUP7 DUP7 ADD MSTORE PUSH1 0x60 DUP1 DUP3 ADD MLOAD ISZERO ISZERO SWAP1 DUP7 ADD MSTORE PUSH1 0x80 DUP1 DUP3 ADD MLOAD SWAP1 DUP7 ADD MSTORE PUSH1 0xA0 DUP1 DUP3 ADD MLOAD SWAP1 DUP7 ADD MSTORE PUSH1 0xC0 SWAP1 DUP2 ADD MLOAD SWAP1 DUP6 ADD MSTORE PUSH1 0xE0 SWAP1 SWAP4 ADD SWAP3 SWAP1 DUP6 ADD SWAP1 PUSH1 0x1 ADD PUSH2 0x38E0 JUMP JUMPDEST POP SWAP2 SWAP8 SWAP7 POP POP POP POP POP POP POP JUMP JUMPDEST PUSH1 0x0 PUSH1 0x20 DUP1 DUP4 MSTORE DUP4 MLOAD DUP1 DUP3 DUP6 ADD MSTORE PUSH1 0x0 JUMPDEST DUP2 DUP2 LT ISZERO PUSH2 0x397D JUMPI DUP6 DUP2 ADD DUP4 ADD MLOAD DUP6 DUP3 ADD PUSH1 0x40 ADD MSTORE DUP3 ADD PUSH2 0x3961 JUMP JUMPDEST DUP2 DUP2 GT ISZERO PUSH2 0x398F JUMPI PUSH1 0x0 PUSH1 0x40 DUP4 DUP8 ADD ADD MSTORE JUMPDEST POP PUSH1 0x1F ADD PUSH1 0x1F NOT AND SWAP3 SWAP1 SWAP3 ADD PUSH1 0x40 ADD SWAP4 SWAP3 POP POP POP JUMP JUMPDEST PUSH1 0x0 DUP1 PUSH1 0x40 DUP4 DUP6 SUB SLT ISZERO PUSH2 0x39B8 JUMPI PUSH1 0x0 DUP1 REVERT JUMPDEST PUSH2 0x39C1 DUP4 PUSH2 0x3871 JUMP JUMPDEST SWAP5 PUSH1 0x20 SWAP4 SWAP1 SWAP4 ADD CALLDATALOAD SWAP4 POP POP POP JUMP JUMPDEST PUSH1 0x0 DUP1 PUSH1 0x0 PUSH1 0x60 DUP5 DUP7 SUB SLT ISZERO PUSH2 0x39E4 JUMPI PUSH1 0x0 DUP1 REVERT JUMPDEST PUSH2 0x39ED DUP5 PUSH2 0x3871 JUMP JUMPDEST SWAP3 POP PUSH2 0x39FB PUSH1 0x20 DUP6 ADD PUSH2 0x3871 JUMP JUMPDEST SWAP2 POP PUSH1 0x40 DUP5 ADD CALLDATALOAD SWAP1 POP SWAP3 POP SWAP3 POP SWAP3 JUMP JUMPDEST PUSH1 0x0 DUP1 PUSH1 0x40 DUP4 DUP6 SUB SLT ISZERO PUSH2 0x3A1E JUMPI PUSH1 0x0 DUP1 REVERT JUMPDEST POP POP DUP1 CALLDATALOAD SWAP3 PUSH1 0x20 SWAP1 SWAP2 ADD CALLDATALOAD SWAP2 POP JUMP JUMPDEST PUSH1 0x20 DUP1 DUP3 MSTORE DUP3 MLOAD DUP3 DUP3 ADD DUP2 SWAP1 MSTORE PUSH1 0x0 SWAP2 SWAP1 PUSH1 0x40 SWAP1 DUP2 DUP6 ADD SWAP1 DUP7 DUP5 ADD DUP6 JUMPDEST DUP3 DUP2 LT ISZERO PUSH2 0x3943 JUMPI DUP2 MLOAD DUP1 MLOAD PUSH1 0x1 PUSH1 0x1 PUSH1 0xA0 SHL SUB SWAP1 DUP2 AND DUP7 MSTORE DUP8 DUP3 ADD MLOAD AND DUP8 DUP7 ADD MSTORE DUP6 DUP2 ADD MLOAD DUP7 DUP7 ADD MSTORE PUSH1 0x60 DUP1 DUP3 ADD MLOAD SWAP1 DUP7 ADD MSTORE PUSH1 0x80 DUP1 DUP3 ADD MLOAD SWAP1 DUP7 ADD MSTORE PUSH1 0xA0 DUP1 DUP3 ADD MLOAD SWAP1 DUP7 ADD MSTORE PUSH1 0xC0 DUP1 DUP3 ADD MLOAD SWAP1 DUP7 ADD MSTORE PUSH1 0xE0 SWAP1 DUP2 ADD MLOAD SWAP1 DUP6 ADD MSTORE PUSH2 0x100 SWAP1 SWAP4 ADD SWAP3 SWAP1 DUP6 ADD SWAP1 PUSH1 0x1 ADD PUSH2 0x3A4A JUMP JUMPDEST PUSH1 0x0 DUP1 PUSH1 0x40 DUP4 DUP6 SUB SLT ISZERO PUSH2 0x3ACC JUMPI PUSH1 0x0 DUP1 REVERT JUMPDEST PUSH2 0x3AD5 DUP4 PUSH2 0x3871 JUMP JUMPDEST SWAP2 POP PUSH2 0x3AE3 PUSH1 0x20 DUP5 ADD PUSH2 0x3871 JUMP JUMPDEST SWAP1 POP SWAP3 POP SWAP3 SWAP1 POP JUMP JUMPDEST PUSH4 0x4E487B71 PUSH1 0xE0 SHL PUSH1 0x0 MSTORE PUSH1 0x41 PUSH1 0x4 MSTORE PUSH1 0x24 PUSH1 0x0 REVERT JUMPDEST PUSH4 0x4E487B71 PUSH1 0xE0 SHL PUSH1 0x0 MSTORE PUSH1 0x32 PUSH1 0x4 MSTORE PUSH1 0x24 PUSH1 0x0 REVERT JUMPDEST PUSH4 0x4E487B71 PUSH1 0xE0 SHL PUSH1 0x0 MSTORE PUSH1 0x11 PUSH1 0x4 MSTORE PUSH1 0x24 PUSH1 0x0 REVERT JUMPDEST PUSH1 0x0 PUSH1 0x0 NOT DUP3 EQ ISZERO PUSH2 0x3B42 JUMPI PUSH2 0x3B42 PUSH2 0x3B18 JUMP JUMPDEST POP PUSH1 0x1 ADD SWAP1 JUMP JUMPDEST PUSH1 0x1 DUP2 DUP2 SHR SWAP1 DUP3 AND DUP1 PUSH2 0x3B5D JUMPI PUSH1 0x7F DUP3 AND SWAP2 POP JUMPDEST PUSH1 0x20 DUP3 LT DUP2 EQ ISZERO PUSH2 0x3309 JUMPI PUSH4 0x4E487B71 PUSH1 0xE0 SHL PUSH1 0x0 MSTORE PUSH1 0x22 PUSH1 0x4 MSTORE PUSH1 0x24 PUSH1 0x0 REVERT JUMPDEST PUSH1 0x0 DUP3 DUP3 LT ISZERO PUSH2 0x3B90 JUMPI PUSH2 0x3B90 PUSH2 0x3B18 JUMP JUMPDEST POP SUB SWAP1 JUMP JUMPDEST PUSH1 0x0 DUP3 NOT DUP3 GT ISZERO PUSH2 0x3BA8 JUMPI PUSH2 0x3BA8 PUSH2 0x3B18 JUMP JUMPDEST POP ADD SWAP1 JUMP JUMPDEST PUSH1 0x0 DUP3 PUSH2 0x3BCA JUMPI PUSH4 0x4E487B71 PUSH1 0xE0 SHL PUSH1 0x0 MSTORE PUSH1 0x12 PUSH1 0x4 MSTORE PUSH1 0x24 PUSH1 0x0 REVERT JUMPDEST POP DIV SWAP1 JUMP JUMPDEST PUSH1 0x0 DUP2 PUSH1 0x0 NOT DIV DUP4 GT DUP3 ISZERO ISZERO AND ISZERO PUSH2 0x3BE9 JUMPI PUSH2 0x3BE9 PUSH2 0x3B18 JUMP JUMPDEST POP MUL SWAP1 JUMP JUMPDEST DUP1 MLOAD PUSH10 0xFFFFFFFFFFFFFFFFFFFF DUP2 AND DUP2 EQ PUSH2 0x1A15 JUMPI PUSH1 0x0 DUP1 REVERT JUMPDEST PUSH1 0x0 DUP1 PUSH1 0x0 DUP1 PUSH1 0x0 PUSH1 0xA0 DUP7 DUP9 SUB SLT ISZERO PUSH2 0x3C20 JUMPI PUSH1 0x0 DUP1 REVERT JUMPDEST PUSH2 0x3C29 DUP7 PUSH2 0x3BEE JUMP JUMPDEST SWAP5 POP PUSH1 0x20 DUP7 ADD MLOAD SWAP4 POP PUSH1 0x40 DUP7 ADD MLOAD SWAP3 POP PUSH1 0x60 DUP7 ADD MLOAD SWAP2 POP PUSH2 0x3C4C PUSH1 0x80 DUP8 ADD PUSH2 0x3BEE JUMP JUMPDEST SWAP1 POP SWAP3 SWAP6 POP SWAP3 SWAP6 SWAP1 SWAP4 POP JUMP JUMPDEST PUSH4 0x4E487B71 PUSH1 0xE0 SHL PUSH1 0x0 MSTORE PUSH1 0x31 PUSH1 0x4 MSTORE PUSH1 0x24 PUSH1 0x0 REVERT INVALID LOG2 PUSH5 0x6970667358 0x22 SLT KECCAK256 SUB 0xCE JUMPDEST 0xF7 0x4F 0xA5 0xDB 0xD1 PUSH30 0xB48D8C56451D42F34DEA78601A0B106DE627919AAD88C864736F6C634300 ADDMOD ADDMOD STOP CALLER "},"gasEstimates":{"creation":{"codeDepositCost":"3104800","executionCost":"infinite","totalCost":"infinite"},"external":{"ApprovedProsumers(uint256)":"17553","DisApproveProsumer_OwnerSpecific(uint256)":"infinite","Transaction(uint256)":"19689","advert(uint256,uint256)":"infinite","allowance(address,address)":"infinite","approve(address,uint256)":"24693","approveProsumer_OwnerSpecific(uint256)":"infinite","approved(address,address)":"infinite","balanceOf(address)":"2596","bid(uint256,uint256)":"infinite","burn(address,uint256)":"50954","burnEnergy(uint256)":"53062","decimals()":"267","decreaseAllowance(address,uint256)":"26969","disapproved(address,address)":"infinite","getAllPendingTxn()":"infinite","getLatestPrice()":"infinite","increaseAllowance(address,uint256)":"27015","isOwner(address)":"2599","isProsumer(address)":"2663","mint(address,uint256)":"50891","mySetUnitPrice_Matic()":"9020","mySetUnitPrice_USD()":"8999","name()":"infinite","owners(uint256)":"4706","processTrade()":"infinite","produceEnergy(uint256)":"52999","prosumerAddress(uint256)":"2589","prosumerID(address)":"2578","regFee()":"2352","removeProsumer()":"131774","req_Registration(uint256)":"infinite","required()":"2351","setRegFee(uint256)":"24626","showApprovalList_OwnerSpecific()":"infinite","showApprovalStatus_OwnerSpecific(address)":"infinite","showUnapprovalList_OwnerSpecific()":"infinite","show_Approved_Prosumers()":"infinite","show_Unapproved_Prosumers()":"infinite","symbol()":"infinite","totalSupply()":"2372","transfer(address,uint256)":"51136","transferFrom(address,address,uint256)":"infinite","transferOwnership(address)":"infinite","unApprovedProsumers(uint256)":"17508","viewEnergyBalance()":"2421","viewEscrowBalance()":"4626","viewMaticBalance()":"2871","withdrawFees()":"infinite"},"internal":{"_getApprovalCount(uint256)":"infinite","_getDisApprovalCount(uint256)":"infinite","deleteElementFrom_UnApprovedProsumers(uint256)":"infinite","isRequested()":"infinite","setUnitPrice(uint256)":"infinite"}},"methodIdentifiers":{"ApprovedProsumers(uint256)":"4ef8ab77","DisApproveProsumer_OwnerSpecific(uint256)":"4ca46d19","Transaction(uint256)":"677f502e","advert(uint256,uint256)":"96acb79a","allowance(address,address)":"dd62ed3e","approve(address,uint256)":"095ea7b3","approveProsumer_OwnerSpecific(uint256)":"c7a7275e","approved(address,address)":"f4b16045","balanceOf(address)":"70a08231","bid(uint256,uint256)":"598647f8","burn(address,uint256)":"9dc29fac","burnEnergy(uint256)":"7fb400f9","decimals()":"313ce567","decreaseAllowance(address,uint256)":"a457c2d7","disapproved(address,address)":"f85bae78","getAllPendingTxn()":"8e2efc01","getLatestPrice()":"8e15f473","increaseAllowance(address,uint256)":"39509351","isOwner(address)":"2f54bf6e","isProsumer(address)":"fdbd2e8b","mint(address,uint256)":"40c10f19","mySetUnitPrice_Matic()":"4ec9dd8d","mySetUnitPrice_USD()":"0e264f80","name()":"06fdde03","owners(uint256)":"025e7c27","processTrade()":"8ec90e5e","produceEnergy(uint256)":"0b6d83e2","prosumerAddress(uint256)":"8fac6371","prosumerID(address)":"001cfdce","regFee()":"8fff20f3","removeProsumer()":"e5143176","req_Registration(uint256)":"9ff34115","required()":"dc8452cd","setRegFee(uint256)":"e814db59","showApprovalList_OwnerSpecific()":"06ed1f80","showApprovalStatus_OwnerSpecific(address)":"7b78bc6b","showUnapprovalList_OwnerSpecific()":"e4f6ea88","show_Approved_Prosumers()":"612536fc","show_Unapproved_Prosumers()":"e706d568","symbol()":"95d89b41","totalSupply()":"18160ddd","transfer(address,uint256)":"a9059cbb","transferFrom(address,address,uint256)":"23b872dd","transferOwnership(address)":"f2fde38b","unApprovedProsumers(uint256)":"9c01a6df","viewEnergyBalance()":"83ae0367","viewEscrowBalance()":"3628c333","viewMaticBalance()":"8bda812f","withdrawFees()":"476343ee"}},"storageLayout":{"storage":[{"astId":61,"contract":"contracts/EnergyTrade.sol:EnergyTrade","label":"_balances","offset":0,"slot":"0","type":"t_mapping(t_address,t_uint256)"},{"astId":67,"contract":"contracts/EnergyTrade.sol:EnergyTrade","label":"_allowances","offset":0,"slot":"1","type":"t_mapping(t_address,t_mapping(t_address,t_uint256))"},{"astId":69,"contract":"contracts/EnergyTrade.sol:EnergyTrade","label":"_totalSupply","offset":0,"slot":"2","type":"t_uint256"},{"astId":71,"contract":"contracts/EnergyTrade.sol:EnergyTrade","label":"_name","offset":0,"slot":"3","type":"t_string_storage"},{"astId":73,"contract":"contracts/EnergyTrade.sol:EnergyTrade","label":"_symbol","offset":0,"slot":"4","type":"t_string_storage"},{"astId":2140,"contract":"contracts/EnergyTrade.sol:EnergyTrade","label":"priceFeed","offset":0,"slot":"5","type":"t_contract(AggregatorV3Interface)45"},{"astId":808,"contract":"contracts/EnergyTrade.sol:EnergyTrade","label":"owners","offset":0,"slot":"6","type":"t_array(t_address)dyn_storage"},{"astId":812,"contract":"contracts/EnergyTrade.sol:EnergyTrade","label":"isOwner","offset":0,"slot":"7","type":"t_mapping(t_address,t_bool)"},{"astId":814,"contract":"contracts/EnergyTrade.sol:EnergyTrade","label":"required","offset":0,"slot":"8","type":"t_uint256"},{"astId":816,"contract":"contracts/EnergyTrade.sol:EnergyTrade","label":"regFee","offset":0,"slot":"9","type":"t_uint256"},{"astId":818,"contract":"contracts/EnergyTrade.sol:EnergyTrade","label":"escrowAccount","offset":0,"slot":"10","type":"t_address"},{"astId":837,"contract":"contracts/EnergyTrade.sol:EnergyTrade","label":"isProsumer","offset":0,"slot":"11","type":"t_mapping(t_address,t_bool)"},{"astId":841,"contract":"contracts/EnergyTrade.sol:EnergyTrade","label":"prosumerAddress","offset":0,"slot":"12","type":"t_mapping(t_uint256,t_address)"},{"astId":845,"contract":"contracts/EnergyTrade.sol:EnergyTrade","label":"prosumerID","offset":0,"slot":"13","type":"t_mapping(t_address,t_uint256)"},{"astId":849,"contract":"contracts/EnergyTrade.sol:EnergyTrade","label":"ApprovedProsumers","offset":0,"slot":"14","type":"t_array(t_struct(prosumer)833_storage)dyn_storage"},{"astId":855,"contract":"contracts/EnergyTrade.sol:EnergyTrade","label":"approved","offset":0,"slot":"15","type":"t_mapping(t_address,t_mapping(t_address,t_bool))"},{"astId":861,"contract":"contracts/EnergyTrade.sol:EnergyTrade","label":"disapproved","offset":0,"slot":"16","type":"t_mapping(t_address,t_mapping(t_address,t_bool))"},{"astId":865,"contract":"contracts/EnergyTrade.sol:EnergyTrade","label":"unApprovedProsumers","offset":0,"slot":"17","type":"t_array(t_struct(prosumer)833_storage)dyn_storage"},{"astId":886,"contract":"contracts/EnergyTrade.sol:EnergyTrade","label":"Transaction","offset":0,"slot":"18","type":"t_array(t_struct(Txn)882_storage)dyn_storage"},{"astId":1825,"contract":"contracts/EnergyTrade.sol:EnergyTrade","label":"EnergyUnitPrice_usd","offset":0,"slot":"19","type":"t_uint256"},{"astId":1827,"contract":"contracts/EnergyTrade.sol:EnergyTrade","label":"EnergyUnitPrice_matic","offset":0,"slot":"20","type":"t_uint256"}],"types":{"t_address":{"encoding":"inplace","label":"address","numberOfBytes":"20"},"t_array(t_address)dyn_storage":{"base":"t_address","encoding":"dynamic_array","label":"address[]","numberOfBytes":"32"},"t_array(t_struct(Txn)882_storage)dyn_storage":{"base":"t_struct(Txn)882_storage","encoding":"dynamic_array","label":"struct EnergyTrade.Txn[]","numberOfBytes":"32"},"t_array(t_struct(prosumer)833_storage)dyn_storage":{"base":"t_struct(prosumer)833_storage","encoding":"dynamic_array","label":"struct EnergyTrade.prosumer[]","numberOfBytes":"32"},"t_bool":{"encoding":"inplace","label":"bool","numberOfBytes":"1"},"t_contract(AggregatorV3Interface)45":{"encoding":"inplace","label":"contract AggregatorV3Interface","numberOfBytes":"20"},"t_mapping(t_address,t_bool)":{"encoding":"mapping","key":"t_address","label":"mapping(address => bool)","numberOfBytes":"32","value":"t_bool"},"t_mapping(t_address,t_mapping(t_address,t_bool))":{"encoding":"mapping","key":"t_address","label":"mapping(address => mapping(address => bool))","numberOfBytes":"32","value":"t_mapping(t_address,t_bool)"},"t_mapping(t_address,t_mapping(t_address,t_uint256))":{"encoding":"mapping","key":"t_address","label":"mapping(address => mapping(address => uint256))","numberOfBytes":"32","value":"t_mapping(t_address,t_uint256)"},"t_mapping(t_address,t_uint256)":{"encoding":"mapping","key":"t_address","label":"mapping(address => uint256)","numberOfBytes":"32","value":"t_uint256"},"t_mapping(t_uint256,t_address)":{"encoding":"mapping","key":"t_uint256","label":"mapping(uint256 => address)","numberOfBytes":"32","value":"t_address"},"t_string_storage":{"encoding":"bytes","label":"string","numberOfBytes":"32"},"t_struct(Txn)882_storage":{"encoding":"inplace","label":"struct EnergyTrade.Txn","members":[{"astId":867,"contract":"contracts/EnergyTrade.sol:EnergyTrade","label":"_producer","offset":0,"slot":"0","type":"t_address"},{"astId":869,"contract":"contracts/EnergyTrade.sol:EnergyTrade","label":"_consumer","offset":0,"slot":"1","type":"t_address"},{"astId":871,"contract":"contracts/EnergyTrade.sol:EnergyTrade","label":"_producerID","offset":0,"slot":"2","type":"t_uint256"},{"astId":873,"contract":"contracts/EnergyTrade.sol:EnergyTrade","label":"_consumerID","offset":0,"slot":"3","type":"t_uint256"},{"astId":875,"contract":"contracts/EnergyTrade.sol:EnergyTrade","label":"_consumerEnergyNeed","offset":0,"slot":"4","type":"t_uint256"},{"astId":877,"contract":"contracts/EnergyTrade.sol:EnergyTrade","label":"_producerUnitPriceUSD","offset":0,"slot":"5","type":"t_uint256"},{"astId":879,"contract":"contracts/EnergyTrade.sol:EnergyTrade","label":"_producerUnitPriceMATIC","offset":0,"slot":"6","type":"t_uint256"},{"astId":881,"contract":"contracts/EnergyTrade.sol:EnergyTrade","label":"_producerPaybleAmount","offset":0,"slot":"7","type":"t_uint256"}],"numberOfBytes":"256"},"t_struct(prosumer)833_storage":{"encoding":"inplace","label":"struct EnergyTrade.prosumer","members":[{"astId":820,"contract":"contracts/EnergyTrade.sol:EnergyTrade","label":"_prosumerID","offset":0,"slot":"0","type":"t_uint256"},{"astId":822,"contract":"contracts/EnergyTrade.sol:EnergyTrade","label":"_address","offset":0,"slot":"1","type":"t_address"},{"astId":824,"contract":"contracts/EnergyTrade.sol:EnergyTrade","label":"_aadharId","offset":0,"slot":"2","type":"t_uint256"},{"astId":826,"contract":"contracts/EnergyTrade.sol:EnergyTrade","label":"_approved","offset":0,"slot":"3","type":"t_bool"},{"astId":828,"contract":"contracts/EnergyTrade.sol:EnergyTrade","label":"_energyUnitPriceUSD","offset":0,"slot":"4","type":"t_uint256"},{"astId":830,"contract":"contracts/EnergyTrade.sol:EnergyTrade","label":"_energyUnitPriceMatic","offset":0,"slot":"5","type":"t_uint256"},{"astId":832,"contract":"contracts/EnergyTrade.sol:EnergyTrade","label":"_stakedEnergyBalance","offset":0,"slot":"6","type":"t_uint256"}],"numberOfBytes":"224"},"t_uint256":{"encoding":"inplace","label":"uint256","numberOfBytes":"32"}}},"userdoc":{"kind":"user","methods":{"getLatestPrice()":{"notice":"Returns the latest price"}},"version":1}}}}