{"@opengsn/contracts/src/utils/GsnEip712Library.sol":{"GsnEip712Library":{"abi":[{"inputs":[],"name":"EIP712DOMAIN_TYPEHASH","outputs":[{"internalType":"bytes32","name":"","type":"bytes32"}],"stateMutability":"view","type":"function"},{"inputs":[],"name":"GENERIC_PARAMS","outputs":[{"internalType":"string","name":"","type":"string"}],"stateMutability":"view","type":"function"},{"inputs":[],"name":"RELAYDATA_TYPE","outputs":[{"internalType":"bytes","name":"","type":"bytes"}],"stateMutability":"view","type":"function"},{"inputs":[],"name":"RELAYDATA_TYPEHASH","outputs":[{"internalType":"bytes32","name":"","type":"bytes32"}],"stateMutability":"view","type":"function"},{"inputs":[],"name":"RELAY_REQUEST_NAME","outputs":[{"internalType":"string","name":"","type":"string"}],"stateMutability":"view","type":"function"},{"inputs":[],"name":"RELAY_REQUEST_SUFFIX","outputs":[{"internalType":"string","name":"","type":"string"}],"stateMutability":"view","type":"function"},{"inputs":[],"name":"RELAY_REQUEST_TYPE","outputs":[{"internalType":"bytes","name":"","type":"bytes"}],"stateMutability":"view","type":"function"},{"inputs":[],"name":"RELAY_REQUEST_TYPEHASH","outputs":[{"internalType":"bytes32","name":"","type":"bytes32"}],"stateMutability":"view","type":"function"}],"devdoc":{"kind":"dev","methods":{},"title":"The ERC-712 Library for GSN","version":1},"evm":{"bytecode":{"linkReferences":{},"object":"61059d61003a600b82828239805160001a60731461002d57634e487b7160e01b600052600060045260246000fd5b30600052607381538281f3fe73000000000000000000000000000000000000000030146080604052600436106100925760003560e01c8063abf0d3f411610065578063abf0d3f4146100f0578063c46cf83f14610106578063c49f91d31461010e578063cc0c62b21461013557600080fd5b8063066a310c146100975780636225e61b146100b5578063931cd38f146100bd578063987673f7146100c5575b600080fd5b61009f61013d565b6040516100ac9190610354565b60405180910390f35b61009f610159565b61009f6101f1565b61009f6040518060400160405280600c81526020016b14995b185e54995c5d595cdd60a21b81525081565b6100f861021a565b6040519081526020016100ac565b61009f6102b9565b6100f87f8b73c3c69bb8fe3d512ecc4cf759cc79239f7b179b0ffacaa9a75d522b39400f81565b6100f86102d5565b6040518060a001604052806061815260200161044b6061913981565b6040518060400160405280600c81526020016b14995b185e54995c5d595cdd60a21b8152506040518060a001604052806061815260200161044b606191396040518060e0016040528060bc81526020016104ac60bc91396040516020016101c0919061036e565b60408051601f19818403018152908290526101df9392916020016103b3565b60405160208183030381529060405281565b6040518060e0016040528060bc81526020016104ac60bc91396040516020016101df919061036e565b6040518060400160405280600c81526020016b14995b185e54995c5d595cdd60a21b8152506040518060a001604052806061815260200161044b606191396040518060e0016040528060bc81526020016104ac60bc9139604051602001610281919061036e565b60408051601f19818403018152908290526102a09392916020016103b3565b6040516020818303038152906040528051906020012081565b6040518060e0016040528060bc81526020016104ac60bc913981565b6040518060e0016040528060bc81526020016104ac60bc91398051906020012081565b60005b838110156103135781810151838201526020016102fb565b83811115610322576000848401525b50505050565b600081518084526103408160208601602086016102f8565b601f01601f19169290920160200192915050565b6020815260006103676020830184610328565b9392505050565b7f52656c6179446174612072656c617944617461290000000000000000000000008152600082516103a68160148501602087016102f8565b9190910160140192915050565b600084516103c58184602089016102f8565b7f280000000000000000000000000000000000000000000000000000000000000090830190815284516103ff8160018401602089016102f8565b7f2c0000000000000000000000000000000000000000000000000000000000000060019290910191820152835161043d8160028401602088016102f8565b016002019594505050505056fe616464726573732066726f6d2c6164647265737320746f2c75696e743235362076616c75652c75696e74323536206761732c75696e74323536206e6f6e63652c627974657320646174612c75696e743235362076616c6964556e74696c54696d6552656c6179446174612875696e74323536206d61784665655065724761732c75696e74323536206d61785072696f726974794665655065724761732c75696e74323536207472616e73616374696f6e43616c6c64617461476173557365642c616464726573732072656c6179576f726b65722c61646472657373207061796d61737465722c6164647265737320666f727761726465722c6279746573207061796d6173746572446174612c75696e7432353620636c69656e74496429a2646970667358221220bb363ae01e9443017a78ee57964fc311b4193d9db4eaae20edf316d936b55baf64736f6c63430008080033","opcodes":"PUSH2 0x59D PUSH2 0x3A PUSH1 0xB DUP3 DUP3 DUP3 CODECOPY DUP1 MLOAD PUSH1 0x0 BYTE PUSH1 0x73 EQ PUSH2 0x2D JUMPI PUSH4 0x4E487B71 PUSH1 0xE0 SHL PUSH1 0x0 MSTORE PUSH1 0x0 PUSH1 0x4 MSTORE PUSH1 0x24 PUSH1 0x0 REVERT JUMPDEST ADDRESS PUSH1 0x0 MSTORE PUSH1 0x73 DUP2 MSTORE8 DUP3 DUP2 RETURN INVALID PUSH20 0x0 ADDRESS EQ PUSH1 0x80 PUSH1 0x40 MSTORE PUSH1 0x4 CALLDATASIZE LT PUSH2 0x92 JUMPI PUSH1 0x0 CALLDATALOAD PUSH1 0xE0 SHR DUP1 PUSH4 0xABF0D3F4 GT PUSH2 0x65 JUMPI DUP1 PUSH4 0xABF0D3F4 EQ PUSH2 0xF0 JUMPI DUP1 PUSH4 0xC46CF83F EQ PUSH2 0x106 JUMPI DUP1 PUSH4 0xC49F91D3 EQ PUSH2 0x10E JUMPI DUP1 PUSH4 0xCC0C62B2 EQ PUSH2 0x135 JUMPI PUSH1 0x0 DUP1 REVERT JUMPDEST DUP1 PUSH4 0x66A310C EQ PUSH2 0x97 JUMPI DUP1 PUSH4 0x6225E61B EQ PUSH2 0xB5 JUMPI DUP1 PUSH4 0x931CD38F EQ PUSH2 0xBD JUMPI DUP1 PUSH4 0x987673F7 EQ PUSH2 0xC5 JUMPI JUMPDEST PUSH1 0x0 DUP1 REVERT JUMPDEST PUSH2 0x9F PUSH2 0x13D JUMP JUMPDEST PUSH1 0x40 MLOAD PUSH2 0xAC SWAP2 SWAP1 PUSH2 0x354 JUMP JUMPDEST PUSH1 0x40 MLOAD DUP1 SWAP2 SUB SWAP1 RETURN JUMPDEST PUSH2 0x9F PUSH2 0x159 JUMP JUMPDEST PUSH2 0x9F PUSH2 0x1F1 JUMP JUMPDEST PUSH2 0x9F PUSH1 0x40 MLOAD DUP1 PUSH1 0x40 ADD PUSH1 0x40 MSTORE DUP1 PUSH1 0xC DUP2 MSTORE PUSH1 0x20 ADD PUSH12 0x14995B185E54995C5D595CDD PUSH1 0xA2 SHL DUP2 MSTORE POP DUP2 JUMP JUMPDEST PUSH2 0xF8 PUSH2 0x21A JUMP JUMPDEST PUSH1 0x40 MLOAD SWAP1 DUP2 MSTORE PUSH1 0x20 ADD PUSH2 0xAC JUMP JUMPDEST PUSH2 0x9F PUSH2 0x2B9 JUMP JUMPDEST PUSH2 0xF8 PUSH32 0x8B73C3C69BB8FE3D512ECC4CF759CC79239F7B179B0FFACAA9A75D522B39400F DUP2 JUMP JUMPDEST PUSH2 0xF8 PUSH2 0x2D5 JUMP JUMPDEST PUSH1 0x40 MLOAD DUP1 PUSH1 0xA0 ADD PUSH1 0x40 MSTORE DUP1 PUSH1 0x61 DUP2 MSTORE PUSH1 0x20 ADD PUSH2 0x44B PUSH1 0x61 SWAP2 CODECOPY DUP2 JUMP JUMPDEST PUSH1 0x40 MLOAD DUP1 PUSH1 0x40 ADD PUSH1 0x40 MSTORE DUP1 PUSH1 0xC DUP2 MSTORE PUSH1 0x20 ADD PUSH12 0x14995B185E54995C5D595CDD PUSH1 0xA2 SHL DUP2 MSTORE POP PUSH1 0x40 MLOAD DUP1 PUSH1 0xA0 ADD PUSH1 0x40 MSTORE DUP1 PUSH1 0x61 DUP2 MSTORE PUSH1 0x20 ADD PUSH2 0x44B PUSH1 0x61 SWAP2 CODECOPY PUSH1 0x40 MLOAD DUP1 PUSH1 0xE0 ADD PUSH1 0x40 MSTORE DUP1 PUSH1 0xBC DUP2 MSTORE PUSH1 0x20 ADD PUSH2 0x4AC PUSH1 0xBC SWAP2 CODECOPY PUSH1 0x40 MLOAD PUSH1 0x20 ADD PUSH2 0x1C0 SWAP2 SWAP1 PUSH2 0x36E JUMP JUMPDEST PUSH1 0x40 DUP1 MLOAD PUSH1 0x1F NOT DUP2 DUP5 SUB ADD DUP2 MSTORE SWAP1 DUP3 SWAP1 MSTORE PUSH2 0x1DF SWAP4 SWAP3 SWAP2 PUSH1 0x20 ADD PUSH2 0x3B3 JUMP JUMPDEST PUSH1 0x40 MLOAD PUSH1 0x20 DUP2 DUP4 SUB SUB DUP2 MSTORE SWAP1 PUSH1 0x40 MSTORE DUP2 JUMP JUMPDEST PUSH1 0x40 MLOAD DUP1 PUSH1 0xE0 ADD PUSH1 0x40 MSTORE DUP1 PUSH1 0xBC DUP2 MSTORE PUSH1 0x20 ADD PUSH2 0x4AC PUSH1 0xBC SWAP2 CODECOPY PUSH1 0x40 MLOAD PUSH1 0x20 ADD PUSH2 0x1DF SWAP2 SWAP1 PUSH2 0x36E JUMP JUMPDEST PUSH1 0x40 MLOAD DUP1 PUSH1 0x40 ADD PUSH1 0x40 MSTORE DUP1 PUSH1 0xC DUP2 MSTORE PUSH1 0x20 ADD PUSH12 0x14995B185E54995C5D595CDD PUSH1 0xA2 SHL DUP2 MSTORE POP PUSH1 0x40 MLOAD DUP1 PUSH1 0xA0 ADD PUSH1 0x40 MSTORE DUP1 PUSH1 0x61 DUP2 MSTORE PUSH1 0x20 ADD PUSH2 0x44B PUSH1 0x61 SWAP2 CODECOPY PUSH1 0x40 MLOAD DUP1 PUSH1 0xE0 ADD PUSH1 0x40 MSTORE DUP1 PUSH1 0xBC DUP2 MSTORE PUSH1 0x20 ADD PUSH2 0x4AC PUSH1 0xBC SWAP2 CODECOPY PUSH1 0x40 MLOAD PUSH1 0x20 ADD PUSH2 0x281 SWAP2 SWAP1 PUSH2 0x36E JUMP JUMPDEST PUSH1 0x40 DUP1 MLOAD PUSH1 0x1F NOT DUP2 DUP5 SUB ADD DUP2 MSTORE SWAP1 DUP3 SWAP1 MSTORE PUSH2 0x2A0 SWAP4 SWAP3 SWAP2 PUSH1 0x20 ADD PUSH2 0x3B3 JUMP JUMPDEST PUSH1 0x40 MLOAD PUSH1 0x20 DUP2 DUP4 SUB SUB DUP2 MSTORE SWAP1 PUSH1 0x40 MSTORE DUP1 MLOAD SWAP1 PUSH1 0x20 ADD KECCAK256 DUP2 JUMP JUMPDEST PUSH1 0x40 MLOAD DUP1 PUSH1 0xE0 ADD PUSH1 0x40 MSTORE DUP1 PUSH1 0xBC DUP2 MSTORE PUSH1 0x20 ADD PUSH2 0x4AC PUSH1 0xBC SWAP2 CODECOPY DUP2 JUMP JUMPDEST PUSH1 0x40 MLOAD DUP1 PUSH1 0xE0 ADD PUSH1 0x40 MSTORE DUP1 PUSH1 0xBC DUP2 MSTORE PUSH1 0x20 ADD PUSH2 0x4AC PUSH1 0xBC SWAP2 CODECOPY DUP1 MLOAD SWAP1 PUSH1 0x20 ADD KECCAK256 DUP2 JUMP JUMPDEST PUSH1 0x0 JUMPDEST DUP4 DUP2 LT ISZERO PUSH2 0x313 JUMPI DUP2 DUP2 ADD MLOAD DUP4 DUP3 ADD MSTORE PUSH1 0x20 ADD PUSH2 0x2FB JUMP JUMPDEST DUP4 DUP2 GT ISZERO PUSH2 0x322 JUMPI PUSH1 0x0 DUP5 DUP5 ADD MSTORE JUMPDEST POP POP POP POP JUMP JUMPDEST PUSH1 0x0 DUP2 MLOAD DUP1 DUP5 MSTORE PUSH2 0x340 DUP2 PUSH1 0x20 DUP7 ADD PUSH1 0x20 DUP7 ADD PUSH2 0x2F8 JUMP JUMPDEST PUSH1 0x1F ADD PUSH1 0x1F NOT AND SWAP3 SWAP1 SWAP3 ADD PUSH1 0x20 ADD SWAP3 SWAP2 POP POP JUMP JUMPDEST PUSH1 0x20 DUP2 MSTORE PUSH1 0x0 PUSH2 0x367 PUSH1 0x20 DUP4 ADD DUP5 PUSH2 0x328 JUMP JUMPDEST SWAP4 SWAP3 POP POP POP JUMP JUMPDEST PUSH32 0x52656C6179446174612072656C61794461746129000000000000000000000000 DUP2 MSTORE PUSH1 0x0 DUP3 MLOAD PUSH2 0x3A6 DUP2 PUSH1 0x14 DUP6 ADD PUSH1 0x20 DUP8 ADD PUSH2 0x2F8 JUMP JUMPDEST SWAP2 SWAP1 SWAP2 ADD PUSH1 0x14 ADD SWAP3 SWAP2 POP POP JUMP JUMPDEST PUSH1 0x0 DUP5 MLOAD PUSH2 0x3C5 DUP2 DUP5 PUSH1 0x20 DUP10 ADD PUSH2 0x2F8 JUMP JUMPDEST PUSH32 0x2800000000000000000000000000000000000000000000000000000000000000 SWAP1 DUP4 ADD SWAP1 DUP2 MSTORE DUP5 MLOAD PUSH2 0x3FF DUP2 PUSH1 0x1 DUP5 ADD PUSH1 0x20 DUP10 ADD PUSH2 0x2F8 JUMP JUMPDEST PUSH32 0x2C00000000000000000000000000000000000000000000000000000000000000 PUSH1 0x1 SWAP3 SWAP1 SWAP2 ADD SWAP2 DUP3 ADD MSTORE DUP4 MLOAD PUSH2 0x43D DUP2 PUSH1 0x2 DUP5 ADD PUSH1 0x20 DUP9 ADD PUSH2 0x2F8 JUMP JUMPDEST ADD PUSH1 0x2 ADD SWAP6 SWAP5 POP POP POP POP POP JUMP INVALID PUSH2 0x6464 PUSH19 0x6573732066726F6D2C6164647265737320746F 0x2C PUSH22 0x696E743235362076616C75652C75696E743235362067 PUSH2 0x732C PUSH22 0x696E74323536206E6F6E63652C627974657320646174 PUSH2 0x2C75 PUSH10 0x6E743235362076616C69 PUSH5 0x556E74696C SLOAD PUSH10 0x6D6552656C6179446174 PUSH2 0x2875 PUSH10 0x6E74323536206D617846 PUSH6 0x655065724761 PUSH20 0x2C75696E74323536206D61785072696F72697479 CHAINID PUSH6 0x655065724761 PUSH20 0x2C75696E74323536207472616E73616374696F6E NUMBER PUSH2 0x6C6C PUSH5 0x6174614761 PUSH20 0x557365642C616464726573732072656C6179576F PUSH19 0x6B65722C61646472657373207061796D617374 PUSH6 0x722C61646472 PUSH6 0x737320666F72 PUSH24 0x61726465722C6279746573207061796D6173746572446174 PUSH2 0x2C75 PUSH10 0x6E7432353620636C6965 PUSH15 0x74496429A2646970667358221220BB CALLDATASIZE GASPRICE 0xE0 0x1E SWAP5 NUMBER ADD PUSH27 0x78EE57964FC311B4193D9DB4EAAE20EDF316D936B55BAF64736F6C PUSH4 0x43000808 STOP CALLER "},"gasEstimates":{"creation":{"codeDepositCost":"287400","executionCost":"359","totalCost":"287759"},"external":{"EIP712DOMAIN_TYPEHASH()":"223","GENERIC_PARAMS()":"infinite","RELAYDATA_TYPE()":"infinite","RELAYDATA_TYPEHASH()":"infinite","RELAY_REQUEST_NAME()":"infinite","RELAY_REQUEST_SUFFIX()":"infinite","RELAY_REQUEST_TYPE()":"infinite","RELAY_REQUEST_TYPEHASH()":"infinite"},"internal":{"domainSeparator(string memory,address)":"infinite","execute(string memory,struct GsnTypes.RelayRequest calldata,bytes calldata)":"infinite","getChainID()":"infinite","hashDomain(struct GsnEip712Library.EIP712Domain memory)":"infinite","hashRelayData(struct GsnTypes.RelayData calldata)":"infinite","splitRequest(struct GsnTypes.RelayRequest calldata)":"infinite","truncateInPlace(bytes memory)":"infinite","verify(string memory,struct GsnTypes.RelayRequest calldata,bytes calldata)":"infinite","verifyForwarderTrusted(struct GsnTypes.RelayRequest calldata)":"infinite","verifySignature(string memory,struct GsnTypes.RelayRequest calldata,bytes calldata)":"infinite"}},"methodIdentifiers":{"EIP712DOMAIN_TYPEHASH()":"c49f91d3","GENERIC_PARAMS()":"066a310c","RELAYDATA_TYPE()":"c46cf83f","RELAYDATA_TYPEHASH()":"cc0c62b2","RELAY_REQUEST_NAME()":"987673f7","RELAY_REQUEST_SUFFIX()":"931cd38f","RELAY_REQUEST_TYPE()":"6225e61b","RELAY_REQUEST_TYPEHASH()":"abf0d3f4"}},"storageLayout":{"storage":[],"types":null},"userdoc":{"kind":"user","methods":{},"notice":"Bridge Library to convert a GSN RelayRequest into a valid `ForwardRequest` for a `Forwarder`.","version":1}}}}