{"contracts/MultiSig.sol":{"MultiSig":{"abi":[{"inputs":[{"internalType":"address","name":"forwarder","type":"address"},{"internalType":"address[]","name":"_owners","type":"address[]"},{"internalType":"uint256","name":"_required","type":"uint256"}],"stateMutability":"nonpayable","type":"constructor"},{"inputs":[{"internalType":"uint256","name":"","type":"uint256"}],"name":"ApprovedProsumers","outputs":[{"internalType":"uint256","name":"_prosumerID","type":"uint256"},{"internalType":"address","name":"_address","type":"address"},{"internalType":"uint256","name":"_aadharId","type":"uint256"},{"internalType":"bool","name":"_approved","type":"bool"},{"internalType":"bool","name":"_suspended","type":"bool"},{"internalType":"uint256","name":"_energyUnitPriceUSD","type":"uint256"},{"internalType":"uint256","name":"_energyUnitPriceMatic","type":"uint256"},{"internalType":"uint256","name":"_stakedEnergyBalance","type":"uint256"}],"stateMutability":"view","type":"function"},{"inputs":[{"internalType":"uint256","name":"_unApprovedProsumerID","type":"uint256"}],"name":"DisApproveProsumer_OwnerSpecific","outputs":[],"stateMutability":"nonpayable","type":"function"},{"inputs":[{"internalType":"address","name":"","type":"address"}],"name":"approvalCount","outputs":[{"internalType":"uint256","name":"","type":"uint256"}],"stateMutability":"view","type":"function"},{"inputs":[{"internalType":"uint256","name":"_unApprovedProsumerID","type":"uint256"}],"name":"approveProsumer_OwnerSpecific","outputs":[],"stateMutability":"nonpayable","type":"function"},{"inputs":[{"internalType":"address","name":"","type":"address"},{"internalType":"address","name":"","type":"address"}],"name":"approved","outputs":[{"internalType":"bool","name":"","type":"bool"}],"stateMutability":"view","type":"function"},{"inputs":[],"name":"complainCount","outputs":[{"internalType":"uint256","name":"","type":"uint256"}],"stateMutability":"view","type":"function"},{"inputs":[{"internalType":"uint256","name":"","type":"uint256"}],"name":"complains","outputs":[{"internalType":"uint256","name":"_complainID","type":"uint256"},{"internalType":"uint256","name":"_complainant","type":"uint256"},{"internalType":"uint256","name":"_accused","type":"uint256"},{"internalType":"string","name":"_complain","type":"string"},{"internalType":"bool","name":"_resolved","type":"bool"}],"stateMutability":"view","type":"function"},{"inputs":[{"internalType":"address","name":"","type":"address"}],"name":"disapprovalCount","outputs":[{"internalType":"uint256","name":"","type":"uint256"}],"stateMutability":"view","type":"function"},{"inputs":[{"internalType":"address","name":"","type":"address"},{"internalType":"address","name":"","type":"address"}],"name":"disapproved","outputs":[{"internalType":"bool","name":"","type":"bool"}],"stateMutability":"view","type":"function"},{"inputs":[],"name":"getTrustedForwarder","outputs":[{"internalType":"address","name":"forwarder","type":"address"}],"stateMutability":"view","type":"function"},{"inputs":[{"internalType":"address","name":"","type":"address"}],"name":"isOwner","outputs":[{"internalType":"bool","name":"","type":"bool"}],"stateMutability":"view","type":"function"},{"inputs":[{"internalType":"address","name":"","type":"address"}],"name":"isProsumer","outputs":[{"internalType":"bool","name":"","type":"bool"}],"stateMutability":"view","type":"function"},{"inputs":[{"internalType":"address","name":"forwarder","type":"address"}],"name":"isTrustedForwarder","outputs":[{"internalType":"bool","name":"","type":"bool"}],"stateMutability":"view","type":"function"},{"inputs":[],"name":"maxComplains","outputs":[{"internalType":"uint256","name":"","type":"uint256"}],"stateMutability":"view","type":"function"},{"inputs":[{"internalType":"uint256","name":"","type":"uint256"}],"name":"owners","outputs":[{"internalType":"address","name":"","type":"address"}],"stateMutability":"view","type":"function"},{"inputs":[{"internalType":"uint256","name":"","type":"uint256"}],"name":"prosumerAddress","outputs":[{"internalType":"address","name":"","type":"address"}],"stateMutability":"view","type":"function"},{"inputs":[{"internalType":"address","name":"","type":"address"}],"name":"prosumerID","outputs":[{"internalType":"uint256","name":"","type":"uint256"}],"stateMutability":"view","type":"function"},{"inputs":[{"internalType":"uint256","name":"_prosumerId","type":"uint256"},{"internalType":"string","name":"_complainBody","type":"string"}],"name":"raiseComplain","outputs":[],"stateMutability":"nonpayable","type":"function"},{"inputs":[],"name":"regFee","outputs":[{"internalType":"uint256","name":"","type":"uint256"}],"stateMutability":"view","type":"function"},{"inputs":[{"internalType":"uint256","name":"_aadharNo","type":"uint256"}],"name":"req_Registration","outputs":[],"stateMutability":"payable","type":"function"},{"inputs":[],"name":"required","outputs":[{"internalType":"uint256","name":"","type":"uint256"}],"stateMutability":"view","type":"function"},{"inputs":[{"internalType":"uint256","name":"_regFee","type":"uint256"}],"name":"setRegFee","outputs":[],"stateMutability":"nonpayable","type":"function"},{"inputs":[{"internalType":"address","name":"_unapprovedProsumerAddress","type":"address"}],"name":"showApprovalStatus_OwnerSpecific","outputs":[{"internalType":"string","name":"","type":"string"}],"stateMutability":"view","type":"function"},{"inputs":[],"name":"show_Approved_Prosumers","outputs":[{"components":[{"internalType":"uint256","name":"_prosumerID","type":"uint256"},{"internalType":"address","name":"_address","type":"address"},{"internalType":"uint256","name":"_aadharId","type":"uint256"},{"internalType":"bool","name":"_approved","type":"bool"},{"internalType":"bool","name":"_suspended","type":"bool"},{"internalType":"uint256","name":"_energyUnitPriceUSD","type":"uint256"},{"internalType":"uint256","name":"_energyUnitPriceMatic","type":"uint256"},{"internalType":"uint256","name":"_stakedEnergyBalance","type":"uint256"}],"internalType":"struct MultiSig.prosumer[]","name":"","type":"tuple[]"}],"stateMutability":"view","type":"function"},{"inputs":[],"name":"show_Unapproved_Prosumers","outputs":[{"components":[{"internalType":"uint256","name":"_prosumerID","type":"uint256"},{"internalType":"address","name":"_address","type":"address"},{"internalType":"uint256","name":"_aadharId","type":"uint256"},{"internalType":"bool","name":"_approved","type":"bool"},{"internalType":"bool","name":"_suspended","type":"bool"},{"internalType":"uint256","name":"_energyUnitPriceUSD","type":"uint256"},{"internalType":"uint256","name":"_energyUnitPriceMatic","type":"uint256"},{"internalType":"uint256","name":"_stakedEnergyBalance","type":"uint256"}],"internalType":"struct MultiSig.prosumer[]","name":"","type":"tuple[]"}],"stateMutability":"view","type":"function"},{"inputs":[{"internalType":"uint256","name":"_prosumerId","type":"uint256"},{"internalType":"uint256","name":"_complainId","type":"uint256"}],"name":"suspendProsumer","outputs":[],"stateMutability":"nonpayable","type":"function"},{"inputs":[{"internalType":"address","name":"","type":"address"},{"internalType":"address","name":"","type":"address"}],"name":"suspended","outputs":[{"internalType":"bool","name":"","type":"bool"}],"stateMutability":"view","type":"function"},{"inputs":[{"internalType":"address","name":"","type":"address"}],"name":"suspensionCount","outputs":[{"internalType":"uint256","name":"","type":"uint256"}],"stateMutability":"view","type":"function"},{"inputs":[{"internalType":"address","name":"newOwner","type":"address"}],"name":"transferOwnership","outputs":[],"stateMutability":"nonpayable","type":"function"},{"inputs":[{"internalType":"uint256","name":"","type":"uint256"}],"name":"unApprovedProsumers","outputs":[{"internalType":"uint256","name":"_prosumerID","type":"uint256"},{"internalType":"address","name":"_address","type":"address"},{"internalType":"uint256","name":"_aadharId","type":"uint256"},{"internalType":"bool","name":"_approved","type":"bool"},{"internalType":"bool","name":"_suspended","type":"bool"},{"internalType":"uint256","name":"_energyUnitPriceUSD","type":"uint256"},{"internalType":"uint256","name":"_energyUnitPriceMatic","type":"uint256"},{"internalType":"uint256","name":"_stakedEnergyBalance","type":"uint256"}],"stateMutability":"view","type":"function"},{"inputs":[{"internalType":"uint256","name":"_prosumerId","type":"uint256"},{"internalType":"uint256","name":"_complainId","type":"uint256"}],"name":"unSuspendProsumer","outputs":[],"stateMutability":"nonpayable","type":"function"},{"inputs":[{"internalType":"address","name":"","type":"address"},{"internalType":"address","name":"","type":"address"}],"name":"unSuspended","outputs":[{"internalType":"bool","name":"","type":"bool"}],"stateMutability":"view","type":"function"},{"inputs":[{"internalType":"address","name":"","type":"address"}],"name":"unSuspensionCount","outputs":[{"internalType":"uint256","name":"","type":"uint256"}],"stateMutability":"view","type":"function"},{"inputs":[],"name":"versionRecipient","outputs":[{"internalType":"string","name":"","type":"string"}],"stateMutability":"view","type":"function"},{"inputs":[],"name":"withdrawFees","outputs":[],"stateMutability":"nonpayable","type":"function"}],"devdoc":{"kind":"dev","methods":{"getTrustedForwarder()":{"returns":{"forwarder":"The address of the Forwarder contract that is being used."}},"isTrustedForwarder(address)":{"params":{"forwarder":"The address of the Forwarder contract that is being used."},"returns":{"_0":"isTrustedForwarder `true` if the Forwarder is trusted to forward relayed transactions by this Recipient."}}},"version":1},"evm":{"bytecode":{"linkReferences":{},"object":"600a60135560c060405260056080819052640332e302e360dc1b60a09081526200002d9160159190620002a0565b503480156200003b57600080fd5b50604051620035eb380380620035eb8339810160408190526200005e9162000379565b600080546001600160a01b0319166001600160a01b0385161790556000825111620000c25760405162461bcd60e51b815260206004820152600f60248201526e13dddb995c9cc814995c5d5a5c9959608a1b60448201526064015b60405180910390fd5b600081118015620000d4575081518111155b6200012c5760405162461bcd60e51b815260206004820152602160248201527f496e76616c6964207265717569726564206e756d626572206f66206f776e65726044820152607360f81b6064820152608401620000b9565b60005b8251811015620002935760008382815181106200015057620001506200046b565b6020026020010151905060006001600160a01b0316816001600160a01b03161415620001af5760405162461bcd60e51b815260206004820152600d60248201526c34b73b30b634b21037bbb732b960991b6044820152606401620000b9565b6001600160a01b03811660009081526004602052604090205460ff16156200021a5760405162461bcd60e51b815260206004820152601360248201527f4f776e6572206973206e6f7420756e69717565000000000000000000000000006044820152606401620000b9565b6001600160a01b03166000818152600460205260408120805460ff191660019081179091556003805491820181559091527fc2575a0e9e593c00f959f8c92f12db2869c3395a3b0502d05e2516446f71f85b0180546001600160a01b0319169091179055806200028a8162000481565b9150506200012f565b5060015550620004e89050565b828054620002ae90620004ab565b90600052602060002090601f016020900481019282620002d257600085556200031d565b82601f10620002ed57805160ff19168380011785556200031d565b828001600101855582156200031d579182015b828111156200031d57825182559160200191906001019062000300565b506200032b9291506200032f565b5090565b5b808211156200032b576000815560010162000330565b80516001600160a01b03811681146200035e57600080fd5b919050565b634e487b7160e01b600052604160045260246000fd5b6000806000606084860312156200038f57600080fd5b6200039a8462000346565b602085810151919450906001600160401b0380821115620003ba57600080fd5b818701915087601f830112620003cf57600080fd5b815181811115620003e457620003e462000363565b8060051b604051601f19603f830116810181811085821117156200040c576200040c62000363565b60405291825284820192508381018501918a8311156200042b57600080fd5b938501935b828510156200045457620004448562000346565b8452938501939285019262000430565b809750505050505050604084015190509250925092565b634e487b7160e01b600052603260045260246000fd5b6000600019821415620004a457634e487b7160e01b600052601160045260246000fd5b5060010190565b600181811c90821680620004c057607f821691505b60208210811415620004e257634e487b7160e01b600052602260045260246000fd5b50919050565b6130f380620004f86000396000f3fe6080604052600436106102335760003560e01c80637b78bc6b11610138578063ce1b815f116100b0578063e814db591161007f578063f4b1604511610064578063f4b160451461072e578063f85bae7814610769578063fdbd2e8b146107a457600080fd5b8063e814db59146106ee578063f2fde38b1461070e57600080fd5b8063ce1b815f14610685578063dc8452cd146106a3578063e706d568146106b9578063e7e4f9d9146106ce57600080fd5b80639a9ddd16116101075780639ff34115116100ec5780639ff3411514610632578063c7a7275e14610645578063c8b6ba491461066557600080fd5b80639a9ddd16146105e55780639c01a6df1461061257600080fd5b80637b78bc6b1461054c5780638fac63711461056c5780638fff20f3146105a257806390f8ba3c146105b857600080fd5b80634ea30b2f116101cb5780635f81b6061161019a57806366cc771f1161017f57806366cc771f146104ce57806373de8ce8146104fb57806375ae81b31461051157600080fd5b80635f81b60614610471578063612536fc146104ac57600080fd5b80634ea30b2f146103965780634ef8ab77146103c757806350a7ac251461042c578063572b6c051461044257600080fd5b806340cb33421161020757806340cb33421461031d578063476343ee1461033f578063486ff0cd146103545780634ca46d191461037657600080fd5b80621cfdce14610238578063025e7c2714610278578063143859eb146102b05780632f54bf6e146102dd575b600080fd5b34801561024457600080fd5b50610265610253366004612d0d565b600d6020526000908152604090205481565b6040519081526020015b60405180910390f35b34801561028457600080fd5b50610298610293366004612d2f565b6107d4565b6040516001600160a01b03909116815260200161026f565b3480156102bc57600080fd5b506102656102cb366004612d0d565b60116020526000908152604090205481565b3480156102e957600080fd5b5061030d6102f8366004612d0d565b60046020526000908152604090205460ff1681565b604051901515815260200161026f565b34801561032957600080fd5b5061033d610338366004612d48565b6107fe565b005b34801561034b57600080fd5b5061033d610b60565b34801561036057600080fd5b50610369610cb6565b60405161026f9190612db7565b34801561038257600080fd5b5061033d610391366004612d2f565b610d44565b3480156103a257600080fd5b506103b66103b1366004612d2f565b6111a1565b60405161026f959493929190612dca565b3480156103d357600080fd5b506103e76103e2366004612d2f565b611272565b604080519889526001600160a01b0390971660208901529587019490945291151560608601521515608085015260a084015260c083015260e08201526101000161026f565b34801561043857600080fd5b5061026560135481565b34801561044e57600080fd5b5061030d61045d366004612d0d565b6000546001600160a01b0391821691161490565b34801561047d57600080fd5b5061030d61048c366004612e03565b600760209081526000928352604080842090915290825290205460ff1681565b3480156104b857600080fd5b506104c16112d6565b60405161026f9190612e36565b3480156104da57600080fd5b506102656104e9366004612d0d565b600f6020526000908152604090205481565b34801561050757600080fd5b5061026560125481565b34801561051d57600080fd5b5061030d61052c366004612e03565b600860209081526000928352604080842090915290825290205460ff1681565b34801561055857600080fd5b50610369610567366004612d0d565b611396565b34801561057857600080fd5b50610298610587366004612d2f565b600c602052600090815260409020546001600160a01b031681565b3480156105ae57600080fd5b5061026560025481565b3480156105c457600080fd5b506102656105d3366004612d0d565b60106020526000908152604090205481565b3480156105f157600080fd5b50610265610600366004612d0d565b600e6020526000908152604090205481565b34801561061e57600080fd5b506103e761062d366004612d2f565b61152c565b61033d610640366004612d2f565b61153c565b34801561065157600080fd5b5061033d610660366004612d2f565b61192c565b34801561067157600080fd5b5061033d610680366004612ee6565b611f1d565b34801561069157600080fd5b506000546001600160a01b0316610298565b3480156106af57600080fd5b5061026560015481565b3480156106c557600080fd5b506104c161246a565b3480156106da57600080fd5b5061033d6106e9366004612d48565b61257d565b3480156106fa57600080fd5b5061033d610709366004612d2f565b612832565b34801561071a57600080fd5b5061033d610729366004612d0d565b612898565b34801561073a57600080fd5b5061030d610749366004612e03565b600560209081526000928352604080842090915290825290205460ff1681565b34801561077557600080fd5b5061030d610784366004612e03565b600660209081526000928352604080842090915290825290205460ff1681565b3480156107b057600080fd5b5061030d6107bf366004612d0d565b600b6020526000908152604090205460ff1681565b600381815481106107e457600080fd5b6000918252602090912001546001600160a01b0316905081565b6004600061080a61299d565b6001600160a01b0316815260208101919091526040016000205460ff166108645760405162461bcd60e51b81526020600482015260096024820152682737ba1027bbb732b960b91b60448201526064015b60405180910390fd5b6000828152600c60209081526040808320546001600160a01b03168352600b90915290205460ff166108d85760405162461bcd60e51b815260206004820152600e60248201527f4e6f7420612050726f73756d6572000000000000000000000000000000000000604482015260640161085b565b6000828152600c60209081526040808320546001600160a01b03168352600890915281209061090561299d565b6001600160a01b0316815260208101919091526040016000205460ff161561096f5760405162461bcd60e51b815260206004820152601360248201527f416c726561647920556e73757370656e64656400000000000000000000000000604482015260640161085b565b6000828152600c60209081526040808320546001600160a01b0316808452600890925282209091600191906109a261299d565b6001600160a01b03908116825260208083019390935260409182016000908120805460ff1916951515959095179094558416835260079091528120906109e661299d565b6001600160a01b0316815260208101919091526040016000205460ff1615610a76576001600160a01b038116600090815260076020526040812081610a2961299d565b6001600160a01b03908116825260208083019390935260409182016000908120805460ff1916951515959095179094558416835260109091528120805491610a7083612fb7565b91905055505b6001600160a01b038116600090815260116020526040812080549082610a9b83612fce565b919050559050600154811115610b5a576001600160a01b0382166000908152601160209081526040808320839055601090915281208190556009610ae0600187612fe9565b81548110610af057610af0613000565b6000918252602090912060036007909202010180549115156101000261ff001990921691909117905560016014610b278286612fe9565b81548110610b3757610b37613000565b60009182526020909120600590910201600401805460ff19169115159190911790555b50505050565b60046000610b6c61299d565b6001600160a01b0316815260208101919091526040016000205460ff16610bc15760405162461bcd60e51b81526020600482015260096024820152682737ba1027bbb732b960b91b604482015260640161085b565b600354600090610bd1904761302c565b905060005b600354811015610cb257600060038281548110610bf557610bf5613000565b60009182526020822001546040516001600160a01b039091169185919081818185875af1925050503d8060008114610c49576040519150601f19603f3d011682016040523d82523d6000602084013e610c4e565b606091505b5050905080610c9f5760405162461bcd60e51b815260206004820152600b60248201527f43616c6c204661696c6564000000000000000000000000000000000000000000604482015260640161085b565b5080610caa81612fce565b915050610bd6565b5050565b60158054610cc390613040565b80601f0160208091040260200160405190810160405280929190818152602001828054610cef90613040565b8015610d3c5780601f10610d1157610100808354040283529160200191610d3c565b820191906000526020600020905b815481529060010190602001808311610d1f57829003601f168201915b505050505081565b60046000610d5061299d565b6001600160a01b0316815260208101919091526040016000205460ff16610da55760405162461bcd60e51b81526020600482015260096024820152682737ba1027bbb732b960b91b604482015260640161085b565b600a548110610df65760405162461bcd60e51b815260206004820152601e60248201527f496e76616c696420556e617070726f7665642050726f73756d65722049440000604482015260640161085b565b60066000600a8381548110610e0d57610e0d613000565b60009182526020808320600160079093020191909101546001600160a01b03168352820192909252604001812090610e4361299d565b6001600160a01b0316815260208101919091526040016000205460ff1615610ed35760405162461bcd60e51b815260206004820152602360248201527f50726f73756d657220416c726561647920646973617070726f7665642062792060448201527f796f750000000000000000000000000000000000000000000000000000000000606482015260840161085b565b600160066000600a8481548110610eec57610eec613000565b60009182526020808320600160079093020191909101546001600160a01b03168352820192909252604001812090610f2261299d565b6001600160a01b03166001600160a01b0316815260200190815260200160002060006101000a81548160ff02191690831515021790555060066000600a8381548110610f7057610f70613000565b60009182526020808320600160079093020191909101546001600160a01b03168352820192909252604001812090610fa661299d565b6001600160a01b0316815260208101919091526040016000205460ff16156110a457600060056000600a8481548110610fe157610fe1613000565b60009182526020808320600160079093020191909101546001600160a01b0316835282019290925260400181209061101761299d565b6001600160a01b03166001600160a01b0316815260200190815260200160002060006101000a81548160ff021916908315150217905550600e6000600a838154811061106557611065613000565b60009182526020808320600160079093020191909101546001600160a01b03168352820192909252604001812080549161109e83612fb7565b91905055505b6000600f6000600a84815481106110bd576110bd613000565b60009182526020808320600160079093020191909101546001600160a01b0316835282019290925260400181208054916110f683612fce565b919050559050600154811115610cb25761110f826129d1565b600f6000600a848154811061112657611126613000565b60009182526020808320600160079093020191909101546001600160a01b031683528201929092526040018120819055600a8054600e9291908590811061116f5761116f613000565b60009182526020808320600160079093020191909101546001600160a01b031683528201929092526040018120555050565b601481815481106111b157600080fd5b90600052602060002090600502016000915090508060000154908060010154908060020154908060030180546111e690613040565b80601f016020809104026020016040519081016040528092919081815260200182805461121290613040565b801561125f5780601f106112345761010080835404028352916020019161125f565b820191906000526020600020905b81548152906001019060200180831161124257829003601f168201915b5050506004909301549192505060ff1685565b6009818154811061128257600080fd5b600091825260209091206007909102018054600182015460028301546003840154600485015460058601546006909601549496506001600160a01b0390931694919360ff8083169461010090930416929088565b60606009805480602002602001604051908101604052809291908181526020016000905b8282101561138d57600084815260209081902060408051610100808201835260078702909301805482526001808201546001600160a01b031683870152600282015493830193909352600381015460ff8082161515606085015294900490931615156080820152600483015460a0820152600583015460c082015260069092015460e083015290835290920191016112fa565b50505050905090565b6060600460006113a461299d565b6001600160a01b0316815260208101919091526040016000205460ff166113f95760405162461bcd60e51b81526020600482015260096024820152682737ba1027bbb732b960b91b604482015260640161085b565b6001600160a01b03821660009081526005602052604081209061141a61299d565b6001600160a01b0316815260208101919091526040016000205460ff161561147557505060408051808201909152601181527f50726f73756d657220417070726f766564000000000000000000000000000000602082015290565b6001600160a01b03821660009081526006602052604081209061149661299d565b6001600160a01b0316815260208101919091526040016000205460ff16156114f157505060408051808201909152601481527f50726f73756d657220446973617070726f766564000000000000000000000000602082015290565b5060408051808201909152601981527f50726f73756d6572204e6f74205665726966696564205965740000000000000060208201525b919050565b600a818154811061128257600080fd5b3360009081526004602052604090205460ff161561159c5760405162461bcd60e51b815260206004820152601060248201527f596f752061726520616e204f776e657200000000000000000000000000000000604482015260640161085b565b6002543410156116145760405162461bcd60e51b815260206004820152602560248201527f526567697374726174696f6e204661696c65642c20496e73756666696369656e60448201527f7420466565000000000000000000000000000000000000000000000000000000606482015260840161085b565b336000908152600b602052604090205460ff161561169a5760405162461bcd60e51b815260206004820152602960248201527f596f752061726520616c726561647920612050726f73756d657220696e20746860448201527f65204e6574776f726b0000000000000000000000000000000000000000000000606482015260840161085b565b6116a2612bf6565b156117155760405162461bcd60e51b815260206004820152602b60248201527f596f75206861766520616c72656164792072657175657374656420666f72205260448201527f6567697374726174696f6e000000000000000000000000000000000000000000606482015260840161085b565b8060005b811561173e5761172a600a8361302c565b91508061173681612fce565b915050611719565b80600c1461178e5760405162461bcd60e51b815260206004820152601b60248201527f456e746572206120313220646967697420416164686172204e6f2e0000000000604482015260640161085b565b505060408051610100808201835260008083523360208401908152938301948552606083018181526080840182815260a0850183815260c0860184815260e08701858152600a8054600181018255965296517fc65a7bb8d6351c1cf70c95a316cc6a92839c986682d98bc35f958f4883f9d2a860079096029586015596517fc65a7bb8d6351c1cf70c95a316cc6a92839c986682d98bc35f958f4883f9d2a9850180546001600160a01b0319166001600160a01b0390921691909117905596517fc65a7bb8d6351c1cf70c95a316cc6a92839c986682d98bc35f958f4883f9d2aa84015590517fc65a7bb8d6351c1cf70c95a316cc6a92839c986682d98bc35f958f4883f9d2ab83018054925161ffff1990931691151561ff001916919091179115159093021790915592517fc65a7bb8d6351c1cf70c95a316cc6a92839c986682d98bc35f958f4883f9d2ac84015590517fc65a7bb8d6351c1cf70c95a316cc6a92839c986682d98bc35f958f4883f9d2ad830155517fc65a7bb8d6351c1cf70c95a316cc6a92839c986682d98bc35f958f4883f9d2ae90910155565b6004600061193861299d565b6001600160a01b0316815260208101919091526040016000205460ff1661198d5760405162461bcd60e51b81526020600482015260096024820152682737ba1027bbb732b960b91b604482015260640161085b565b600a5481106119de5760405162461bcd60e51b815260206004820152601e60248201527f496e76616c696420556e617070726f7665642050726f73756d65722049440000604482015260640161085b565b60056000600a83815481106119f5576119f5613000565b60009182526020808320600160079093020191909101546001600160a01b03168352820192909252604001812090611a2b61299d565b6001600160a01b0316815260208101919091526040016000205460ff1615611a955760405162461bcd60e51b815260206004820181905260248201527f50726f73756d657220416c726561647920617070726f76656420627920796f75604482015260640161085b565b600160056000600a8481548110611aae57611aae613000565b60009182526020808320600160079093020191909101546001600160a01b03168352820192909252604001812090611ae461299d565b6001600160a01b03166001600160a01b0316815260200190815260200160002060006101000a81548160ff02191690831515021790555060066000600a8381548110611b3257611b32613000565b60009182526020808320600160079093020191909101546001600160a01b03168352820192909252604001812090611b6861299d565b6001600160a01b0316815260208101919091526040016000205460ff1615611c6657600060066000600a8481548110611ba357611ba3613000565b60009182526020808320600160079093020191909101546001600160a01b03168352820192909252604001812090611bd961299d565b6001600160a01b03166001600160a01b0316815260200190815260200160002060006101000a81548160ff021916908315150217905550600f6000600a8381548110611c2757611c27613000565b60009182526020808320600160079093020191909101546001600160a01b031683528201929092526040018120805491611c6083612fb7565b91905055505b6000600e6000600a8481548110611c7f57611c7f613000565b60009182526020808320600160079093020191909101546001600160a01b031683528201929092526040018120805491611cb883612fce565b919050559050600154811115610cb2576001600a8381548110611cdd57611cdd613000565b60009182526020909120600790910201600301805460ff1916911515919091179055600954611d0d90600161307b565b600a8381548110611d2057611d20613000565b9060005260206000209060070201600001819055506001600b6000600a8581548110611d4e57611d4e613000565b60009182526020808320600792909202909101600101546001600160a01b031683528201929092526040019020805460ff1916911515919091179055600a80546009919084908110611da257611da2613000565b600091825260208083208454600181810187559585529190932060079283029093018054919092029092019182558281015492820180546001600160a01b0319166001600160a01b03909416939093179092556002808301549082015560038083018054918301805460ff938416151560ff19821681178355925461010090819004909416151590930261ff001990921661ffff19909316929092171790556004808301549082015560058083015490820155600691820154910155611e67826129d1565b60098054611e7790600190612fe9565b81548110611e8757611e87613000565b600091825260208083206001600790930201820154600980548552600c9092526040842080546001600160a01b0319166001600160a01b03909216919091179055805492600d92909190611edb9085612fe9565b81548110611eeb57611eeb613000565b60009182526020808320600160079093020191909101546001600160a01b031683528201929092526040019020555050565b600b6000611f2961299d565b6001600160a01b0316815260208101919091526040016000205460ff16611f925760405162461bcd60e51b815260206004820152601260248201527f596f75206e6f7420612050726f73756d65720000000000000000000000000000604482015260640161085b565b6000828152600c60209081526040808320546001600160a01b03168352600b90915290205460ff166120065760405162461bcd60e51b815260206004820152601660248201527f41636375736564206e6f7420612050726f73756d657200000000000000000000604482015260640161085b565b6000828152600c60209081526040808320546001600160a01b03168352600790915281209061203361299d565b6001600160a01b0316815260208101919091526040016000205460ff161561209d5760405162461bcd60e51b815260206004820152601d60248201527f416363757365642050726f73756d65722069732053757370656e646564000000604482015260640161085b565b600760006120a961299d565b6001600160a01b03908116825260208083019390935260409182016000908120868252600c8552838220549092168152925290205460ff161561212e5760405162461bcd60e51b815260206004820152601160248201527f596f75206172652053757370656e646564000000000000000000000000000000604482015260640161085b565b6000828152600c60209081526040808320546001600160a01b03168352600690915281209061215b61299d565b6001600160a01b0316815260208101919091526040016000205460ff16156121c55760405162461bcd60e51b815260206004820152601760248201527f50726f73756d657220697320446973617070726f766564000000000000000000604482015260640161085b565b600660006121d161299d565b6001600160a01b03908116825260208083019390935260409182016000908120868252600c8552838220549092168152925290205460ff16156122565760405162461bcd60e51b815260206004820152601360248201527f596f752061726520446973617070726f76656400000000000000000000000000604482015260640161085b565b60006040518060a001604052806014805490506001612275919061307b565b8152602001600d600061228661299d565b6001600160a01b03166001600160a01b0316815260200190815260200160002054815260200184815260200183815260200160001515815250905060135460148054905010156123bb5760148054600181018255600091909152815160059091027fce6d7b5282bd9a3661ae061feed1dbda4e52ab073b1f9285be6e155d9c38d4ec81019182556020808401517fce6d7b5282bd9a3661ae061feed1dbda4e52ab073b1f9285be6e155d9c38d4ed83015560408401517fce6d7b5282bd9a3661ae061feed1dbda4e52ab073b1f9285be6e155d9c38d4ee8301556060840151805185949361239a937fce6d7b5282bd9a3661ae061feed1dbda4e52ab073b1f9285be6e155d9c38d4ef909101920190612c5d565b50608091909101516004909101805460ff1916911515919091179055612443565b8060146013546012546123ce9190613093565b815481106123de576123de613000565b90600052602060002090600502016000820151816000015560208201518160010155604082015181600201556060820151816003019080519060200190612426929190612c5d565b50608091909101516004909101805460ff19169115159190911790555b6013546012541015612465576012805490600061245f83612fce565b91905055505b505050565b60606004600061247861299d565b6001600160a01b0316815260208101919091526040016000205460ff166124cd5760405162461bcd60e51b81526020600482015260096024820152682737ba1027bbb732b960b91b604482015260640161085b565b600a8054604080516020808402820181019092528281529291906000908401821561138d57600084815260209081902060408051610100808201835260078702909301805482526001808201546001600160a01b031683870152600282015493830193909352600381015460ff8082161515606085015294900490931615156080820152600483015460a0820152600583015460c082015260069092015460e083015290835290920191016112fa565b6004600061258961299d565b6001600160a01b0316815260208101919091526040016000205460ff166125de5760405162461bcd60e51b81526020600482015260096024820152682737ba1027bbb732b960b91b604482015260640161085b565b6000828152600c60209081526040808320546001600160a01b0316808452600b9092529091205460ff166126545760405162461bcd60e51b815260206004820152600e60248201527f4e6f7420612050726f73756d6572000000000000000000000000000000000000604482015260640161085b565b6001600160a01b03811660009081526007602052604081209061267561299d565b6001600160a01b0316815260208101919091526040016000205460ff16156126df5760405162461bcd60e51b815260206004820152601160248201527f416c72656164792053757370656e646564000000000000000000000000000000604482015260640161085b565b6001600160a01b038116600090815260076020526040812060019161270261299d565b6001600160a01b03908116825260208083019390935260409182016000908120805460ff19169515159590951790945584168352600890915281209061274661299d565b6001600160a01b0316815260208101919091526040016000205460ff16156127d6576001600160a01b03811660009081526008602052604081208161278961299d565b6001600160a01b03908116825260208083019390935260409182016000908120805460ff19169515159590951790945584168352601190915281208054916127d083612fb7565b91905055505b6001600160a01b0381166000908152601060205260408120805490826127fb83612fce565b919050559050600154811115610b5a576001600160a01b03821660009081526010602052604081205560016009610ae08287612fe9565b6004600061283e61299d565b6001600160a01b0316815260208101919091526040016000205460ff166128935760405162461bcd60e51b81526020600482015260096024820152682737ba1027bbb732b960b91b604482015260640161085b565b600255565b600460006128a461299d565b6001600160a01b0316815260208101919091526040016000205460ff166128f95760405162461bcd60e51b81526020600482015260096024820152682737ba1027bbb732b960b91b604482015260640161085b565b60005b600354811015610cb25761290e61299d565b6001600160a01b03166003828154811061292a5761292a613000565b6000918252602090912001546001600160a01b0316141561298b57816003828154811061295957612959613000565b9060005260206000200160006101000a8154816001600160a01b0302191690836001600160a01b031602179055505050565b8061299581612fce565b9150506128fc565b6000601436108015906129ba57506000546001600160a01b031633145b156129cc575060131936013560601c90565b503390565b600460006129dd61299d565b6001600160a01b0316815260208101919091526040016000205460ff16612a325760405162461bcd60e51b81526020600482015260096024820152682737ba1027bbb732b960b91b604482015260640161085b565b600a548110612a835760405162461bcd60e51b815260206004820181905260248201527f496e76616c696420756e617070726f76656450726f73756d657220496e646578604482015260640161085b565b805b600a54612a9490600190612fe9565b811015612b8f57600a612aa882600161307b565b81548110612ab857612ab8613000565b9060005260206000209060070201600a8281548110612ad957612ad9613000565b60009182526020909120825460079092020190815560018083015490820180546001600160a01b0319166001600160a01b039092169190911790556002808301549082015560038083018054918301805460ff938416151560ff19821681178355925461010090819004909416151590930261ff001990921661ffff1990931692909217179055600480830154908201556005808301549082015560069182015491015580612b8781612fce565b915050612a85565b50600a805480612ba157612ba16130a7565b6000828152602081206007600019909301928302018181556001810180546001600160a01b03191690556002810182905560038101805461ffff19169055600481018290556005810182905560060155905550565b6000805b600a54811015612c5557600a8181548110612c1757612c17613000565b60009182526020909120600790910201600101546001600160a01b0316331415612c4357600191505090565b80612c4d81612fce565b915050612bfa565b506000905090565b828054612c6990613040565b90600052602060002090601f016020900481019282612c8b5760008555612cd1565b82601f10612ca457805160ff1916838001178555612cd1565b82800160010185558215612cd1579182015b82811115612cd1578251825591602001919060010190612cb6565b50612cdd929150612ce1565b5090565b5b80821115612cdd5760008155600101612ce2565b80356001600160a01b038116811461152757600080fd5b600060208284031215612d1f57600080fd5b612d2882612cf6565b9392505050565b600060208284031215612d4157600080fd5b5035919050565b60008060408385031215612d5b57600080fd5b50508035926020909101359150565b6000815180845260005b81811015612d9057602081850181015186830182015201612d74565b81811115612da2576000602083870101525b50601f01601f19169290920160200192915050565b602081526000612d286020830184612d6a565b85815284602082015283604082015260a060608201526000612def60a0830185612d6a565b905082151560808301529695505050505050565b60008060408385031215612e1657600080fd5b612e1f83612cf6565b9150612e2d60208401612cf6565b90509250929050565b602080825282518282018190526000919060409081850190868401855b82811015612ec357815180518552868101516001600160a01b031687860152858101518686015260608082015115159086015260808082015115159086015260a0808201519086015260c0808201519086015260e090810151908501526101009093019290850190600101612e53565b5091979650505050505050565b634e487b7160e01b600052604160045260246000fd5b60008060408385031215612ef957600080fd5b82359150602083013567ffffffffffffffff80821115612f1857600080fd5b818501915085601f830112612f2c57600080fd5b813581811115612f3e57612f3e612ed0565b604051601f8201601f19908116603f01168101908382118183101715612f6657612f66612ed0565b81604052828152886020848701011115612f7f57600080fd5b8260208601602083013760006020848301015280955050505050509250929050565b634e487b7160e01b600052601160045260246000fd5b600081612fc657612fc6612fa1565b506000190190565b6000600019821415612fe257612fe2612fa1565b5060010190565b600082821015612ffb57612ffb612fa1565b500390565b634e487b7160e01b600052603260045260246000fd5b634e487b7160e01b600052601260045260246000fd5b60008261303b5761303b613016565b500490565b600181811c9082168061305457607f821691505b6020821081141561307557634e487b7160e01b600052602260045260246000fd5b50919050565b6000821982111561308e5761308e612fa1565b500190565b6000826130a2576130a2613016565b500690565b634e487b7160e01b600052603160045260246000fdfea2646970667358221220d622c0ec590d95f41794ca92aebcbe4cd7b23bee3abf0c55b550930b4c09459964736f6c63430008080033","opcodes":"PUSH1 0xA PUSH1 0x13 SSTORE PUSH1 0xC0 PUSH1 0x40 MSTORE PUSH1 0x5 PUSH1 0x80 DUP2 SWAP1 MSTORE PUSH5 0x332E302E3 PUSH1 0xDC SHL PUSH1 0xA0 SWAP1 DUP2 MSTORE PUSH3 0x2D SWAP2 PUSH1 0x15 SWAP2 SWAP1 PUSH3 0x2A0 JUMP JUMPDEST POP CALLVALUE DUP1 ISZERO PUSH3 0x3B JUMPI PUSH1 0x0 DUP1 REVERT JUMPDEST POP PUSH1 0x40 MLOAD PUSH3 0x35EB CODESIZE SUB DUP1 PUSH3 0x35EB DUP4 CODECOPY DUP2 ADD PUSH1 0x40 DUP2 SWAP1 MSTORE PUSH3 0x5E SWAP2 PUSH3 0x379 JUMP JUMPDEST PUSH1 0x0 DUP1 SLOAD PUSH1 0x1 PUSH1 0x1 PUSH1 0xA0 SHL SUB NOT AND PUSH1 0x1 PUSH1 0x1 PUSH1 0xA0 SHL SUB DUP6 AND OR SWAP1 SSTORE PUSH1 0x0 DUP3 MLOAD GT PUSH3 0xC2 JUMPI PUSH1 0x40 MLOAD PUSH3 0x461BCD PUSH1 0xE5 SHL DUP2 MSTORE PUSH1 0x20 PUSH1 0x4 DUP3 ADD MSTORE PUSH1 0xF PUSH1 0x24 DUP3 ADD MSTORE PUSH15 0x13DDDB995C9CC814995C5D5A5C9959 PUSH1 0x8A SHL PUSH1 0x44 DUP3 ADD MSTORE PUSH1 0x64 ADD JUMPDEST PUSH1 0x40 MLOAD DUP1 SWAP2 SUB SWAP1 REVERT JUMPDEST PUSH1 0x0 DUP2 GT DUP1 ISZERO PUSH3 0xD4 JUMPI POP DUP2 MLOAD DUP2 GT ISZERO JUMPDEST PUSH3 0x12C JUMPI PUSH1 0x40 MLOAD PUSH3 0x461BCD PUSH1 0xE5 SHL DUP2 MSTORE PUSH1 0x20 PUSH1 0x4 DUP3 ADD MSTORE PUSH1 0x21 PUSH1 0x24 DUP3 ADD MSTORE PUSH32 0x496E76616C6964207265717569726564206E756D626572206F66206F776E6572 PUSH1 0x44 DUP3 ADD MSTORE PUSH1 0x73 PUSH1 0xF8 SHL PUSH1 0x64 DUP3 ADD MSTORE PUSH1 0x84 ADD PUSH3 0xB9 JUMP JUMPDEST PUSH1 0x0 JUMPDEST DUP3 MLOAD DUP2 LT ISZERO PUSH3 0x293 JUMPI PUSH1 0x0 DUP4 DUP3 DUP2 MLOAD DUP2 LT PUSH3 0x150 JUMPI PUSH3 0x150 PUSH3 0x46B JUMP JUMPDEST PUSH1 0x20 MUL PUSH1 0x20 ADD ADD MLOAD SWAP1 POP PUSH1 0x0 PUSH1 0x1 PUSH1 0x1 PUSH1 0xA0 SHL SUB AND DUP2 PUSH1 0x1 PUSH1 0x1 PUSH1 0xA0 SHL SUB AND EQ ISZERO PUSH3 0x1AF JUMPI PUSH1 0x40 MLOAD PUSH3 0x461BCD PUSH1 0xE5 SHL DUP2 MSTORE PUSH1 0x20 PUSH1 0x4 DUP3 ADD MSTORE PUSH1 0xD PUSH1 0x24 DUP3 ADD MSTORE PUSH13 0x34B73B30B634B21037BBB732B9 PUSH1 0x99 SHL PUSH1 0x44 DUP3 ADD MSTORE PUSH1 0x64 ADD PUSH3 0xB9 JUMP JUMPDEST PUSH1 0x1 PUSH1 0x1 PUSH1 0xA0 SHL SUB DUP2 AND PUSH1 0x0 SWAP1 DUP2 MSTORE PUSH1 0x4 PUSH1 0x20 MSTORE PUSH1 0x40 SWAP1 KECCAK256 SLOAD PUSH1 0xFF AND ISZERO PUSH3 0x21A JUMPI PUSH1 0x40 MLOAD PUSH3 0x461BCD PUSH1 0xE5 SHL DUP2 MSTORE PUSH1 0x20 PUSH1 0x4 DUP3 ADD MSTORE PUSH1 0x13 PUSH1 0x24 DUP3 ADD MSTORE PUSH32 0x4F776E6572206973206E6F7420756E6971756500000000000000000000000000 PUSH1 0x44 DUP3 ADD MSTORE PUSH1 0x64 ADD PUSH3 0xB9 JUMP JUMPDEST PUSH1 0x1 PUSH1 0x1 PUSH1 0xA0 SHL SUB AND PUSH1 0x0 DUP2 DUP2 MSTORE PUSH1 0x4 PUSH1 0x20 MSTORE PUSH1 0x40 DUP2 KECCAK256 DUP1 SLOAD PUSH1 0xFF NOT AND PUSH1 0x1 SWAP1 DUP2 OR SWAP1 SWAP2 SSTORE PUSH1 0x3 DUP1 SLOAD SWAP2 DUP3 ADD DUP2 SSTORE SWAP1 SWAP2 MSTORE PUSH32 0xC2575A0E9E593C00F959F8C92F12DB2869C3395A3B0502D05E2516446F71F85B ADD DUP1 SLOAD PUSH1 0x1 PUSH1 0x1 PUSH1 0xA0 SHL SUB NOT AND SWAP1 SWAP2 OR SWAP1 SSTORE DUP1 PUSH3 0x28A DUP2 PUSH3 0x481 JUMP JUMPDEST SWAP2 POP POP PUSH3 0x12F JUMP JUMPDEST POP PUSH1 0x1 SSTORE POP PUSH3 0x4E8 SWAP1 POP JUMP JUMPDEST DUP3 DUP1 SLOAD PUSH3 0x2AE SWAP1 PUSH3 0x4AB JUMP JUMPDEST SWAP1 PUSH1 0x0 MSTORE PUSH1 0x20 PUSH1 0x0 KECCAK256 SWAP1 PUSH1 0x1F ADD PUSH1 0x20 SWAP1 DIV DUP2 ADD SWAP3 DUP3 PUSH3 0x2D2 JUMPI PUSH1 0x0 DUP6 SSTORE PUSH3 0x31D JUMP JUMPDEST DUP3 PUSH1 0x1F LT PUSH3 0x2ED JUMPI DUP1 MLOAD PUSH1 0xFF NOT AND DUP4 DUP1 ADD OR DUP6 SSTORE PUSH3 0x31D JUMP JUMPDEST DUP3 DUP1 ADD PUSH1 0x1 ADD DUP6 SSTORE DUP3 ISZERO PUSH3 0x31D JUMPI SWAP2 DUP3 ADD JUMPDEST DUP3 DUP2 GT ISZERO PUSH3 0x31D JUMPI DUP3 MLOAD DUP3 SSTORE SWAP2 PUSH1 0x20 ADD SWAP2 SWAP1 PUSH1 0x1 ADD SWAP1 PUSH3 0x300 JUMP JUMPDEST POP PUSH3 0x32B SWAP3 SWAP2 POP PUSH3 0x32F JUMP JUMPDEST POP SWAP1 JUMP JUMPDEST JUMPDEST DUP1 DUP3 GT ISZERO PUSH3 0x32B JUMPI PUSH1 0x0 DUP2 SSTORE PUSH1 0x1 ADD PUSH3 0x330 JUMP JUMPDEST DUP1 MLOAD PUSH1 0x1 PUSH1 0x1 PUSH1 0xA0 SHL SUB DUP2 AND DUP2 EQ PUSH3 0x35E JUMPI PUSH1 0x0 DUP1 REVERT JUMPDEST SWAP2 SWAP1 POP JUMP JUMPDEST PUSH4 0x4E487B71 PUSH1 0xE0 SHL PUSH1 0x0 MSTORE PUSH1 0x41 PUSH1 0x4 MSTORE PUSH1 0x24 PUSH1 0x0 REVERT JUMPDEST PUSH1 0x0 DUP1 PUSH1 0x0 PUSH1 0x60 DUP5 DUP7 SUB SLT ISZERO PUSH3 0x38F JUMPI PUSH1 0x0 DUP1 REVERT JUMPDEST PUSH3 0x39A DUP5 PUSH3 0x346 JUMP JUMPDEST PUSH1 0x20 DUP6 DUP2 ADD MLOAD SWAP2 SWAP5 POP SWAP1 PUSH1 0x1 PUSH1 0x1 PUSH1 0x40 SHL SUB DUP1 DUP3 GT ISZERO PUSH3 0x3BA JUMPI PUSH1 0x0 DUP1 REVERT JUMPDEST DUP2 DUP8 ADD SWAP2 POP DUP8 PUSH1 0x1F DUP4 ADD SLT PUSH3 0x3CF JUMPI PUSH1 0x0 DUP1 REVERT JUMPDEST DUP2 MLOAD DUP2 DUP2 GT ISZERO PUSH3 0x3E4 JUMPI PUSH3 0x3E4 PUSH3 0x363 JUMP JUMPDEST DUP1 PUSH1 0x5 SHL PUSH1 0x40 MLOAD PUSH1 0x1F NOT PUSH1 0x3F DUP4 ADD AND DUP2 ADD DUP2 DUP2 LT DUP6 DUP3 GT OR ISZERO PUSH3 0x40C JUMPI PUSH3 0x40C PUSH3 0x363 JUMP JUMPDEST PUSH1 0x40 MSTORE SWAP2 DUP3 MSTORE DUP5 DUP3 ADD SWAP3 POP DUP4 DUP2 ADD DUP6 ADD SWAP2 DUP11 DUP4 GT ISZERO PUSH3 0x42B JUMPI PUSH1 0x0 DUP1 REVERT JUMPDEST SWAP4 DUP6 ADD SWAP4 JUMPDEST DUP3 DUP6 LT ISZERO PUSH3 0x454 JUMPI PUSH3 0x444 DUP6 PUSH3 0x346 JUMP JUMPDEST DUP5 MSTORE SWAP4 DUP6 ADD SWAP4 SWAP3 DUP6 ADD SWAP3 PUSH3 0x430 JUMP JUMPDEST DUP1 SWAP8 POP POP POP POP POP POP POP PUSH1 0x40 DUP5 ADD MLOAD SWAP1 POP SWAP3 POP SWAP3 POP SWAP3 JUMP JUMPDEST PUSH4 0x4E487B71 PUSH1 0xE0 SHL PUSH1 0x0 MSTORE PUSH1 0x32 PUSH1 0x4 MSTORE PUSH1 0x24 PUSH1 0x0 REVERT JUMPDEST PUSH1 0x0 PUSH1 0x0 NOT DUP3 EQ ISZERO PUSH3 0x4A4 JUMPI PUSH4 0x4E487B71 PUSH1 0xE0 SHL PUSH1 0x0 MSTORE PUSH1 0x11 PUSH1 0x4 MSTORE PUSH1 0x24 PUSH1 0x0 REVERT JUMPDEST POP PUSH1 0x1 ADD SWAP1 JUMP JUMPDEST PUSH1 0x1 DUP2 DUP2 SHR SWAP1 DUP3 AND DUP1 PUSH3 0x4C0 JUMPI PUSH1 0x7F DUP3 AND SWAP2 POP JUMPDEST PUSH1 0x20 DUP3 LT DUP2 EQ ISZERO PUSH3 0x4E2 JUMPI PUSH4 0x4E487B71 PUSH1 0xE0 SHL PUSH1 0x0 MSTORE PUSH1 0x22 PUSH1 0x4 MSTORE PUSH1 0x24 PUSH1 0x0 REVERT JUMPDEST POP SWAP2 SWAP1 POP JUMP JUMPDEST PUSH2 0x30F3 DUP1 PUSH3 0x4F8 PUSH1 0x0 CODECOPY PUSH1 0x0 RETURN INVALID PUSH1 0x80 PUSH1 0x40 MSTORE PUSH1 0x4 CALLDATASIZE LT PUSH2 0x233 JUMPI PUSH1 0x0 CALLDATALOAD PUSH1 0xE0 SHR DUP1 PUSH4 0x7B78BC6B GT PUSH2 0x138 JUMPI DUP1 PUSH4 0xCE1B815F GT PUSH2 0xB0 JUMPI DUP1 PUSH4 0xE814DB59 GT PUSH2 0x7F JUMPI DUP1 PUSH4 0xF4B16045 GT PUSH2 0x64 JUMPI DUP1 PUSH4 0xF4B16045 EQ PUSH2 0x72E JUMPI DUP1 PUSH4 0xF85BAE78 EQ PUSH2 0x769 JUMPI DUP1 PUSH4 0xFDBD2E8B EQ PUSH2 0x7A4 JUMPI PUSH1 0x0 DUP1 REVERT JUMPDEST DUP1 PUSH4 0xE814DB59 EQ PUSH2 0x6EE JUMPI DUP1 PUSH4 0xF2FDE38B EQ PUSH2 0x70E JUMPI PUSH1 0x0 DUP1 REVERT JUMPDEST DUP1 PUSH4 0xCE1B815F EQ PUSH2 0x685 JUMPI DUP1 PUSH4 0xDC8452CD EQ PUSH2 0x6A3 JUMPI DUP1 PUSH4 0xE706D568 EQ PUSH2 0x6B9 JUMPI DUP1 PUSH4 0xE7E4F9D9 EQ PUSH2 0x6CE JUMPI PUSH1 0x0 DUP1 REVERT JUMPDEST DUP1 PUSH4 0x9A9DDD16 GT PUSH2 0x107 JUMPI DUP1 PUSH4 0x9FF34115 GT PUSH2 0xEC JUMPI DUP1 PUSH4 0x9FF34115 EQ PUSH2 0x632 JUMPI DUP1 PUSH4 0xC7A7275E EQ PUSH2 0x645 JUMPI DUP1 PUSH4 0xC8B6BA49 EQ PUSH2 0x665 JUMPI PUSH1 0x0 DUP1 REVERT JUMPDEST DUP1 PUSH4 0x9A9DDD16 EQ PUSH2 0x5E5 JUMPI DUP1 PUSH4 0x9C01A6DF EQ PUSH2 0x612 JUMPI PUSH1 0x0 DUP1 REVERT JUMPDEST DUP1 PUSH4 0x7B78BC6B EQ PUSH2 0x54C JUMPI DUP1 PUSH4 0x8FAC6371 EQ PUSH2 0x56C JUMPI DUP1 PUSH4 0x8FFF20F3 EQ PUSH2 0x5A2 JUMPI DUP1 PUSH4 0x90F8BA3C EQ PUSH2 0x5B8 JUMPI PUSH1 0x0 DUP1 REVERT JUMPDEST DUP1 PUSH4 0x4EA30B2F GT PUSH2 0x1CB JUMPI DUP1 PUSH4 0x5F81B606 GT PUSH2 0x19A JUMPI DUP1 PUSH4 0x66CC771F GT PUSH2 0x17F JUMPI DUP1 PUSH4 0x66CC771F EQ PUSH2 0x4CE JUMPI DUP1 PUSH4 0x73DE8CE8 EQ PUSH2 0x4FB JUMPI DUP1 PUSH4 0x75AE81B3 EQ PUSH2 0x511 JUMPI PUSH1 0x0 DUP1 REVERT JUMPDEST DUP1 PUSH4 0x5F81B606 EQ PUSH2 0x471 JUMPI DUP1 PUSH4 0x612536FC EQ PUSH2 0x4AC JUMPI PUSH1 0x0 DUP1 REVERT JUMPDEST DUP1 PUSH4 0x4EA30B2F EQ PUSH2 0x396 JUMPI DUP1 PUSH4 0x4EF8AB77 EQ PUSH2 0x3C7 JUMPI DUP1 PUSH4 0x50A7AC25 EQ PUSH2 0x42C JUMPI DUP1 PUSH4 0x572B6C05 EQ PUSH2 0x442 JUMPI PUSH1 0x0 DUP1 REVERT JUMPDEST DUP1 PUSH4 0x40CB3342 GT PUSH2 0x207 JUMPI DUP1 PUSH4 0x40CB3342 EQ PUSH2 0x31D JUMPI DUP1 PUSH4 0x476343EE EQ PUSH2 0x33F JUMPI DUP1 PUSH4 0x486FF0CD EQ PUSH2 0x354 JUMPI DUP1 PUSH4 0x4CA46D19 EQ PUSH2 0x376 JUMPI PUSH1 0x0 DUP1 REVERT JUMPDEST DUP1 PUSH3 0x1CFDCE EQ PUSH2 0x238 JUMPI DUP1 PUSH4 0x25E7C27 EQ PUSH2 0x278 JUMPI DUP1 PUSH4 0x143859EB EQ PUSH2 0x2B0 JUMPI DUP1 PUSH4 0x2F54BF6E EQ PUSH2 0x2DD JUMPI JUMPDEST PUSH1 0x0 DUP1 REVERT JUMPDEST CALLVALUE DUP1 ISZERO PUSH2 0x244 JUMPI PUSH1 0x0 DUP1 REVERT JUMPDEST POP PUSH2 0x265 PUSH2 0x253 CALLDATASIZE PUSH1 0x4 PUSH2 0x2D0D JUMP JUMPDEST PUSH1 0xD PUSH1 0x20 MSTORE PUSH1 0x0 SWAP1 DUP2 MSTORE PUSH1 0x40 SWAP1 KECCAK256 SLOAD DUP2 JUMP JUMPDEST PUSH1 0x40 MLOAD SWAP1 DUP2 MSTORE PUSH1 0x20 ADD JUMPDEST PUSH1 0x40 MLOAD DUP1 SWAP2 SUB SWAP1 RETURN JUMPDEST CALLVALUE DUP1 ISZERO PUSH2 0x284 JUMPI PUSH1 0x0 DUP1 REVERT JUMPDEST POP PUSH2 0x298 PUSH2 0x293 CALLDATASIZE PUSH1 0x4 PUSH2 0x2D2F JUMP JUMPDEST PUSH2 0x7D4 JUMP JUMPDEST PUSH1 0x40 MLOAD PUSH1 0x1 PUSH1 0x1 PUSH1 0xA0 SHL SUB SWAP1 SWAP2 AND DUP2 MSTORE PUSH1 0x20 ADD PUSH2 0x26F JUMP JUMPDEST CALLVALUE DUP1 ISZERO PUSH2 0x2BC JUMPI PUSH1 0x0 DUP1 REVERT JUMPDEST POP PUSH2 0x265 PUSH2 0x2CB CALLDATASIZE PUSH1 0x4 PUSH2 0x2D0D JUMP JUMPDEST PUSH1 0x11 PUSH1 0x20 MSTORE PUSH1 0x0 SWAP1 DUP2 MSTORE PUSH1 0x40 SWAP1 KECCAK256 SLOAD DUP2 JUMP JUMPDEST CALLVALUE DUP1 ISZERO PUSH2 0x2E9 JUMPI PUSH1 0x0 DUP1 REVERT JUMPDEST POP PUSH2 0x30D PUSH2 0x2F8 CALLDATASIZE PUSH1 0x4 PUSH2 0x2D0D JUMP JUMPDEST PUSH1 0x4 PUSH1 0x20 MSTORE PUSH1 0x0 SWAP1 DUP2 MSTORE PUSH1 0x40 SWAP1 KECCAK256 SLOAD PUSH1 0xFF AND DUP2 JUMP JUMPDEST PUSH1 0x40 MLOAD SWAP1 ISZERO ISZERO DUP2 MSTORE PUSH1 0x20 ADD PUSH2 0x26F JUMP JUMPDEST CALLVALUE DUP1 ISZERO PUSH2 0x329 JUMPI PUSH1 0x0 DUP1 REVERT JUMPDEST POP PUSH2 0x33D PUSH2 0x338 CALLDATASIZE PUSH1 0x4 PUSH2 0x2D48 JUMP JUMPDEST PUSH2 0x7FE JUMP JUMPDEST STOP JUMPDEST CALLVALUE DUP1 ISZERO PUSH2 0x34B JUMPI PUSH1 0x0 DUP1 REVERT JUMPDEST POP PUSH2 0x33D PUSH2 0xB60 JUMP JUMPDEST CALLVALUE DUP1 ISZERO PUSH2 0x360 JUMPI PUSH1 0x0 DUP1 REVERT JUMPDEST POP PUSH2 0x369 PUSH2 0xCB6 JUMP JUMPDEST PUSH1 0x40 MLOAD PUSH2 0x26F SWAP2 SWAP1 PUSH2 0x2DB7 JUMP JUMPDEST CALLVALUE DUP1 ISZERO PUSH2 0x382 JUMPI PUSH1 0x0 DUP1 REVERT JUMPDEST POP PUSH2 0x33D PUSH2 0x391 CALLDATASIZE PUSH1 0x4 PUSH2 0x2D2F JUMP JUMPDEST PUSH2 0xD44 JUMP JUMPDEST CALLVALUE DUP1 ISZERO PUSH2 0x3A2 JUMPI PUSH1 0x0 DUP1 REVERT JUMPDEST POP PUSH2 0x3B6 PUSH2 0x3B1 CALLDATASIZE PUSH1 0x4 PUSH2 0x2D2F JUMP JUMPDEST PUSH2 0x11A1 JUMP JUMPDEST PUSH1 0x40 MLOAD PUSH2 0x26F SWAP6 SWAP5 SWAP4 SWAP3 SWAP2 SWAP1 PUSH2 0x2DCA JUMP JUMPDEST CALLVALUE DUP1 ISZERO PUSH2 0x3D3 JUMPI PUSH1 0x0 DUP1 REVERT JUMPDEST POP PUSH2 0x3E7 PUSH2 0x3E2 CALLDATASIZE PUSH1 0x4 PUSH2 0x2D2F JUMP JUMPDEST PUSH2 0x1272 JUMP JUMPDEST PUSH1 0x40 DUP1 MLOAD SWAP9 DUP10 MSTORE PUSH1 0x1 PUSH1 0x1 PUSH1 0xA0 SHL SUB SWAP1 SWAP8 AND PUSH1 0x20 DUP10 ADD MSTORE SWAP6 DUP8 ADD SWAP5 SWAP1 SWAP5 MSTORE SWAP2 ISZERO ISZERO PUSH1 0x60 DUP7 ADD MSTORE ISZERO ISZERO PUSH1 0x80 DUP6 ADD MSTORE PUSH1 0xA0 DUP5 ADD MSTORE PUSH1 0xC0 DUP4 ADD MSTORE PUSH1 0xE0 DUP3 ADD MSTORE PUSH2 0x100 ADD PUSH2 0x26F JUMP JUMPDEST CALLVALUE DUP1 ISZERO PUSH2 0x438 JUMPI PUSH1 0x0 DUP1 REVERT JUMPDEST POP PUSH2 0x265 PUSH1 0x13 SLOAD DUP2 JUMP JUMPDEST CALLVALUE DUP1 ISZERO PUSH2 0x44E JUMPI PUSH1 0x0 DUP1 REVERT JUMPDEST POP PUSH2 0x30D PUSH2 0x45D CALLDATASIZE PUSH1 0x4 PUSH2 0x2D0D JUMP JUMPDEST PUSH1 0x0 SLOAD PUSH1 0x1 PUSH1 0x1 PUSH1 0xA0 SHL SUB SWAP2 DUP3 AND SWAP2 AND EQ SWAP1 JUMP JUMPDEST CALLVALUE DUP1 ISZERO PUSH2 0x47D JUMPI PUSH1 0x0 DUP1 REVERT JUMPDEST POP PUSH2 0x30D PUSH2 0x48C CALLDATASIZE PUSH1 0x4 PUSH2 0x2E03 JUMP JUMPDEST PUSH1 0x7 PUSH1 0x20 SWAP1 DUP2 MSTORE PUSH1 0x0 SWAP3 DUP4 MSTORE PUSH1 0x40 DUP1 DUP5 KECCAK256 SWAP1 SWAP2 MSTORE SWAP1 DUP3 MSTORE SWAP1 KECCAK256 SLOAD PUSH1 0xFF AND DUP2 JUMP JUMPDEST CALLVALUE DUP1 ISZERO PUSH2 0x4B8 JUMPI PUSH1 0x0 DUP1 REVERT JUMPDEST POP PUSH2 0x4C1 PUSH2 0x12D6 JUMP JUMPDEST PUSH1 0x40 MLOAD PUSH2 0x26F SWAP2 SWAP1 PUSH2 0x2E36 JUMP JUMPDEST CALLVALUE DUP1 ISZERO PUSH2 0x4DA JUMPI PUSH1 0x0 DUP1 REVERT JUMPDEST POP PUSH2 0x265 PUSH2 0x4E9 CALLDATASIZE PUSH1 0x4 PUSH2 0x2D0D JUMP JUMPDEST PUSH1 0xF PUSH1 0x20 MSTORE PUSH1 0x0 SWAP1 DUP2 MSTORE PUSH1 0x40 SWAP1 KECCAK256 SLOAD DUP2 JUMP JUMPDEST CALLVALUE DUP1 ISZERO PUSH2 0x507 JUMPI PUSH1 0x0 DUP1 REVERT JUMPDEST POP PUSH2 0x265 PUSH1 0x12 SLOAD DUP2 JUMP JUMPDEST CALLVALUE DUP1 ISZERO PUSH2 0x51D JUMPI PUSH1 0x0 DUP1 REVERT JUMPDEST POP PUSH2 0x30D PUSH2 0x52C CALLDATASIZE PUSH1 0x4 PUSH2 0x2E03 JUMP JUMPDEST PUSH1 0x8 PUSH1 0x20 SWAP1 DUP2 MSTORE PUSH1 0x0 SWAP3 DUP4 MSTORE PUSH1 0x40 DUP1 DUP5 KECCAK256 SWAP1 SWAP2 MSTORE SWAP1 DUP3 MSTORE SWAP1 KECCAK256 SLOAD PUSH1 0xFF AND DUP2 JUMP JUMPDEST CALLVALUE DUP1 ISZERO PUSH2 0x558 JUMPI PUSH1 0x0 DUP1 REVERT JUMPDEST POP PUSH2 0x369 PUSH2 0x567 CALLDATASIZE PUSH1 0x4 PUSH2 0x2D0D JUMP JUMPDEST PUSH2 0x1396 JUMP JUMPDEST CALLVALUE DUP1 ISZERO PUSH2 0x578 JUMPI PUSH1 0x0 DUP1 REVERT JUMPDEST POP PUSH2 0x298 PUSH2 0x587 CALLDATASIZE PUSH1 0x4 PUSH2 0x2D2F JUMP JUMPDEST PUSH1 0xC PUSH1 0x20 MSTORE PUSH1 0x0 SWAP1 DUP2 MSTORE PUSH1 0x40 SWAP1 KECCAK256 SLOAD PUSH1 0x1 PUSH1 0x1 PUSH1 0xA0 SHL SUB AND DUP2 JUMP JUMPDEST CALLVALUE DUP1 ISZERO PUSH2 0x5AE JUMPI PUSH1 0x0 DUP1 REVERT JUMPDEST POP PUSH2 0x265 PUSH1 0x2 SLOAD DUP2 JUMP JUMPDEST CALLVALUE DUP1 ISZERO PUSH2 0x5C4 JUMPI PUSH1 0x0 DUP1 REVERT JUMPDEST POP PUSH2 0x265 PUSH2 0x5D3 CALLDATASIZE PUSH1 0x4 PUSH2 0x2D0D JUMP JUMPDEST PUSH1 0x10 PUSH1 0x20 MSTORE PUSH1 0x0 SWAP1 DUP2 MSTORE PUSH1 0x40 SWAP1 KECCAK256 SLOAD DUP2 JUMP JUMPDEST CALLVALUE DUP1 ISZERO PUSH2 0x5F1 JUMPI PUSH1 0x0 DUP1 REVERT JUMPDEST POP PUSH2 0x265 PUSH2 0x600 CALLDATASIZE PUSH1 0x4 PUSH2 0x2D0D JUMP JUMPDEST PUSH1 0xE PUSH1 0x20 MSTORE PUSH1 0x0 SWAP1 DUP2 MSTORE PUSH1 0x40 SWAP1 KECCAK256 SLOAD DUP2 JUMP JUMPDEST CALLVALUE DUP1 ISZERO PUSH2 0x61E JUMPI PUSH1 0x0 DUP1 REVERT JUMPDEST POP PUSH2 0x3E7 PUSH2 0x62D CALLDATASIZE PUSH1 0x4 PUSH2 0x2D2F JUMP JUMPDEST PUSH2 0x152C JUMP JUMPDEST PUSH2 0x33D PUSH2 0x640 CALLDATASIZE PUSH1 0x4 PUSH2 0x2D2F JUMP JUMPDEST PUSH2 0x153C JUMP JUMPDEST CALLVALUE DUP1 ISZERO PUSH2 0x651 JUMPI PUSH1 0x0 DUP1 REVERT JUMPDEST POP PUSH2 0x33D PUSH2 0x660 CALLDATASIZE PUSH1 0x4 PUSH2 0x2D2F JUMP JUMPDEST PUSH2 0x192C JUMP JUMPDEST CALLVALUE DUP1 ISZERO PUSH2 0x671 JUMPI PUSH1 0x0 DUP1 REVERT JUMPDEST POP PUSH2 0x33D PUSH2 0x680 CALLDATASIZE PUSH1 0x4 PUSH2 0x2EE6 JUMP JUMPDEST PUSH2 0x1F1D JUMP JUMPDEST CALLVALUE DUP1 ISZERO PUSH2 0x691 JUMPI PUSH1 0x0 DUP1 REVERT JUMPDEST POP PUSH1 0x0 SLOAD PUSH1 0x1 PUSH1 0x1 PUSH1 0xA0 SHL SUB AND PUSH2 0x298 JUMP JUMPDEST CALLVALUE DUP1 ISZERO PUSH2 0x6AF JUMPI PUSH1 0x0 DUP1 REVERT JUMPDEST POP PUSH2 0x265 PUSH1 0x1 SLOAD DUP2 JUMP JUMPDEST CALLVALUE DUP1 ISZERO PUSH2 0x6C5 JUMPI PUSH1 0x0 DUP1 REVERT JUMPDEST POP PUSH2 0x4C1 PUSH2 0x246A JUMP JUMPDEST CALLVALUE DUP1 ISZERO PUSH2 0x6DA JUMPI PUSH1 0x0 DUP1 REVERT JUMPDEST POP PUSH2 0x33D PUSH2 0x6E9 CALLDATASIZE PUSH1 0x4 PUSH2 0x2D48 JUMP JUMPDEST PUSH2 0x257D JUMP JUMPDEST CALLVALUE DUP1 ISZERO PUSH2 0x6FA JUMPI PUSH1 0x0 DUP1 REVERT JUMPDEST POP PUSH2 0x33D PUSH2 0x709 CALLDATASIZE PUSH1 0x4 PUSH2 0x2D2F JUMP JUMPDEST PUSH2 0x2832 JUMP JUMPDEST CALLVALUE DUP1 ISZERO PUSH2 0x71A JUMPI PUSH1 0x0 DUP1 REVERT JUMPDEST POP PUSH2 0x33D PUSH2 0x729 CALLDATASIZE PUSH1 0x4 PUSH2 0x2D0D JUMP JUMPDEST PUSH2 0x2898 JUMP JUMPDEST CALLVALUE DUP1 ISZERO PUSH2 0x73A JUMPI PUSH1 0x0 DUP1 REVERT JUMPDEST POP PUSH2 0x30D PUSH2 0x749 CALLDATASIZE PUSH1 0x4 PUSH2 0x2E03 JUMP JUMPDEST PUSH1 0x5 PUSH1 0x20 SWAP1 DUP2 MSTORE PUSH1 0x0 SWAP3 DUP4 MSTORE PUSH1 0x40 DUP1 DUP5 KECCAK256 SWAP1 SWAP2 MSTORE SWAP1 DUP3 MSTORE SWAP1 KECCAK256 SLOAD PUSH1 0xFF AND DUP2 JUMP JUMPDEST CALLVALUE DUP1 ISZERO PUSH2 0x775 JUMPI PUSH1 0x0 DUP1 REVERT JUMPDEST POP PUSH2 0x30D PUSH2 0x784 CALLDATASIZE PUSH1 0x4 PUSH2 0x2E03 JUMP JUMPDEST PUSH1 0x6 PUSH1 0x20 SWAP1 DUP2 MSTORE PUSH1 0x0 SWAP3 DUP4 MSTORE PUSH1 0x40 DUP1 DUP5 KECCAK256 SWAP1 SWAP2 MSTORE SWAP1 DUP3 MSTORE SWAP1 KECCAK256 SLOAD PUSH1 0xFF AND DUP2 JUMP JUMPDEST CALLVALUE DUP1 ISZERO PUSH2 0x7B0 JUMPI PUSH1 0x0 DUP1 REVERT JUMPDEST POP PUSH2 0x30D PUSH2 0x7BF CALLDATASIZE PUSH1 0x4 PUSH2 0x2D0D JUMP JUMPDEST PUSH1 0xB PUSH1 0x20 MSTORE PUSH1 0x0 SWAP1 DUP2 MSTORE PUSH1 0x40 SWAP1 KECCAK256 SLOAD PUSH1 0xFF AND DUP2 JUMP JUMPDEST PUSH1 0x3 DUP2 DUP2 SLOAD DUP2 LT PUSH2 0x7E4 JUMPI PUSH1 0x0 DUP1 REVERT JUMPDEST PUSH1 0x0 SWAP2 DUP3 MSTORE PUSH1 0x20 SWAP1 SWAP2 KECCAK256 ADD SLOAD PUSH1 0x1 PUSH1 0x1 PUSH1 0xA0 SHL SUB AND SWAP1 POP DUP2 JUMP JUMPDEST PUSH1 0x4 PUSH1 0x0 PUSH2 0x80A PUSH2 0x299D JUMP JUMPDEST PUSH1 0x1 PUSH1 0x1 PUSH1 0xA0 SHL SUB AND DUP2 MSTORE PUSH1 0x20 DUP2 ADD SWAP2 SWAP1 SWAP2 MSTORE PUSH1 0x40 ADD PUSH1 0x0 KECCAK256 SLOAD PUSH1 0xFF AND PUSH2 0x864 JUMPI PUSH1 0x40 MLOAD PUSH3 0x461BCD PUSH1 0xE5 SHL DUP2 MSTORE PUSH1 0x20 PUSH1 0x4 DUP3 ADD MSTORE PUSH1 0x9 PUSH1 0x24 DUP3 ADD MSTORE PUSH9 0x2737BA1027BBB732B9 PUSH1 0xB9 SHL PUSH1 0x44 DUP3 ADD MSTORE PUSH1 0x64 ADD JUMPDEST PUSH1 0x40 MLOAD DUP1 SWAP2 SUB SWAP1 REVERT JUMPDEST PUSH1 0x0 DUP3 DUP2 MSTORE PUSH1 0xC PUSH1 0x20 SWAP1 DUP2 MSTORE PUSH1 0x40 DUP1 DUP4 KECCAK256 SLOAD PUSH1 0x1 PUSH1 0x1 PUSH1 0xA0 SHL SUB AND DUP4 MSTORE PUSH1 0xB SWAP1 SWAP2 MSTORE SWAP1 KECCAK256 SLOAD PUSH1 0xFF AND PUSH2 0x8D8 JUMPI PUSH1 0x40 MLOAD PUSH3 0x461BCD PUSH1 0xE5 SHL DUP2 MSTORE PUSH1 0x20 PUSH1 0x4 DUP3 ADD MSTORE PUSH1 0xE PUSH1 0x24 DUP3 ADD MSTORE PUSH32 0x4E6F7420612050726F73756D6572000000000000000000000000000000000000 PUSH1 0x44 DUP3 ADD MSTORE PUSH1 0x64 ADD PUSH2 0x85B JUMP JUMPDEST PUSH1 0x0 DUP3 DUP2 MSTORE PUSH1 0xC PUSH1 0x20 SWAP1 DUP2 MSTORE PUSH1 0x40 DUP1 DUP4 KECCAK256 SLOAD PUSH1 0x1 PUSH1 0x1 PUSH1 0xA0 SHL SUB AND DUP4 MSTORE PUSH1 0x8 SWAP1 SWAP2 MSTORE DUP2 KECCAK256 SWAP1 PUSH2 0x905 PUSH2 0x299D JUMP JUMPDEST PUSH1 0x1 PUSH1 0x1 PUSH1 0xA0 SHL SUB AND DUP2 MSTORE PUSH1 0x20 DUP2 ADD SWAP2 SWAP1 SWAP2 MSTORE PUSH1 0x40 ADD PUSH1 0x0 KECCAK256 SLOAD PUSH1 0xFF AND ISZERO PUSH2 0x96F JUMPI PUSH1 0x40 MLOAD PUSH3 0x461BCD PUSH1 0xE5 SHL DUP2 MSTORE PUSH1 0x20 PUSH1 0x4 DUP3 ADD MSTORE PUSH1 0x13 PUSH1 0x24 DUP3 ADD MSTORE PUSH32 0x416C726561647920556E73757370656E64656400000000000000000000000000 PUSH1 0x44 DUP3 ADD MSTORE PUSH1 0x64 ADD PUSH2 0x85B JUMP JUMPDEST PUSH1 0x0 DUP3 DUP2 MSTORE PUSH1 0xC PUSH1 0x20 SWAP1 DUP2 MSTORE PUSH1 0x40 DUP1 DUP4 KECCAK256 SLOAD PUSH1 0x1 PUSH1 0x1 PUSH1 0xA0 SHL SUB AND DUP1 DUP5 MSTORE PUSH1 0x8 SWAP1 SWAP3 MSTORE DUP3 KECCAK256 SWAP1 SWAP2 PUSH1 0x1 SWAP2 SWAP1 PUSH2 0x9A2 PUSH2 0x299D JUMP JUMPDEST PUSH1 0x1 PUSH1 0x1 PUSH1 0xA0 SHL SUB SWAP1 DUP2 AND DUP3 MSTORE PUSH1 0x20 DUP1 DUP4 ADD SWAP4 SWAP1 SWAP4 MSTORE PUSH1 0x40 SWAP2 DUP3 ADD PUSH1 0x0 SWAP1 DUP2 KECCAK256 DUP1 SLOAD PUSH1 0xFF NOT AND SWAP6 ISZERO ISZERO SWAP6 SWAP1 SWAP6 OR SWAP1 SWAP5 SSTORE DUP5 AND DUP4 MSTORE PUSH1 0x7 SWAP1 SWAP2 MSTORE DUP2 KECCAK256 SWAP1 PUSH2 0x9E6 PUSH2 0x299D JUMP JUMPDEST PUSH1 0x1 PUSH1 0x1 PUSH1 0xA0 SHL SUB AND DUP2 MSTORE PUSH1 0x20 DUP2 ADD SWAP2 SWAP1 SWAP2 MSTORE PUSH1 0x40 ADD PUSH1 0x0 KECCAK256 SLOAD PUSH1 0xFF AND ISZERO PUSH2 0xA76 JUMPI PUSH1 0x1 PUSH1 0x1 PUSH1 0xA0 SHL SUB DUP2 AND PUSH1 0x0 SWAP1 DUP2 MSTORE PUSH1 0x7 PUSH1 0x20 MSTORE PUSH1 0x40 DUP2 KECCAK256 DUP2 PUSH2 0xA29 PUSH2 0x299D JUMP JUMPDEST PUSH1 0x1 PUSH1 0x1 PUSH1 0xA0 SHL SUB SWAP1 DUP2 AND DUP3 MSTORE PUSH1 0x20 DUP1 DUP4 ADD SWAP4 SWAP1 SWAP4 MSTORE PUSH1 0x40 SWAP2 DUP3 ADD PUSH1 0x0 SWAP1 DUP2 KECCAK256 DUP1 SLOAD PUSH1 0xFF NOT AND SWAP6 ISZERO ISZERO SWAP6 SWAP1 SWAP6 OR SWAP1 SWAP5 SSTORE DUP5 AND DUP4 MSTORE PUSH1 0x10 SWAP1 SWAP2 MSTORE DUP2 KECCAK256 DUP1 SLOAD SWAP2 PUSH2 0xA70 DUP4 PUSH2 0x2FB7 JUMP JUMPDEST SWAP2 SWAP1 POP SSTORE POP JUMPDEST PUSH1 0x1 PUSH1 0x1 PUSH1 0xA0 SHL SUB DUP2 AND PUSH1 0x0 SWAP1 DUP2 MSTORE PUSH1 0x11 PUSH1 0x20 MSTORE PUSH1 0x40 DUP2 KECCAK256 DUP1 SLOAD SWAP1 DUP3 PUSH2 0xA9B DUP4 PUSH2 0x2FCE JUMP JUMPDEST SWAP2 SWAP1 POP SSTORE SWAP1 POP PUSH1 0x1 SLOAD DUP2 GT ISZERO PUSH2 0xB5A JUMPI PUSH1 0x1 PUSH1 0x1 PUSH1 0xA0 SHL SUB DUP3 AND PUSH1 0x0 SWAP1 DUP2 MSTORE PUSH1 0x11 PUSH1 0x20 SWAP1 DUP2 MSTORE PUSH1 0x40 DUP1 DUP4 KECCAK256 DUP4 SWAP1 SSTORE PUSH1 0x10 SWAP1 SWAP2 MSTORE DUP2 KECCAK256 DUP2 SWAP1 SSTORE PUSH1 0x9 PUSH2 0xAE0 PUSH1 0x1 DUP8 PUSH2 0x2FE9 JUMP JUMPDEST DUP2 SLOAD DUP2 LT PUSH2 0xAF0 JUMPI PUSH2 0xAF0 PUSH2 0x3000 JUMP JUMPDEST PUSH1 0x0 SWAP2 DUP3 MSTORE PUSH1 0x20 SWAP1 SWAP2 KECCAK256 PUSH1 0x3 PUSH1 0x7 SWAP1 SWAP3 MUL ADD ADD DUP1 SLOAD SWAP2 ISZERO ISZERO PUSH2 0x100 MUL PUSH2 0xFF00 NOT SWAP1 SWAP3 AND SWAP2 SWAP1 SWAP2 OR SWAP1 SSTORE PUSH1 0x1 PUSH1 0x14 PUSH2 0xB27 DUP3 DUP7 PUSH2 0x2FE9 JUMP JUMPDEST DUP2 SLOAD DUP2 LT PUSH2 0xB37 JUMPI PUSH2 0xB37 PUSH2 0x3000 JUMP JUMPDEST PUSH1 0x0 SWAP2 DUP3 MSTORE PUSH1 0x20 SWAP1 SWAP2 KECCAK256 PUSH1 0x5 SWAP1 SWAP2 MUL ADD PUSH1 0x4 ADD DUP1 SLOAD PUSH1 0xFF NOT AND SWAP2 ISZERO ISZERO SWAP2 SWAP1 SWAP2 OR SWAP1 SSTORE JUMPDEST POP POP POP POP JUMP JUMPDEST PUSH1 0x4 PUSH1 0x0 PUSH2 0xB6C PUSH2 0x299D JUMP JUMPDEST PUSH1 0x1 PUSH1 0x1 PUSH1 0xA0 SHL SUB AND DUP2 MSTORE PUSH1 0x20 DUP2 ADD SWAP2 SWAP1 SWAP2 MSTORE PUSH1 0x40 ADD PUSH1 0x0 KECCAK256 SLOAD PUSH1 0xFF AND PUSH2 0xBC1 JUMPI PUSH1 0x40 MLOAD PUSH3 0x461BCD PUSH1 0xE5 SHL DUP2 MSTORE PUSH1 0x20 PUSH1 0x4 DUP3 ADD MSTORE PUSH1 0x9 PUSH1 0x24 DUP3 ADD MSTORE PUSH9 0x2737BA1027BBB732B9 PUSH1 0xB9 SHL PUSH1 0x44 DUP3 ADD MSTORE PUSH1 0x64 ADD PUSH2 0x85B JUMP JUMPDEST PUSH1 0x3 SLOAD PUSH1 0x0 SWAP1 PUSH2 0xBD1 SWAP1 SELFBALANCE PUSH2 0x302C JUMP JUMPDEST SWAP1 POP PUSH1 0x0 JUMPDEST PUSH1 0x3 SLOAD DUP2 LT ISZERO PUSH2 0xCB2 JUMPI PUSH1 0x0 PUSH1 0x3 DUP3 DUP2 SLOAD DUP2 LT PUSH2 0xBF5 JUMPI PUSH2 0xBF5 PUSH2 0x3000 JUMP JUMPDEST PUSH1 0x0 SWAP2 DUP3 MSTORE PUSH1 0x20 DUP3 KECCAK256 ADD SLOAD PUSH1 0x40 MLOAD PUSH1 0x1 PUSH1 0x1 PUSH1 0xA0 SHL SUB SWAP1 SWAP2 AND SWAP2 DUP6 SWAP2 SWAP1 DUP2 DUP2 DUP2 DUP6 DUP8 GAS CALL SWAP3 POP POP POP RETURNDATASIZE DUP1 PUSH1 0x0 DUP2 EQ PUSH2 0xC49 JUMPI PUSH1 0x40 MLOAD SWAP2 POP PUSH1 0x1F NOT PUSH1 0x3F RETURNDATASIZE ADD AND DUP3 ADD PUSH1 0x40 MSTORE RETURNDATASIZE DUP3 MSTORE RETURNDATASIZE PUSH1 0x0 PUSH1 0x20 DUP5 ADD RETURNDATACOPY PUSH2 0xC4E JUMP JUMPDEST PUSH1 0x60 SWAP2 POP JUMPDEST POP POP SWAP1 POP DUP1 PUSH2 0xC9F JUMPI PUSH1 0x40 MLOAD PUSH3 0x461BCD PUSH1 0xE5 SHL DUP2 MSTORE PUSH1 0x20 PUSH1 0x4 DUP3 ADD MSTORE PUSH1 0xB PUSH1 0x24 DUP3 ADD MSTORE PUSH32 0x43616C6C204661696C6564000000000000000000000000000000000000000000 PUSH1 0x44 DUP3 ADD MSTORE PUSH1 0x64 ADD PUSH2 0x85B JUMP JUMPDEST POP DUP1 PUSH2 0xCAA DUP2 PUSH2 0x2FCE JUMP JUMPDEST SWAP2 POP POP PUSH2 0xBD6 JUMP JUMPDEST POP POP JUMP JUMPDEST PUSH1 0x15 DUP1 SLOAD PUSH2 0xCC3 SWAP1 PUSH2 0x3040 JUMP JUMPDEST DUP1 PUSH1 0x1F ADD PUSH1 0x20 DUP1 SWAP2 DIV MUL PUSH1 0x20 ADD PUSH1 0x40 MLOAD SWAP1 DUP2 ADD PUSH1 0x40 MSTORE DUP1 SWAP3 SWAP2 SWAP1 DUP2 DUP2 MSTORE PUSH1 0x20 ADD DUP3 DUP1 SLOAD PUSH2 0xCEF SWAP1 PUSH2 0x3040 JUMP JUMPDEST DUP1 ISZERO PUSH2 0xD3C JUMPI DUP1 PUSH1 0x1F LT PUSH2 0xD11 JUMPI PUSH2 0x100 DUP1 DUP4 SLOAD DIV MUL DUP4 MSTORE SWAP2 PUSH1 0x20 ADD SWAP2 PUSH2 0xD3C JUMP JUMPDEST DUP3 ADD SWAP2 SWAP1 PUSH1 0x0 MSTORE PUSH1 0x20 PUSH1 0x0 KECCAK256 SWAP1 JUMPDEST DUP2 SLOAD DUP2 MSTORE SWAP1 PUSH1 0x1 ADD SWAP1 PUSH1 0x20 ADD DUP1 DUP4 GT PUSH2 0xD1F JUMPI DUP3 SWAP1 SUB PUSH1 0x1F AND DUP3 ADD SWAP2 JUMPDEST POP POP POP POP POP DUP2 JUMP JUMPDEST PUSH1 0x4 PUSH1 0x0 PUSH2 0xD50 PUSH2 0x299D JUMP JUMPDEST PUSH1 0x1 PUSH1 0x1 PUSH1 0xA0 SHL SUB AND DUP2 MSTORE PUSH1 0x20 DUP2 ADD SWAP2 SWAP1 SWAP2 MSTORE PUSH1 0x40 ADD PUSH1 0x0 KECCAK256 SLOAD PUSH1 0xFF AND PUSH2 0xDA5 JUMPI PUSH1 0x40 MLOAD PUSH3 0x461BCD PUSH1 0xE5 SHL DUP2 MSTORE PUSH1 0x20 PUSH1 0x4 DUP3 ADD MSTORE PUSH1 0x9 PUSH1 0x24 DUP3 ADD MSTORE PUSH9 0x2737BA1027BBB732B9 PUSH1 0xB9 SHL PUSH1 0x44 DUP3 ADD MSTORE PUSH1 0x64 ADD PUSH2 0x85B JUMP JUMPDEST PUSH1 0xA SLOAD DUP2 LT PUSH2 0xDF6 JUMPI PUSH1 0x40 MLOAD PUSH3 0x461BCD PUSH1 0xE5 SHL DUP2 MSTORE PUSH1 0x20 PUSH1 0x4 DUP3 ADD MSTORE PUSH1 0x1E PUSH1 0x24 DUP3 ADD MSTORE PUSH32 0x496E76616C696420556E617070726F7665642050726F73756D65722049440000 PUSH1 0x44 DUP3 ADD MSTORE PUSH1 0x64 ADD PUSH2 0x85B JUMP JUMPDEST PUSH1 0x6 PUSH1 0x0 PUSH1 0xA DUP4 DUP2 SLOAD DUP2 LT PUSH2 0xE0D JUMPI PUSH2 0xE0D PUSH2 0x3000 JUMP JUMPDEST PUSH1 0x0 SWAP2 DUP3 MSTORE PUSH1 0x20 DUP1 DUP4 KECCAK256 PUSH1 0x1 PUSH1 0x7 SWAP1 SWAP4 MUL ADD SWAP2 SWAP1 SWAP2 ADD SLOAD PUSH1 0x1 PUSH1 0x1 PUSH1 0xA0 SHL SUB AND DUP4 MSTORE DUP3 ADD SWAP3 SWAP1 SWAP3 MSTORE PUSH1 0x40 ADD DUP2 KECCAK256 SWAP1 PUSH2 0xE43 PUSH2 0x299D JUMP JUMPDEST PUSH1 0x1 PUSH1 0x1 PUSH1 0xA0 SHL SUB AND DUP2 MSTORE PUSH1 0x20 DUP2 ADD SWAP2 SWAP1 SWAP2 MSTORE PUSH1 0x40 ADD PUSH1 0x0 KECCAK256 SLOAD PUSH1 0xFF AND ISZERO PUSH2 0xED3 JUMPI PUSH1 0x40 MLOAD PUSH3 0x461BCD PUSH1 0xE5 SHL DUP2 MSTORE PUSH1 0x20 PUSH1 0x4 DUP3 ADD MSTORE PUSH1 0x23 PUSH1 0x24 DUP3 ADD MSTORE PUSH32 0x50726F73756D657220416C726561647920646973617070726F76656420627920 PUSH1 0x44 DUP3 ADD MSTORE PUSH32 0x796F750000000000000000000000000000000000000000000000000000000000 PUSH1 0x64 DUP3 ADD MSTORE PUSH1 0x84 ADD PUSH2 0x85B JUMP JUMPDEST PUSH1 0x1 PUSH1 0x6 PUSH1 0x0 PUSH1 0xA DUP5 DUP2 SLOAD DUP2 LT PUSH2 0xEEC JUMPI PUSH2 0xEEC PUSH2 0x3000 JUMP JUMPDEST PUSH1 0x0 SWAP2 DUP3 MSTORE PUSH1 0x20 DUP1 DUP4 KECCAK256 PUSH1 0x1 PUSH1 0x7 SWAP1 SWAP4 MUL ADD SWAP2 SWAP1 SWAP2 ADD SLOAD PUSH1 0x1 PUSH1 0x1 PUSH1 0xA0 SHL SUB AND DUP4 MSTORE DUP3 ADD SWAP3 SWAP1 SWAP3 MSTORE PUSH1 0x40 ADD DUP2 KECCAK256 SWAP1 PUSH2 0xF22 PUSH2 0x299D JUMP JUMPDEST PUSH1 0x1 PUSH1 0x1 PUSH1 0xA0 SHL SUB AND PUSH1 0x1 PUSH1 0x1 PUSH1 0xA0 SHL SUB AND DUP2 MSTORE PUSH1 0x20 ADD SWAP1 DUP2 MSTORE PUSH1 0x20 ADD PUSH1 0x0 KECCAK256 PUSH1 0x0 PUSH2 0x100 EXP DUP2 SLOAD DUP2 PUSH1 0xFF MUL NOT AND SWAP1 DUP4 ISZERO ISZERO MUL OR SWAP1 SSTORE POP PUSH1 0x6 PUSH1 0x0 PUSH1 0xA DUP4 DUP2 SLOAD DUP2 LT PUSH2 0xF70 JUMPI PUSH2 0xF70 PUSH2 0x3000 JUMP JUMPDEST PUSH1 0x0 SWAP2 DUP3 MSTORE PUSH1 0x20 DUP1 DUP4 KECCAK256 PUSH1 0x1 PUSH1 0x7 SWAP1 SWAP4 MUL ADD SWAP2 SWAP1 SWAP2 ADD SLOAD PUSH1 0x1 PUSH1 0x1 PUSH1 0xA0 SHL SUB AND DUP4 MSTORE DUP3 ADD SWAP3 SWAP1 SWAP3 MSTORE PUSH1 0x40 ADD DUP2 KECCAK256 SWAP1 PUSH2 0xFA6 PUSH2 0x299D JUMP JUMPDEST PUSH1 0x1 PUSH1 0x1 PUSH1 0xA0 SHL SUB AND DUP2 MSTORE PUSH1 0x20 DUP2 ADD SWAP2 SWAP1 SWAP2 MSTORE PUSH1 0x40 ADD PUSH1 0x0 KECCAK256 SLOAD PUSH1 0xFF AND ISZERO PUSH2 0x10A4 JUMPI PUSH1 0x0 PUSH1 0x5 PUSH1 0x0 PUSH1 0xA DUP5 DUP2 SLOAD DUP2 LT PUSH2 0xFE1 JUMPI PUSH2 0xFE1 PUSH2 0x3000 JUMP JUMPDEST PUSH1 0x0 SWAP2 DUP3 MSTORE PUSH1 0x20 DUP1 DUP4 KECCAK256 PUSH1 0x1 PUSH1 0x7 SWAP1 SWAP4 MUL ADD SWAP2 SWAP1 SWAP2 ADD SLOAD PUSH1 0x1 PUSH1 0x1 PUSH1 0xA0 SHL SUB AND DUP4 MSTORE DUP3 ADD SWAP3 SWAP1 SWAP3 MSTORE PUSH1 0x40 ADD DUP2 KECCAK256 SWAP1 PUSH2 0x1017 PUSH2 0x299D JUMP JUMPDEST PUSH1 0x1 PUSH1 0x1 PUSH1 0xA0 SHL SUB AND PUSH1 0x1 PUSH1 0x1 PUSH1 0xA0 SHL SUB AND DUP2 MSTORE PUSH1 0x20 ADD SWAP1 DUP2 MSTORE PUSH1 0x20 ADD PUSH1 0x0 KECCAK256 PUSH1 0x0 PUSH2 0x100 EXP DUP2 SLOAD DUP2 PUSH1 0xFF MUL NOT AND SWAP1 DUP4 ISZERO ISZERO MUL OR SWAP1 SSTORE POP PUSH1 0xE PUSH1 0x0 PUSH1 0xA DUP4 DUP2 SLOAD DUP2 LT PUSH2 0x1065 JUMPI PUSH2 0x1065 PUSH2 0x3000 JUMP JUMPDEST PUSH1 0x0 SWAP2 DUP3 MSTORE PUSH1 0x20 DUP1 DUP4 KECCAK256 PUSH1 0x1 PUSH1 0x7 SWAP1 SWAP4 MUL ADD SWAP2 SWAP1 SWAP2 ADD SLOAD PUSH1 0x1 PUSH1 0x1 PUSH1 0xA0 SHL SUB AND DUP4 MSTORE DUP3 ADD SWAP3 SWAP1 SWAP3 MSTORE PUSH1 0x40 ADD DUP2 KECCAK256 DUP1 SLOAD SWAP2 PUSH2 0x109E DUP4 PUSH2 0x2FB7 JUMP JUMPDEST SWAP2 SWAP1 POP SSTORE POP JUMPDEST PUSH1 0x0 PUSH1 0xF PUSH1 0x0 PUSH1 0xA DUP5 DUP2 SLOAD DUP2 LT PUSH2 0x10BD JUMPI PUSH2 0x10BD PUSH2 0x3000 JUMP JUMPDEST PUSH1 0x0 SWAP2 DUP3 MSTORE PUSH1 0x20 DUP1 DUP4 KECCAK256 PUSH1 0x1 PUSH1 0x7 SWAP1 SWAP4 MUL ADD SWAP2 SWAP1 SWAP2 ADD SLOAD PUSH1 0x1 PUSH1 0x1 PUSH1 0xA0 SHL SUB AND DUP4 MSTORE DUP3 ADD SWAP3 SWAP1 SWAP3 MSTORE PUSH1 0x40 ADD DUP2 KECCAK256 DUP1 SLOAD SWAP2 PUSH2 0x10F6 DUP4 PUSH2 0x2FCE JUMP JUMPDEST SWAP2 SWAP1 POP SSTORE SWAP1 POP PUSH1 0x1 SLOAD DUP2 GT ISZERO PUSH2 0xCB2 JUMPI PUSH2 0x110F DUP3 PUSH2 0x29D1 JUMP JUMPDEST PUSH1 0xF PUSH1 0x0 PUSH1 0xA DUP5 DUP2 SLOAD DUP2 LT PUSH2 0x1126 JUMPI PUSH2 0x1126 PUSH2 0x3000 JUMP JUMPDEST PUSH1 0x0 SWAP2 DUP3 MSTORE PUSH1 0x20 DUP1 DUP4 KECCAK256 PUSH1 0x1 PUSH1 0x7 SWAP1 SWAP4 MUL ADD SWAP2 SWAP1 SWAP2 ADD SLOAD PUSH1 0x1 PUSH1 0x1 PUSH1 0xA0 SHL SUB AND DUP4 MSTORE DUP3 ADD SWAP3 SWAP1 SWAP3 MSTORE PUSH1 0x40 ADD DUP2 KECCAK256 DUP2 SWAP1 SSTORE PUSH1 0xA DUP1 SLOAD PUSH1 0xE SWAP3 SWAP2 SWAP1 DUP6 SWAP1 DUP2 LT PUSH2 0x116F JUMPI PUSH2 0x116F PUSH2 0x3000 JUMP JUMPDEST PUSH1 0x0 SWAP2 DUP3 MSTORE PUSH1 0x20 DUP1 DUP4 KECCAK256 PUSH1 0x1 PUSH1 0x7 SWAP1 SWAP4 MUL ADD SWAP2 SWAP1 SWAP2 ADD SLOAD PUSH1 0x1 PUSH1 0x1 PUSH1 0xA0 SHL SUB AND DUP4 MSTORE DUP3 ADD SWAP3 SWAP1 SWAP3 MSTORE PUSH1 0x40 ADD DUP2 KECCAK256 SSTORE POP POP JUMP JUMPDEST PUSH1 0x14 DUP2 DUP2 SLOAD DUP2 LT PUSH2 0x11B1 JUMPI PUSH1 0x0 DUP1 REVERT JUMPDEST SWAP1 PUSH1 0x0 MSTORE PUSH1 0x20 PUSH1 0x0 KECCAK256 SWAP1 PUSH1 0x5 MUL ADD PUSH1 0x0 SWAP2 POP SWAP1 POP DUP1 PUSH1 0x0 ADD SLOAD SWAP1 DUP1 PUSH1 0x1 ADD SLOAD SWAP1 DUP1 PUSH1 0x2 ADD SLOAD SWAP1 DUP1 PUSH1 0x3 ADD DUP1 SLOAD PUSH2 0x11E6 SWAP1 PUSH2 0x3040 JUMP JUMPDEST DUP1 PUSH1 0x1F ADD PUSH1 0x20 DUP1 SWAP2 DIV MUL PUSH1 0x20 ADD PUSH1 0x40 MLOAD SWAP1 DUP2 ADD PUSH1 0x40 MSTORE DUP1 SWAP3 SWAP2 SWAP1 DUP2 DUP2 MSTORE PUSH1 0x20 ADD DUP3 DUP1 SLOAD PUSH2 0x1212 SWAP1 PUSH2 0x3040 JUMP JUMPDEST DUP1 ISZERO PUSH2 0x125F JUMPI DUP1 PUSH1 0x1F LT PUSH2 0x1234 JUMPI PUSH2 0x100 DUP1 DUP4 SLOAD DIV MUL DUP4 MSTORE SWAP2 PUSH1 0x20 ADD SWAP2 PUSH2 0x125F JUMP JUMPDEST DUP3 ADD SWAP2 SWAP1 PUSH1 0x0 MSTORE PUSH1 0x20 PUSH1 0x0 KECCAK256 SWAP1 JUMPDEST DUP2 SLOAD DUP2 MSTORE SWAP1 PUSH1 0x1 ADD SWAP1 PUSH1 0x20 ADD DUP1 DUP4 GT PUSH2 0x1242 JUMPI DUP3 SWAP1 SUB PUSH1 0x1F AND DUP3 ADD SWAP2 JUMPDEST POP POP POP PUSH1 0x4 SWAP1 SWAP4 ADD SLOAD SWAP2 SWAP3 POP POP PUSH1 0xFF AND DUP6 JUMP JUMPDEST PUSH1 0x9 DUP2 DUP2 SLOAD DUP2 LT PUSH2 0x1282 JUMPI PUSH1 0x0 DUP1 REVERT JUMPDEST PUSH1 0x0 SWAP2 DUP3 MSTORE PUSH1 0x20 SWAP1 SWAP2 KECCAK256 PUSH1 0x7 SWAP1 SWAP2 MUL ADD DUP1 SLOAD PUSH1 0x1 DUP3 ADD SLOAD PUSH1 0x2 DUP4 ADD SLOAD PUSH1 0x3 DUP5 ADD SLOAD PUSH1 0x4 DUP6 ADD SLOAD PUSH1 0x5 DUP7 ADD SLOAD PUSH1 0x6 SWAP1 SWAP7 ADD SLOAD SWAP5 SWAP7 POP PUSH1 0x1 PUSH1 0x1 PUSH1 0xA0 SHL SUB SWAP1 SWAP4 AND SWAP5 SWAP2 SWAP4 PUSH1 0xFF DUP1 DUP4 AND SWAP5 PUSH2 0x100 SWAP1 SWAP4 DIV AND SWAP3 SWAP1 DUP9 JUMP JUMPDEST PUSH1 0x60 PUSH1 0x9 DUP1 SLOAD DUP1 PUSH1 0x20 MUL PUSH1 0x20 ADD PUSH1 0x40 MLOAD SWAP1 DUP2 ADD PUSH1 0x40 MSTORE DUP1 SWAP3 SWAP2 SWAP1 DUP2 DUP2 MSTORE PUSH1 0x20 ADD PUSH1 0x0 SWAP1 JUMPDEST DUP3 DUP3 LT ISZERO PUSH2 0x138D JUMPI PUSH1 0x0 DUP5 DUP2 MSTORE PUSH1 0x20 SWAP1 DUP2 SWAP1 KECCAK256 PUSH1 0x40 DUP1 MLOAD PUSH2 0x100 DUP1 DUP3 ADD DUP4 MSTORE PUSH1 0x7 DUP8 MUL SWAP1 SWAP4 ADD DUP1 SLOAD DUP3 MSTORE PUSH1 0x1 DUP1 DUP3 ADD SLOAD PUSH1 0x1 PUSH1 0x1 PUSH1 0xA0 SHL SUB AND DUP4 DUP8 ADD MSTORE PUSH1 0x2 DUP3 ADD SLOAD SWAP4 DUP4 ADD SWAP4 SWAP1 SWAP4 MSTORE PUSH1 0x3 DUP2 ADD SLOAD PUSH1 0xFF DUP1 DUP3 AND ISZERO ISZERO PUSH1 0x60 DUP6 ADD MSTORE SWAP5 SWAP1 DIV SWAP1 SWAP4 AND ISZERO ISZERO PUSH1 0x80 DUP3 ADD MSTORE PUSH1 0x4 DUP4 ADD SLOAD PUSH1 0xA0 DUP3 ADD MSTORE PUSH1 0x5 DUP4 ADD SLOAD PUSH1 0xC0 DUP3 ADD MSTORE PUSH1 0x6 SWAP1 SWAP3 ADD SLOAD PUSH1 0xE0 DUP4 ADD MSTORE SWAP1 DUP4 MSTORE SWAP1 SWAP3 ADD SWAP2 ADD PUSH2 0x12FA JUMP JUMPDEST POP POP POP POP SWAP1 POP SWAP1 JUMP JUMPDEST PUSH1 0x60 PUSH1 0x4 PUSH1 0x0 PUSH2 0x13A4 PUSH2 0x299D JUMP JUMPDEST PUSH1 0x1 PUSH1 0x1 PUSH1 0xA0 SHL SUB AND DUP2 MSTORE PUSH1 0x20 DUP2 ADD SWAP2 SWAP1 SWAP2 MSTORE PUSH1 0x40 ADD PUSH1 0x0 KECCAK256 SLOAD PUSH1 0xFF AND PUSH2 0x13F9 JUMPI PUSH1 0x40 MLOAD PUSH3 0x461BCD PUSH1 0xE5 SHL DUP2 MSTORE PUSH1 0x20 PUSH1 0x4 DUP3 ADD MSTORE PUSH1 0x9 PUSH1 0x24 DUP3 ADD MSTORE PUSH9 0x2737BA1027BBB732B9 PUSH1 0xB9 SHL PUSH1 0x44 DUP3 ADD MSTORE PUSH1 0x64 ADD PUSH2 0x85B JUMP JUMPDEST PUSH1 0x1 PUSH1 0x1 PUSH1 0xA0 SHL SUB DUP3 AND PUSH1 0x0 SWAP1 DUP2 MSTORE PUSH1 0x5 PUSH1 0x20 MSTORE PUSH1 0x40 DUP2 KECCAK256 SWAP1 PUSH2 0x141A PUSH2 0x299D JUMP JUMPDEST PUSH1 0x1 PUSH1 0x1 PUSH1 0xA0 SHL SUB AND DUP2 MSTORE PUSH1 0x20 DUP2 ADD SWAP2 SWAP1 SWAP2 MSTORE PUSH1 0x40 ADD PUSH1 0x0 KECCAK256 SLOAD PUSH1 0xFF AND ISZERO PUSH2 0x1475 JUMPI POP POP PUSH1 0x40 DUP1 MLOAD DUP1 DUP3 ADD SWAP1 SWAP2 MSTORE PUSH1 0x11 DUP2 MSTORE PUSH32 0x50726F73756D657220417070726F766564000000000000000000000000000000 PUSH1 0x20 DUP3 ADD MSTORE SWAP1 JUMP JUMPDEST PUSH1 0x1 PUSH1 0x1 PUSH1 0xA0 SHL SUB DUP3 AND PUSH1 0x0 SWAP1 DUP2 MSTORE PUSH1 0x6 PUSH1 0x20 MSTORE PUSH1 0x40 DUP2 KECCAK256 SWAP1 PUSH2 0x1496 PUSH2 0x299D JUMP JUMPDEST PUSH1 0x1 PUSH1 0x1 PUSH1 0xA0 SHL SUB AND DUP2 MSTORE PUSH1 0x20 DUP2 ADD SWAP2 SWAP1 SWAP2 MSTORE PUSH1 0x40 ADD PUSH1 0x0 KECCAK256 SLOAD PUSH1 0xFF AND ISZERO PUSH2 0x14F1 JUMPI POP POP PUSH1 0x40 DUP1 MLOAD DUP1 DUP3 ADD SWAP1 SWAP2 MSTORE PUSH1 0x14 DUP2 MSTORE PUSH32 0x50726F73756D657220446973617070726F766564000000000000000000000000 PUSH1 0x20 DUP3 ADD MSTORE SWAP1 JUMP JUMPDEST POP PUSH1 0x40 DUP1 MLOAD DUP1 DUP3 ADD SWAP1 SWAP2 MSTORE PUSH1 0x19 DUP2 MSTORE PUSH32 0x50726F73756D6572204E6F742056657269666965642059657400000000000000 PUSH1 0x20 DUP3 ADD MSTORE JUMPDEST SWAP2 SWAP1 POP JUMP JUMPDEST PUSH1 0xA DUP2 DUP2 SLOAD DUP2 LT PUSH2 0x1282 JUMPI PUSH1 0x0 DUP1 REVERT JUMPDEST CALLER PUSH1 0x0 SWAP1 DUP2 MSTORE PUSH1 0x4 PUSH1 0x20 MSTORE PUSH1 0x40 SWAP1 KECCAK256 SLOAD PUSH1 0xFF AND ISZERO PUSH2 0x159C JUMPI PUSH1 0x40 MLOAD PUSH3 0x461BCD PUSH1 0xE5 SHL DUP2 MSTORE PUSH1 0x20 PUSH1 0x4 DUP3 ADD MSTORE PUSH1 0x10 PUSH1 0x24 DUP3 ADD MSTORE PUSH32 0x596F752061726520616E204F776E657200000000000000000000000000000000 PUSH1 0x44 DUP3 ADD MSTORE PUSH1 0x64 ADD PUSH2 0x85B JUMP JUMPDEST PUSH1 0x2 SLOAD CALLVALUE LT ISZERO PUSH2 0x1614 JUMPI PUSH1 0x40 MLOAD PUSH3 0x461BCD PUSH1 0xE5 SHL DUP2 MSTORE PUSH1 0x20 PUSH1 0x4 DUP3 ADD MSTORE PUSH1 0x25 PUSH1 0x24 DUP3 ADD MSTORE PUSH32 0x526567697374726174696F6E204661696C65642C20496E73756666696369656E PUSH1 0x44 DUP3 ADD MSTORE PUSH32 0x7420466565000000000000000000000000000000000000000000000000000000 PUSH1 0x64 DUP3 ADD MSTORE PUSH1 0x84 ADD PUSH2 0x85B JUMP JUMPDEST CALLER PUSH1 0x0 SWAP1 DUP2 MSTORE PUSH1 0xB PUSH1 0x20 MSTORE PUSH1 0x40 SWAP1 KECCAK256 SLOAD PUSH1 0xFF AND ISZERO PUSH2 0x169A JUMPI PUSH1 0x40 MLOAD PUSH3 0x461BCD PUSH1 0xE5 SHL DUP2 MSTORE PUSH1 0x20 PUSH1 0x4 DUP3 ADD MSTORE PUSH1 0x29 PUSH1 0x24 DUP3 ADD MSTORE PUSH32 0x596F752061726520616C726561647920612050726F73756D657220696E207468 PUSH1 0x44 DUP3 ADD MSTORE PUSH32 0x65204E6574776F726B0000000000000000000000000000000000000000000000 PUSH1 0x64 DUP3 ADD MSTORE PUSH1 0x84 ADD PUSH2 0x85B JUMP JUMPDEST PUSH2 0x16A2 PUSH2 0x2BF6 JUMP JUMPDEST ISZERO PUSH2 0x1715 JUMPI PUSH1 0x40 MLOAD PUSH3 0x461BCD PUSH1 0xE5 SHL DUP2 MSTORE PUSH1 0x20 PUSH1 0x4 DUP3 ADD MSTORE PUSH1 0x2B PUSH1 0x24 DUP3 ADD MSTORE PUSH32 0x596F75206861766520616C72656164792072657175657374656420666F722052 PUSH1 0x44 DUP3 ADD MSTORE PUSH32 0x6567697374726174696F6E000000000000000000000000000000000000000000 PUSH1 0x64 DUP3 ADD MSTORE PUSH1 0x84 ADD PUSH2 0x85B JUMP JUMPDEST DUP1 PUSH1 0x0 JUMPDEST DUP2 ISZERO PUSH2 0x173E JUMPI PUSH2 0x172A PUSH1 0xA DUP4 PUSH2 0x302C JUMP JUMPDEST SWAP2 POP DUP1 PUSH2 0x1736 DUP2 PUSH2 0x2FCE JUMP JUMPDEST SWAP2 POP POP PUSH2 0x1719 JUMP JUMPDEST DUP1 PUSH1 0xC EQ PUSH2 0x178E JUMPI PUSH1 0x40 MLOAD PUSH3 0x461BCD PUSH1 0xE5 SHL DUP2 MSTORE PUSH1 0x20 PUSH1 0x4 DUP3 ADD MSTORE PUSH1 0x1B PUSH1 0x24 DUP3 ADD MSTORE PUSH32 0x456E746572206120313220646967697420416164686172204E6F2E0000000000 PUSH1 0x44 DUP3 ADD MSTORE PUSH1 0x64 ADD PUSH2 0x85B JUMP JUMPDEST POP POP PUSH1 0x40 DUP1 MLOAD PUSH2 0x100 DUP1 DUP3 ADD DUP4 MSTORE PUSH1 0x0 DUP1 DUP4 MSTORE CALLER PUSH1 0x20 DUP5 ADD SWAP1 DUP2 MSTORE SWAP4 DUP4 ADD SWAP5 DUP6 MSTORE PUSH1 0x60 DUP4 ADD DUP2 DUP2 MSTORE PUSH1 0x80 DUP5 ADD DUP3 DUP2 MSTORE PUSH1 0xA0 DUP6 ADD DUP4 DUP2 MSTORE PUSH1 0xC0 DUP7 ADD DUP5 DUP2 MSTORE PUSH1 0xE0 DUP8 ADD DUP6 DUP2 MSTORE PUSH1 0xA DUP1 SLOAD PUSH1 0x1 DUP2 ADD DUP3 SSTORE SWAP7 MSTORE SWAP7 MLOAD PUSH32 0xC65A7BB8D6351C1CF70C95A316CC6A92839C986682D98BC35F958F4883F9D2A8 PUSH1 0x7 SWAP1 SWAP7 MUL SWAP6 DUP7 ADD SSTORE SWAP7 MLOAD PUSH32 0xC65A7BB8D6351C1CF70C95A316CC6A92839C986682D98BC35F958F4883F9D2A9 DUP6 ADD DUP1 SLOAD PUSH1 0x1 PUSH1 0x1 PUSH1 0xA0 SHL SUB NOT AND PUSH1 0x1 PUSH1 0x1 PUSH1 0xA0 SHL SUB SWAP1 SWAP3 AND SWAP2 SWAP1 SWAP2 OR SWAP1 SSTORE SWAP7 MLOAD PUSH32 0xC65A7BB8D6351C1CF70C95A316CC6A92839C986682D98BC35F958F4883F9D2AA DUP5 ADD SSTORE SWAP1 MLOAD PUSH32 0xC65A7BB8D6351C1CF70C95A316CC6A92839C986682D98BC35F958F4883F9D2AB DUP4 ADD DUP1 SLOAD SWAP3 MLOAD PUSH2 0xFFFF NOT SWAP1 SWAP4 AND SWAP2 ISZERO ISZERO PUSH2 0xFF00 NOT AND SWAP2 SWAP1 SWAP2 OR SWAP2 ISZERO ISZERO SWAP1 SWAP4 MUL OR SWAP1 SWAP2 SSTORE SWAP3 MLOAD PUSH32 0xC65A7BB8D6351C1CF70C95A316CC6A92839C986682D98BC35F958F4883F9D2AC DUP5 ADD SSTORE SWAP1 MLOAD PUSH32 0xC65A7BB8D6351C1CF70C95A316CC6A92839C986682D98BC35F958F4883F9D2AD DUP4 ADD SSTORE MLOAD PUSH32 0xC65A7BB8D6351C1CF70C95A316CC6A92839C986682D98BC35F958F4883F9D2AE SWAP1 SWAP2 ADD SSTORE JUMP JUMPDEST PUSH1 0x4 PUSH1 0x0 PUSH2 0x1938 PUSH2 0x299D JUMP JUMPDEST PUSH1 0x1 PUSH1 0x1 PUSH1 0xA0 SHL SUB AND DUP2 MSTORE PUSH1 0x20 DUP2 ADD SWAP2 SWAP1 SWAP2 MSTORE PUSH1 0x40 ADD PUSH1 0x0 KECCAK256 SLOAD PUSH1 0xFF AND PUSH2 0x198D JUMPI PUSH1 0x40 MLOAD PUSH3 0x461BCD PUSH1 0xE5 SHL DUP2 MSTORE PUSH1 0x20 PUSH1 0x4 DUP3 ADD MSTORE PUSH1 0x9 PUSH1 0x24 DUP3 ADD MSTORE PUSH9 0x2737BA1027BBB732B9 PUSH1 0xB9 SHL PUSH1 0x44 DUP3 ADD MSTORE PUSH1 0x64 ADD PUSH2 0x85B JUMP JUMPDEST PUSH1 0xA SLOAD DUP2 LT PUSH2 0x19DE JUMPI PUSH1 0x40 MLOAD PUSH3 0x461BCD PUSH1 0xE5 SHL DUP2 MSTORE PUSH1 0x20 PUSH1 0x4 DUP3 ADD MSTORE PUSH1 0x1E PUSH1 0x24 DUP3 ADD MSTORE PUSH32 0x496E76616C696420556E617070726F7665642050726F73756D65722049440000 PUSH1 0x44 DUP3 ADD MSTORE PUSH1 0x64 ADD PUSH2 0x85B JUMP JUMPDEST PUSH1 0x5 PUSH1 0x0 PUSH1 0xA DUP4 DUP2 SLOAD DUP2 LT PUSH2 0x19F5 JUMPI PUSH2 0x19F5 PUSH2 0x3000 JUMP JUMPDEST PUSH1 0x0 SWAP2 DUP3 MSTORE PUSH1 0x20 DUP1 DUP4 KECCAK256 PUSH1 0x1 PUSH1 0x7 SWAP1 SWAP4 MUL ADD SWAP2 SWAP1 SWAP2 ADD SLOAD PUSH1 0x1 PUSH1 0x1 PUSH1 0xA0 SHL SUB AND DUP4 MSTORE DUP3 ADD SWAP3 SWAP1 SWAP3 MSTORE PUSH1 0x40 ADD DUP2 KECCAK256 SWAP1 PUSH2 0x1A2B PUSH2 0x299D JUMP JUMPDEST PUSH1 0x1 PUSH1 0x1 PUSH1 0xA0 SHL SUB AND DUP2 MSTORE PUSH1 0x20 DUP2 ADD SWAP2 SWAP1 SWAP2 MSTORE PUSH1 0x40 ADD PUSH1 0x0 KECCAK256 SLOAD PUSH1 0xFF AND ISZERO PUSH2 0x1A95 JUMPI PUSH1 0x40 MLOAD PUSH3 0x461BCD PUSH1 0xE5 SHL DUP2 MSTORE PUSH1 0x20 PUSH1 0x4 DUP3 ADD DUP2 SWAP1 MSTORE PUSH1 0x24 DUP3 ADD MSTORE PUSH32 0x50726F73756D657220416C726561647920617070726F76656420627920796F75 PUSH1 0x44 DUP3 ADD MSTORE PUSH1 0x64 ADD PUSH2 0x85B JUMP JUMPDEST PUSH1 0x1 PUSH1 0x5 PUSH1 0x0 PUSH1 0xA DUP5 DUP2 SLOAD DUP2 LT PUSH2 0x1AAE JUMPI PUSH2 0x1AAE PUSH2 0x3000 JUMP JUMPDEST PUSH1 0x0 SWAP2 DUP3 MSTORE PUSH1 0x20 DUP1 DUP4 KECCAK256 PUSH1 0x1 PUSH1 0x7 SWAP1 SWAP4 MUL ADD SWAP2 SWAP1 SWAP2 ADD SLOAD PUSH1 0x1 PUSH1 0x1 PUSH1 0xA0 SHL SUB AND DUP4 MSTORE DUP3 ADD SWAP3 SWAP1 SWAP3 MSTORE PUSH1 0x40 ADD DUP2 KECCAK256 SWAP1 PUSH2 0x1AE4 PUSH2 0x299D JUMP JUMPDEST PUSH1 0x1 PUSH1 0x1 PUSH1 0xA0 SHL SUB AND PUSH1 0x1 PUSH1 0x1 PUSH1 0xA0 SHL SUB AND DUP2 MSTORE PUSH1 0x20 ADD SWAP1 DUP2 MSTORE PUSH1 0x20 ADD PUSH1 0x0 KECCAK256 PUSH1 0x0 PUSH2 0x100 EXP DUP2 SLOAD DUP2 PUSH1 0xFF MUL NOT AND SWAP1 DUP4 ISZERO ISZERO MUL OR SWAP1 SSTORE POP PUSH1 0x6 PUSH1 0x0 PUSH1 0xA DUP4 DUP2 SLOAD DUP2 LT PUSH2 0x1B32 JUMPI PUSH2 0x1B32 PUSH2 0x3000 JUMP JUMPDEST PUSH1 0x0 SWAP2 DUP3 MSTORE PUSH1 0x20 DUP1 DUP4 KECCAK256 PUSH1 0x1 PUSH1 0x7 SWAP1 SWAP4 MUL ADD SWAP2 SWAP1 SWAP2 ADD SLOAD PUSH1 0x1 PUSH1 0x1 PUSH1 0xA0 SHL SUB AND DUP4 MSTORE DUP3 ADD SWAP3 SWAP1 SWAP3 MSTORE PUSH1 0x40 ADD DUP2 KECCAK256 SWAP1 PUSH2 0x1B68 PUSH2 0x299D JUMP JUMPDEST PUSH1 0x1 PUSH1 0x1 PUSH1 0xA0 SHL SUB AND DUP2 MSTORE PUSH1 0x20 DUP2 ADD SWAP2 SWAP1 SWAP2 MSTORE PUSH1 0x40 ADD PUSH1 0x0 KECCAK256 SLOAD PUSH1 0xFF AND ISZERO PUSH2 0x1C66 JUMPI PUSH1 0x0 PUSH1 0x6 PUSH1 0x0 PUSH1 0xA DUP5 DUP2 SLOAD DUP2 LT PUSH2 0x1BA3 JUMPI PUSH2 0x1BA3 PUSH2 0x3000 JUMP JUMPDEST PUSH1 0x0 SWAP2 DUP3 MSTORE PUSH1 0x20 DUP1 DUP4 KECCAK256 PUSH1 0x1 PUSH1 0x7 SWAP1 SWAP4 MUL ADD SWAP2 SWAP1 SWAP2 ADD SLOAD PUSH1 0x1 PUSH1 0x1 PUSH1 0xA0 SHL SUB AND DUP4 MSTORE DUP3 ADD SWAP3 SWAP1 SWAP3 MSTORE PUSH1 0x40 ADD DUP2 KECCAK256 SWAP1 PUSH2 0x1BD9 PUSH2 0x299D JUMP JUMPDEST PUSH1 0x1 PUSH1 0x1 PUSH1 0xA0 SHL SUB AND PUSH1 0x1 PUSH1 0x1 PUSH1 0xA0 SHL SUB AND DUP2 MSTORE PUSH1 0x20 ADD SWAP1 DUP2 MSTORE PUSH1 0x20 ADD PUSH1 0x0 KECCAK256 PUSH1 0x0 PUSH2 0x100 EXP DUP2 SLOAD DUP2 PUSH1 0xFF MUL NOT AND SWAP1 DUP4 ISZERO ISZERO MUL OR SWAP1 SSTORE POP PUSH1 0xF PUSH1 0x0 PUSH1 0xA DUP4 DUP2 SLOAD DUP2 LT PUSH2 0x1C27 JUMPI PUSH2 0x1C27 PUSH2 0x3000 JUMP JUMPDEST PUSH1 0x0 SWAP2 DUP3 MSTORE PUSH1 0x20 DUP1 DUP4 KECCAK256 PUSH1 0x1 PUSH1 0x7 SWAP1 SWAP4 MUL ADD SWAP2 SWAP1 SWAP2 ADD SLOAD PUSH1 0x1 PUSH1 0x1 PUSH1 0xA0 SHL SUB AND DUP4 MSTORE DUP3 ADD SWAP3 SWAP1 SWAP3 MSTORE PUSH1 0x40 ADD DUP2 KECCAK256 DUP1 SLOAD SWAP2 PUSH2 0x1C60 DUP4 PUSH2 0x2FB7 JUMP JUMPDEST SWAP2 SWAP1 POP SSTORE POP JUMPDEST PUSH1 0x0 PUSH1 0xE PUSH1 0x0 PUSH1 0xA DUP5 DUP2 SLOAD DUP2 LT PUSH2 0x1C7F JUMPI PUSH2 0x1C7F PUSH2 0x3000 JUMP JUMPDEST PUSH1 0x0 SWAP2 DUP3 MSTORE PUSH1 0x20 DUP1 DUP4 KECCAK256 PUSH1 0x1 PUSH1 0x7 SWAP1 SWAP4 MUL ADD SWAP2 SWAP1 SWAP2 ADD SLOAD PUSH1 0x1 PUSH1 0x1 PUSH1 0xA0 SHL SUB AND DUP4 MSTORE DUP3 ADD SWAP3 SWAP1 SWAP3 MSTORE PUSH1 0x40 ADD DUP2 KECCAK256 DUP1 SLOAD SWAP2 PUSH2 0x1CB8 DUP4 PUSH2 0x2FCE JUMP JUMPDEST SWAP2 SWAP1 POP SSTORE SWAP1 POP PUSH1 0x1 SLOAD DUP2 GT ISZERO PUSH2 0xCB2 JUMPI PUSH1 0x1 PUSH1 0xA DUP4 DUP2 SLOAD DUP2 LT PUSH2 0x1CDD JUMPI PUSH2 0x1CDD PUSH2 0x3000 JUMP JUMPDEST PUSH1 0x0 SWAP2 DUP3 MSTORE PUSH1 0x20 SWAP1 SWAP2 KECCAK256 PUSH1 0x7 SWAP1 SWAP2 MUL ADD PUSH1 0x3 ADD DUP1 SLOAD PUSH1 0xFF NOT AND SWAP2 ISZERO ISZERO SWAP2 SWAP1 SWAP2 OR SWAP1 SSTORE PUSH1 0x9 SLOAD PUSH2 0x1D0D SWAP1 PUSH1 0x1 PUSH2 0x307B JUMP JUMPDEST PUSH1 0xA DUP4 DUP2 SLOAD DUP2 LT PUSH2 0x1D20 JUMPI PUSH2 0x1D20 PUSH2 0x3000 JUMP JUMPDEST SWAP1 PUSH1 0x0 MSTORE PUSH1 0x20 PUSH1 0x0 KECCAK256 SWAP1 PUSH1 0x7 MUL ADD PUSH1 0x0 ADD DUP2 SWAP1 SSTORE POP PUSH1 0x1 PUSH1 0xB PUSH1 0x0 PUSH1 0xA DUP6 DUP2 SLOAD DUP2 LT PUSH2 0x1D4E JUMPI PUSH2 0x1D4E PUSH2 0x3000 JUMP JUMPDEST PUSH1 0x0 SWAP2 DUP3 MSTORE PUSH1 0x20 DUP1 DUP4 KECCAK256 PUSH1 0x7 SWAP3 SWAP1 SWAP3 MUL SWAP1 SWAP2 ADD PUSH1 0x1 ADD SLOAD PUSH1 0x1 PUSH1 0x1 PUSH1 0xA0 SHL SUB AND DUP4 MSTORE DUP3 ADD SWAP3 SWAP1 SWAP3 MSTORE PUSH1 0x40 ADD SWAP1 KECCAK256 DUP1 SLOAD PUSH1 0xFF NOT AND SWAP2 ISZERO ISZERO SWAP2 SWAP1 SWAP2 OR SWAP1 SSTORE PUSH1 0xA DUP1 SLOAD PUSH1 0x9 SWAP2 SWAP1 DUP5 SWAP1 DUP2 LT PUSH2 0x1DA2 JUMPI PUSH2 0x1DA2 PUSH2 0x3000 JUMP JUMPDEST PUSH1 0x0 SWAP2 DUP3 MSTORE PUSH1 0x20 DUP1 DUP4 KECCAK256 DUP5 SLOAD PUSH1 0x1 DUP2 DUP2 ADD DUP8 SSTORE SWAP6 DUP6 MSTORE SWAP2 SWAP1 SWAP4 KECCAK256 PUSH1 0x7 SWAP3 DUP4 MUL SWAP1 SWAP4 ADD DUP1 SLOAD SWAP2 SWAP1 SWAP3 MUL SWAP1 SWAP3 ADD SWAP2 DUP3 SSTORE DUP3 DUP2 ADD SLOAD SWAP3 DUP3 ADD DUP1 SLOAD PUSH1 0x1 PUSH1 0x1 PUSH1 0xA0 SHL SUB NOT AND PUSH1 0x1 PUSH1 0x1 PUSH1 0xA0 SHL SUB SWAP1 SWAP5 AND SWAP4 SWAP1 SWAP4 OR SWAP1 SWAP3 SSTORE PUSH1 0x2 DUP1 DUP4 ADD SLOAD SWAP1 DUP3 ADD SSTORE PUSH1 0x3 DUP1 DUP4 ADD DUP1 SLOAD SWAP2 DUP4 ADD DUP1 SLOAD PUSH1 0xFF SWAP4 DUP5 AND ISZERO ISZERO PUSH1 0xFF NOT DUP3 AND DUP2 OR DUP4 SSTORE SWAP3 SLOAD PUSH2 0x100 SWAP1 DUP2 SWAP1 DIV SWAP1 SWAP5 AND ISZERO ISZERO SWAP1 SWAP4 MUL PUSH2 0xFF00 NOT SWAP1 SWAP3 AND PUSH2 0xFFFF NOT SWAP1 SWAP4 AND SWAP3 SWAP1 SWAP3 OR OR SWAP1 SSTORE PUSH1 0x4 DUP1 DUP4 ADD SLOAD SWAP1 DUP3 ADD SSTORE PUSH1 0x5 DUP1 DUP4 ADD SLOAD SWAP1 DUP3 ADD SSTORE PUSH1 0x6 SWAP2 DUP3 ADD SLOAD SWAP2 ADD SSTORE PUSH2 0x1E67 DUP3 PUSH2 0x29D1 JUMP JUMPDEST PUSH1 0x9 DUP1 SLOAD PUSH2 0x1E77 SWAP1 PUSH1 0x1 SWAP1 PUSH2 0x2FE9 JUMP JUMPDEST DUP2 SLOAD DUP2 LT PUSH2 0x1E87 JUMPI PUSH2 0x1E87 PUSH2 0x3000 JUMP JUMPDEST PUSH1 0x0 SWAP2 DUP3 MSTORE PUSH1 0x20 DUP1 DUP4 KECCAK256 PUSH1 0x1 PUSH1 0x7 SWAP1 SWAP4 MUL ADD DUP3 ADD SLOAD PUSH1 0x9 DUP1 SLOAD DUP6 MSTORE PUSH1 0xC SWAP1 SWAP3 MSTORE PUSH1 0x40 DUP5 KECCAK256 DUP1 SLOAD PUSH1 0x1 PUSH1 0x1 PUSH1 0xA0 SHL SUB NOT AND PUSH1 0x1 PUSH1 0x1 PUSH1 0xA0 SHL SUB SWAP1 SWAP3 AND SWAP2 SWAP1 SWAP2 OR SWAP1 SSTORE DUP1 SLOAD SWAP3 PUSH1 0xD SWAP3 SWAP1 SWAP2 SWAP1 PUSH2 0x1EDB SWAP1 DUP6 PUSH2 0x2FE9 JUMP JUMPDEST DUP2 SLOAD DUP2 LT PUSH2 0x1EEB JUMPI PUSH2 0x1EEB PUSH2 0x3000 JUMP JUMPDEST PUSH1 0x0 SWAP2 DUP3 MSTORE PUSH1 0x20 DUP1 DUP4 KECCAK256 PUSH1 0x1 PUSH1 0x7 SWAP1 SWAP4 MUL ADD SWAP2 SWAP1 SWAP2 ADD SLOAD PUSH1 0x1 PUSH1 0x1 PUSH1 0xA0 SHL SUB AND DUP4 MSTORE DUP3 ADD SWAP3 SWAP1 SWAP3 MSTORE PUSH1 0x40 ADD SWAP1 KECCAK256 SSTORE POP POP JUMP JUMPDEST PUSH1 0xB PUSH1 0x0 PUSH2 0x1F29 PUSH2 0x299D JUMP JUMPDEST PUSH1 0x1 PUSH1 0x1 PUSH1 0xA0 SHL SUB AND DUP2 MSTORE PUSH1 0x20 DUP2 ADD SWAP2 SWAP1 SWAP2 MSTORE PUSH1 0x40 ADD PUSH1 0x0 KECCAK256 SLOAD PUSH1 0xFF AND PUSH2 0x1F92 JUMPI PUSH1 0x40 MLOAD PUSH3 0x461BCD PUSH1 0xE5 SHL DUP2 MSTORE PUSH1 0x20 PUSH1 0x4 DUP3 ADD MSTORE PUSH1 0x12 PUSH1 0x24 DUP3 ADD MSTORE PUSH32 0x596F75206E6F7420612050726F73756D65720000000000000000000000000000 PUSH1 0x44 DUP3 ADD MSTORE PUSH1 0x64 ADD PUSH2 0x85B JUMP JUMPDEST PUSH1 0x0 DUP3 DUP2 MSTORE PUSH1 0xC PUSH1 0x20 SWAP1 DUP2 MSTORE PUSH1 0x40 DUP1 DUP4 KECCAK256 SLOAD PUSH1 0x1 PUSH1 0x1 PUSH1 0xA0 SHL SUB AND DUP4 MSTORE PUSH1 0xB SWAP1 SWAP2 MSTORE SWAP1 KECCAK256 SLOAD PUSH1 0xFF AND PUSH2 0x2006 JUMPI PUSH1 0x40 MLOAD PUSH3 0x461BCD PUSH1 0xE5 SHL DUP2 MSTORE PUSH1 0x20 PUSH1 0x4 DUP3 ADD MSTORE PUSH1 0x16 PUSH1 0x24 DUP3 ADD MSTORE PUSH32 0x41636375736564206E6F7420612050726F73756D657200000000000000000000 PUSH1 0x44 DUP3 ADD MSTORE PUSH1 0x64 ADD PUSH2 0x85B JUMP JUMPDEST PUSH1 0x0 DUP3 DUP2 MSTORE PUSH1 0xC PUSH1 0x20 SWAP1 DUP2 MSTORE PUSH1 0x40 DUP1 DUP4 KECCAK256 SLOAD PUSH1 0x1 PUSH1 0x1 PUSH1 0xA0 SHL SUB AND DUP4 MSTORE PUSH1 0x7 SWAP1 SWAP2 MSTORE DUP2 KECCAK256 SWAP1 PUSH2 0x2033 PUSH2 0x299D JUMP JUMPDEST PUSH1 0x1 PUSH1 0x1 PUSH1 0xA0 SHL SUB AND DUP2 MSTORE PUSH1 0x20 DUP2 ADD SWAP2 SWAP1 SWAP2 MSTORE PUSH1 0x40 ADD PUSH1 0x0 KECCAK256 SLOAD PUSH1 0xFF AND ISZERO PUSH2 0x209D JUMPI PUSH1 0x40 MLOAD PUSH3 0x461BCD PUSH1 0xE5 SHL DUP2 MSTORE PUSH1 0x20 PUSH1 0x4 DUP3 ADD MSTORE PUSH1 0x1D PUSH1 0x24 DUP3 ADD MSTORE PUSH32 0x416363757365642050726F73756D65722069732053757370656E646564000000 PUSH1 0x44 DUP3 ADD MSTORE PUSH1 0x64 ADD PUSH2 0x85B JUMP JUMPDEST PUSH1 0x7 PUSH1 0x0 PUSH2 0x20A9 PUSH2 0x299D JUMP JUMPDEST PUSH1 0x1 PUSH1 0x1 PUSH1 0xA0 SHL SUB SWAP1 DUP2 AND DUP3 MSTORE PUSH1 0x20 DUP1 DUP4 ADD SWAP4 SWAP1 SWAP4 MSTORE PUSH1 0x40 SWAP2 DUP3 ADD PUSH1 0x0 SWAP1 DUP2 KECCAK256 DUP7 DUP3 MSTORE PUSH1 0xC DUP6 MSTORE DUP4 DUP3 KECCAK256 SLOAD SWAP1 SWAP3 AND DUP2 MSTORE SWAP3 MSTORE SWAP1 KECCAK256 SLOAD PUSH1 0xFF AND ISZERO PUSH2 0x212E JUMPI PUSH1 0x40 MLOAD PUSH3 0x461BCD PUSH1 0xE5 SHL DUP2 MSTORE PUSH1 0x20 PUSH1 0x4 DUP3 ADD MSTORE PUSH1 0x11 PUSH1 0x24 DUP3 ADD MSTORE PUSH32 0x596F75206172652053757370656E646564000000000000000000000000000000 PUSH1 0x44 DUP3 ADD MSTORE PUSH1 0x64 ADD PUSH2 0x85B JUMP JUMPDEST PUSH1 0x0 DUP3 DUP2 MSTORE PUSH1 0xC PUSH1 0x20 SWAP1 DUP2 MSTORE PUSH1 0x40 DUP1 DUP4 KECCAK256 SLOAD PUSH1 0x1 PUSH1 0x1 PUSH1 0xA0 SHL SUB AND DUP4 MSTORE PUSH1 0x6 SWAP1 SWAP2 MSTORE DUP2 KECCAK256 SWAP1 PUSH2 0x215B PUSH2 0x299D JUMP JUMPDEST PUSH1 0x1 PUSH1 0x1 PUSH1 0xA0 SHL SUB AND DUP2 MSTORE PUSH1 0x20 DUP2 ADD SWAP2 SWAP1 SWAP2 MSTORE PUSH1 0x40 ADD PUSH1 0x0 KECCAK256 SLOAD PUSH1 0xFF AND ISZERO PUSH2 0x21C5 JUMPI PUSH1 0x40 MLOAD PUSH3 0x461BCD PUSH1 0xE5 SHL DUP2 MSTORE PUSH1 0x20 PUSH1 0x4 DUP3 ADD MSTORE PUSH1 0x17 PUSH1 0x24 DUP3 ADD MSTORE PUSH32 0x50726F73756D657220697320446973617070726F766564000000000000000000 PUSH1 0x44 DUP3 ADD MSTORE PUSH1 0x64 ADD PUSH2 0x85B JUMP JUMPDEST PUSH1 0x6 PUSH1 0x0 PUSH2 0x21D1 PUSH2 0x299D JUMP JUMPDEST PUSH1 0x1 PUSH1 0x1 PUSH1 0xA0 SHL SUB SWAP1 DUP2 AND DUP3 MSTORE PUSH1 0x20 DUP1 DUP4 ADD SWAP4 SWAP1 SWAP4 MSTORE PUSH1 0x40 SWAP2 DUP3 ADD PUSH1 0x0 SWAP1 DUP2 KECCAK256 DUP7 DUP3 MSTORE PUSH1 0xC DUP6 MSTORE DUP4 DUP3 KECCAK256 SLOAD SWAP1 SWAP3 AND DUP2 MSTORE SWAP3 MSTORE SWAP1 KECCAK256 SLOAD PUSH1 0xFF AND ISZERO PUSH2 0x2256 JUMPI PUSH1 0x40 MLOAD PUSH3 0x461BCD PUSH1 0xE5 SHL DUP2 MSTORE PUSH1 0x20 PUSH1 0x4 DUP3 ADD MSTORE PUSH1 0x13 PUSH1 0x24 DUP3 ADD MSTORE PUSH32 0x596F752061726520446973617070726F76656400000000000000000000000000 PUSH1 0x44 DUP3 ADD MSTORE PUSH1 0x64 ADD PUSH2 0x85B JUMP JUMPDEST PUSH1 0x0 PUSH1 0x40 MLOAD DUP1 PUSH1 0xA0 ADD PUSH1 0x40 MSTORE DUP1 PUSH1 0x14 DUP1 SLOAD SWAP1 POP PUSH1 0x1 PUSH2 0x2275 SWAP2 SWAP1 PUSH2 0x307B JUMP JUMPDEST DUP2 MSTORE PUSH1 0x20 ADD PUSH1 0xD PUSH1 0x0 PUSH2 0x2286 PUSH2 0x299D JUMP JUMPDEST PUSH1 0x1 PUSH1 0x1 PUSH1 0xA0 SHL SUB AND PUSH1 0x1 PUSH1 0x1 PUSH1 0xA0 SHL SUB AND DUP2 MSTORE PUSH1 0x20 ADD SWAP1 DUP2 MSTORE PUSH1 0x20 ADD PUSH1 0x0 KECCAK256 SLOAD DUP2 MSTORE PUSH1 0x20 ADD DUP5 DUP2 MSTORE PUSH1 0x20 ADD DUP4 DUP2 MSTORE PUSH1 0x20 ADD PUSH1 0x0 ISZERO ISZERO DUP2 MSTORE POP SWAP1 POP PUSH1 0x13 SLOAD PUSH1 0x14 DUP1 SLOAD SWAP1 POP LT ISZERO PUSH2 0x23BB JUMPI PUSH1 0x14 DUP1 SLOAD PUSH1 0x1 DUP2 ADD DUP3 SSTORE PUSH1 0x0 SWAP2 SWAP1 SWAP2 MSTORE DUP2 MLOAD PUSH1 0x5 SWAP1 SWAP2 MUL PUSH32 0xCE6D7B5282BD9A3661AE061FEED1DBDA4E52AB073B1F9285BE6E155D9C38D4EC DUP2 ADD SWAP2 DUP3 SSTORE PUSH1 0x20 DUP1 DUP5 ADD MLOAD PUSH32 0xCE6D7B5282BD9A3661AE061FEED1DBDA4E52AB073B1F9285BE6E155D9C38D4ED DUP4 ADD SSTORE PUSH1 0x40 DUP5 ADD MLOAD PUSH32 0xCE6D7B5282BD9A3661AE061FEED1DBDA4E52AB073B1F9285BE6E155D9C38D4EE DUP4 ADD SSTORE PUSH1 0x60 DUP5 ADD MLOAD DUP1 MLOAD DUP6 SWAP5 SWAP4 PUSH2 0x239A SWAP4 PUSH32 0xCE6D7B5282BD9A3661AE061FEED1DBDA4E52AB073B1F9285BE6E155D9C38D4EF SWAP1 SWAP2 ADD SWAP3 ADD SWAP1 PUSH2 0x2C5D JUMP JUMPDEST POP PUSH1 0x80 SWAP2 SWAP1 SWAP2 ADD MLOAD PUSH1 0x4 SWAP1 SWAP2 ADD DUP1 SLOAD PUSH1 0xFF NOT AND SWAP2 ISZERO ISZERO SWAP2 SWAP1 SWAP2 OR SWAP1 SSTORE PUSH2 0x2443 JUMP JUMPDEST DUP1 PUSH1 0x14 PUSH1 0x13 SLOAD PUSH1 0x12 SLOAD PUSH2 0x23CE SWAP2 SWAP1 PUSH2 0x3093 JUMP JUMPDEST DUP2 SLOAD DUP2 LT PUSH2 0x23DE JUMPI PUSH2 0x23DE PUSH2 0x3000 JUMP JUMPDEST SWAP1 PUSH1 0x0 MSTORE PUSH1 0x20 PUSH1 0x0 KECCAK256 SWAP1 PUSH1 0x5 MUL ADD PUSH1 0x0 DUP3 ADD MLOAD DUP2 PUSH1 0x0 ADD SSTORE PUSH1 0x20 DUP3 ADD MLOAD DUP2 PUSH1 0x1 ADD SSTORE PUSH1 0x40 DUP3 ADD MLOAD DUP2 PUSH1 0x2 ADD SSTORE PUSH1 0x60 DUP3 ADD MLOAD DUP2 PUSH1 0x3 ADD SWAP1 DUP1 MLOAD SWAP1 PUSH1 0x20 ADD SWAP1 PUSH2 0x2426 SWAP3 SWAP2 SWAP1 PUSH2 0x2C5D JUMP JUMPDEST POP PUSH1 0x80 SWAP2 SWAP1 SWAP2 ADD MLOAD PUSH1 0x4 SWAP1 SWAP2 ADD DUP1 SLOAD PUSH1 0xFF NOT AND SWAP2 ISZERO ISZERO SWAP2 SWAP1 SWAP2 OR SWAP1 SSTORE JUMPDEST PUSH1 0x13 SLOAD PUSH1 0x12 SLOAD LT ISZERO PUSH2 0x2465 JUMPI PUSH1 0x12 DUP1 SLOAD SWAP1 PUSH1 0x0 PUSH2 0x245F DUP4 PUSH2 0x2FCE JUMP JUMPDEST SWAP2 SWAP1 POP SSTORE POP JUMPDEST POP POP POP JUMP JUMPDEST PUSH1 0x60 PUSH1 0x4 PUSH1 0x0 PUSH2 0x2478 PUSH2 0x299D JUMP JUMPDEST PUSH1 0x1 PUSH1 0x1 PUSH1 0xA0 SHL SUB AND DUP2 MSTORE PUSH1 0x20 DUP2 ADD SWAP2 SWAP1 SWAP2 MSTORE PUSH1 0x40 ADD PUSH1 0x0 KECCAK256 SLOAD PUSH1 0xFF AND PUSH2 0x24CD JUMPI PUSH1 0x40 MLOAD PUSH3 0x461BCD PUSH1 0xE5 SHL DUP2 MSTORE PUSH1 0x20 PUSH1 0x4 DUP3 ADD MSTORE PUSH1 0x9 PUSH1 0x24 DUP3 ADD MSTORE PUSH9 0x2737BA1027BBB732B9 PUSH1 0xB9 SHL PUSH1 0x44 DUP3 ADD MSTORE PUSH1 0x64 ADD PUSH2 0x85B JUMP JUMPDEST PUSH1 0xA DUP1 SLOAD PUSH1 0x40 DUP1 MLOAD PUSH1 0x20 DUP1 DUP5 MUL DUP3 ADD DUP2 ADD SWAP1 SWAP3 MSTORE DUP3 DUP2 MSTORE SWAP3 SWAP2 SWAP1 PUSH1 0x0 SWAP1 DUP5 ADD DUP3 ISZERO PUSH2 0x138D JUMPI PUSH1 0x0 DUP5 DUP2 MSTORE PUSH1 0x20 SWAP1 DUP2 SWAP1 KECCAK256 PUSH1 0x40 DUP1 MLOAD PUSH2 0x100 DUP1 DUP3 ADD DUP4 MSTORE PUSH1 0x7 DUP8 MUL SWAP1 SWAP4 ADD DUP1 SLOAD DUP3 MSTORE PUSH1 0x1 DUP1 DUP3 ADD SLOAD PUSH1 0x1 PUSH1 0x1 PUSH1 0xA0 SHL SUB AND DUP4 DUP8 ADD MSTORE PUSH1 0x2 DUP3 ADD SLOAD SWAP4 DUP4 ADD SWAP4 SWAP1 SWAP4 MSTORE PUSH1 0x3 DUP2 ADD SLOAD PUSH1 0xFF DUP1 DUP3 AND ISZERO ISZERO PUSH1 0x60 DUP6 ADD MSTORE SWAP5 SWAP1 DIV SWAP1 SWAP4 AND ISZERO ISZERO PUSH1 0x80 DUP3 ADD MSTORE PUSH1 0x4 DUP4 ADD SLOAD PUSH1 0xA0 DUP3 ADD MSTORE PUSH1 0x5 DUP4 ADD SLOAD PUSH1 0xC0 DUP3 ADD MSTORE PUSH1 0x6 SWAP1 SWAP3 ADD SLOAD PUSH1 0xE0 DUP4 ADD MSTORE SWAP1 DUP4 MSTORE SWAP1 SWAP3 ADD SWAP2 ADD PUSH2 0x12FA JUMP JUMPDEST PUSH1 0x4 PUSH1 0x0 PUSH2 0x2589 PUSH2 0x299D JUMP JUMPDEST PUSH1 0x1 PUSH1 0x1 PUSH1 0xA0 SHL SUB AND DUP2 MSTORE PUSH1 0x20 DUP2 ADD SWAP2 SWAP1 SWAP2 MSTORE PUSH1 0x40 ADD PUSH1 0x0 KECCAK256 SLOAD PUSH1 0xFF AND PUSH2 0x25DE JUMPI PUSH1 0x40 MLOAD PUSH3 0x461BCD PUSH1 0xE5 SHL DUP2 MSTORE PUSH1 0x20 PUSH1 0x4 DUP3 ADD MSTORE PUSH1 0x9 PUSH1 0x24 DUP3 ADD MSTORE PUSH9 0x2737BA1027BBB732B9 PUSH1 0xB9 SHL PUSH1 0x44 DUP3 ADD MSTORE PUSH1 0x64 ADD PUSH2 0x85B JUMP JUMPDEST PUSH1 0x0 DUP3 DUP2 MSTORE PUSH1 0xC PUSH1 0x20 SWAP1 DUP2 MSTORE PUSH1 0x40 DUP1 DUP4 KECCAK256 SLOAD PUSH1 0x1 PUSH1 0x1 PUSH1 0xA0 SHL SUB AND DUP1 DUP5 MSTORE PUSH1 0xB SWAP1 SWAP3 MSTORE SWAP1 SWAP2 KECCAK256 SLOAD PUSH1 0xFF AND PUSH2 0x2654 JUMPI PUSH1 0x40 MLOAD PUSH3 0x461BCD PUSH1 0xE5 SHL DUP2 MSTORE PUSH1 0x20 PUSH1 0x4 DUP3 ADD MSTORE PUSH1 0xE PUSH1 0x24 DUP3 ADD MSTORE PUSH32 0x4E6F7420612050726F73756D6572000000000000000000000000000000000000 PUSH1 0x44 DUP3 ADD MSTORE PUSH1 0x64 ADD PUSH2 0x85B JUMP JUMPDEST PUSH1 0x1 PUSH1 0x1 PUSH1 0xA0 SHL SUB DUP2 AND PUSH1 0x0 SWAP1 DUP2 MSTORE PUSH1 0x7 PUSH1 0x20 MSTORE PUSH1 0x40 DUP2 KECCAK256 SWAP1 PUSH2 0x2675 PUSH2 0x299D JUMP JUMPDEST PUSH1 0x1 PUSH1 0x1 PUSH1 0xA0 SHL SUB AND DUP2 MSTORE PUSH1 0x20 DUP2 ADD SWAP2 SWAP1 SWAP2 MSTORE PUSH1 0x40 ADD PUSH1 0x0 KECCAK256 SLOAD PUSH1 0xFF AND ISZERO PUSH2 0x26DF JUMPI PUSH1 0x40 MLOAD PUSH3 0x461BCD PUSH1 0xE5 SHL DUP2 MSTORE PUSH1 0x20 PUSH1 0x4 DUP3 ADD MSTORE PUSH1 0x11 PUSH1 0x24 DUP3 ADD MSTORE PUSH32 0x416C72656164792053757370656E646564000000000000000000000000000000 PUSH1 0x44 DUP3 ADD MSTORE PUSH1 0x64 ADD PUSH2 0x85B JUMP JUMPDEST PUSH1 0x1 PUSH1 0x1 PUSH1 0xA0 SHL SUB DUP2 AND PUSH1 0x0 SWAP1 DUP2 MSTORE PUSH1 0x7 PUSH1 0x20 MSTORE PUSH1 0x40 DUP2 KECCAK256 PUSH1 0x1 SWAP2 PUSH2 0x2702 PUSH2 0x299D JUMP JUMPDEST PUSH1 0x1 PUSH1 0x1 PUSH1 0xA0 SHL SUB SWAP1 DUP2 AND DUP3 MSTORE PUSH1 0x20 DUP1 DUP4 ADD SWAP4 SWAP1 SWAP4 MSTORE PUSH1 0x40 SWAP2 DUP3 ADD PUSH1 0x0 SWAP1 DUP2 KECCAK256 DUP1 SLOAD PUSH1 0xFF NOT AND SWAP6 ISZERO ISZERO SWAP6 SWAP1 SWAP6 OR SWAP1 SWAP5 SSTORE DUP5 AND DUP4 MSTORE PUSH1 0x8 SWAP1 SWAP2 MSTORE DUP2 KECCAK256 SWAP1 PUSH2 0x2746 PUSH2 0x299D JUMP JUMPDEST PUSH1 0x1 PUSH1 0x1 PUSH1 0xA0 SHL SUB AND DUP2 MSTORE PUSH1 0x20 DUP2 ADD SWAP2 SWAP1 SWAP2 MSTORE PUSH1 0x40 ADD PUSH1 0x0 KECCAK256 SLOAD PUSH1 0xFF AND ISZERO PUSH2 0x27D6 JUMPI PUSH1 0x1 PUSH1 0x1 PUSH1 0xA0 SHL SUB DUP2 AND PUSH1 0x0 SWAP1 DUP2 MSTORE PUSH1 0x8 PUSH1 0x20 MSTORE PUSH1 0x40 DUP2 KECCAK256 DUP2 PUSH2 0x2789 PUSH2 0x299D JUMP JUMPDEST PUSH1 0x1 PUSH1 0x1 PUSH1 0xA0 SHL SUB SWAP1 DUP2 AND DUP3 MSTORE PUSH1 0x20 DUP1 DUP4 ADD SWAP4 SWAP1 SWAP4 MSTORE PUSH1 0x40 SWAP2 DUP3 ADD PUSH1 0x0 SWAP1 DUP2 KECCAK256 DUP1 SLOAD PUSH1 0xFF NOT AND SWAP6 ISZERO ISZERO SWAP6 SWAP1 SWAP6 OR SWAP1 SWAP5 SSTORE DUP5 AND DUP4 MSTORE PUSH1 0x11 SWAP1 SWAP2 MSTORE DUP2 KECCAK256 DUP1 SLOAD SWAP2 PUSH2 0x27D0 DUP4 PUSH2 0x2FB7 JUMP JUMPDEST SWAP2 SWAP1 POP SSTORE POP JUMPDEST PUSH1 0x1 PUSH1 0x1 PUSH1 0xA0 SHL SUB DUP2 AND PUSH1 0x0 SWAP1 DUP2 MSTORE PUSH1 0x10 PUSH1 0x20 MSTORE PUSH1 0x40 DUP2 KECCAK256 DUP1 SLOAD SWAP1 DUP3 PUSH2 0x27FB DUP4 PUSH2 0x2FCE JUMP JUMPDEST SWAP2 SWAP1 POP SSTORE SWAP1 POP PUSH1 0x1 SLOAD DUP2 GT ISZERO PUSH2 0xB5A JUMPI PUSH1 0x1 PUSH1 0x1 PUSH1 0xA0 SHL SUB DUP3 AND PUSH1 0x0 SWAP1 DUP2 MSTORE PUSH1 0x10 PUSH1 0x20 MSTORE PUSH1 0x40 DUP2 KECCAK256 SSTORE PUSH1 0x1 PUSH1 0x9 PUSH2 0xAE0 DUP3 DUP8 PUSH2 0x2FE9 JUMP JUMPDEST PUSH1 0x4 PUSH1 0x0 PUSH2 0x283E PUSH2 0x299D JUMP JUMPDEST PUSH1 0x1 PUSH1 0x1 PUSH1 0xA0 SHL SUB AND DUP2 MSTORE PUSH1 0x20 DUP2 ADD SWAP2 SWAP1 SWAP2 MSTORE PUSH1 0x40 ADD PUSH1 0x0 KECCAK256 SLOAD PUSH1 0xFF AND PUSH2 0x2893 JUMPI PUSH1 0x40 MLOAD PUSH3 0x461BCD PUSH1 0xE5 SHL DUP2 MSTORE PUSH1 0x20 PUSH1 0x4 DUP3 ADD MSTORE PUSH1 0x9 PUSH1 0x24 DUP3 ADD MSTORE PUSH9 0x2737BA1027BBB732B9 PUSH1 0xB9 SHL PUSH1 0x44 DUP3 ADD MSTORE PUSH1 0x64 ADD PUSH2 0x85B JUMP JUMPDEST PUSH1 0x2 SSTORE JUMP JUMPDEST PUSH1 0x4 PUSH1 0x0 PUSH2 0x28A4 PUSH2 0x299D JUMP JUMPDEST PUSH1 0x1 PUSH1 0x1 PUSH1 0xA0 SHL SUB AND DUP2 MSTORE PUSH1 0x20 DUP2 ADD SWAP2 SWAP1 SWAP2 MSTORE PUSH1 0x40 ADD PUSH1 0x0 KECCAK256 SLOAD PUSH1 0xFF AND PUSH2 0x28F9 JUMPI PUSH1 0x40 MLOAD PUSH3 0x461BCD PUSH1 0xE5 SHL DUP2 MSTORE PUSH1 0x20 PUSH1 0x4 DUP3 ADD MSTORE PUSH1 0x9 PUSH1 0x24 DUP3 ADD MSTORE PUSH9 0x2737BA1027BBB732B9 PUSH1 0xB9 SHL PUSH1 0x44 DUP3 ADD MSTORE PUSH1 0x64 ADD PUSH2 0x85B JUMP JUMPDEST PUSH1 0x0 JUMPDEST PUSH1 0x3 SLOAD DUP2 LT ISZERO PUSH2 0xCB2 JUMPI PUSH2 0x290E PUSH2 0x299D JUMP JUMPDEST PUSH1 0x1 PUSH1 0x1 PUSH1 0xA0 SHL SUB AND PUSH1 0x3 DUP3 DUP2 SLOAD DUP2 LT PUSH2 0x292A JUMPI PUSH2 0x292A PUSH2 0x3000 JUMP JUMPDEST PUSH1 0x0 SWAP2 DUP3 MSTORE PUSH1 0x20 SWAP1 SWAP2 KECCAK256 ADD SLOAD PUSH1 0x1 PUSH1 0x1 PUSH1 0xA0 SHL SUB AND EQ ISZERO PUSH2 0x298B JUMPI DUP2 PUSH1 0x3 DUP3 DUP2 SLOAD DUP2 LT PUSH2 0x2959 JUMPI PUSH2 0x2959 PUSH2 0x3000 JUMP JUMPDEST SWAP1 PUSH1 0x0 MSTORE PUSH1 0x20 PUSH1 0x0 KECCAK256 ADD PUSH1 0x0 PUSH2 0x100 EXP DUP2 SLOAD DUP2 PUSH1 0x1 PUSH1 0x1 PUSH1 0xA0 SHL SUB MUL NOT AND SWAP1 DUP4 PUSH1 0x1 PUSH1 0x1 PUSH1 0xA0 SHL SUB AND MUL OR SWAP1 SSTORE POP POP POP JUMP JUMPDEST DUP1 PUSH2 0x2995 DUP2 PUSH2 0x2FCE JUMP JUMPDEST SWAP2 POP POP PUSH2 0x28FC JUMP JUMPDEST PUSH1 0x0 PUSH1 0x14 CALLDATASIZE LT DUP1 ISZERO SWAP1 PUSH2 0x29BA JUMPI POP PUSH1 0x0 SLOAD PUSH1 0x1 PUSH1 0x1 PUSH1 0xA0 SHL SUB AND CALLER EQ JUMPDEST ISZERO PUSH2 0x29CC JUMPI POP PUSH1 0x13 NOT CALLDATASIZE ADD CALLDATALOAD PUSH1 0x60 SHR SWAP1 JUMP JUMPDEST POP CALLER SWAP1 JUMP JUMPDEST PUSH1 0x4 PUSH1 0x0 PUSH2 0x29DD PUSH2 0x299D JUMP JUMPDEST PUSH1 0x1 PUSH1 0x1 PUSH1 0xA0 SHL SUB AND DUP2 MSTORE PUSH1 0x20 DUP2 ADD SWAP2 SWAP1 SWAP2 MSTORE PUSH1 0x40 ADD PUSH1 0x0 KECCAK256 SLOAD PUSH1 0xFF AND PUSH2 0x2A32 JUMPI PUSH1 0x40 MLOAD PUSH3 0x461BCD PUSH1 0xE5 SHL DUP2 MSTORE PUSH1 0x20 PUSH1 0x4 DUP3 ADD MSTORE PUSH1 0x9 PUSH1 0x24 DUP3 ADD MSTORE PUSH9 0x2737BA1027BBB732B9 PUSH1 0xB9 SHL PUSH1 0x44 DUP3 ADD MSTORE PUSH1 0x64 ADD PUSH2 0x85B JUMP JUMPDEST PUSH1 0xA SLOAD DUP2 LT PUSH2 0x2A83 JUMPI PUSH1 0x40 MLOAD PUSH3 0x461BCD PUSH1 0xE5 SHL DUP2 MSTORE PUSH1 0x20 PUSH1 0x4 DUP3 ADD DUP2 SWAP1 MSTORE PUSH1 0x24 DUP3 ADD MSTORE PUSH32 0x496E76616C696420756E617070726F76656450726F73756D657220496E646578 PUSH1 0x44 DUP3 ADD MSTORE PUSH1 0x64 ADD PUSH2 0x85B JUMP JUMPDEST DUP1 JUMPDEST PUSH1 0xA SLOAD PUSH2 0x2A94 SWAP1 PUSH1 0x1 SWAP1 PUSH2 0x2FE9 JUMP JUMPDEST DUP2 LT ISZERO PUSH2 0x2B8F JUMPI PUSH1 0xA PUSH2 0x2AA8 DUP3 PUSH1 0x1 PUSH2 0x307B JUMP JUMPDEST DUP2 SLOAD DUP2 LT PUSH2 0x2AB8 JUMPI PUSH2 0x2AB8 PUSH2 0x3000 JUMP JUMPDEST SWAP1 PUSH1 0x0 MSTORE PUSH1 0x20 PUSH1 0x0 KECCAK256 SWAP1 PUSH1 0x7 MUL ADD PUSH1 0xA DUP3 DUP2 SLOAD DUP2 LT PUSH2 0x2AD9 JUMPI PUSH2 0x2AD9 PUSH2 0x3000 JUMP JUMPDEST PUSH1 0x0 SWAP2 DUP3 MSTORE PUSH1 0x20 SWAP1 SWAP2 KECCAK256 DUP3 SLOAD PUSH1 0x7 SWAP1 SWAP3 MUL ADD SWAP1 DUP2 SSTORE PUSH1 0x1 DUP1 DUP4 ADD SLOAD SWAP1 DUP3 ADD DUP1 SLOAD PUSH1 0x1 PUSH1 0x1 PUSH1 0xA0 SHL SUB NOT AND PUSH1 0x1 PUSH1 0x1 PUSH1 0xA0 SHL SUB SWAP1 SWAP3 AND SWAP2 SWAP1 SWAP2 OR SWAP1 SSTORE PUSH1 0x2 DUP1 DUP4 ADD SLOAD SWAP1 DUP3 ADD SSTORE PUSH1 0x3 DUP1 DUP4 ADD DUP1 SLOAD SWAP2 DUP4 ADD DUP1 SLOAD PUSH1 0xFF SWAP4 DUP5 AND ISZERO ISZERO PUSH1 0xFF NOT DUP3 AND DUP2 OR DUP4 SSTORE SWAP3 SLOAD PUSH2 0x100 SWAP1 DUP2 SWAP1 DIV SWAP1 SWAP5 AND ISZERO ISZERO SWAP1 SWAP4 MUL PUSH2 0xFF00 NOT SWAP1 SWAP3 AND PUSH2 0xFFFF NOT SWAP1 SWAP4 AND SWAP3 SWAP1 SWAP3 OR OR SWAP1 SSTORE PUSH1 0x4 DUP1 DUP4 ADD SLOAD SWAP1 DUP3 ADD SSTORE PUSH1 0x5 DUP1 DUP4 ADD SLOAD SWAP1 DUP3 ADD SSTORE PUSH1 0x6 SWAP2 DUP3 ADD SLOAD SWAP2 ADD SSTORE DUP1 PUSH2 0x2B87 DUP2 PUSH2 0x2FCE JUMP JUMPDEST SWAP2 POP POP PUSH2 0x2A85 JUMP JUMPDEST POP PUSH1 0xA DUP1 SLOAD DUP1 PUSH2 0x2BA1 JUMPI PUSH2 0x2BA1 PUSH2 0x30A7 JUMP JUMPDEST PUSH1 0x0 DUP3 DUP2 MSTORE PUSH1 0x20 DUP2 KECCAK256 PUSH1 0x7 PUSH1 0x0 NOT SWAP1 SWAP4 ADD SWAP3 DUP4 MUL ADD DUP2 DUP2 SSTORE PUSH1 0x1 DUP2 ADD DUP1 SLOAD PUSH1 0x1 PUSH1 0x1 PUSH1 0xA0 SHL SUB NOT AND SWAP1 SSTORE PUSH1 0x2 DUP2 ADD DUP3 SWAP1 SSTORE PUSH1 0x3 DUP2 ADD DUP1 SLOAD PUSH2 0xFFFF NOT AND SWAP1 SSTORE PUSH1 0x4 DUP2 ADD DUP3 SWAP1 SSTORE PUSH1 0x5 DUP2 ADD DUP3 SWAP1 SSTORE PUSH1 0x6 ADD SSTORE SWAP1 SSTORE POP JUMP JUMPDEST PUSH1 0x0 DUP1 JUMPDEST PUSH1 0xA SLOAD DUP2 LT ISZERO PUSH2 0x2C55 JUMPI PUSH1 0xA DUP2 DUP2 SLOAD DUP2 LT PUSH2 0x2C17 JUMPI PUSH2 0x2C17 PUSH2 0x3000 JUMP JUMPDEST PUSH1 0x0 SWAP2 DUP3 MSTORE PUSH1 0x20 SWAP1 SWAP2 KECCAK256 PUSH1 0x7 SWAP1 SWAP2 MUL ADD PUSH1 0x1 ADD SLOAD PUSH1 0x1 PUSH1 0x1 PUSH1 0xA0 SHL SUB AND CALLER EQ ISZERO PUSH2 0x2C43 JUMPI PUSH1 0x1 SWAP2 POP POP SWAP1 JUMP JUMPDEST DUP1 PUSH2 0x2C4D DUP2 PUSH2 0x2FCE JUMP JUMPDEST SWAP2 POP POP PUSH2 0x2BFA JUMP JUMPDEST POP PUSH1 0x0 SWAP1 POP SWAP1 JUMP JUMPDEST DUP3 DUP1 SLOAD PUSH2 0x2C69 SWAP1 PUSH2 0x3040 JUMP JUMPDEST SWAP1 PUSH1 0x0 MSTORE PUSH1 0x20 PUSH1 0x0 KECCAK256 SWAP1 PUSH1 0x1F ADD PUSH1 0x20 SWAP1 DIV DUP2 ADD SWAP3 DUP3 PUSH2 0x2C8B JUMPI PUSH1 0x0 DUP6 SSTORE PUSH2 0x2CD1 JUMP JUMPDEST DUP3 PUSH1 0x1F LT PUSH2 0x2CA4 JUMPI DUP1 MLOAD PUSH1 0xFF NOT AND DUP4 DUP1 ADD OR DUP6 SSTORE PUSH2 0x2CD1 JUMP JUMPDEST DUP3 DUP1 ADD PUSH1 0x1 ADD DUP6 SSTORE DUP3 ISZERO PUSH2 0x2CD1 JUMPI SWAP2 DUP3 ADD JUMPDEST DUP3 DUP2 GT ISZERO PUSH2 0x2CD1 JUMPI DUP3 MLOAD DUP3 SSTORE SWAP2 PUSH1 0x20 ADD SWAP2 SWAP1 PUSH1 0x1 ADD SWAP1 PUSH2 0x2CB6 JUMP JUMPDEST POP PUSH2 0x2CDD SWAP3 SWAP2 POP PUSH2 0x2CE1 JUMP JUMPDEST POP SWAP1 JUMP JUMPDEST JUMPDEST DUP1 DUP3 GT ISZERO PUSH2 0x2CDD JUMPI PUSH1 0x0 DUP2 SSTORE PUSH1 0x1 ADD PUSH2 0x2CE2 JUMP JUMPDEST DUP1 CALLDATALOAD PUSH1 0x1 PUSH1 0x1 PUSH1 0xA0 SHL SUB DUP2 AND DUP2 EQ PUSH2 0x1527 JUMPI PUSH1 0x0 DUP1 REVERT JUMPDEST PUSH1 0x0 PUSH1 0x20 DUP3 DUP5 SUB SLT ISZERO PUSH2 0x2D1F JUMPI PUSH1 0x0 DUP1 REVERT JUMPDEST PUSH2 0x2D28 DUP3 PUSH2 0x2CF6 JUMP JUMPDEST SWAP4 SWAP3 POP POP POP JUMP JUMPDEST PUSH1 0x0 PUSH1 0x20 DUP3 DUP5 SUB SLT ISZERO PUSH2 0x2D41 JUMPI PUSH1 0x0 DUP1 REVERT JUMPDEST POP CALLDATALOAD SWAP2 SWAP1 POP JUMP JUMPDEST PUSH1 0x0 DUP1 PUSH1 0x40 DUP4 DUP6 SUB SLT ISZERO PUSH2 0x2D5B JUMPI PUSH1 0x0 DUP1 REVERT JUMPDEST POP POP DUP1 CALLDATALOAD SWAP3 PUSH1 0x20 SWAP1 SWAP2 ADD CALLDATALOAD SWAP2 POP JUMP JUMPDEST PUSH1 0x0 DUP2 MLOAD DUP1 DUP5 MSTORE PUSH1 0x0 JUMPDEST DUP2 DUP2 LT ISZERO PUSH2 0x2D90 JUMPI PUSH1 0x20 DUP2 DUP6 ADD DUP2 ADD MLOAD DUP7 DUP4 ADD DUP3 ADD MSTORE ADD PUSH2 0x2D74 JUMP JUMPDEST DUP2 DUP2 GT ISZERO PUSH2 0x2DA2 JUMPI PUSH1 0x0 PUSH1 0x20 DUP4 DUP8 ADD ADD MSTORE JUMPDEST POP PUSH1 0x1F ADD PUSH1 0x1F NOT AND SWAP3 SWAP1 SWAP3 ADD PUSH1 0x20 ADD SWAP3 SWAP2 POP POP JUMP JUMPDEST PUSH1 0x20 DUP2 MSTORE PUSH1 0x0 PUSH2 0x2D28 PUSH1 0x20 DUP4 ADD DUP5 PUSH2 0x2D6A JUMP JUMPDEST DUP6 DUP2 MSTORE DUP5 PUSH1 0x20 DUP3 ADD MSTORE DUP4 PUSH1 0x40 DUP3 ADD MSTORE PUSH1 0xA0 PUSH1 0x60 DUP3 ADD MSTORE PUSH1 0x0 PUSH2 0x2DEF PUSH1 0xA0 DUP4 ADD DUP6 PUSH2 0x2D6A JUMP JUMPDEST SWAP1 POP DUP3 ISZERO ISZERO PUSH1 0x80 DUP4 ADD MSTORE SWAP7 SWAP6 POP POP POP POP POP POP JUMP JUMPDEST PUSH1 0x0 DUP1 PUSH1 0x40 DUP4 DUP6 SUB SLT ISZERO PUSH2 0x2E16 JUMPI PUSH1 0x0 DUP1 REVERT JUMPDEST PUSH2 0x2E1F DUP4 PUSH2 0x2CF6 JUMP JUMPDEST SWAP2 POP PUSH2 0x2E2D PUSH1 0x20 DUP5 ADD PUSH2 0x2CF6 JUMP JUMPDEST SWAP1 POP SWAP3 POP SWAP3 SWAP1 POP JUMP JUMPDEST PUSH1 0x20 DUP1 DUP3 MSTORE DUP3 MLOAD DUP3 DUP3 ADD DUP2 SWAP1 MSTORE PUSH1 0x0 SWAP2 SWAP1 PUSH1 0x40 SWAP1 DUP2 DUP6 ADD SWAP1 DUP7 DUP5 ADD DUP6 JUMPDEST DUP3 DUP2 LT ISZERO PUSH2 0x2EC3 JUMPI DUP2 MLOAD DUP1 MLOAD DUP6 MSTORE DUP7 DUP2 ADD MLOAD PUSH1 0x1 PUSH1 0x1 PUSH1 0xA0 SHL SUB AND DUP8 DUP7 ADD MSTORE DUP6 DUP2 ADD MLOAD DUP7 DUP7 ADD MSTORE PUSH1 0x60 DUP1 DUP3 ADD MLOAD ISZERO ISZERO SWAP1 DUP7 ADD MSTORE PUSH1 0x80 DUP1 DUP3 ADD MLOAD ISZERO ISZERO SWAP1 DUP7 ADD MSTORE PUSH1 0xA0 DUP1 DUP3 ADD MLOAD SWAP1 DUP7 ADD MSTORE PUSH1 0xC0 DUP1 DUP3 ADD MLOAD SWAP1 DUP7 ADD MSTORE PUSH1 0xE0 SWAP1 DUP2 ADD MLOAD SWAP1 DUP6 ADD MSTORE PUSH2 0x100 SWAP1 SWAP4 ADD SWAP3 SWAP1 DUP6 ADD SWAP1 PUSH1 0x1 ADD PUSH2 0x2E53 JUMP JUMPDEST POP SWAP2 SWAP8 SWAP7 POP POP POP POP POP POP POP JUMP JUMPDEST PUSH4 0x4E487B71 PUSH1 0xE0 SHL PUSH1 0x0 MSTORE PUSH1 0x41 PUSH1 0x4 MSTORE PUSH1 0x24 PUSH1 0x0 REVERT JUMPDEST PUSH1 0x0 DUP1 PUSH1 0x40 DUP4 DUP6 SUB SLT ISZERO PUSH2 0x2EF9 JUMPI PUSH1 0x0 DUP1 REVERT JUMPDEST DUP3 CALLDATALOAD SWAP2 POP PUSH1 0x20 DUP4 ADD CALLDATALOAD PUSH8 0xFFFFFFFFFFFFFFFF DUP1 DUP3 GT ISZERO PUSH2 0x2F18 JUMPI PUSH1 0x0 DUP1 REVERT JUMPDEST DUP2 DUP6 ADD SWAP2 POP DUP6 PUSH1 0x1F DUP4 ADD SLT PUSH2 0x2F2C JUMPI PUSH1 0x0 DUP1 REVERT JUMPDEST DUP2 CALLDATALOAD DUP2 DUP2 GT ISZERO PUSH2 0x2F3E JUMPI PUSH2 0x2F3E PUSH2 0x2ED0 JUMP JUMPDEST PUSH1 0x40 MLOAD PUSH1 0x1F DUP3 ADD PUSH1 0x1F NOT SWAP1 DUP2 AND PUSH1 0x3F ADD AND DUP2 ADD SWAP1 DUP4 DUP3 GT DUP2 DUP4 LT OR ISZERO PUSH2 0x2F66 JUMPI PUSH2 0x2F66 PUSH2 0x2ED0 JUMP JUMPDEST DUP2 PUSH1 0x40 MSTORE DUP3 DUP2 MSTORE DUP9 PUSH1 0x20 DUP5 DUP8 ADD ADD GT ISZERO PUSH2 0x2F7F JUMPI PUSH1 0x0 DUP1 REVERT JUMPDEST DUP3 PUSH1 0x20 DUP7 ADD PUSH1 0x20 DUP4 ADD CALLDATACOPY PUSH1 0x0 PUSH1 0x20 DUP5 DUP4 ADD ADD MSTORE DUP1 SWAP6 POP POP POP POP POP POP SWAP3 POP SWAP3 SWAP1 POP JUMP JUMPDEST PUSH4 0x4E487B71 PUSH1 0xE0 SHL PUSH1 0x0 MSTORE PUSH1 0x11 PUSH1 0x4 MSTORE PUSH1 0x24 PUSH1 0x0 REVERT JUMPDEST PUSH1 0x0 DUP2 PUSH2 0x2FC6 JUMPI PUSH2 0x2FC6 PUSH2 0x2FA1 JUMP JUMPDEST POP PUSH1 0x0 NOT ADD SWAP1 JUMP JUMPDEST PUSH1 0x0 PUSH1 0x0 NOT DUP3 EQ ISZERO PUSH2 0x2FE2 JUMPI PUSH2 0x2FE2 PUSH2 0x2FA1 JUMP JUMPDEST POP PUSH1 0x1 ADD SWAP1 JUMP JUMPDEST PUSH1 0x0 DUP3 DUP3 LT ISZERO PUSH2 0x2FFB JUMPI PUSH2 0x2FFB PUSH2 0x2FA1 JUMP JUMPDEST POP SUB SWAP1 JUMP JUMPDEST PUSH4 0x4E487B71 PUSH1 0xE0 SHL PUSH1 0x0 MSTORE PUSH1 0x32 PUSH1 0x4 MSTORE PUSH1 0x24 PUSH1 0x0 REVERT JUMPDEST PUSH4 0x4E487B71 PUSH1 0xE0 SHL PUSH1 0x0 MSTORE PUSH1 0x12 PUSH1 0x4 MSTORE PUSH1 0x24 PUSH1 0x0 REVERT JUMPDEST PUSH1 0x0 DUP3 PUSH2 0x303B JUMPI PUSH2 0x303B PUSH2 0x3016 JUMP JUMPDEST POP DIV SWAP1 JUMP JUMPDEST PUSH1 0x1 DUP2 DUP2 SHR SWAP1 DUP3 AND DUP1 PUSH2 0x3054 JUMPI PUSH1 0x7F DUP3 AND SWAP2 POP JUMPDEST PUSH1 0x20 DUP3 LT DUP2 EQ ISZERO PUSH2 0x3075 JUMPI PUSH4 0x4E487B71 PUSH1 0xE0 SHL PUSH1 0x0 MSTORE PUSH1 0x22 PUSH1 0x4 MSTORE PUSH1 0x24 PUSH1 0x0 REVERT JUMPDEST POP SWAP2 SWAP1 POP JUMP JUMPDEST PUSH1 0x0 DUP3 NOT DUP3 GT ISZERO PUSH2 0x308E JUMPI PUSH2 0x308E PUSH2 0x2FA1 JUMP JUMPDEST POP ADD SWAP1 JUMP JUMPDEST PUSH1 0x0 DUP3 PUSH2 0x30A2 JUMPI PUSH2 0x30A2 PUSH2 0x3016 JUMP JUMPDEST POP MOD SWAP1 JUMP JUMPDEST PUSH4 0x4E487B71 PUSH1 0xE0 SHL PUSH1 0x0 MSTORE PUSH1 0x31 PUSH1 0x4 MSTORE PUSH1 0x24 PUSH1 0x0 REVERT INVALID LOG2 PUSH5 0x6970667358 0x22 SLT KECCAK256 0xD6 0x22 0xC0 0xEC MSIZE 0xD SWAP6 DELEGATECALL OR SWAP5 0xCA SWAP3 0xAE 0xBC 0xBE 0x4C 0xD7 0xB2 EXTCODESIZE 0xEE GASPRICE 0xBF 0xC SSTORE 0xB5 POP SWAP4 SIGNEXTEND 0x4C MULMOD GASLIMIT SWAP10 PUSH5 0x736F6C6343 STOP ADDMOD ADDMOD STOP CALLER "},"gasEstimates":{"creation":{"codeDepositCost":"2506200","executionCost":"infinite","totalCost":"infinite"},"external":{"ApprovedProsumers(uint256)":"17547","DisApproveProsumer_OwnerSpecific(uint256)":"infinite","approvalCount(address)":"2576","approveProsumer_OwnerSpecific(uint256)":"infinite","approved(address,address)":"infinite","complainCount()":"2373","complains(uint256)":"infinite","disapprovalCount(address)":"2575","disapproved(address,address)":"infinite","getTrustedForwarder()":"2376","isOwner(address)":"2644","isProsumer(address)":"2641","isTrustedForwarder(address)":"2604","maxComplains()":"2374","owners(uint256)":"4683","prosumerAddress(uint256)":"2545","prosumerID(address)":"2555","raiseComplain(uint256,string)":"infinite","regFee()":"2374","req_Registration(uint256)":"infinite","required()":"2351","setRegFee(uint256)":"26840","showApprovalStatus_OwnerSpecific(address)":"infinite","show_Approved_Prosumers()":"infinite","show_Unapproved_Prosumers()":"infinite","suspendProsumer(uint256,uint256)":"infinite","suspended(address,address)":"infinite","suspensionCount(address)":"2620","transferOwnership(address)":"infinite","unApprovedProsumers(uint256)":"17569","unSuspendProsumer(uint256,uint256)":"infinite","unSuspended(address,address)":"infinite","unSuspensionCount(address)":"2599","versionRecipient()":"infinite","withdrawFees()":"infinite"},"internal":{"deleteElementFrom_UnApprovedProsumers(uint256)":"infinite","isRequested()":"infinite"}},"methodIdentifiers":{"ApprovedProsumers(uint256)":"4ef8ab77","DisApproveProsumer_OwnerSpecific(uint256)":"4ca46d19","approvalCount(address)":"9a9ddd16","approveProsumer_OwnerSpecific(uint256)":"c7a7275e","approved(address,address)":"f4b16045","complainCount()":"73de8ce8","complains(uint256)":"4ea30b2f","disapprovalCount(address)":"66cc771f","disapproved(address,address)":"f85bae78","getTrustedForwarder()":"ce1b815f","isOwner(address)":"2f54bf6e","isProsumer(address)":"fdbd2e8b","isTrustedForwarder(address)":"572b6c05","maxComplains()":"50a7ac25","owners(uint256)":"025e7c27","prosumerAddress(uint256)":"8fac6371","prosumerID(address)":"001cfdce","raiseComplain(uint256,string)":"c8b6ba49","regFee()":"8fff20f3","req_Registration(uint256)":"9ff34115","required()":"dc8452cd","setRegFee(uint256)":"e814db59","showApprovalStatus_OwnerSpecific(address)":"7b78bc6b","show_Approved_Prosumers()":"612536fc","show_Unapproved_Prosumers()":"e706d568","suspendProsumer(uint256,uint256)":"e7e4f9d9","suspended(address,address)":"5f81b606","suspensionCount(address)":"90f8ba3c","transferOwnership(address)":"f2fde38b","unApprovedProsumers(uint256)":"9c01a6df","unSuspendProsumer(uint256,uint256)":"40cb3342","unSuspended(address,address)":"75ae81b3","unSuspensionCount(address)":"143859eb","versionRecipient()":"486ff0cd","withdrawFees()":"476343ee"}},"storageLayout":{"storage":[{"astId":451,"contract":"contracts/MultiSig.sol:MultiSig","label":"_trustedForwarder","offset":0,"slot":"0","type":"t_address"},{"astId":3782,"contract":"contracts/MultiSig.sol:MultiSig","label":"required","offset":0,"slot":"1","type":"t_uint256"},{"astId":3784,"contract":"contracts/MultiSig.sol:MultiSig","label":"regFee","offset":0,"slot":"2","type":"t_uint256"},{"astId":3787,"contract":"contracts/MultiSig.sol:MultiSig","label":"owners","offset":0,"slot":"3","type":"t_array(t_address)dyn_storage"},{"astId":3791,"contract":"contracts/MultiSig.sol:MultiSig","label":"isOwner","offset":0,"slot":"4","type":"t_mapping(t_address,t_bool)"},{"astId":3797,"contract":"contracts/MultiSig.sol:MultiSig","label":"approved","offset":0,"slot":"5","type":"t_mapping(t_address,t_mapping(t_address,t_bool))"},{"astId":3803,"contract":"contracts/MultiSig.sol:MultiSig","label":"disapproved","offset":0,"slot":"6","type":"t_mapping(t_address,t_mapping(t_address,t_bool))"},{"astId":3809,"contract":"contracts/MultiSig.sol:MultiSig","label":"suspended","offset":0,"slot":"7","type":"t_mapping(t_address,t_mapping(t_address,t_bool))"},{"astId":3815,"contract":"contracts/MultiSig.sol:MultiSig","label":"unSuspended","offset":0,"slot":"8","type":"t_mapping(t_address,t_mapping(t_address,t_bool))"},{"astId":3836,"contract":"contracts/MultiSig.sol:MultiSig","label":"ApprovedProsumers","offset":0,"slot":"9","type":"t_array(t_struct(prosumer)3832_storage)dyn_storage"},{"astId":3840,"contract":"contracts/MultiSig.sol:MultiSig","label":"unApprovedProsumers","offset":0,"slot":"10","type":"t_array(t_struct(prosumer)3832_storage)dyn_storage"},{"astId":3844,"contract":"contracts/MultiSig.sol:MultiSig","label":"isProsumer","offset":0,"slot":"11","type":"t_mapping(t_address,t_bool)"},{"astId":3848,"contract":"contracts/MultiSig.sol:MultiSig","label":"prosumerAddress","offset":0,"slot":"12","type":"t_mapping(t_uint256,t_address)"},{"astId":3852,"contract":"contracts/MultiSig.sol:MultiSig","label":"prosumerID","offset":0,"slot":"13","type":"t_mapping(t_address,t_uint256)"},{"astId":3856,"contract":"contracts/MultiSig.sol:MultiSig","label":"approvalCount","offset":0,"slot":"14","type":"t_mapping(t_address,t_uint256)"},{"astId":3860,"contract":"contracts/MultiSig.sol:MultiSig","label":"disapprovalCount","offset":0,"slot":"15","type":"t_mapping(t_address,t_uint256)"},{"astId":3864,"contract":"contracts/MultiSig.sol:MultiSig","label":"suspensionCount","offset":0,"slot":"16","type":"t_mapping(t_address,t_uint256)"},{"astId":3868,"contract":"contracts/MultiSig.sol:MultiSig","label":"unSuspensionCount","offset":0,"slot":"17","type":"t_mapping(t_address,t_uint256)"},{"astId":3881,"contract":"contracts/MultiSig.sol:MultiSig","label":"complainCount","offset":0,"slot":"18","type":"t_uint256"},{"astId":3884,"contract":"contracts/MultiSig.sol:MultiSig","label":"maxComplains","offset":0,"slot":"19","type":"t_uint256"},{"astId":3888,"contract":"contracts/MultiSig.sol:MultiSig","label":"complains","offset":0,"slot":"20","type":"t_array(t_struct(Complain)3879_storage)dyn_storage"},{"astId":3978,"contract":"contracts/MultiSig.sol:MultiSig","label":"versionRecipient","offset":0,"slot":"21","type":"t_string_storage"}],"types":{"t_address":{"encoding":"inplace","label":"address","numberOfBytes":"20"},"t_array(t_address)dyn_storage":{"base":"t_address","encoding":"dynamic_array","label":"address[]","numberOfBytes":"32"},"t_array(t_struct(Complain)3879_storage)dyn_storage":{"base":"t_struct(Complain)3879_storage","encoding":"dynamic_array","label":"struct MultiSig.Complain[]","numberOfBytes":"32"},"t_array(t_struct(prosumer)3832_storage)dyn_storage":{"base":"t_struct(prosumer)3832_storage","encoding":"dynamic_array","label":"struct MultiSig.prosumer[]","numberOfBytes":"32"},"t_bool":{"encoding":"inplace","label":"bool","numberOfBytes":"1"},"t_mapping(t_address,t_bool)":{"encoding":"mapping","key":"t_address","label":"mapping(address => bool)","numberOfBytes":"32","value":"t_bool"},"t_mapping(t_address,t_mapping(t_address,t_bool))":{"encoding":"mapping","key":"t_address","label":"mapping(address => mapping(address => bool))","numberOfBytes":"32","value":"t_mapping(t_address,t_bool)"},"t_mapping(t_address,t_uint256)":{"encoding":"mapping","key":"t_address","label":"mapping(address => uint256)","numberOfBytes":"32","value":"t_uint256"},"t_mapping(t_uint256,t_address)":{"encoding":"mapping","key":"t_uint256","label":"mapping(uint256 => address)","numberOfBytes":"32","value":"t_address"},"t_string_storage":{"encoding":"bytes","label":"string","numberOfBytes":"32"},"t_struct(Complain)3879_storage":{"encoding":"inplace","label":"struct MultiSig.Complain","members":[{"astId":3870,"contract":"contracts/MultiSig.sol:MultiSig","label":"_complainID","offset":0,"slot":"0","type":"t_uint256"},{"astId":3872,"contract":"contracts/MultiSig.sol:MultiSig","label":"_complainant","offset":0,"slot":"1","type":"t_uint256"},{"astId":3874,"contract":"contracts/MultiSig.sol:MultiSig","label":"_accused","offset":0,"slot":"2","type":"t_uint256"},{"astId":3876,"contract":"contracts/MultiSig.sol:MultiSig","label":"_complain","offset":0,"slot":"3","type":"t_string_storage"},{"astId":3878,"contract":"contracts/MultiSig.sol:MultiSig","label":"_resolved","offset":0,"slot":"4","type":"t_bool"}],"numberOfBytes":"160"},"t_struct(prosumer)3832_storage":{"encoding":"inplace","label":"struct MultiSig.prosumer","members":[{"astId":3817,"contract":"contracts/MultiSig.sol:MultiSig","label":"_prosumerID","offset":0,"slot":"0","type":"t_uint256"},{"astId":3819,"contract":"contracts/MultiSig.sol:MultiSig","label":"_address","offset":0,"slot":"1","type":"t_address"},{"astId":3821,"contract":"contracts/MultiSig.sol:MultiSig","label":"_aadharId","offset":0,"slot":"2","type":"t_uint256"},{"astId":3823,"contract":"contracts/MultiSig.sol:MultiSig","label":"_approved","offset":0,"slot":"3","type":"t_bool"},{"astId":3825,"contract":"contracts/MultiSig.sol:MultiSig","label":"_suspended","offset":1,"slot":"3","type":"t_bool"},{"astId":3827,"contract":"contracts/MultiSig.sol:MultiSig","label":"_energyUnitPriceUSD","offset":0,"slot":"4","type":"t_uint256"},{"astId":3829,"contract":"contracts/MultiSig.sol:MultiSig","label":"_energyUnitPriceMatic","offset":0,"slot":"5","type":"t_uint256"},{"astId":3831,"contract":"contracts/MultiSig.sol:MultiSig","label":"_stakedEnergyBalance","offset":0,"slot":"6","type":"t_uint256"}],"numberOfBytes":"224"},"t_uint256":{"encoding":"inplace","label":"uint256","numberOfBytes":"32"}}},"userdoc":{"kind":"user","methods":{"getTrustedForwarder()":{"notice":":warning: **Warning** :warning: The Forwarder can have a full control over your Recipient. Only trust verified Forwarder.Method is not a required method to allow Recipients to trust multiple Forwarders. Not recommended yet."},"isTrustedForwarder(address)":{"notice":":warning: **Warning** :warning: The Forwarder can have a full control over your Recipient. Only trust verified Forwarder."}},"version":1}}}}